{
  "contractName": "Group",
  "abi": [
    {
      "constant": true,
      "inputs": [],
      "name": "numberOfMember",
      "outputs": [
        {
          "name": "",
          "type": "uint256"
        }
      ],
      "payable": false,
      "stateMutability": "view",
      "type": "function"
    },
    {
      "inputs": [
        {
          "name": "_gId",
          "type": "uint256"
        },
        {
          "name": "_groupName",
          "type": "string"
        },
        {
          "name": "_numberOfMember",
          "type": "uint256"
        }
      ],
      "payable": false,
      "stateMutability": "nonpayable",
      "type": "constructor"
    },
    {
      "constant": false,
      "inputs": [
        {
          "name": "_gId",
          "type": "uint256"
        }
      ],
      "name": "setId",
      "outputs": [],
      "payable": false,
      "stateMutability": "nonpayable",
      "type": "function"
    },
    {
      "constant": true,
      "inputs": [],
      "name": "getId",
      "outputs": [
        {
          "name": "",
          "type": "uint256"
        }
      ],
      "payable": false,
      "stateMutability": "view",
      "type": "function"
    },
    {
      "constant": false,
      "inputs": [
        {
          "name": "_groupName",
          "type": "string"
        }
      ],
      "name": "setGroupName",
      "outputs": [],
      "payable": false,
      "stateMutability": "nonpayable",
      "type": "function"
    },
    {
      "constant": true,
      "inputs": [],
      "name": "getGroupName",
      "outputs": [
        {
          "name": "",
          "type": "string"
        }
      ],
      "payable": false,
      "stateMutability": "view",
      "type": "function"
    },
    {
      "constant": false,
      "inputs": [
        {
          "name": "_numberOfMember",
          "type": "uint256"
        }
      ],
      "name": "setNumberOfMember",
      "outputs": [],
      "payable": false,
      "stateMutability": "nonpayable",
      "type": "function"
    },
    {
      "constant": true,
      "inputs": [],
      "name": "getNumberOfMember",
      "outputs": [
        {
          "name": "",
          "type": "uint256"
        }
      ],
      "payable": false,
      "stateMutability": "view",
      "type": "function"
    }
  ],
  "bytecode": "0x608060405234801561001057600080fd5b5060405161060f38038061060f8339810180604052606081101561003357600080fd5b8101908080519060200190929190805164010000000081111561005557600080fd5b8281019050602081018481111561006b57600080fd5b815185600182028301116401000000008211171561008857600080fd5b5050929190602001805190602001909291905050508260008190555081600190805190602001906100ba9291906100ca565b508060028190555050505061016f565b828054600181600116156101000203166002900490600052602060002090601f016020900481019282601f1061010b57805160ff1916838001178555610139565b82800160010185558215610139579182015b8281111561013857825182559160200191906001019061011d565b5b509050610146919061014a565b5090565b61016c91905b80821115610168576000816000905550600101610150565b5090565b90565b6104918061017e6000396000f3fe608060405260043610610083576000357c0100000000000000000000000000000000000000000000000000000000900463ffffffff1680630ff12b5314610088578063344a65261461015057806341f1aaa21461017b5780634aabb2f2146101a65780635d1ca631146101e1578063843c608d1461020c578063d0e0ba951461029c575b600080fd5b34801561009457600080fd5b5061014e600480360360208110156100ab57600080fd5b81019080803590602001906401000000008111156100c857600080fd5b8201836020820111156100da57600080fd5b803590602001918460018302840111640100000000831117156100fc57600080fd5b91908080601f016020809104026020016040519081016040528093929190818152602001838380828437600081840152601f19601f8201169050808301925050505050505091929192905050506102d7565b005b34801561015c57600080fd5b506101656102f1565b6040518082815260200191505060405180910390f35b34801561018757600080fd5b506101906102f7565b6040518082815260200191505060405180910390f35b3480156101b257600080fd5b506101df600480360360208110156101c957600080fd5b8101908080359060200190929190505050610301565b005b3480156101ed57600080fd5b506101f661030b565b6040518082815260200191505060405180910390f35b34801561021857600080fd5b50610221610314565b6040518080602001828103825283818151815260200191508051906020019080838360005b83811015610261578082015181840152602081019050610246565b50505050905090810190601f16801561028e5780820380516001836020036101000a031916815260200191505b509250505060405180910390f35b3480156102a857600080fd5b506102d5600480360360208110156102bf57600080fd5b81019080803590602001909291905050506103b6565b005b80600190805190602001906102ed9291906103c0565b5050565b60025481565b6000600254905090565b8060028190555050565b60008054905090565b606060018054600181600116156101000203166002900480601f0160208091040260200160405190810160405280929190818152602001828054600181600116156101000203166002900480156103ac5780601f10610381576101008083540402835291602001916103ac565b820191906000526020600020905b81548152906001019060200180831161038f57829003601f168201915b5050505050905090565b8060008190555050565b828054600181600116156101000203166002900490600052602060002090601f016020900481019282601f1061040157805160ff191683800117855561042f565b8280016001018555821561042f579182015b8281111561042e578251825591602001919060010190610413565b5b50905061043c9190610440565b5090565b61046291905b8082111561045e576000816000905550600101610446565b5090565b9056fea165627a7a723058208da45494b348549cd3eb0cd6436354ecbbfab9fa2ecede928b04b943da5289e30029",
  "source": "pragma solidity ^0.5.0;\r\n\r\ncontract Group{\r\n\r\n    uint gId;\r\n    string private groupName;\r\n    uint public numberOfMember;\r\n\r\n    constructor(uint _gId, string memory _groupName, uint _numberOfMember) public{\r\n        gId = _gId;\r\n        groupName = _groupName;\r\n        numberOfMember = _numberOfMember;\r\n    }\r\n\r\n    function setId(uint _gId) public {\r\n        gId = _gId;\r\n    }\r\n\r\n    function getId() public view returns(uint) {\r\n        return gId;\r\n    }\r\n\r\n    function setGroupName(string memory _groupName) public{\r\n        groupName = _groupName;\r\n    }\r\n\r\n    function getGroupName() view public returns(string memory){\r\n        return groupName;\r\n    }\r\n\r\n    function setNumberOfMember(uint _numberOfMember) public{\r\n        numberOfMember =_numberOfMember;\r\n    }\r\n\r\n    function getNumberOfMember() view public returns(uint){\r\n        return numberOfMember;\r\n    }\r\n\r\n\r\n}\r\n",
  "sourcePath": "C:\\Users\\Ho Tat Dat Nguyen\\Documents\\GitHub\\todo-list-react\\src\\contracts\\Group.sol",
  "compiler": {
    "name": "solc",
    "version": "0.5.0+commit.1d4f565a.Emscripten.clang"
  },
  "schemaVersion": "3.0.2",
  "updatedAt": "2020-09-10T17:42:06.478Z",
  "devdoc": {
    "methods": {}
  },
  "userdoc": {
    "methods": {}
  }
}