{
  "contractName": "Group",
  "abi": [
    {
      "constant": true,
      "inputs": [],
      "name": "numberOfMember",
      "outputs": [
        {
          "name": "",
          "type": "uint256"
        }
      ],
      "payable": false,
      "stateMutability": "view",
      "type": "function"
    },
    {
      "constant": true,
      "inputs": [],
      "name": "numberOfTask",
      "outputs": [
        {
          "name": "",
          "type": "uint256"
        }
      ],
      "payable": false,
      "stateMutability": "view",
      "type": "function"
    },
    {
      "inputs": [
        {
          "name": "_gId",
          "type": "uint256"
        },
        {
          "name": "_groupName",
          "type": "string"
        },
        {
          "name": "_numberOfMember",
          "type": "uint256"
        },
        {
          "name": "_numberOfTask",
          "type": "uint256"
        }
      ],
      "payable": false,
      "stateMutability": "nonpayable",
      "type": "constructor"
    },
    {
      "constant": false,
      "inputs": [
        {
          "name": "_gId",
          "type": "uint256"
        }
      ],
      "name": "setId",
      "outputs": [],
      "payable": false,
      "stateMutability": "nonpayable",
      "type": "function"
    },
    {
      "constant": true,
      "inputs": [],
      "name": "getId",
      "outputs": [
        {
          "name": "",
          "type": "uint256"
        }
      ],
      "payable": false,
      "stateMutability": "view",
      "type": "function"
    },
    {
      "constant": false,
      "inputs": [
        {
          "name": "_groupName",
          "type": "string"
        }
      ],
      "name": "setGroupName",
      "outputs": [],
      "payable": false,
      "stateMutability": "nonpayable",
      "type": "function"
    },
    {
      "constant": true,
      "inputs": [],
      "name": "getGroupName",
      "outputs": [
        {
          "name": "",
          "type": "string"
        }
      ],
      "payable": false,
      "stateMutability": "view",
      "type": "function"
    },
    {
      "constant": false,
      "inputs": [
        {
          "name": "_numberOfMember",
          "type": "uint256"
        }
      ],
      "name": "setNumberOfMember",
      "outputs": [],
      "payable": false,
      "stateMutability": "nonpayable",
      "type": "function"
    },
    {
      "constant": true,
      "inputs": [],
      "name": "getNumberOfMember",
      "outputs": [
        {
          "name": "",
          "type": "uint256"
        }
      ],
      "payable": false,
      "stateMutability": "view",
      "type": "function"
    },
    {
      "constant": false,
      "inputs": [
        {
          "name": "_numberOfTask",
          "type": "uint256"
        }
      ],
      "name": "setNumberOfTask",
      "outputs": [],
      "payable": false,
      "stateMutability": "nonpayable",
      "type": "function"
    },
    {
      "constant": true,
      "inputs": [],
      "name": "getNumberOfTask",
      "outputs": [
        {
          "name": "",
          "type": "uint256"
        }
      ],
      "payable": false,
      "stateMutability": "view",
      "type": "function"
    },
    {
      "constant": true,
      "inputs": [],
      "name": "getGroupAddress",
      "outputs": [
        {
          "name": "",
          "type": "address"
        }
      ],
      "payable": false,
      "stateMutability": "view",
      "type": "function"
    }
  ],
  "bytecode": "0x608060405234801561001057600080fd5b506040516107573803806107578339810180604052608081101561003357600080fd5b8101908080519060200190929190805164010000000081111561005557600080fd5b8281019050602081018481111561006b57600080fd5b815185600182028301116401000000008211171561008857600080fd5b505092919060200180519060200190929190805190602001909291905050508360008190555082600190805190602001906100c49291906100dc565b50816002819055508060038190555050505050610181565b828054600181600116156101000203166002900490600052602060002090601f016020900481019282601f1061011d57805160ff191683800117855561014b565b8280016001018555821561014b579182015b8281111561014a57825182559160200191906001019061012f565b5b509050610158919061015c565b5090565b61017e91905b8082111561017a576000816000905550600101610162565b5090565b90565b6105c7806101906000396000f3fe6080604052600436106100af576000357c0100000000000000000000000000000000000000000000000000000000900463ffffffff16806308e2db46146100b45780630ff12b531461010b578063344a6526146101d357806341f1aaa2146101fe5780634aabb2f2146102295780635d1ca63114610264578063843c608d1461028f578063a0da31c51461031f578063d0485ec21461034a578063d0e0ba9514610385578063fc8d0374146103c0575b600080fd5b3480156100c057600080fd5b506100c96103eb565b604051808273ffffffffffffffffffffffffffffffffffffffff1673ffffffffffffffffffffffffffffffffffffffff16815260200191505060405180910390f35b34801561011757600080fd5b506101d16004803603602081101561012e57600080fd5b810190808035906020019064010000000081111561014b57600080fd5b82018360208201111561015d57600080fd5b8035906020019184600183028401116401000000008311171561017f57600080fd5b91908080601f016020809104026020016040519081016040528093929190818152602001838380828437600081840152601f19601f8201169050808301925050505050505091929192905050506103f3565b005b3480156101df57600080fd5b506101e861040d565b6040518082815260200191505060405180910390f35b34801561020a57600080fd5b50610213610413565b6040518082815260200191505060405180910390f35b34801561023557600080fd5b506102626004803603602081101561024c57600080fd5b810190808035906020019092919050505061041d565b005b34801561027057600080fd5b50610279610427565b6040518082815260200191505060405180910390f35b34801561029b57600080fd5b506102a4610430565b6040518080602001828103825283818151815260200191508051906020019080838360005b838110156102e45780820151818401526020810190506102c9565b50505050905090810190601f1680156103115780820380516001836020036101000a031916815260200191505b509250505060405180910390f35b34801561032b57600080fd5b506103346104d2565b6040518082815260200191505060405180910390f35b34801561035657600080fd5b506103836004803603602081101561036d57600080fd5b81019080803590602001909291905050506104dc565b005b34801561039157600080fd5b506103be600480360360208110156103a857600080fd5b81019080803590602001909291905050506104e6565b005b3480156103cc57600080fd5b506103d56104f0565b6040518082815260200191505060405180910390f35b600030905090565b80600190805190602001906104099291906104f6565b5050565b60025481565b6000600254905090565b8060028190555050565b60008054905090565b606060018054600181600116156101000203166002900480601f0160208091040260200160405190810160405280929190818152602001828054600181600116156101000203166002900480156104c85780601f1061049d576101008083540402835291602001916104c8565b820191906000526020600020905b8154815290600101906020018083116104ab57829003601f168201915b5050505050905090565b6000600354905090565b8060038190555050565b8060008190555050565b60035481565b828054600181600116156101000203166002900490600052602060002090601f016020900481019282601f1061053757805160ff1916838001178555610565565b82800160010185558215610565579182015b82811115610564578251825591602001919060010190610549565b5b5090506105729190610576565b5090565b61059891905b8082111561059457600081600090555060010161057c565b5090565b9056fea165627a7a723058201a308efce61994572dbb363e53d4d40193b868fe9472afdd8b3f3d9df2e5dd330029",
  "source": "pragma solidity ^0.5.0;\r\n\r\ncontract Group{\r\n\r\n    uint gId;\r\n    string private groupName;\r\n    uint public numberOfMember;\r\n    uint public numberOfTask;\r\n\r\n    constructor(uint _gId, string memory _groupName, uint _numberOfMember, uint _numberOfTask) public{\r\n        gId = _gId;\r\n        groupName = _groupName;\r\n        numberOfMember = _numberOfMember;\r\n        numberOfTask = _numberOfTask;\r\n    }\r\n\r\n    function setId(uint _gId) public {\r\n        gId = _gId;\r\n    }\r\n\r\n    function getId() public view returns(uint) {\r\n        return gId;\r\n    }\r\n\r\n    function setGroupName(string memory _groupName) public{\r\n        groupName = _groupName;\r\n    }\r\n\r\n    function getGroupName() view public returns(string memory){\r\n        return groupName;\r\n    }\r\n\r\n    function setNumberOfMember(uint _numberOfMember) public{\r\n        numberOfMember =_numberOfMember;\r\n    }\r\n\r\n    function getNumberOfMember() view public returns(uint){\r\n        return numberOfMember;\r\n    }\r\n\r\n    function setNumberOfTask(uint _numberOfTask) public{\r\n        numberOfTask =_numberOfTask;\r\n    }\r\n\r\n    function getNumberOfTask() view public returns(uint){\r\n        return numberOfTask;\r\n    }\r\n\r\n    function getGroupAddress() view public returns(address){\r\n        return address(this);\r\n    }\r\n\r\n\r\n}\r\n",
  "sourcePath": "C:\\Users\\Ho Tat Dat Nguyen\\Documents\\GitHub\\todo-list-react\\src\\contracts\\Group.sol",
  "compiler": {
    "name": "solc",
    "version": "0.5.0+commit.1d4f565a.Emscripten.clang"
  },
  "schemaVersion": "3.0.2",
  "updatedAt": "2020-09-13T16:06:08.326Z",
  "devdoc": {
    "methods": {}
  },
  "userdoc": {
    "methods": {}
  }
}