{
  "contractName": "GroupCrud",
  "abi": [
    {
      "constant": true,
      "inputs": [],
      "name": "groupCount",
      "outputs": [
        {
          "name": "",
          "type": "uint256"
        }
      ],
      "payable": false,
      "stateMutability": "view",
      "type": "function",
      "signature": "0x8f23b326"
    },
    {
      "constant": true,
      "inputs": [
        {
          "name": "",
          "type": "uint256"
        }
      ],
      "name": "groups",
      "outputs": [
        {
          "name": "",
          "type": "address"
        }
      ],
      "payable": false,
      "stateMutability": "view",
      "type": "function",
      "signature": "0x96324bd4"
    },
    {
      "constant": true,
      "inputs": [
        {
          "name": "",
          "type": "uint256"
        },
        {
          "name": "",
          "type": "uint256"
        }
      ],
      "name": "groupMembers",
      "outputs": [
        {
          "name": "",
          "type": "address"
        }
      ],
      "payable": false,
      "stateMutability": "view",
      "type": "function",
      "signature": "0xc6f6a749"
    },
    {
      "inputs": [],
      "payable": false,
      "stateMutability": "nonpayable",
      "type": "constructor",
      "signature": "constructor"
    },
    {
      "anonymous": false,
      "inputs": [
        {
          "indexed": false,
          "name": "gId",
          "type": "uint256"
        },
        {
          "indexed": false,
          "name": "groupName",
          "type": "string"
        },
        {
          "indexed": false,
          "name": "numberOfMember",
          "type": "uint256"
        }
      ],
      "name": "groupCreated",
      "type": "event",
      "signature": "0x5a4cb050eccf02bf37e471d3aa62b798b4cc9509350c138d9a834d491fa56a89"
    },
    {
      "constant": false,
      "inputs": [
        {
          "name": "_groupName",
          "type": "string"
        }
      ],
      "name": "createGroup",
      "outputs": [],
      "payable": false,
      "stateMutability": "nonpayable",
      "type": "function",
      "signature": "0xdc2ddcae"
    },
    {
      "constant": true,
      "inputs": [],
      "name": "getGroups",
      "outputs": [
        {
          "name": "",
          "type": "uint256[]"
        },
        {
          "name": "",
          "type": "string[]"
        }
      ],
      "payable": false,
      "stateMutability": "view",
      "type": "function",
      "signature": "0xc72b5176"
    },
    {
      "constant": false,
      "inputs": [
        {
          "name": "_gID",
          "type": "uint256"
        },
        {
          "name": "_userID",
          "type": "uint256"
        },
        {
          "name": "_userName",
          "type": "string"
        },
        {
          "name": "_userAddress",
          "type": "address"
        }
      ],
      "name": "addMember",
      "outputs": [],
      "payable": false,
      "stateMutability": "nonpayable",
      "type": "function",
      "signature": "0x76a845fa"
    },
    {
      "constant": true,
      "inputs": [
        {
          "name": "_gID",
          "type": "uint256"
        }
      ],
      "name": "getMembers",
      "outputs": [
        {
          "name": "",
          "type": "uint256[]"
        }
      ],
      "payable": false,
      "stateMutability": "view",
      "type": "function",
      "signature": "0xc477ecab"
    }
  ],
  "bytecode": "0x60806040523480156200001157600080fd5b5060008081905550620000686040805190810160405280600d81526020017f44656661756c742067726f7570000000000000000000000000000000000000008152506200006e640100000000026401000000009004565b62000284565b600081511115156200007f57600080fd5b6000548160006200008f62000161565b6200009d93929190620001d0565b604051809103906000f080158015620000ba573d6000803e3d6000fd5b50600160008054815260200190815260200160002060006101000a81548173ffffffffffffffffffffffffffffffffffffffff021916908373ffffffffffffffffffffffffffffffffffffffff16021790555060008081548092919060010191905055507f5a4cb050eccf02bf37e471d3aa62b798b4cc9509350c138d9a834d491fa56a896000548260006040516200015693929190620001d0565b60405180910390a150565b6040516105d3806200242183390190565b6200017d8162000229565b82525050565b6000620001908262000214565b808452620001a68160208601602086016200023d565b620001b18162000273565b602085010191505092915050565b620001ca816200021f565b82525050565b6000606082019050620001e76000830186620001bf565b8181036020830152620001fb818562000183565b90506200020c604083018462000172565b949350505050565b600081519050919050565b6000819050919050565b600062000236826200021f565b9050919050565b60005b838110156200025d57808201518184015260208101905062000240565b838111156200026d576000848401525b50505050565b6000601f19601f8301169050919050565b61218d80620002946000396000f3fe6080604052600436106200008b576000357c0100000000000000000000000000000000000000000000000000000000900463ffffffff16806376a845fa14620000905780638f23b32614620000be57806396324bd414620000ee578063c477ecab1462000132578063c6f6a7491462000176578063c72b517614620001ba578063dc2ddcae14620001eb575b600080fd5b3480156200009d57600080fd5b50620000bc6004803603620000b6919081019062000ccc565b62000219565b005b348015620000cb57600080fd5b50620000d662000479565b604051620000e5919062000fcb565b60405180910390f35b348015620000fb57600080fd5b506200011a600480360362000114919081019062000c33565b6200047f565b60405162000129919062000f91565b60405180910390f35b3480156200013f57600080fd5b506200015e600480360362000158919081019062000c33565b620004b2565b6040516200016d919062000f32565b60405180910390f35b3480156200018357600080fd5b50620001a260048036036200019c919081019062000c8b565b620006f2565b604051620001b1919062000fae565b60405180910390f35b348015620001c757600080fd5b50620001d262000740565b604051620001e292919062000f56565b60405180910390f35b348015620001f857600080fd5b5062000217600480360362000211919081019062000ba9565b62000996565b005b600054841015156200022a57600080fd5b600260008581526020019081526020016000208383836200024a62000a89565b620002589392919062000fe8565b604051809103906000f08015801562000275573d6000803e3d6000fd5b5090806001815401808255809150509060018203906000526020600020016000909192909190916101000a81548173ffffffffffffffffffffffffffffffffffffffff021916908373ffffffffffffffffffffffffffffffffffffffff1602179055505060006001600086815260200190815260200160002060009054906101000a900473ffffffffffffffffffffffffffffffffffffffff1673ffffffffffffffffffffffffffffffffffffffff166341f1aaa26040518163ffffffff167c010000000000000000000000000000000000000000000000000000000002815260040160206040518083038186803b1580156200037157600080fd5b505afa15801562000386573d6000803e3d6000fd5b505050506040513d601f19601f82011682018060405250620003ac919081019062000c5f565b90506001600086815260200190815260200160002060009054906101000a900473ffffffffffffffffffffffffffffffffffffffff1673ffffffffffffffffffffffffffffffffffffffff16634aabb2f2828060010193506040518263ffffffff167c01000000000000000000000000000000000000000000000000000000000281526004016200043e919062000fcb565b600060405180830381600087803b1580156200045957600080fd5b505af11580156200046e573d6000803e3d6000fd5b505050505050505050565b60005481565b60016020528060005260406000206000915054906101000a900473ffffffffffffffffffffffffffffffffffffffff1681565b606060006001600084815260200190815260200160002060009054906101000a900473ffffffffffffffffffffffffffffffffffffffff1673ffffffffffffffffffffffffffffffffffffffff166341f1aaa26040518163ffffffff167c010000000000000000000000000000000000000000000000000000000002815260040160206040518083038186803b1580156200054c57600080fd5b505afa15801562000561573d6000803e3d6000fd5b505050506040513d601f19601f8201168201806040525062000587919081019062000c5f565b9050606081604051908082528060200260200182016040528015620005bb5781602001602082028038833980820191505090505b50905060008090505b82811015620006e75760006002600087815260200190815260200160002082815481101515620005f057fe5b9060005260206000200160009054906101000a900473ffffffffffffffffffffffffffffffffffffffff1690508073ffffffffffffffffffffffffffffffffffffffff16635d1ca6316040518163ffffffff167c010000000000000000000000000000000000000000000000000000000002815260040160206040518083038186803b1580156200068057600080fd5b505afa15801562000695573d6000803e3d6000fd5b505050506040513d601f19601f82011682018060405250620006bb919081019062000c5f565b8383815181101515620006ca57fe5b9060200190602002018181525050508080600101915050620005c4565b508092505050919050565b6002602052816000526040600020818154811015156200070e57fe5b906000526020600020016000915091509054906101000a900473ffffffffffffffffffffffffffffffffffffffff1681565b6060806060600054604051908082528060200260200182016040528015620007775781602001602082028038833980820191505090505b5090506060600054604051908082528060200260200182016040528015620007b457816020015b60608152602001906001900390816200079e5790505b50905060008090505b600054811015620009895760006001600083815260200190815260200160002060009054906101000a900473ffffffffffffffffffffffffffffffffffffffff1690508073ffffffffffffffffffffffffffffffffffffffff16635d1ca6316040518163ffffffff167c010000000000000000000000000000000000000000000000000000000002815260040160206040518083038186803b1580156200086357600080fd5b505afa15801562000878573d6000803e3d6000fd5b505050506040513d601f19601f820116820180604052506200089e919081019062000c5f565b8483815181101515620008ad57fe5b90602001906020020181815250508073ffffffffffffffffffffffffffffffffffffffff1663843c608d6040518163ffffffff167c010000000000000000000000000000000000000000000000000000000002815260040160006040518083038186803b1580156200091e57600080fd5b505afa15801562000933573d6000803e3d6000fd5b505050506040513d6000823e3d601f19601f820116820180604052506200095e919081019062000bee565b83838151811015156200096d57fe5b90602001906020020181905250508080600101915050620007bd565b5081819350935050509091565b60008151111515620009a757600080fd5b600054816000620009b762000a9a565b620009c59392919062001041565b604051809103906000f080158015620009e2573d6000803e3d6000fd5b50600160008054815260200190815260200160002060006101000a81548173ffffffffffffffffffffffffffffffffffffffff021916908373ffffffffffffffffffffffffffffffffffffffff16021790555060008081548092919060010191905055507f5a4cb050eccf02bf37e471d3aa62b798b4cc9509350c138d9a834d491fa56a8960005482600060405162000a7e9392919062001041565b60405180910390a150565b60405161092a806200125783390190565b6040516105d38062001b8183390190565b600062000ab982356200117e565b905092915050565b600082601f830112151562000ad557600080fd5b813562000aec62000ae682620010b3565b62001085565b9150808252602083016020830185838301111562000b0957600080fd5b62000b1683828462001200565b50505092915050565b600082601f830112151562000b3357600080fd5b815162000b4a62000b4482620010b3565b62001085565b9150808252602083016020830185838301111562000b6757600080fd5b62000b748382846200120f565b50505092915050565b600062000b8b823562001192565b905092915050565b600062000ba1825162001192565b905092915050565b60006020828403121562000bbc57600080fd5b600082013567ffffffffffffffff81111562000bd757600080fd5b62000be58482850162000ac1565b91505092915050565b60006020828403121562000c0157600080fd5b600082015167ffffffffffffffff81111562000c1c57600080fd5b62000c2a8482850162000b1f565b91505092915050565b60006020828403121562000c4657600080fd5b600062000c568482850162000b7d565b91505092915050565b60006020828403121562000c7257600080fd5b600062000c828482850162000b93565b91505092915050565b6000806040838503121562000c9f57600080fd5b600062000caf8582860162000b7d565b925050602062000cc28582860162000b7d565b9150509250929050565b6000806000806080858703121562000ce357600080fd5b600062000cf38782880162000b7d565b945050602062000d068782880162000b7d565b935050604085013567ffffffffffffffff81111562000d2457600080fd5b62000d328782880162000ac1565b925050606062000d458782880162000aab565b91505092959194509250565b62000d5c8162001140565b82525050565b600062000d6f82620010fa565b8084526020840193508360208202850162000d8a85620010e0565b60005b8481101562000dc957838303885262000da883835162000eae565b925062000db58262001126565b915060208801975060018101905062000d8d565b508196508694505050505092915050565b600062000de78262001105565b80845260208401935062000dfb83620010ed565b60005b8281101562000e335762000e1486835162000f21565b62000e1f8262001133565b915060208601955060018101905062000dfe565b50849250505092915050565b62000e4a816200119c565b82525050565b62000e5b81620011c4565b82525050565b62000e6c81620011ec565b82525050565b600062000e7f826200111b565b80845262000e958160208601602086016200120f565b62000ea08162001245565b602085010191505092915050565b600062000ebb8262001110565b80845262000ed18160208601602086016200120f565b62000edc8162001245565b602085010191505092915050565b6000600482527f55736572000000000000000000000000000000000000000000000000000000006020830152604082019050919050565b62000f2c8162001174565b82525050565b6000602082019050818103600083015262000f4e818462000dda565b905092915050565b6000604082019050818103600083015262000f72818562000dda565b9050818103602083015262000f88818462000d62565b90509392505050565b600060208201905062000fa8600083018462000e3f565b92915050565b600060208201905062000fc5600083018462000e50565b92915050565b600060208201905062000fe2600083018462000f21565b92915050565b600060808201905062000fff600083018662000f21565b818103602083015262001013818562000e72565b905062001024604083018462000d51565b8181036060830152620010378162000eea565b9050949350505050565b600060608201905062001058600083018662000f21565b81810360208301526200106c818562000e72565b90506200107d604083018462000e61565b949350505050565b6000604051905081810181811067ffffffffffffffff82111715620010a957600080fd5b8060405250919050565b600067ffffffffffffffff821115620010cb57600080fd5b601f19601f8301169050602081019050919050565b6000602082019050919050565b6000602082019050919050565b600081519050919050565b600081519050919050565b600081519050919050565b600081519050919050565b6000602082019050919050565b6000602082019050919050565b60006200114d8262001154565b9050919050565b600073ffffffffffffffffffffffffffffffffffffffff82169050919050565b6000819050919050565b60006200118b8262001154565b9050919050565b6000819050919050565b6000620011a982620011b0565b9050919050565b6000620011bd8262001154565b9050919050565b6000620011d182620011d8565b9050919050565b6000620011e58262001154565b9050919050565b6000620011f98262001174565b9050919050565b82818337600083830152505050565b60005b838110156200122f57808201518184015260208101905062001212565b838111156200123f576000848401525b50505050565b6000601f19601f830116905091905056fe608060405260405161092a38038061092a8339810180604052608081101561002657600080fd5b8101908080519060200190929190805164010000000081111561004857600080fd5b8281019050602081018481111561005e57600080fd5b815185600182028301116401000000008211171561007b57600080fd5b50509291906020018051906020019092919080516401000000008111156100a157600080fd5b828101905060208101848111156100b757600080fd5b81518560018202830111640100000000821117156100d457600080fd5b50509291905050508360008190555082600190805190602001906100f992919061015b565b5081600260006101000a81548173ffffffffffffffffffffffffffffffffffffffff021916908373ffffffffffffffffffffffffffffffffffffffff160217905550806003908051906020019061015192919061015b565b5050505050610200565b828054600181600116156101000203166002900490600052602060002090601f016020900481019282601f1061019c57805160ff19168380011785556101ca565b828001600101855582156101ca579182015b828111156101c95782518255916020019190600101906101ae565b5b5090506101d791906101db565b5090565b6101fd91905b808211156101f95760008160009055506001016101e1565b5090565b90565b61071b8061020f6000396000f3fe60806040526004361061008e576000357c0100000000000000000000000000000000000000000000000000000000900463ffffffff1680630aa564341461009357806312958f1c146100e45780632b5914fe146101745780635d1ca6311461023c578063ac80446714610267578063bf04a10d1461032f578063d0e0ba95146103bf578063ebc3eee8146103fa575b600080fd5b34801561009f57600080fd5b506100e2600480360360208110156100b657600080fd5b81019080803573ffffffffffffffffffffffffffffffffffffffff169060200190929190505050610451565b005b3480156100f057600080fd5b506100f9610495565b6040518080602001828103825283818151815260200191508051906020019080838360005b8381101561013957808201518184015260208101905061011e565b50505050905090810190601f1680156101665780820380516001836020036101000a031916815260200191505b509250505060405180910390f35b34801561018057600080fd5b5061023a6004803603602081101561019757600080fd5b81019080803590602001906401000000008111156101b457600080fd5b8201836020820111156101c657600080fd5b803590602001918460018302840111640100000000831117156101e857600080fd5b91908080601f016020809104026020016040519081016040528093929190818152602001838380828437600081840152601f19601f820116905080830192505050505050509192919290505050610537565b005b34801561024857600080fd5b50610251610551565b6040518082815260200191505060405180910390f35b34801561027357600080fd5b5061032d6004803603602081101561028a57600080fd5b81019080803590602001906401000000008111156102a757600080fd5b8201836020820111156102b957600080fd5b803590602001918460018302840111640100000000831117156102db57600080fd5b91908080601f016020809104026020016040519081016040528093929190818152602001838380828437600081840152601f19601f82011690508083019250505050505050919291929050505061055a565b005b34801561033b57600080fd5b50610344610574565b6040518080602001828103825283818151815260200191508051906020019080838360005b83811015610384578082015181840152602081019050610369565b50505050905090810190601f1680156103b15780820380516001836020036101000a031916815260200191505b509250505060405180910390f35b3480156103cb57600080fd5b506103f8600480360360208110156103e257600080fd5b8101908080359060200190929190505050610616565b005b34801561040657600080fd5b5061040f610620565b604051808273ffffffffffffffffffffffffffffffffffffffff1673ffffffffffffffffffffffffffffffffffffffff16815260200191505060405180910390f35b80600260006101000a81548173ffffffffffffffffffffffffffffffffffffffff021916908373ffffffffffffffffffffffffffffffffffffffff16021790555050565b606060018054600181600116156101000203166002900480601f01602080910402602001604051908101604052809291908181526020018280546001816001161561010002031660029004801561052d5780601f106105025761010080835404028352916020019161052d565b820191906000526020600020905b81548152906001019060200180831161051057829003601f168201915b5050505050905090565b806001908051906020019061054d92919061064a565b5050565b60008054905090565b806003908051906020019061057092919061064a565b5050565b606060038054600181600116156101000203166002900480601f01602080910402602001604051908101604052809291908181526020018280546001816001161561010002031660029004801561060c5780601f106105e15761010080835404028352916020019161060c565b820191906000526020600020905b8154815290600101906020018083116105ef57829003601f168201915b5050505050905090565b8060008190555050565b6000600260009054906101000a900473ffffffffffffffffffffffffffffffffffffffff16905090565b828054600181600116156101000203166002900490600052602060002090601f016020900481019282601f1061068b57805160ff19168380011785556106b9565b828001600101855582156106b9579182015b828111156106b857825182559160200191906001019061069d565b5b5090506106c691906106ca565b5090565b6106ec91905b808211156106e85760008160009055506001016106d0565b5090565b9056fea165627a7a72305820e7239516f3245b5840f7e5dc27b618c64cdabcd2b39f36d9d52bfef2b95304950029608060405234801561001057600080fd5b506040516105d33803806105d38339810180604052606081101561003357600080fd5b8101908080519060200190929190805164010000000081111561005557600080fd5b8281019050602081018481111561006b57600080fd5b815185600182028301116401000000008211171561008857600080fd5b5050929190602001805190602001909291905050508260008190555081600190805190602001906100ba9291906100ca565b508060028190555050505061016f565b828054600181600116156101000203166002900490600052602060002090601f016020900481019282601f1061010b57805160ff1916838001178555610139565b82800160010185558215610139579182015b8281111561013857825182559160200191906001019061011d565b5b509050610146919061014a565b5090565b61016c91905b80821115610168576000816000905550600101610150565b5090565b90565b6104558061017e6000396000f3fe608060405260043610610078576000357c0100000000000000000000000000000000000000000000000000000000900463ffffffff1680630ff12b531461007d57806341f1aaa2146101455780634aabb2f2146101705780635d1ca631146101ab578063843c608d146101d6578063d0e0ba9514610266575b600080fd5b34801561008957600080fd5b50610143600480360360208110156100a057600080fd5b81019080803590602001906401000000008111156100bd57600080fd5b8201836020820111156100cf57600080fd5b803590602001918460018302840111640100000000831117156100f157600080fd5b91908080601f016020809104026020016040519081016040528093929190818152602001838380828437600081840152601f19601f8201169050808301925050505050505091929192905050506102a1565b005b34801561015157600080fd5b5061015a6102bb565b6040518082815260200191505060405180910390f35b34801561017c57600080fd5b506101a96004803603602081101561019357600080fd5b81019080803590602001909291905050506102c5565b005b3480156101b757600080fd5b506101c06102cf565b6040518082815260200191505060405180910390f35b3480156101e257600080fd5b506101eb6102d8565b6040518080602001828103825283818151815260200191508051906020019080838360005b8381101561022b578082015181840152602081019050610210565b50505050905090810190601f1680156102585780820380516001836020036101000a031916815260200191505b509250505060405180910390f35b34801561027257600080fd5b5061029f6004803603602081101561028957600080fd5b810190808035906020019092919050505061037a565b005b80600190805190602001906102b7929190610384565b5050565b6000600254905090565b8060028190555050565b60008054905090565b606060018054600181600116156101000203166002900480601f0160208091040260200160405190810160405280929190818152602001828054600181600116156101000203166002900480156103705780601f1061034557610100808354040283529160200191610370565b820191906000526020600020905b81548152906001019060200180831161035357829003601f168201915b5050505050905090565b8060008190555050565b828054600181600116156101000203166002900490600052602060002090601f016020900481019282601f106103c557805160ff19168380011785556103f3565b828001600101855582156103f3579182015b828111156103f25782518255916020019190600101906103d7565b5b5090506104009190610404565b5090565b61042691905b8082111561042257600081600090555060010161040a565b5090565b9056fea165627a7a72305820f94d78e2f745a1c3769650d43b97067393b9b477f20fbdbd43e1f43026d174e50029a265627a7a72305820e7b562c73ab29b4b50db8b1df4731b1d7cd2684ca6ef981a0f184e397feb49306c6578706572696d656e74616cf50037608060405234801561001057600080fd5b506040516105d33803806105d38339810180604052606081101561003357600080fd5b8101908080519060200190929190805164010000000081111561005557600080fd5b8281019050602081018481111561006b57600080fd5b815185600182028301116401000000008211171561008857600080fd5b5050929190602001805190602001909291905050508260008190555081600190805190602001906100ba9291906100ca565b508060028190555050505061016f565b828054600181600116156101000203166002900490600052602060002090601f016020900481019282601f1061010b57805160ff1916838001178555610139565b82800160010185558215610139579182015b8281111561013857825182559160200191906001019061011d565b5b509050610146919061014a565b5090565b61016c91905b80821115610168576000816000905550600101610150565b5090565b90565b6104558061017e6000396000f3fe608060405260043610610078576000357c0100000000000000000000000000000000000000000000000000000000900463ffffffff1680630ff12b531461007d57806341f1aaa2146101455780634aabb2f2146101705780635d1ca631146101ab578063843c608d146101d6578063d0e0ba9514610266575b600080fd5b34801561008957600080fd5b50610143600480360360208110156100a057600080fd5b81019080803590602001906401000000008111156100bd57600080fd5b8201836020820111156100cf57600080fd5b803590602001918460018302840111640100000000831117156100f157600080fd5b91908080601f016020809104026020016040519081016040528093929190818152602001838380828437600081840152601f19601f8201169050808301925050505050505091929192905050506102a1565b005b34801561015157600080fd5b5061015a6102bb565b6040518082815260200191505060405180910390f35b34801561017c57600080fd5b506101a96004803603602081101561019357600080fd5b81019080803590602001909291905050506102c5565b005b3480156101b757600080fd5b506101c06102cf565b6040518082815260200191505060405180910390f35b3480156101e257600080fd5b506101eb6102d8565b6040518080602001828103825283818151815260200191508051906020019080838360005b8381101561022b578082015181840152602081019050610210565b50505050905090810190601f1680156102585780820380516001836020036101000a031916815260200191505b509250505060405180910390f35b34801561027257600080fd5b5061029f6004803603602081101561028957600080fd5b810190808035906020019092919050505061037a565b005b80600190805190602001906102b7929190610384565b5050565b6000600254905090565b8060028190555050565b60008054905090565b606060018054600181600116156101000203166002900480601f0160208091040260200160405190810160405280929190818152602001828054600181600116156101000203166002900480156103705780601f1061034557610100808354040283529160200191610370565b820191906000526020600020905b81548152906001019060200180831161035357829003601f168201915b5050505050905090565b8060008190555050565b828054600181600116156101000203166002900490600052602060002090601f016020900481019282601f106103c557805160ff19168380011785556103f3565b828001600101855582156103f3579182015b828111156103f25782518255916020019190600101906103d7565b5b5090506104009190610404565b5090565b61042691905b8082111561042257600081600090555060010161040a565b5090565b9056fea165627a7a72305820f94d78e2f745a1c3769650d43b97067393b9b477f20fbdbd43e1f43026d174e50029",
  "source": "pragma solidity ^0.5.0;\r\npragma experimental ABIEncoderV2;\r\n\r\nimport \"./User.sol\";\r\nimport \"./Group.sol\";\r\n\r\n\r\ncontract GroupCrud {\r\n\r\n    uint public groupCount;\r\n    mapping(uint => Group) public groups;\r\n    mapping(uint => User[]) public groupMembers;\r\n\r\n\r\n    constructor() public {\r\n        groupCount = 0;\r\n        createGroup(\"Default group\");\r\n    }\r\n\r\n    event groupCreated(\r\n        uint gId,\r\n        string groupName,\r\n        uint numberOfMember\r\n    );\r\n\r\n\r\n    function createGroup(string memory _groupName) public {\r\n        // Require valid content\r\n        require(bytes(_groupName).length > 0);\r\n        groups[groupCount] = new Group(groupCount, _groupName,0);\r\n        groupCount ++;\r\n        emit groupCreated(groupCount, _groupName, 0);\r\n    }\r\n\r\n    function getGroups() view public returns(uint[] memory, string[] memory){\r\n\r\n        uint[] memory gids = new uint[](groupCount);\r\n        string[] memory groupNames = new string[](groupCount);\r\n\r\n        for(uint i = 0; i < groupCount; i++){\r\n            Group group = groups[i];\r\n            gids[i] = group.getId();\r\n            groupNames[i] = group.getGroupName();\r\n        }\r\n\r\n        return(gids, groupNames);\r\n    }\r\n\r\n    function addMember(uint _gID, uint _userID, string memory _userName, address payable _userAddress) public{\r\n        // Group ID must be existed\r\n        require(_gID < groupCount);\r\n        groupMembers[_gID].push(new User(_userID, _userName, _userAddress, \"User\"));\r\n\r\n        uint numOfMember = groups[_gID].getNumberOfMember();\r\n        groups[_gID].setNumberOfMember(numOfMember++);\r\n\r\n    }\r\n\r\n    function getMembers(uint _gID) view public returns(uint[] memory){\r\n\r\n        uint totalMember = groups[_gID].getNumberOfMember();\r\n\r\n        uint[] memory ids = new uint[](totalMember);\r\n\r\n        for (uint i = 0; i < totalMember; i++) {\r\n\r\n            User user = groupMembers[_gID][i];\r\n            ids[i] = user.getId();\r\n\r\n        }\r\n        return (ids);\r\n\r\n    }\r\n\r\n\r\n}\r\n\r\n",
  "sourcePath": "C:/Users/Ho Tat Dat Nguyen/Documents/GitHub/todo-list-react/src/contracts/GroupCrud.sol",
  "compiler": {
    "name": "solc",
    "version": "0.5.0+commit.1d4f565a.Emscripten.clang"
  },
  "schemaVersion": "3.0.2",
  "updatedAt": "2020-09-09T16:46:20.669Z",
  "devdoc": {
    "methods": {}
  },
  "userdoc": {
    "methods": {}
  }
}