{
  "contractName": "Main",
  "abi": [
    {
      "constant": true,
      "inputs": [],
      "name": "userCount",
      "outputs": [
        {
          "name": "",
          "type": "uint256"
        }
      ],
      "payable": false,
      "stateMutability": "view",
      "type": "function",
      "signature": "0x07973ccf"
    },
    {
      "constant": true,
      "inputs": [
        {
          "name": "",
          "type": "uint256"
        }
      ],
      "name": "users",
      "outputs": [
        {
          "name": "",
          "type": "address"
        }
      ],
      "payable": false,
      "stateMutability": "view",
      "type": "function",
      "signature": "0x365b98b2"
    },
    {
      "constant": true,
      "inputs": [
        {
          "name": "",
          "type": "uint256"
        }
      ],
      "name": "tasks",
      "outputs": [
        {
          "name": "",
          "type": "address"
        }
      ],
      "payable": false,
      "stateMutability": "view",
      "type": "function",
      "signature": "0x8d977672"
    },
    {
      "constant": true,
      "inputs": [],
      "name": "groupCount",
      "outputs": [
        {
          "name": "",
          "type": "uint256"
        }
      ],
      "payable": false,
      "stateMutability": "view",
      "type": "function",
      "signature": "0x8f23b326"
    },
    {
      "constant": true,
      "inputs": [
        {
          "name": "",
          "type": "uint256"
        }
      ],
      "name": "groups",
      "outputs": [
        {
          "name": "",
          "type": "address"
        }
      ],
      "payable": false,
      "stateMutability": "view",
      "type": "function",
      "signature": "0x96324bd4"
    },
    {
      "constant": true,
      "inputs": [],
      "name": "taskCount",
      "outputs": [
        {
          "name": "",
          "type": "uint256"
        }
      ],
      "payable": false,
      "stateMutability": "view",
      "type": "function",
      "signature": "0xb6cb58a5"
    },
    {
      "constant": true,
      "inputs": [
        {
          "name": "",
          "type": "uint256"
        },
        {
          "name": "",
          "type": "uint256"
        }
      ],
      "name": "groupMembers",
      "outputs": [
        {
          "name": "",
          "type": "address"
        }
      ],
      "payable": false,
      "stateMutability": "view",
      "type": "function",
      "signature": "0xc6f6a749"
    },
    {
      "constant": true,
      "inputs": [
        {
          "name": "",
          "type": "uint256"
        }
      ],
      "name": "userGroup",
      "outputs": [
        {
          "name": "",
          "type": "address"
        }
      ],
      "payable": false,
      "stateMutability": "view",
      "type": "function",
      "signature": "0xdf4805c9"
    },
    {
      "inputs": [],
      "payable": false,
      "stateMutability": "nonpayable",
      "type": "constructor",
      "signature": "constructor"
    },
    {
      "anonymous": false,
      "inputs": [
        {
          "indexed": false,
          "name": "gId",
          "type": "uint256"
        },
        {
          "indexed": false,
          "name": "groupName",
          "type": "string"
        },
        {
          "indexed": false,
          "name": "numberOfMember",
          "type": "uint256"
        }
      ],
      "name": "groupCreated",
      "type": "event",
      "signature": "0x5a4cb050eccf02bf37e471d3aa62b798b4cc9509350c138d9a834d491fa56a89"
    },
    {
      "anonymous": false,
      "inputs": [
        {
          "indexed": false,
          "name": "id",
          "type": "uint256"
        },
        {
          "indexed": false,
          "name": "userName",
          "type": "string"
        },
        {
          "indexed": false,
          "name": "userAddress",
          "type": "address"
        },
        {
          "indexed": false,
          "name": "role",
          "type": "string"
        }
      ],
      "name": "UserCreated",
      "type": "event",
      "signature": "0xc49566d6afa47426fd599e36ed625a7a645b084dbd2c1236fe9ac365e91a71fb"
    },
    {
      "anonymous": false,
      "inputs": [
        {
          "indexed": false,
          "name": "id",
          "type": "uint256"
        },
        {
          "indexed": false,
          "name": "content",
          "type": "string"
        },
        {
          "indexed": false,
          "name": "completed",
          "type": "bool"
        },
        {
          "indexed": false,
          "name": "createdBy",
          "type": "address"
        },
        {
          "indexed": false,
          "name": "completedBy",
          "type": "address"
        }
      ],
      "name": "TaskCreated",
      "type": "event",
      "signature": "0x1269015a5d391f69cb0c62599881ba11774c45477e6931c2c00f8d949d7acad5"
    },
    {
      "constant": false,
      "inputs": [
        {
          "name": "_groupName",
          "type": "string"
        }
      ],
      "name": "createGroup",
      "outputs": [],
      "payable": false,
      "stateMutability": "nonpayable",
      "type": "function",
      "signature": "0xdc2ddcae"
    },
    {
      "constant": true,
      "inputs": [],
      "name": "getGroups",
      "outputs": [
        {
          "name": "",
          "type": "uint256[]"
        },
        {
          "name": "",
          "type": "string[]"
        }
      ],
      "payable": false,
      "stateMutability": "view",
      "type": "function",
      "signature": "0xc72b5176"
    },
    {
      "constant": true,
      "inputs": [
        {
          "name": "_id",
          "type": "uint256"
        }
      ],
      "name": "getGroupById",
      "outputs": [
        {
          "name": "groupName",
          "type": "string"
        },
        {
          "name": "numberOfMember",
          "type": "uint256"
        }
      ],
      "payable": false,
      "stateMutability": "view",
      "type": "function",
      "signature": "0x6cc29ea0"
    },
    {
      "constant": false,
      "inputs": [
        {
          "name": "_gID",
          "type": "uint256"
        },
        {
          "name": "_userID",
          "type": "uint256"
        }
      ],
      "name": "addMember",
      "outputs": [],
      "payable": false,
      "stateMutability": "nonpayable",
      "type": "function",
      "signature": "0x1783efc3"
    },
    {
      "constant": true,
      "inputs": [
        {
          "name": "_gID",
          "type": "uint256"
        }
      ],
      "name": "getMembers",
      "outputs": [
        {
          "name": "",
          "type": "uint256[]"
        }
      ],
      "payable": false,
      "stateMutability": "view",
      "type": "function",
      "signature": "0xc477ecab"
    },
    {
      "constant": false,
      "inputs": [
        {
          "name": "_userName",
          "type": "string"
        },
        {
          "name": "_userAddress",
          "type": "address"
        },
        {
          "name": "_role",
          "type": "string"
        }
      ],
      "name": "createUser",
      "outputs": [],
      "payable": false,
      "stateMutability": "nonpayable",
      "type": "function",
      "signature": "0xb17e8964"
    },
    {
      "constant": true,
      "inputs": [
        {
          "name": "_id",
          "type": "uint256"
        }
      ],
      "name": "getUserById",
      "outputs": [
        {
          "name": "userName",
          "type": "string"
        },
        {
          "name": "userAddress",
          "type": "address"
        }
      ],
      "payable": false,
      "stateMutability": "view",
      "type": "function",
      "signature": "0x6ed6da9e"
    },
    {
      "constant": true,
      "inputs": [
        {
          "name": "_userAddress",
          "type": "address"
        }
      ],
      "name": "getByAddress",
      "outputs": [
        {
          "name": "userName",
          "type": "string"
        },
        {
          "name": "userRole",
          "type": "string"
        }
      ],
      "payable": false,
      "stateMutability": "view",
      "type": "function",
      "signature": "0x30257bf7"
    },
    {
      "constant": false,
      "inputs": [
        {
          "name": "_id",
          "type": "uint256"
        },
        {
          "name": "_userName",
          "type": "string"
        }
      ],
      "name": "update",
      "outputs": [],
      "payable": false,
      "stateMutability": "nonpayable",
      "type": "function",
      "signature": "0xf745630f"
    },
    {
      "constant": false,
      "inputs": [
        {
          "name": "_content",
          "type": "string"
        }
      ],
      "name": "createTask",
      "outputs": [],
      "payable": false,
      "stateMutability": "nonpayable",
      "type": "function",
      "signature": "0x111002aa"
    },
    {
      "constant": true,
      "inputs": [
        {
          "name": "_tId",
          "type": "uint256"
        }
      ],
      "name": "getTaskById",
      "outputs": [
        {
          "name": "content",
          "type": "string"
        },
        {
          "name": "createdBy",
          "type": "address"
        },
        {
          "name": "completed",
          "type": "bool"
        },
        {
          "name": "completedBy",
          "type": "address"
        }
      ],
      "payable": false,
      "stateMutability": "view",
      "type": "function",
      "signature": "0x976217cd"
    }
  ],
  "bytecode": "0x60806040523480156200001157600080fd5b5060008081905550620000686040805190810160405280600d81526020017f47726f75702044656661756c74000000000000000000000000000000000000008152506200017a640100000000026401000000009004565b6000600381905550620000f66040805190810160405280600b81526020017f4d616e6167657230313233000000000000000000000000000000000000000000815250336040805190810160405280600781526020017f4d616e61676572000000000000000000000000000000000000000000000000008152506200026d640100000000026401000000009004565b600060068190555062000174606060405190810160405280602281526020017f46696e69736820796f757220746865736973206265666f726520326e64204f6381526020017f742e00000000000000000000000000000000000000000000000000000000000081525062000353640100000000026401000000009004565b62000748565b600081511115156200018b57600080fd5b6000548160006200019b62000452565b620001a99392919062000654565b604051809103906000f080158015620001c6573d6000803e3d6000fd5b50600160008054815260200190815260200160002060006101000a81548173ffffffffffffffffffffffffffffffffffffffff021916908373ffffffffffffffffffffffffffffffffffffffff16021790555060008081548092919060010191905055507f5a4cb050eccf02bf37e471d3aa62b798b4cc9509350c138d9a834d491fa56a89600054826000604051620002629392919062000654565b60405180910390a150565b6003548383836200027d62000463565b6200028c94939291906200053c565b604051809103906000f080158015620002a9573d6000803e3d6000fd5b5060046000600354815260200190815260200160002060006101000a81548173ffffffffffffffffffffffffffffffffffffffff021916908373ffffffffffffffffffffffffffffffffffffffff1602179055506003600081548092919060010191905055507fc49566d6afa47426fd599e36ed625a7a645b084dbd2c1236fe9ac365e91a71fb6003548484604051620003469392919062000597565b60405180910390a1505050565b600081511115156200036457600080fd5b6006548160003360006200037762000474565b62000387959493929190620005f0565b604051809103906000f080158015620003a4573d6000803e3d6000fd5b5060076000600654815260200190815260200160002060006101000a81548173ffffffffffffffffffffffffffffffffffffffff021916908373ffffffffffffffffffffffffffffffffffffffff1602179055506006600081548092919060010191905055507f1269015a5d391f69cb0c62599881ba11774c45477e6931c2c00f8d949d7acad560065482600033600060405162000447959493929190620005f0565b60405180910390a150565b60405161060f806200453783390190565b60405161092a8062004b4683390190565b6040516108ef806200547083390190565b6200049081620006a3565b82525050565b620004a181620006b7565b82525050565b620004b281620006ed565b82525050565b6000620004c58262000698565b808452620004db81602086016020860162000701565b620004e68162000737565b602085010191505092915050565b6000600482527f55736572000000000000000000000000000000000000000000000000000000006020830152604082019050919050565b6200053681620006e3565b82525050565b60006080820190506200055360008301876200052b565b8181036020830152620005678186620004b8565b905062000578604083018562000485565b81810360608301526200058c8184620004b8565b905095945050505050565b6000608082019050620005ae60008301866200052b565b8181036020830152620005c28185620004b8565b9050620005d3604083018462000485565b8181036060830152620005e681620004f4565b9050949350505050565b600060a0820190506200060760008301886200052b565b81810360208301526200061b8187620004b8565b90506200062c604083018662000496565b6200063b606083018562000485565b6200064a608083018462000485565b9695505050505050565b60006060820190506200066b60008301866200052b565b81810360208301526200067f8185620004b8565b9050620006906040830184620004a7565b949350505050565b600081519050919050565b6000620006b082620006c3565b9050919050565b60008115159050919050565b600073ffffffffffffffffffffffffffffffffffffffff82169050919050565b6000819050919050565b6000620006fa82620006e3565b9050919050565b60005b838110156200072157808201518184015260208101905062000704565b8381111562000731576000848401525b50505050565b6000601f19601f8301169050919050565b613ddf80620007586000396000f3fe6080604052600436106200011b576000357c0100000000000000000000000000000000000000000000000000000000900463ffffffff16806307973ccf1462000120578063111002aa14620001505780631783efc3146200017e57806330257bf714620001ac578063365b98b214620001f15780636cc29ea014620002355780636ed6da9e146200027a5780638d97767214620002bf5780638f23b326146200030357806396324bd41462000333578063976217cd1462000377578063b17e896414620003be578063b6cb58a514620003ec578063c477ecab146200041c578063c6f6a7491462000460578063c72b517614620004a4578063dc2ddcae14620004d5578063df4805c91462000503578063f745630f1462000547575b600080fd5b3480156200012d57600080fd5b506200013862000575565b604051620001479190620021f3565b60405180910390f35b3480156200015d57600080fd5b506200017c600480360362000176919081019062001c1a565b6200057b565b005b3480156200018b57600080fd5b50620001aa6004803603620001a4919081019062001dde565b6200067a565b005b348015620001b957600080fd5b50620001d86004803603620001d2919081019062001b96565b6200092a565b604051620001e892919062002184565b60405180910390f35b348015620001fe57600080fd5b506200021d600480360362000217919081019062001d2c565b62000bb3565b6040516200022c9190620020bb565b60405180910390f35b3480156200024257600080fd5b506200026160048036036200025b919081019062001d2c565b62000be6565b60405162000271929190620021bf565b60405180910390f35b3480156200028757600080fd5b50620002a66004803603620002a0919081019062001d2c565b62000d6c565b604051620002b6929190620020fc565b60405180910390f35b348015620002cc57600080fd5b50620002eb6004803603620002e5919081019062001d2c565b62000ef2565b604051620002fa91906200209e565b60405180910390f35b3480156200031057600080fd5b506200031b62000f25565b6040516200032a9190620021f3565b60405180910390f35b3480156200034057600080fd5b506200035f600480360362000359919081019062001d2c565b62000f2b565b6040516200036e919062002081565b60405180910390f35b3480156200038457600080fd5b50620003a360048036036200039d919081019062001d2c565b62000f5e565b604051620003b5949392919062002130565b60405180910390f35b348015620003cb57600080fd5b50620003ea6004803603620003e4919081019062001ca4565b62001229565b005b348015620003f957600080fd5b50620004046200130f565b604051620004139190620021f3565b60405180910390f35b3480156200042957600080fd5b5062000448600480360362000442919081019062001d2c565b62001315565b60405162000457919062002022565b60405180910390f35b3480156200046d57600080fd5b506200048c600480360362000486919081019062001dde565b62001555565b6040516200049b9190620020bb565b60405180910390f35b348015620004b157600080fd5b50620004bc620015a3565b604051620004cc92919062002046565b60405180910390f35b348015620004e257600080fd5b50620005016004803603620004fb919081019062001c1a565b620017f9565b005b3480156200051057600080fd5b506200052f600480360362000529919081019062001d2c565b620018ec565b6040516200053e919062002081565b60405180910390f35b3480156200055457600080fd5b506200057360048036036200056d919081019062001d84565b6200191f565b005b60035481565b600081511115156200058c57600080fd5b6006548160003360006200059f62001a39565b620005af959493929190620022c4565b604051809103906000f080158015620005cc573d6000803e3d6000fd5b5060076000600654815260200190815260200160002060006101000a81548173ffffffffffffffffffffffffffffffffffffffff021916908373ffffffffffffffffffffffffffffffffffffffff1602179055506006600081548092919060010191905055507f1269015a5d391f69cb0c62599881ba11774c45477e6931c2c00f8d949d7acad56006548260003360006040516200066f959493929190620022c4565b60405180910390a150565b600054821080156200068d575060035481105b15156200069957600080fd5b60606000620006a88362000d6c565b80925081935050506000838383620006bf62001a4a565b620006cd939291906200226b565b604051809103906000f080158015620006ea573d6000803e3d6000fd5b509050600260008681526020019081526020016000208190806001815401808255809150509060018203906000526020600020016000909192909190916101000a81548173ffffffffffffffffffffffffffffffffffffffff021916908373ffffffffffffffffffffffffffffffffffffffff1602179055505060006001600087815260200190815260200160002060009054906101000a900473ffffffffffffffffffffffffffffffffffffffff16905060008173ffffffffffffffffffffffffffffffffffffffff166341f1aaa26040518163ffffffff167c010000000000000000000000000000000000000000000000000000000002815260040160206040518083038186803b1580156200080157600080fd5b505afa15801562000816573d6000803e3d6000fd5b505050506040513d601f19601f820116820180604052506200083c919081019062001d58565b90508173ffffffffffffffffffffffffffffffffffffffff16634aabb2f2826001019250826040518263ffffffff167c01000000000000000000000000000000000000000000000000000000000281526004016200089b9190620021f3565b600060405180830381600087803b158015620008b657600080fd5b505af1158015620008cb573d6000803e3d6000fd5b50505050816001600089815260200190815260200160002060006101000a81548173ffffffffffffffffffffffffffffffffffffffff021916908373ffffffffffffffffffffffffffffffffffffffff16021790555050505050505050565b60608060608060008090505b60035481101562000ba55760006004600083815260200190815260200160002060009054906101000a900473ffffffffffffffffffffffffffffffffffffffff1690508673ffffffffffffffffffffffffffffffffffffffff168173ffffffffffffffffffffffffffffffffffffffff1663ebc3eee86040518163ffffffff167c010000000000000000000000000000000000000000000000000000000002815260040160206040518083038186803b158015620009f357600080fd5b505afa15801562000a08573d6000803e3d6000fd5b505050506040513d601f19601f8201168201806040525062000a2e919081019062001bc2565b73ffffffffffffffffffffffffffffffffffffffff16141562000b96578073ffffffffffffffffffffffffffffffffffffffff166312958f1c6040518163ffffffff167c010000000000000000000000000000000000000000000000000000000002815260040160006040518083038186803b15801562000aae57600080fd5b505afa15801562000ac3573d6000803e3d6000fd5b505050506040513d6000823e3d601f19601f8201168201806040525062000aee919081019062001c5f565b93508073ffffffffffffffffffffffffffffffffffffffff1663bf04a10d6040518163ffffffff167c010000000000000000000000000000000000000000000000000000000002815260040160006040518083038186803b15801562000b5357600080fd5b505afa15801562000b68573d6000803e3d6000fd5b505050506040513d6000823e3d601f19601f8201168201806040525062000b93919081019062001c5f565b92505b50808060010191505062000936565b508181935093505050915091565b60046020528060005260406000206000915054906101000a900473ffffffffffffffffffffffffffffffffffffffff1681565b60606000806001600085815260200190815260200160002060009054906101000a900473ffffffffffffffffffffffffffffffffffffffff1690508073ffffffffffffffffffffffffffffffffffffffff1663843c608d6040518163ffffffff167c010000000000000000000000000000000000000000000000000000000002815260040160006040518083038186803b15801562000c8457600080fd5b505afa15801562000c99573d6000803e3d6000fd5b505050506040513d6000823e3d601f19601f8201168201806040525062000cc4919081019062001c5f565b8173ffffffffffffffffffffffffffffffffffffffff166341f1aaa26040518163ffffffff167c010000000000000000000000000000000000000000000000000000000002815260040160206040518083038186803b15801562000d2757600080fd5b505afa15801562000d3c573d6000803e3d6000fd5b505050506040513d601f19601f8201168201806040525062000d62919081019062001d58565b9250925050915091565b60606000806004600085815260200190815260200160002060009054906101000a900473ffffffffffffffffffffffffffffffffffffffff1690508073ffffffffffffffffffffffffffffffffffffffff166312958f1c6040518163ffffffff167c010000000000000000000000000000000000000000000000000000000002815260040160006040518083038186803b15801562000e0a57600080fd5b505afa15801562000e1f573d6000803e3d6000fd5b505050506040513d6000823e3d601f19601f8201168201806040525062000e4a919081019062001c5f565b8173ffffffffffffffffffffffffffffffffffffffff1663ebc3eee86040518163ffffffff167c010000000000000000000000000000000000000000000000000000000002815260040160206040518083038186803b15801562000ead57600080fd5b505afa15801562000ec2573d6000803e3d6000fd5b505050506040513d601f19601f8201168201806040525062000ee8919081019062001bc2565b9250925050915091565b60076020528060005260406000206000915054906101000a900473ffffffffffffffffffffffffffffffffffffffff1681565b60005481565b60016020528060005260406000206000915054906101000a900473ffffffffffffffffffffffffffffffffffffffff1681565b60606000806000806007600087815260200190815260200160002060009054906101000a900473ffffffffffffffffffffffffffffffffffffffff1690508073ffffffffffffffffffffffffffffffffffffffff1663b631b3416040518163ffffffff167c010000000000000000000000000000000000000000000000000000000002815260040160006040518083038186803b15801562000fff57600080fd5b505afa15801562001014573d6000803e3d6000fd5b505050506040513d6000823e3d601f19601f820116820180604052506200103f919081019062001c5f565b8173ffffffffffffffffffffffffffffffffffffffff166375f961896040518163ffffffff167c010000000000000000000000000000000000000000000000000000000002815260040160206040518083038186803b158015620010a257600080fd5b505afa158015620010b7573d6000803e3d6000fd5b505050506040513d601f19601f82011682018060405250620010dd919081019062001bc2565b8273ffffffffffffffffffffffffffffffffffffffff16635b54f9826040518163ffffffff167c010000000000000000000000000000000000000000000000000000000002815260040160206040518083038186803b1580156200114057600080fd5b505afa15801562001155573d6000803e3d6000fd5b505050506040513d601f19601f820116820180604052506200117b919081019062001bee565b8373ffffffffffffffffffffffffffffffffffffffff166324e222db6040518163ffffffff167c010000000000000000000000000000000000000000000000000000000002815260040160206040518083038186803b158015620011de57600080fd5b505afa158015620011f3573d6000803e3d6000fd5b505050506040513d601f19601f8201168201806040525062001219919081019062001bc2565b9450945094509450509193509193565b6003548383836200123962001a4a565b62001248949392919062002210565b604051809103906000f08015801562001265573d6000803e3d6000fd5b5060046000600354815260200190815260200160002060006101000a81548173ffffffffffffffffffffffffffffffffffffffff021916908373ffffffffffffffffffffffffffffffffffffffff1602179055506003600081548092919060010191905055507fc49566d6afa47426fd599e36ed625a7a645b084dbd2c1236fe9ac365e91a71fb600354848460405162001302939291906200226b565b60405180910390a1505050565b60065481565b606060006001600084815260200190815260200160002060009054906101000a900473ffffffffffffffffffffffffffffffffffffffff1673ffffffffffffffffffffffffffffffffffffffff166341f1aaa26040518163ffffffff167c010000000000000000000000000000000000000000000000000000000002815260040160206040518083038186803b158015620013af57600080fd5b505afa158015620013c4573d6000803e3d6000fd5b505050506040513d601f19601f82011682018060405250620013ea919081019062001d58565b90506060816040519080825280602002602001820160405280156200141e5781602001602082028038833980820191505090505b50905060008090505b828110156200154a57600060026000878152602001908152602001600020828154811015156200145357fe5b9060005260206000200160009054906101000a900473ffffffffffffffffffffffffffffffffffffffff1690508073ffffffffffffffffffffffffffffffffffffffff16635d1ca6316040518163ffffffff167c010000000000000000000000000000000000000000000000000000000002815260040160206040518083038186803b158015620014e357600080fd5b505afa158015620014f8573d6000803e3d6000fd5b505050506040513d601f19601f820116820180604052506200151e919081019062001d58565b83838151811015156200152d57fe5b906020019060200201818152505050808060010191505062001427565b508092505050919050565b6002602052816000526040600020818154811015156200157157fe5b906000526020600020016000915091509054906101000a900473ffffffffffffffffffffffffffffffffffffffff1681565b6060806060600054604051908082528060200260200182016040528015620015da5781602001602082028038833980820191505090505b50905060606000546040519080825280602002602001820160405280156200161757816020015b6060815260200190600190039081620016015790505b50905060008090505b600054811015620017ec5760006001600083815260200190815260200160002060009054906101000a900473ffffffffffffffffffffffffffffffffffffffff1690508073ffffffffffffffffffffffffffffffffffffffff16635d1ca6316040518163ffffffff167c010000000000000000000000000000000000000000000000000000000002815260040160206040518083038186803b158015620016c657600080fd5b505afa158015620016db573d6000803e3d6000fd5b505050506040513d601f19601f8201168201806040525062001701919081019062001d58565b84838151811015156200171057fe5b90602001906020020181815250508073ffffffffffffffffffffffffffffffffffffffff1663843c608d6040518163ffffffff167c010000000000000000000000000000000000000000000000000000000002815260040160006040518083038186803b1580156200178157600080fd5b505afa15801562001796573d6000803e3d6000fd5b505050506040513d6000823e3d601f19601f82011682018060405250620017c1919081019062001c5f565b8383815181101515620017d057fe5b9060200190602002018190525050808060010191505062001620565b5081819350935050509091565b600081511115156200180a57600080fd5b6000548160006200181a62001a5b565b620018289392919062002328565b604051809103906000f08015801562001845573d6000803e3d6000fd5b50600160008054815260200190815260200160002060006101000a81548173ffffffffffffffffffffffffffffffffffffffff021916908373ffffffffffffffffffffffffffffffffffffffff16021790555060008081548092919060010191905055507f5a4cb050eccf02bf37e471d3aa62b798b4cc9509350c138d9a834d491fa56a89600054826000604051620018e19392919062002328565b60405180910390a150565b60056020528060005260406000206000915054906101000a900473ffffffffffffffffffffffffffffffffffffffff1681565b60006004600084815260200190815260200160002060009054906101000a900473ffffffffffffffffffffffffffffffffffffffff1690508073ffffffffffffffffffffffffffffffffffffffff16632b5914fe836040518263ffffffff167c0100000000000000000000000000000000000000000000000000000000028152600401620019ae9190620020d8565b600060405180830381600087803b158015620019c957600080fd5b505af1158015620019de573d6000803e3d6000fd5b50505050806004600085815260200190815260200160002060006101000a81548173ffffffffffffffffffffffffffffffffffffffff021916908373ffffffffffffffffffffffffffffffffffffffff160217905550505050565b6040516108ef806200257e83390190565b60405161092a8062002e6d83390190565b60405161060f806200379783390190565b600062001a7a823562002471565b905092915050565b600062001a90825162002471565b905092915050565b600062001aa6825162002485565b905092915050565b600082601f830112151562001ac257600080fd5b813562001ad962001ad3826200239a565b6200236c565b9150808252602083016020830185838301111562001af657600080fd5b62001b0383828462002527565b50505092915050565b600082601f830112151562001b2057600080fd5b815162001b3762001b31826200239a565b6200236c565b9150808252602083016020830185838301111562001b5457600080fd5b62001b6183828462002536565b50505092915050565b600062001b78823562002491565b905092915050565b600062001b8e825162002491565b905092915050565b60006020828403121562001ba957600080fd5b600062001bb98482850162001a6c565b91505092915050565b60006020828403121562001bd557600080fd5b600062001be58482850162001a82565b91505092915050565b60006020828403121562001c0157600080fd5b600062001c118482850162001a98565b91505092915050565b60006020828403121562001c2d57600080fd5b600082013567ffffffffffffffff81111562001c4857600080fd5b62001c568482850162001aae565b91505092915050565b60006020828403121562001c7257600080fd5b600082015167ffffffffffffffff81111562001c8d57600080fd5b62001c9b8482850162001b0c565b91505092915050565b60008060006060848603121562001cba57600080fd5b600084013567ffffffffffffffff81111562001cd557600080fd5b62001ce38682870162001aae565b935050602062001cf68682870162001a6c565b925050604084013567ffffffffffffffff81111562001d1457600080fd5b62001d228682870162001aae565b9150509250925092565b60006020828403121562001d3f57600080fd5b600062001d4f8482850162001b6a565b91505092915050565b60006020828403121562001d6b57600080fd5b600062001d7b8482850162001b80565b91505092915050565b6000806040838503121562001d9857600080fd5b600062001da88582860162001b6a565b925050602083013567ffffffffffffffff81111562001dc657600080fd5b62001dd48582860162001aae565b9150509250929050565b6000806040838503121562001df257600080fd5b600062001e028582860162001b6a565b925050602062001e158582860162001b6a565b9150509250929050565b62001e2a8162002427565b82525050565b600062001e3d82620023e1565b8084526020840193508360208202850162001e5885620023c7565b60005b8481101562001e9757838303885262001e7683835162001f9e565b925062001e83826200240d565b915060208801975060018101905062001e5b565b508196508694505050505092915050565b600062001eb582620023ec565b80845260208401935062001ec983620023d4565b60005b8281101562001f015762001ee286835162002011565b62001eed826200241a565b915060208601955060018101905062001ecc565b50849250505092915050565b62001f18816200243b565b82525050565b62001f29816200249b565b82525050565b62001f3a81620024c3565b82525050565b62001f4b81620024eb565b82525050565b62001f5c8162002513565b82525050565b600062001f6f8262002402565b80845262001f8581602086016020860162002536565b62001f90816200256c565b602085010191505092915050565b600062001fab82620023f7565b80845262001fc181602086016020860162002536565b62001fcc816200256c565b602085010191505092915050565b6000600482527f55736572000000000000000000000000000000000000000000000000000000006020830152604082019050919050565b6200201c8162002467565b82525050565b600060208201905081810360008301526200203e818462001ea8565b905092915050565b6000604082019050818103600083015262002062818562001ea8565b9050818103602083015262002078818462001e30565b90509392505050565b600060208201905062002098600083018462001f1e565b92915050565b6000602082019050620020b5600083018462001f2f565b92915050565b6000602082019050620020d2600083018462001f40565b92915050565b60006020820190508181036000830152620020f4818462001f62565b905092915050565b6000604082019050818103600083015262002118818562001f62565b905062002129602083018462001e1f565b9392505050565b600060808201905081810360008301526200214c818762001f62565b90506200215d602083018662001e1f565b6200216c604083018562001f0d565b6200217b606083018462001e1f565b95945050505050565b60006040820190508181036000830152620021a0818562001f62565b90508181036020830152620021b6818462001f62565b90509392505050565b60006040820190508181036000830152620021db818562001f62565b9050620021ec602083018462002011565b9392505050565b60006020820190506200220a600083018462002011565b92915050565b600060808201905062002227600083018762002011565b81810360208301526200223b818662001f62565b90506200224c604083018562001e1f565b818103606083015262002260818462001f62565b905095945050505050565b600060808201905062002282600083018662002011565b818103602083015262002296818562001f62565b9050620022a7604083018462001e1f565b8181036060830152620022ba8162001fda565b9050949350505050565b600060a082019050620022db600083018862002011565b8181036020830152620022ef818762001f62565b905062002300604083018662001f0d565b6200230f606083018562001e1f565b6200231e608083018462001e1f565b9695505050505050565b60006060820190506200233f600083018662002011565b818103602083015262002353818562001f62565b905062002364604083018462001f51565b949350505050565b6000604051905081810181811067ffffffffffffffff821117156200239057600080fd5b8060405250919050565b600067ffffffffffffffff821115620023b257600080fd5b601f19601f8301169050602081019050919050565b6000602082019050919050565b6000602082019050919050565b600081519050919050565b600081519050919050565b600081519050919050565b600081519050919050565b6000602082019050919050565b6000602082019050919050565b6000620024348262002447565b9050919050565b60008115159050919050565b600073ffffffffffffffffffffffffffffffffffffffff82169050919050565b6000819050919050565b60006200247e8262002447565b9050919050565b60008115159050919050565b6000819050919050565b6000620024a882620024af565b9050919050565b6000620024bc8262002447565b9050919050565b6000620024d082620024d7565b9050919050565b6000620024e48262002447565b9050919050565b6000620024f882620024ff565b9050919050565b60006200250c8262002447565b9050919050565b6000620025208262002467565b9050919050565b82818337600083830152505050565b60005b838110156200255657808201518184015260208101905062002539565b8381111562002566576000848401525b50505050565b6000601f19601f830116905091905056fe60806040526040516108ef3803806108ef833981018060405260a081101561002657600080fd5b8101908080519060200190929190805164010000000081111561004857600080fd5b8281019050602081018481111561005e57600080fd5b815185600182028301116401000000008211171561007b57600080fd5b50509291906020018051906020019092919080519060200190929190805190602001909291905050508460008190555083600190805190602001906100c1929190610168565b5082600260006101000a81548160ff02191690831515021790555081600260016101000a81548173ffffffffffffffffffffffffffffffffffffffff021916908373ffffffffffffffffffffffffffffffffffffffff16021790555080600360006101000a81548173ffffffffffffffffffffffffffffffffffffffff021916908373ffffffffffffffffffffffffffffffffffffffff160217905550505050505061020d565b828054600181600116156101000203166002900490600052602060002090601f016020900481019282601f106101a957805160ff19168380011785556101d7565b828001600101855582156101d7579182015b828111156101d65782518255916020019190600101906101bb565b5b5090506101e491906101e8565b5090565b61020a91905b808211156102065760008160009055506001016101ee565b5090565b90565b6106d38061021c6000396000f3fe6080604052600436106100a4576000357c0100000000000000000000000000000000000000000000000000000000900463ffffffff1680630c9391e5146100a957806313859688146100fa57806315c780101461012557806324e222db146101ed5780633c8e65db146102445780635b54f9821461029557806375f96189146102c4578063b631b3411461031b578063bc9b5162146103ab578063f51f4738146103e6575b600080fd5b3480156100b557600080fd5b506100f8600480360360208110156100cc57600080fd5b81019080803573ffffffffffffffffffffffffffffffffffffffff169060200190929190505050610423565b005b34801561010657600080fd5b5061010f610467565b6040518082815260200191505060405180910390f35b34801561013157600080fd5b506101eb6004803603602081101561014857600080fd5b810190808035906020019064010000000081111561016557600080fd5b82018360208201111561017757600080fd5b8035906020019184600183028401116401000000008311171561019957600080fd5b91908080601f016020809104026020016040519081016040528093929190818152602001838380828437600081840152601f19601f820116905080830192505050505050509192919290505050610470565b005b3480156101f957600080fd5b5061020261048a565b604051808273ffffffffffffffffffffffffffffffffffffffff1673ffffffffffffffffffffffffffffffffffffffff16815260200191505060405180910390f35b34801561025057600080fd5b506102936004803603602081101561026757600080fd5b81019080803573ffffffffffffffffffffffffffffffffffffffff1690602001909291905050506104b4565b005b3480156102a157600080fd5b506102aa6104f8565b604051808215151515815260200191505060405180910390f35b3480156102d057600080fd5b506102d961050f565b604051808273ffffffffffffffffffffffffffffffffffffffff1673ffffffffffffffffffffffffffffffffffffffff16815260200191505060405180910390f35b34801561032757600080fd5b50610330610539565b6040518080602001828103825283818151815260200191508051906020019080838360005b83811015610370578082015181840152602081019050610355565b50505050905090810190601f16801561039d5780820380516001836020036101000a031916815260200191505b509250505060405180910390f35b3480156103b757600080fd5b506103e4600480360360208110156103ce57600080fd5b81019080803590602001909291905050506105db565b005b3480156103f257600080fd5b506104216004803603602081101561040957600080fd5b810190808035151590602001909291905050506105e5565b005b80600260016101000a81548173ffffffffffffffffffffffffffffffffffffffff021916908373ffffffffffffffffffffffffffffffffffffffff16021790555050565b60008054905090565b8060019080519060200190610486929190610602565b5050565b6000600360009054906101000a900473ffffffffffffffffffffffffffffffffffffffff16905090565b80600360006101000a81548173ffffffffffffffffffffffffffffffffffffffff021916908373ffffffffffffffffffffffffffffffffffffffff16021790555050565b6000600260009054906101000a900460ff16905090565b6000600260019054906101000a900473ffffffffffffffffffffffffffffffffffffffff16905090565b606060018054600181600116156101000203166002900480601f0160208091040260200160405190810160405280929190818152602001828054600181600116156101000203166002900480156105d15780601f106105a6576101008083540402835291602001916105d1565b820191906000526020600020905b8154815290600101906020018083116105b457829003601f168201915b5050505050905090565b8060008190555050565b80600260006101000a81548160ff02191690831515021790555050565b828054600181600116156101000203166002900490600052602060002090601f016020900481019282601f1061064357805160ff1916838001178555610671565b82800160010185558215610671579182015b82811115610670578251825591602001919060010190610655565b5b50905061067e9190610682565b5090565b6106a491905b808211156106a0576000816000905550600101610688565b5090565b9056fea165627a7a7230582001e0726fb36fe50ea76b1a3ca759ed91c71a976cd473a6b97da08a2e829cf4cf0029608060405260405161092a38038061092a8339810180604052608081101561002657600080fd5b8101908080519060200190929190805164010000000081111561004857600080fd5b8281019050602081018481111561005e57600080fd5b815185600182028301116401000000008211171561007b57600080fd5b50509291906020018051906020019092919080516401000000008111156100a157600080fd5b828101905060208101848111156100b757600080fd5b81518560018202830111640100000000821117156100d457600080fd5b50509291905050508360008190555082600190805190602001906100f992919061015b565b5081600260006101000a81548173ffffffffffffffffffffffffffffffffffffffff021916908373ffffffffffffffffffffffffffffffffffffffff160217905550806003908051906020019061015192919061015b565b5050505050610200565b828054600181600116156101000203166002900490600052602060002090601f016020900481019282601f1061019c57805160ff19168380011785556101ca565b828001600101855582156101ca579182015b828111156101c95782518255916020019190600101906101ae565b5b5090506101d791906101db565b5090565b6101fd91905b808211156101f95760008160009055506001016101e1565b5090565b90565b61071b8061020f6000396000f3fe60806040526004361061008e576000357c0100000000000000000000000000000000000000000000000000000000900463ffffffff1680630aa564341461009357806312958f1c146100e45780632b5914fe146101745780635d1ca6311461023c578063ac80446714610267578063bf04a10d1461032f578063d0e0ba95146103bf578063ebc3eee8146103fa575b600080fd5b34801561009f57600080fd5b506100e2600480360360208110156100b657600080fd5b81019080803573ffffffffffffffffffffffffffffffffffffffff169060200190929190505050610451565b005b3480156100f057600080fd5b506100f9610495565b6040518080602001828103825283818151815260200191508051906020019080838360005b8381101561013957808201518184015260208101905061011e565b50505050905090810190601f1680156101665780820380516001836020036101000a031916815260200191505b509250505060405180910390f35b34801561018057600080fd5b5061023a6004803603602081101561019757600080fd5b81019080803590602001906401000000008111156101b457600080fd5b8201836020820111156101c657600080fd5b803590602001918460018302840111640100000000831117156101e857600080fd5b91908080601f016020809104026020016040519081016040528093929190818152602001838380828437600081840152601f19601f820116905080830192505050505050509192919290505050610537565b005b34801561024857600080fd5b50610251610551565b6040518082815260200191505060405180910390f35b34801561027357600080fd5b5061032d6004803603602081101561028a57600080fd5b81019080803590602001906401000000008111156102a757600080fd5b8201836020820111156102b957600080fd5b803590602001918460018302840111640100000000831117156102db57600080fd5b91908080601f016020809104026020016040519081016040528093929190818152602001838380828437600081840152601f19601f82011690508083019250505050505050919291929050505061055a565b005b34801561033b57600080fd5b50610344610574565b6040518080602001828103825283818151815260200191508051906020019080838360005b83811015610384578082015181840152602081019050610369565b50505050905090810190601f1680156103b15780820380516001836020036101000a031916815260200191505b509250505060405180910390f35b3480156103cb57600080fd5b506103f8600480360360208110156103e257600080fd5b8101908080359060200190929190505050610616565b005b34801561040657600080fd5b5061040f610620565b604051808273ffffffffffffffffffffffffffffffffffffffff1673ffffffffffffffffffffffffffffffffffffffff16815260200191505060405180910390f35b80600260006101000a81548173ffffffffffffffffffffffffffffffffffffffff021916908373ffffffffffffffffffffffffffffffffffffffff16021790555050565b606060018054600181600116156101000203166002900480601f01602080910402602001604051908101604052809291908181526020018280546001816001161561010002031660029004801561052d5780601f106105025761010080835404028352916020019161052d565b820191906000526020600020905b81548152906001019060200180831161051057829003601f168201915b5050505050905090565b806001908051906020019061054d92919061064a565b5050565b60008054905090565b806003908051906020019061057092919061064a565b5050565b606060038054600181600116156101000203166002900480601f01602080910402602001604051908101604052809291908181526020018280546001816001161561010002031660029004801561060c5780601f106105e15761010080835404028352916020019161060c565b820191906000526020600020905b8154815290600101906020018083116105ef57829003601f168201915b5050505050905090565b8060008190555050565b6000600260009054906101000a900473ffffffffffffffffffffffffffffffffffffffff16905090565b828054600181600116156101000203166002900490600052602060002090601f016020900481019282601f1061068b57805160ff19168380011785556106b9565b828001600101855582156106b9579182015b828111156106b857825182559160200191906001019061069d565b5b5090506106c691906106ca565b5090565b6106ec91905b808211156106e85760008160009055506001016106d0565b5090565b9056fea165627a7a72305820e7239516f3245b5840f7e5dc27b618c64cdabcd2b39f36d9d52bfef2b95304950029608060405234801561001057600080fd5b5060405161060f38038061060f8339810180604052606081101561003357600080fd5b8101908080519060200190929190805164010000000081111561005557600080fd5b8281019050602081018481111561006b57600080fd5b815185600182028301116401000000008211171561008857600080fd5b5050929190602001805190602001909291905050508260008190555081600190805190602001906100ba9291906100ca565b508060028190555050505061016f565b828054600181600116156101000203166002900490600052602060002090601f016020900481019282601f1061010b57805160ff1916838001178555610139565b82800160010185558215610139579182015b8281111561013857825182559160200191906001019061011d565b5b509050610146919061014a565b5090565b61016c91905b80821115610168576000816000905550600101610150565b5090565b90565b6104918061017e6000396000f3fe608060405260043610610083576000357c0100000000000000000000000000000000000000000000000000000000900463ffffffff1680630ff12b5314610088578063344a65261461015057806341f1aaa21461017b5780634aabb2f2146101a65780635d1ca631146101e1578063843c608d1461020c578063d0e0ba951461029c575b600080fd5b34801561009457600080fd5b5061014e600480360360208110156100ab57600080fd5b81019080803590602001906401000000008111156100c857600080fd5b8201836020820111156100da57600080fd5b803590602001918460018302840111640100000000831117156100fc57600080fd5b91908080601f016020809104026020016040519081016040528093929190818152602001838380828437600081840152601f19601f8201169050808301925050505050505091929192905050506102d7565b005b34801561015c57600080fd5b506101656102f1565b6040518082815260200191505060405180910390f35b34801561018757600080fd5b506101906102f7565b6040518082815260200191505060405180910390f35b3480156101b257600080fd5b506101df600480360360208110156101c957600080fd5b8101908080359060200190929190505050610301565b005b3480156101ed57600080fd5b506101f661030b565b6040518082815260200191505060405180910390f35b34801561021857600080fd5b50610221610314565b6040518080602001828103825283818151815260200191508051906020019080838360005b83811015610261578082015181840152602081019050610246565b50505050905090810190601f16801561028e5780820380516001836020036101000a031916815260200191505b509250505060405180910390f35b3480156102a857600080fd5b506102d5600480360360208110156102bf57600080fd5b81019080803590602001909291905050506103b6565b005b80600190805190602001906102ed9291906103c0565b5050565b60025481565b6000600254905090565b8060028190555050565b60008054905090565b606060018054600181600116156101000203166002900480601f0160208091040260200160405190810160405280929190818152602001828054600181600116156101000203166002900480156103ac5780601f10610381576101008083540402835291602001916103ac565b820191906000526020600020905b81548152906001019060200180831161038f57829003601f168201915b5050505050905090565b8060008190555050565b828054600181600116156101000203166002900490600052602060002090601f016020900481019282601f1061040157805160ff191683800117855561042f565b8280016001018555821561042f579182015b8281111561042e578251825591602001919060010190610413565b5b50905061043c9190610440565b5090565b61046291905b8082111561045e576000816000905550600101610446565b5090565b9056fea165627a7a723058208da45494b348549cd3eb0cd6436354ecbbfab9fa2ecede928b04b943da5289e30029a265627a7a723058201570c785ce9b2ee7c6878ef6d3248c88e73ff6c34ff2d6fd4b3cea855783b3416c6578706572696d656e74616cf50037608060405234801561001057600080fd5b5060405161060f38038061060f8339810180604052606081101561003357600080fd5b8101908080519060200190929190805164010000000081111561005557600080fd5b8281019050602081018481111561006b57600080fd5b815185600182028301116401000000008211171561008857600080fd5b5050929190602001805190602001909291905050508260008190555081600190805190602001906100ba9291906100ca565b508060028190555050505061016f565b828054600181600116156101000203166002900490600052602060002090601f016020900481019282601f1061010b57805160ff1916838001178555610139565b82800160010185558215610139579182015b8281111561013857825182559160200191906001019061011d565b5b509050610146919061014a565b5090565b61016c91905b80821115610168576000816000905550600101610150565b5090565b90565b6104918061017e6000396000f3fe608060405260043610610083576000357c0100000000000000000000000000000000000000000000000000000000900463ffffffff1680630ff12b5314610088578063344a65261461015057806341f1aaa21461017b5780634aabb2f2146101a65780635d1ca631146101e1578063843c608d1461020c578063d0e0ba951461029c575b600080fd5b34801561009457600080fd5b5061014e600480360360208110156100ab57600080fd5b81019080803590602001906401000000008111156100c857600080fd5b8201836020820111156100da57600080fd5b803590602001918460018302840111640100000000831117156100fc57600080fd5b91908080601f016020809104026020016040519081016040528093929190818152602001838380828437600081840152601f19601f8201169050808301925050505050505091929192905050506102d7565b005b34801561015c57600080fd5b506101656102f1565b6040518082815260200191505060405180910390f35b34801561018757600080fd5b506101906102f7565b6040518082815260200191505060405180910390f35b3480156101b257600080fd5b506101df600480360360208110156101c957600080fd5b8101908080359060200190929190505050610301565b005b3480156101ed57600080fd5b506101f661030b565b6040518082815260200191505060405180910390f35b34801561021857600080fd5b50610221610314565b6040518080602001828103825283818151815260200191508051906020019080838360005b83811015610261578082015181840152602081019050610246565b50505050905090810190601f16801561028e5780820380516001836020036101000a031916815260200191505b509250505060405180910390f35b3480156102a857600080fd5b506102d5600480360360208110156102bf57600080fd5b81019080803590602001909291905050506103b6565b005b80600190805190602001906102ed9291906103c0565b5050565b60025481565b6000600254905090565b8060028190555050565b60008054905090565b606060018054600181600116156101000203166002900480601f0160208091040260200160405190810160405280929190818152602001828054600181600116156101000203166002900480156103ac5780601f10610381576101008083540402835291602001916103ac565b820191906000526020600020905b81548152906001019060200180831161038f57829003601f168201915b5050505050905090565b8060008190555050565b828054600181600116156101000203166002900490600052602060002090601f016020900481019282601f1061040157805160ff191683800117855561042f565b8280016001018555821561042f579182015b8281111561042e578251825591602001919060010190610413565b5b50905061043c9190610440565b5090565b61046291905b8082111561045e576000816000905550600101610446565b5090565b9056fea165627a7a723058208da45494b348549cd3eb0cd6436354ecbbfab9fa2ecede928b04b943da5289e30029608060405260405161092a38038061092a8339810180604052608081101561002657600080fd5b8101908080519060200190929190805164010000000081111561004857600080fd5b8281019050602081018481111561005e57600080fd5b815185600182028301116401000000008211171561007b57600080fd5b50509291906020018051906020019092919080516401000000008111156100a157600080fd5b828101905060208101848111156100b757600080fd5b81518560018202830111640100000000821117156100d457600080fd5b50509291905050508360008190555082600190805190602001906100f992919061015b565b5081600260006101000a81548173ffffffffffffffffffffffffffffffffffffffff021916908373ffffffffffffffffffffffffffffffffffffffff160217905550806003908051906020019061015192919061015b565b5050505050610200565b828054600181600116156101000203166002900490600052602060002090601f016020900481019282601f1061019c57805160ff19168380011785556101ca565b828001600101855582156101ca579182015b828111156101c95782518255916020019190600101906101ae565b5b5090506101d791906101db565b5090565b6101fd91905b808211156101f95760008160009055506001016101e1565b5090565b90565b61071b8061020f6000396000f3fe60806040526004361061008e576000357c0100000000000000000000000000000000000000000000000000000000900463ffffffff1680630aa564341461009357806312958f1c146100e45780632b5914fe146101745780635d1ca6311461023c578063ac80446714610267578063bf04a10d1461032f578063d0e0ba95146103bf578063ebc3eee8146103fa575b600080fd5b34801561009f57600080fd5b506100e2600480360360208110156100b657600080fd5b81019080803573ffffffffffffffffffffffffffffffffffffffff169060200190929190505050610451565b005b3480156100f057600080fd5b506100f9610495565b6040518080602001828103825283818151815260200191508051906020019080838360005b8381101561013957808201518184015260208101905061011e565b50505050905090810190601f1680156101665780820380516001836020036101000a031916815260200191505b509250505060405180910390f35b34801561018057600080fd5b5061023a6004803603602081101561019757600080fd5b81019080803590602001906401000000008111156101b457600080fd5b8201836020820111156101c657600080fd5b803590602001918460018302840111640100000000831117156101e857600080fd5b91908080601f016020809104026020016040519081016040528093929190818152602001838380828437600081840152601f19601f820116905080830192505050505050509192919290505050610537565b005b34801561024857600080fd5b50610251610551565b6040518082815260200191505060405180910390f35b34801561027357600080fd5b5061032d6004803603602081101561028a57600080fd5b81019080803590602001906401000000008111156102a757600080fd5b8201836020820111156102b957600080fd5b803590602001918460018302840111640100000000831117156102db57600080fd5b91908080601f016020809104026020016040519081016040528093929190818152602001838380828437600081840152601f19601f82011690508083019250505050505050919291929050505061055a565b005b34801561033b57600080fd5b50610344610574565b6040518080602001828103825283818151815260200191508051906020019080838360005b83811015610384578082015181840152602081019050610369565b50505050905090810190601f1680156103b15780820380516001836020036101000a031916815260200191505b509250505060405180910390f35b3480156103cb57600080fd5b506103f8600480360360208110156103e257600080fd5b8101908080359060200190929190505050610616565b005b34801561040657600080fd5b5061040f610620565b604051808273ffffffffffffffffffffffffffffffffffffffff1673ffffffffffffffffffffffffffffffffffffffff16815260200191505060405180910390f35b80600260006101000a81548173ffffffffffffffffffffffffffffffffffffffff021916908373ffffffffffffffffffffffffffffffffffffffff16021790555050565b606060018054600181600116156101000203166002900480601f01602080910402602001604051908101604052809291908181526020018280546001816001161561010002031660029004801561052d5780601f106105025761010080835404028352916020019161052d565b820191906000526020600020905b81548152906001019060200180831161051057829003601f168201915b5050505050905090565b806001908051906020019061054d92919061064a565b5050565b60008054905090565b806003908051906020019061057092919061064a565b5050565b606060038054600181600116156101000203166002900480601f01602080910402602001604051908101604052809291908181526020018280546001816001161561010002031660029004801561060c5780601f106105e15761010080835404028352916020019161060c565b820191906000526020600020905b8154815290600101906020018083116105ef57829003601f168201915b5050505050905090565b8060008190555050565b6000600260009054906101000a900473ffffffffffffffffffffffffffffffffffffffff16905090565b828054600181600116156101000203166002900490600052602060002090601f016020900481019282601f1061068b57805160ff19168380011785556106b9565b828001600101855582156106b9579182015b828111156106b857825182559160200191906001019061069d565b5b5090506106c691906106ca565b5090565b6106ec91905b808211156106e85760008160009055506001016106d0565b5090565b9056fea165627a7a72305820e7239516f3245b5840f7e5dc27b618c64cdabcd2b39f36d9d52bfef2b9530495002960806040526040516108ef3803806108ef833981018060405260a081101561002657600080fd5b8101908080519060200190929190805164010000000081111561004857600080fd5b8281019050602081018481111561005e57600080fd5b815185600182028301116401000000008211171561007b57600080fd5b50509291906020018051906020019092919080519060200190929190805190602001909291905050508460008190555083600190805190602001906100c1929190610168565b5082600260006101000a81548160ff02191690831515021790555081600260016101000a81548173ffffffffffffffffffffffffffffffffffffffff021916908373ffffffffffffffffffffffffffffffffffffffff16021790555080600360006101000a81548173ffffffffffffffffffffffffffffffffffffffff021916908373ffffffffffffffffffffffffffffffffffffffff160217905550505050505061020d565b828054600181600116156101000203166002900490600052602060002090601f016020900481019282601f106101a957805160ff19168380011785556101d7565b828001600101855582156101d7579182015b828111156101d65782518255916020019190600101906101bb565b5b5090506101e491906101e8565b5090565b61020a91905b808211156102065760008160009055506001016101ee565b5090565b90565b6106d38061021c6000396000f3fe6080604052600436106100a4576000357c0100000000000000000000000000000000000000000000000000000000900463ffffffff1680630c9391e5146100a957806313859688146100fa57806315c780101461012557806324e222db146101ed5780633c8e65db146102445780635b54f9821461029557806375f96189146102c4578063b631b3411461031b578063bc9b5162146103ab578063f51f4738146103e6575b600080fd5b3480156100b557600080fd5b506100f8600480360360208110156100cc57600080fd5b81019080803573ffffffffffffffffffffffffffffffffffffffff169060200190929190505050610423565b005b34801561010657600080fd5b5061010f610467565b6040518082815260200191505060405180910390f35b34801561013157600080fd5b506101eb6004803603602081101561014857600080fd5b810190808035906020019064010000000081111561016557600080fd5b82018360208201111561017757600080fd5b8035906020019184600183028401116401000000008311171561019957600080fd5b91908080601f016020809104026020016040519081016040528093929190818152602001838380828437600081840152601f19601f820116905080830192505050505050509192919290505050610470565b005b3480156101f957600080fd5b5061020261048a565b604051808273ffffffffffffffffffffffffffffffffffffffff1673ffffffffffffffffffffffffffffffffffffffff16815260200191505060405180910390f35b34801561025057600080fd5b506102936004803603602081101561026757600080fd5b81019080803573ffffffffffffffffffffffffffffffffffffffff1690602001909291905050506104b4565b005b3480156102a157600080fd5b506102aa6104f8565b604051808215151515815260200191505060405180910390f35b3480156102d057600080fd5b506102d961050f565b604051808273ffffffffffffffffffffffffffffffffffffffff1673ffffffffffffffffffffffffffffffffffffffff16815260200191505060405180910390f35b34801561032757600080fd5b50610330610539565b6040518080602001828103825283818151815260200191508051906020019080838360005b83811015610370578082015181840152602081019050610355565b50505050905090810190601f16801561039d5780820380516001836020036101000a031916815260200191505b509250505060405180910390f35b3480156103b757600080fd5b506103e4600480360360208110156103ce57600080fd5b81019080803590602001909291905050506105db565b005b3480156103f257600080fd5b506104216004803603602081101561040957600080fd5b810190808035151590602001909291905050506105e5565b005b80600260016101000a81548173ffffffffffffffffffffffffffffffffffffffff021916908373ffffffffffffffffffffffffffffffffffffffff16021790555050565b60008054905090565b8060019080519060200190610486929190610602565b5050565b6000600360009054906101000a900473ffffffffffffffffffffffffffffffffffffffff16905090565b80600360006101000a81548173ffffffffffffffffffffffffffffffffffffffff021916908373ffffffffffffffffffffffffffffffffffffffff16021790555050565b6000600260009054906101000a900460ff16905090565b6000600260019054906101000a900473ffffffffffffffffffffffffffffffffffffffff16905090565b606060018054600181600116156101000203166002900480601f0160208091040260200160405190810160405280929190818152602001828054600181600116156101000203166002900480156105d15780601f106105a6576101008083540402835291602001916105d1565b820191906000526020600020905b8154815290600101906020018083116105b457829003601f168201915b5050505050905090565b8060008190555050565b80600260006101000a81548160ff02191690831515021790555050565b828054600181600116156101000203166002900490600052602060002090601f016020900481019282601f1061064357805160ff1916838001178555610671565b82800160010185558215610671579182015b82811115610670578251825591602001919060010190610655565b5b50905061067e9190610682565b5090565b6106a491905b808211156106a0576000816000905550600101610688565b5090565b9056fea165627a7a7230582001e0726fb36fe50ea76b1a3ca759ed91c71a976cd473a6b97da08a2e829cf4cf0029",
  "source": "pragma solidity ^0.5.0;\r\npragma experimental ABIEncoderV2;\r\n\r\nimport \"./User.sol\";\r\nimport \"./Group.sol\";\r\nimport \"./Task.sol\";\r\n\r\ncontract Main{\r\n\r\n    uint public groupCount;\r\n    mapping(uint => Group) public groups;\r\n    //one group - many users\r\n    mapping(uint => User[]) public groupMembers;\r\n\r\n    uint public userCount;\r\n    mapping(uint => User) public users;\r\n    //one user - one group\r\n    mapping(uint => Group) public userGroup;\r\n\r\n    uint public taskCount;\r\n    mapping(uint => Task) public tasks;\r\n\r\n    constructor() public {\r\n        groupCount = 0;\r\n        createGroup(\"Group Default\");\r\n\r\n        userCount = 0;\r\n        createUser(\"Manager0123\", msg.sender, \"Manager\");\r\n\r\n        taskCount = 0;\r\n        createTask(\"Finish your thesis before 2nd Oct.\");\r\n    }\r\n\r\n    event groupCreated(uint gId, string groupName, uint numberOfMember);\r\n    event UserCreated(uint id, string userName, address payable userAddress, string role);\r\n    event TaskCreated(uint id, string content, bool completed, address payable createdBy, address payable completedBy);\r\n\r\n\r\n    function createGroup(string memory _groupName) public {\r\n        // Require valid content\r\n        require(bytes(_groupName).length > 0);\r\n        groups[groupCount] = new Group(groupCount, _groupName,0);\r\n        groupCount ++;\r\n        emit groupCreated(groupCount, _groupName, 0);\r\n    }\r\n\r\n    function getGroups() view public returns(uint[] memory, string[] memory){\r\n\r\n        uint[] memory gids = new uint[](groupCount);\r\n        string[] memory groupNames = new string[](groupCount);\r\n\r\n        for(uint i = 0; i < groupCount; i++){\r\n            Group group = groups[i];\r\n            gids[i] = group.getId();\r\n            groupNames[i] = group.getGroupName();\r\n        }\r\n\r\n        return(gids, groupNames);\r\n    }\r\n\r\n    function getGroupById(uint _id) view public returns(string memory groupName, uint numberOfMember){\r\n\r\n        Group group = groups[_id];\r\n\r\n        return (group.getGroupName(), group.getNumberOfMember());\r\n    }\r\n\r\n    function addMember(uint _gID, uint _userID) public{\r\n        // Group ID and User ID must be existed\r\n        require(_gID < groupCount && _userID < userCount);\r\n\r\n        string memory _userName;\r\n        address payable _userAddress;\r\n        (_userName, _userAddress) = getUserById(_userID);\r\n\r\n        User user = new User(_userID, _userName, _userAddress, \"User\");\r\n\r\n        groupMembers[_gID].push(user);\r\n\r\n        Group group = groups[_gID];\r\n\r\n        uint numOfMember = group.getNumberOfMember();\r\n        group.setNumberOfMember(++numOfMember);\r\n\r\n        groups[_gID] = group;\r\n    }\r\n\r\n    function getMembers(uint _gID) view public returns(uint[] memory){\r\n\r\n        uint totalMember = groups[_gID].getNumberOfMember();\r\n\r\n        uint[] memory ids = new uint[](totalMember);\r\n\r\n        for (uint i = 0; i < totalMember; i++) {\r\n\r\n            User user = groupMembers[_gID][i];\r\n            ids[i] = user.getId();\r\n\r\n        }\r\n        return (ids);\r\n\r\n    }\r\n\r\n    //////////////////////////////------User-------//////////////////////////////////////////\r\n\r\n    function createUser(string memory _userName, address payable _userAddress, string memory _role) public {\r\n        users[userCount] = new User(userCount, _userName, _userAddress, _role);\r\n\r\n        userCount++;\r\n\r\n        emit UserCreated(userCount, _userName, _userAddress, \"User\");\r\n    }\r\n\r\n    function getUserById(uint _id) public view returns (string memory userName, address payable userAddress) {\r\n\r\n        User user = users[_id];\r\n\r\n        return (user.getUserName(), user.getUserAddress());\r\n\r\n    }\r\n\r\n    function getByAddress(address payable _userAddress) public view returns(string memory userName, string memory userRole){\r\n\r\n        string memory uName;\r\n        string memory uRole;\r\n\r\n        for(uint i = 0; i < userCount; i++){\r\n            User user = users[i];\r\n            if(user.getUserAddress() == _userAddress){\r\n                uName = user.getUserName();\r\n                uRole = user.getUserRole();\r\n            }\r\n        }\r\n\r\n        return (uName, uRole);\r\n    }\r\n\r\n    function update(uint _id, string memory _userName) public {\r\n        User user = users[_id];\r\n        //update the clone\r\n        user.setUserName(_userName);\r\n        users[_id] = user;\r\n    }\r\n\r\n    //////////////////////////////------Task-------//////////////////////////////////////////\r\n\r\n    function createTask(string memory _content) public {\r\n        // Require valid content\r\n        require(bytes(_content).length > 0);\r\n        //increase the number of Task\r\n        tasks[taskCount] = new Task(taskCount, _content, false, msg.sender, address(0));\r\n        taskCount++;\r\n        emit TaskCreated(taskCount, _content, false, msg.sender, address(0));\r\n    }\r\n\r\n    function getTaskById(uint _tId) public view returns(string memory content, address payable createdBy, bool completed, address payable completedBy){\r\n        Task task = tasks[_tId];\r\n        return (task.getTaskContent(), task.getCreatedBy(), task.getCompleted(), task.getCompletedBy());\r\n    }\r\n\r\n\r\n}\r\n",
  "sourcePath": "C:/Users/Ho Tat Dat Nguyen/Documents/GitHub/todo-list-react/src/contracts/Main.sol",
  "compiler": {
    "name": "solc",
    "version": "0.5.0+commit.1d4f565a.Emscripten.clang"
  },
  "schemaVersion": "3.0.2",
  "updatedAt": "2020-09-10T17:42:09.218Z",
  "devdoc": {
    "methods": {}
  },
  "userdoc": {
    "methods": {
      "createTask(string)": {
        "notice": "///////////////////////////------Task-------//////////////////////////////////////////"
      },
      "createUser(string,address,string)": {
        "notice": "///////////////////////////------User-------//////////////////////////////////////////"
      }
    }
  }
}