{
  "contractName": "Main",
  "abi": [
    {
      "constant": true,
      "inputs": [],
      "name": "userCount",
      "outputs": [
        {
          "name": "",
          "type": "uint256"
        }
      ],
      "payable": false,
      "stateMutability": "view",
      "type": "function",
      "signature": "0x07973ccf"
    },
    {
      "constant": true,
      "inputs": [
        {
          "name": "",
          "type": "uint256"
        },
        {
          "name": "",
          "type": "uint256"
        }
      ],
      "name": "oneGroupManyMembers",
      "outputs": [
        {
          "name": "",
          "type": "uint256"
        }
      ],
      "payable": false,
      "stateMutability": "view",
      "type": "function",
      "signature": "0x15e677ad"
    },
    {
      "constant": true,
      "inputs": [
        {
          "name": "",
          "type": "uint256"
        }
      ],
      "name": "users",
      "outputs": [
        {
          "name": "",
          "type": "address"
        }
      ],
      "payable": false,
      "stateMutability": "view",
      "type": "function",
      "signature": "0x365b98b2"
    },
    {
      "constant": true,
      "inputs": [
        {
          "name": "",
          "type": "uint256"
        }
      ],
      "name": "oneTaskOneGroup",
      "outputs": [
        {
          "name": "",
          "type": "uint256"
        }
      ],
      "payable": false,
      "stateMutability": "view",
      "type": "function",
      "signature": "0x5f6a4a7f"
    },
    {
      "constant": true,
      "inputs": [
        {
          "name": "",
          "type": "uint256"
        }
      ],
      "name": "oneUserOneGroup",
      "outputs": [
        {
          "name": "",
          "type": "uint256"
        }
      ],
      "payable": false,
      "stateMutability": "view",
      "type": "function",
      "signature": "0x5ff1a6ed"
    },
    {
      "constant": true,
      "inputs": [
        {
          "name": "",
          "type": "uint256"
        }
      ],
      "name": "tasks",
      "outputs": [
        {
          "name": "",
          "type": "address"
        }
      ],
      "payable": false,
      "stateMutability": "view",
      "type": "function",
      "signature": "0x8d977672"
    },
    {
      "constant": true,
      "inputs": [],
      "name": "groupCount",
      "outputs": [
        {
          "name": "",
          "type": "uint256"
        }
      ],
      "payable": false,
      "stateMutability": "view",
      "type": "function",
      "signature": "0x8f23b326"
    },
    {
      "constant": true,
      "inputs": [
        {
          "name": "",
          "type": "uint256"
        }
      ],
      "name": "groups",
      "outputs": [
        {
          "name": "",
          "type": "address"
        }
      ],
      "payable": false,
      "stateMutability": "view",
      "type": "function",
      "signature": "0x96324bd4"
    },
    {
      "constant": true,
      "inputs": [
        {
          "name": "",
          "type": "uint256"
        }
      ],
      "name": "taskUser",
      "outputs": [
        {
          "name": "",
          "type": "address"
        }
      ],
      "payable": false,
      "stateMutability": "view",
      "type": "function",
      "signature": "0x99fca844"
    },
    {
      "constant": true,
      "inputs": [
        {
          "name": "",
          "type": "uint256"
        },
        {
          "name": "",
          "type": "uint256"
        }
      ],
      "name": "oneGroupManyTasks",
      "outputs": [
        {
          "name": "",
          "type": "uint256"
        }
      ],
      "payable": false,
      "stateMutability": "view",
      "type": "function",
      "signature": "0xa67b1997"
    },
    {
      "constant": true,
      "inputs": [],
      "name": "taskCount",
      "outputs": [
        {
          "name": "",
          "type": "uint256"
        }
      ],
      "payable": false,
      "stateMutability": "view",
      "type": "function",
      "signature": "0xb6cb58a5"
    },
    {
      "constant": true,
      "inputs": [
        {
          "name": "",
          "type": "uint256"
        },
        {
          "name": "",
          "type": "uint256"
        }
      ],
      "name": "userTasks",
      "outputs": [
        {
          "name": "",
          "type": "address"
        }
      ],
      "payable": false,
      "stateMutability": "view",
      "type": "function",
      "signature": "0xd70db5bf"
    },
    {
      "inputs": [],
      "payable": false,
      "stateMutability": "nonpayable",
      "type": "constructor",
      "signature": "constructor"
    },
    {
      "anonymous": false,
      "inputs": [
        {
          "indexed": false,
          "name": "gId",
          "type": "uint256"
        },
        {
          "indexed": false,
          "name": "groupName",
          "type": "string"
        },
        {
          "indexed": false,
          "name": "numberOfMember",
          "type": "uint256"
        },
        {
          "indexed": false,
          "name": "numberOfTask",
          "type": "uint256"
        }
      ],
      "name": "groupCreated",
      "type": "event",
      "signature": "0x963d1ca77026cdfbe6fe0836b55bb75864ca1ce130c9608dda1f074ef5a68d96"
    },
    {
      "anonymous": false,
      "inputs": [
        {
          "indexed": false,
          "name": "id",
          "type": "uint256"
        },
        {
          "indexed": false,
          "name": "userName",
          "type": "string"
        },
        {
          "indexed": false,
          "name": "userAddress",
          "type": "address"
        },
        {
          "indexed": false,
          "name": "role",
          "type": "string"
        }
      ],
      "name": "UserCreated",
      "type": "event",
      "signature": "0xc49566d6afa47426fd599e36ed625a7a645b084dbd2c1236fe9ac365e91a71fb"
    },
    {
      "anonymous": false,
      "inputs": [
        {
          "indexed": false,
          "name": "id",
          "type": "uint256"
        },
        {
          "indexed": false,
          "name": "content",
          "type": "string"
        },
        {
          "indexed": false,
          "name": "completed",
          "type": "bool"
        },
        {
          "indexed": false,
          "name": "createdBy",
          "type": "address"
        },
        {
          "indexed": false,
          "name": "completedBy",
          "type": "address"
        }
      ],
      "name": "TaskCreated",
      "type": "event",
      "signature": "0x1269015a5d391f69cb0c62599881ba11774c45477e6931c2c00f8d949d7acad5"
    },
    {
      "constant": false,
      "inputs": [
        {
          "name": "_groupName",
          "type": "string"
        }
      ],
      "name": "createGroup",
      "outputs": [],
      "payable": false,
      "stateMutability": "nonpayable",
      "type": "function",
      "signature": "0xdc2ddcae"
    },
    {
      "constant": true,
      "inputs": [],
      "name": "getGroups",
      "outputs": [
        {
          "name": "",
          "type": "uint256[]"
        },
        {
          "name": "",
          "type": "string[]"
        }
      ],
      "payable": false,
      "stateMutability": "view",
      "type": "function",
      "signature": "0xc72b5176"
    },
    {
      "constant": true,
      "inputs": [
        {
          "name": "_id",
          "type": "uint256"
        }
      ],
      "name": "getGroupById",
      "outputs": [
        {
          "name": "groupName",
          "type": "string"
        },
        {
          "name": "gId",
          "type": "uint256"
        },
        {
          "name": "numberOfMember",
          "type": "uint256"
        },
        {
          "name": "numberOfTask",
          "type": "uint256"
        }
      ],
      "payable": false,
      "stateMutability": "view",
      "type": "function",
      "signature": "0x6cc29ea0"
    },
    {
      "constant": false,
      "inputs": [
        {
          "name": "_gID",
          "type": "uint256"
        },
        {
          "name": "_userID",
          "type": "uint256"
        }
      ],
      "name": "addMember",
      "outputs": [],
      "payable": false,
      "stateMutability": "nonpayable",
      "type": "function",
      "signature": "0x1783efc3"
    },
    {
      "constant": false,
      "inputs": [
        {
          "name": "_gID",
          "type": "uint256"
        },
        {
          "name": "_tID",
          "type": "uint256"
        }
      ],
      "name": "addTask",
      "outputs": [],
      "payable": false,
      "stateMutability": "nonpayable",
      "type": "function",
      "signature": "0x00b34ebd"
    },
    {
      "constant": true,
      "inputs": [
        {
          "name": "_gID",
          "type": "uint256"
        }
      ],
      "name": "getMembers",
      "outputs": [
        {
          "name": "",
          "type": "uint256[]"
        }
      ],
      "payable": false,
      "stateMutability": "view",
      "type": "function",
      "signature": "0xc477ecab"
    },
    {
      "constant": true,
      "inputs": [
        {
          "name": "_uId",
          "type": "uint256"
        }
      ],
      "name": "getGroupByUserId",
      "outputs": [
        {
          "name": "gId",
          "type": "uint256"
        }
      ],
      "payable": false,
      "stateMutability": "view",
      "type": "function",
      "signature": "0x3fb03218"
    },
    {
      "constant": false,
      "inputs": [
        {
          "name": "_userName",
          "type": "string"
        },
        {
          "name": "_userAddress",
          "type": "address"
        },
        {
          "name": "_role",
          "type": "string"
        }
      ],
      "name": "createUser",
      "outputs": [],
      "payable": false,
      "stateMutability": "nonpayable",
      "type": "function",
      "signature": "0xb17e8964"
    },
    {
      "constant": true,
      "inputs": [
        {
          "name": "_id",
          "type": "uint256"
        }
      ],
      "name": "getUserById",
      "outputs": [
        {
          "name": "userName",
          "type": "string"
        },
        {
          "name": "userAddress",
          "type": "address"
        },
        {
          "name": "uid",
          "type": "uint256"
        }
      ],
      "payable": false,
      "stateMutability": "view",
      "type": "function",
      "signature": "0x6ed6da9e"
    },
    {
      "constant": true,
      "inputs": [],
      "name": "getAvailableUser",
      "outputs": [
        {
          "name": "uIds",
          "type": "uint256[]"
        }
      ],
      "payable": false,
      "stateMutability": "view",
      "type": "function",
      "signature": "0x0101370b"
    },
    {
      "constant": true,
      "inputs": [],
      "name": "getTest",
      "outputs": [
        {
          "name": "right",
          "type": "bool"
        }
      ],
      "payable": false,
      "stateMutability": "view",
      "type": "function",
      "signature": "0xa8cd0a80"
    },
    {
      "constant": true,
      "inputs": [
        {
          "name": "_userAddress",
          "type": "address"
        }
      ],
      "name": "getByAddress",
      "outputs": [
        {
          "name": "userName",
          "type": "string"
        },
        {
          "name": "userRole",
          "type": "string"
        },
        {
          "name": "uId",
          "type": "uint256"
        }
      ],
      "payable": false,
      "stateMutability": "view",
      "type": "function",
      "signature": "0x30257bf7"
    },
    {
      "constant": false,
      "inputs": [
        {
          "name": "_id",
          "type": "uint256"
        },
        {
          "name": "_userName",
          "type": "string"
        }
      ],
      "name": "update",
      "outputs": [],
      "payable": false,
      "stateMutability": "nonpayable",
      "type": "function",
      "signature": "0xf745630f"
    },
    {
      "constant": false,
      "inputs": [
        {
          "name": "_content",
          "type": "string"
        }
      ],
      "name": "createTask",
      "outputs": [],
      "payable": false,
      "stateMutability": "nonpayable",
      "type": "function",
      "signature": "0x111002aa"
    },
    {
      "constant": true,
      "inputs": [
        {
          "name": "_tId",
          "type": "uint256"
        }
      ],
      "name": "getTaskById",
      "outputs": [
        {
          "name": "content",
          "type": "string"
        },
        {
          "name": "tId",
          "type": "uint256"
        },
        {
          "name": "createdBy",
          "type": "address"
        },
        {
          "name": "completed",
          "type": "bool"
        },
        {
          "name": "completedBy",
          "type": "address"
        }
      ],
      "payable": false,
      "stateMutability": "view",
      "type": "function",
      "signature": "0x976217cd"
    },
    {
      "constant": true,
      "inputs": [
        {
          "name": "_gId",
          "type": "uint256"
        }
      ],
      "name": "getTasksByGroupId",
      "outputs": [
        {
          "name": "tIds",
          "type": "uint256[]"
        }
      ],
      "payable": false,
      "stateMutability": "view",
      "type": "function",
      "signature": "0x26a19503"
    },
    {
      "constant": true,
      "inputs": [],
      "name": "getAvailableTask",
      "outputs": [
        {
          "name": "tIds",
          "type": "uint256[]"
        }
      ],
      "payable": false,
      "stateMutability": "view",
      "type": "function",
      "signature": "0x2c7b8f66"
    }
  ],
  "bytecode": "0x60806040523480156200001157600080fd5b5060008081905550620000686040805190810160405280600d81526020017f47726f75702044656661756c74000000000000000000000000000000000000008152506200017a640100000000026401000000009004565b6000600481905550620000f66040805190810160405280600b81526020017f4d616e6167657230313233000000000000000000000000000000000000000000815250336040805190810160405280600781526020017f4d616e616765720000000000000000000000000000000000000000000000000081525062000271640100000000026401000000009004565b600060088190555062000174606060405190810160405280602281526020017f46696e69736820796f757220746865736973206265666f726520326e64204f6381526020017f742e00000000000000000000000000000000000000000000000000000000000081525062000372640100000000026401000000009004565b62000777565b600081511115156200018b57600080fd5b600080815480929190600101919050555060005481600080620001ad62000471565b620001bc949392919062000673565b604051809103906000f080158015620001d9573d6000803e3d6000fd5b50600160008054815260200190815260200160002060006101000a81548173ffffffffffffffffffffffffffffffffffffffff021916908373ffffffffffffffffffffffffffffffffffffffff1602179055507f963d1ca77026cdfbe6fe0836b55bb75864ca1ce130c9608dda1f074ef5a68d966000548260008060405162000266949392919062000673565b60405180910390a150565b6004600081548092919060010191905055506004548383836200029362000482565b620002a294939291906200055b565b604051809103906000f080158015620002bf573d6000803e3d6000fd5b5060056000600454815260200190815260200160002060006101000a81548173ffffffffffffffffffffffffffffffffffffffff021916908373ffffffffffffffffffffffffffffffffffffffff1602179055506000600660006004548152602001908152602001600020819055507fc49566d6afa47426fd599e36ed625a7a645b084dbd2c1236fe9ac365e91a71fb60045484846040516200036593929190620005b6565b60405180910390a1505050565b600081511115156200038357600080fd5b600860008154809291906001019190505550600854816000336000620003a862000493565b620003b89594939291906200060f565b604051809103906000f080158015620003d5573d6000803e3d6000fd5b5060096000600854815260200190815260200160002060006101000a81548173ffffffffffffffffffffffffffffffffffffffff021916908373ffffffffffffffffffffffffffffffffffffffff1602179055507f1269015a5d391f69cb0c62599881ba11774c45477e6931c2c00f8d949d7acad5600854826000336000604051620004669594939291906200060f565b60405180910390a150565b6040516107578062004ac483390190565b60405161092a806200521b83390190565b6040516108ef8062005b4583390190565b620004af81620006d2565b82525050565b620004c081620006e6565b82525050565b620004d1816200071c565b82525050565b6000620004e482620006c7565b808452620004fa81602086016020860162000730565b620005058162000766565b602085010191505092915050565b6000600482527f55736572000000000000000000000000000000000000000000000000000000006020830152604082019050919050565b620005558162000712565b82525050565b60006080820190506200057260008301876200054a565b8181036020830152620005868186620004d7565b9050620005976040830185620004a4565b8181036060830152620005ab8184620004d7565b905095945050505050565b6000608082019050620005cd60008301866200054a565b8181036020830152620005e18185620004d7565b9050620005f26040830184620004a4565b8181036060830152620006058162000513565b9050949350505050565b600060a0820190506200062660008301886200054a565b81810360208301526200063a8187620004d7565b90506200064b6040830186620004b5565b6200065a6060830185620004a4565b620006696080830184620004a4565b9695505050505050565b60006080820190506200068a60008301876200054a565b81810360208301526200069e8186620004d7565b9050620006af6040830185620004c6565b620006be6060830184620004c6565b95945050505050565b600081519050919050565b6000620006df82620006f2565b9050919050565b60008115159050919050565b600073ffffffffffffffffffffffffffffffffffffffff82169050919050565b6000819050919050565b6000620007298262000712565b9050919050565b60005b838110156200075057808201518184015260208101905062000733565b8381111562000760576000848401525b50505050565b6000601f19601f8301169050919050565b61433d80620007876000396000f3fe60806040526004361062000192576000357c0100000000000000000000000000000000000000000000000000000000900463ffffffff168062b34ebd14620001975780630101370b14620001c557806307973ccf14620001f5578063111002aa146200022557806315e677ad14620002535780631783efc3146200029757806326a1950314620002c55780632c7b8f66146200030957806330257bf71462000339578063365b98b2146200037f5780633fb0321814620003c35780635f6a4a7f14620004075780635ff1a6ed146200044b5780636cc29ea0146200048f5780636ed6da9e14620004d65780638d977672146200051c5780638f23b326146200056057806396324bd41462000590578063976217cd14620005d457806399fca844146200061c578063a67b19971462000660578063a8cd0a8014620006a4578063b17e896414620006d4578063b6cb58a51462000702578063c477ecab1462000732578063c72b51761462000776578063d70db5bf14620007a7578063dc2ddcae14620007eb578063f745630f1462000819575b600080fd5b348015620001a457600080fd5b50620001c36004803603620001bd919081019062002177565b62000847565b005b348015620001d257600080fd5b50620001dd620008c1565b604051620001ec9190620023bb565b60405180910390f35b3480156200020257600080fd5b506200020d620009b9565b6040516200021c9190620025f9565b60405180910390f35b3480156200023257600080fd5b506200025160048036036200024b919081019062001fb3565b620009bf565b005b3480156200026057600080fd5b506200027f600480360362000279919081019062002177565b62000abe565b6040516200028e9190620025f9565b60405180910390f35b348015620002a457600080fd5b50620002c36004803603620002bd919081019062002177565b62000aef565b005b348015620002d257600080fd5b50620002f16004803603620002eb9190810190620020c5565b62000b69565b604051620003009190620023bb565b60405180910390f35b3480156200031657600080fd5b506200032162000c2c565b604051620003309190620023bb565b60405180910390f35b3480156200034657600080fd5b506200036560048036036200035f919081019062001f2f565b62000d24565b6040516200037693929190620024f6565b60405180910390f35b3480156200038c57600080fd5b50620003ab6004803603620003a59190810190620020c5565b62001058565b604051620003ba919062002471565b60405180910390f35b348015620003d057600080fd5b50620003ef6004803603620003e99190810190620020c5565b6200108b565b604051620003fe9190620025f9565b60405180910390f35b3480156200041457600080fd5b506200043360048036036200042d9190810190620020c5565b620010a8565b604051620004429190620025f9565b60405180910390f35b3480156200045857600080fd5b50620004776004803603620004719190810190620020c5565b620010c0565b604051620004869190620025f9565b60405180910390f35b3480156200049c57600080fd5b50620004bb6004803603620004b59190810190620020c5565b620010d8565b604051620004cd9493929190620025a5565b60405180910390f35b348015620004e357600080fd5b50620005026004803603620004fc9190810190620020c5565b62001204565b6040516200051393929190620024b2565b60405180910390f35b3480156200052957600080fd5b50620005486004803603620005429190810190620020c5565b62001391565b60405162000557919062002454565b60405180910390f35b3480156200056d57600080fd5b5062000578620013c4565b604051620005879190620025f9565b60405180910390f35b3480156200059d57600080fd5b50620005bc6004803603620005b69190810190620020c5565b620013ca565b604051620005cb919062002437565b60405180910390f35b348015620005e157600080fd5b50620006006004803603620005fa9190810190620020c5565b620013fd565b6040516200061395949392919062002541565b60405180910390f35b3480156200062957600080fd5b50620006486004803603620006429190810190620020c5565b620016cf565b60405162000657919062002471565b60405180910390f35b3480156200066d57600080fd5b506200068c600480360362000686919081019062002177565b62001702565b6040516200069b9190620025f9565b60405180910390f35b348015620006b157600080fd5b50620006bc62001733565b604051620006cb91906200241a565b60405180910390f35b348015620006e157600080fd5b50620007006004803603620006fa91908101906200203d565b62001751565b005b3480156200070f57600080fd5b506200071a62001852565b604051620007299190620025f9565b60405180910390f35b3480156200073f57600080fd5b506200075e6004803603620007589190810190620020c5565b62001858565b6040516200076d9190620023bb565b60405180910390f35b3480156200078357600080fd5b506200078e6200191b565b6040516200079e929190620023df565b60405180910390f35b348015620007b457600080fd5b50620007d36004803603620007cd919081019062002177565b62001b73565b604051620007e2919062002454565b60405180910390f35b348015620007f857600080fd5b5062000817600480360362000811919081019062001fb3565b62001bc1565b005b3480156200082657600080fd5b506200084560048036036200083f91908101906200211d565b62001cb8565b005b60005482111580156200085c57506008548111155b15156200086857600080fd5b6003600083815260200190815260200160002081908060018154018082558091505090600182039060005260206000200160009091929091909150555081600a6000838152602001908152602001600020819055505050565b606060008090506000600190505b600454811115156200090f57600060066000838152602001908152602001600020541415620009015781806001019250505b8080600101915050620008cf565b50606081604051908082528060200260200182016040528015620009425781602001602082028038833980820191505090505b50905060008090506000600190505b60045481111515620009af57600060066000838152602001908152602001600020541415620009a1578083838151811015156200098a57fe5b906020019060200201818152505081806001019250505b808060010191505062000951565b5081935050505090565b60045481565b60008151111515620009d057600080fd5b600860008154809291906001019190505550600854816000336000620009f562001dd2565b62000a05959493929190620026ca565b604051809103906000f08015801562000a22573d6000803e3d6000fd5b5060096000600854815260200190815260200160002060006101000a81548173ffffffffffffffffffffffffffffffffffffffff021916908373ffffffffffffffffffffffffffffffffffffffff1602179055507f1269015a5d391f69cb0c62599881ba11774c45477e6931c2c00f8d949d7acad560085482600033600060405162000ab3959493929190620026ca565b60405180910390a150565b60026020528160005260406000208181548110151562000ada57fe5b90600052602060002001600091509150505481565b600054821115801562000b0457506004548111155b151562000b1057600080fd5b600260008381526020019081526020016000208190806001815401808255809150509060018203906000526020600020016000909192909190915055508160066000838152602001908152602001600020819055505050565b606060006003600084815260200190815260200160002080549050905060608160405190808252806020026020018201604052801562000bb85781602001602082028038833980820191505090505b50905060008090505b8281101562000c2157600360008681526020019081526020016000208181548110151562000beb57fe5b9060005260206000200154828281518110151562000c0557fe5b9060200190602002018181525050808060010191505062000bc1565b508092505050919050565b606060008090506000600190505b6008548111151562000c7a576000600a600083815260200190815260200160002054141562000c6c5781806001019250505b808060010191505062000c3a565b5060608160405190808252806020026020018201604052801562000cad5781602001602082028038833980820191505090505b50905060008090506000600190505b6008548111151562000d1a576000600a600083815260200190815260200160002054141562000d0c5780838381518110151562000cf557fe5b906020019060200201818152505081806001019250505b808060010191505062000cbc565b5081935050505090565b6060806000606080600080600190505b60045481111515620010445760006005600083815260200190815260200160002060009054906101000a900473ffffffffffffffffffffffffffffffffffffffff1690508873ffffffffffffffffffffffffffffffffffffffff168173ffffffffffffffffffffffffffffffffffffffff1663ebc3eee86040518163ffffffff167c010000000000000000000000000000000000000000000000000000000002815260040160206040518083038186803b15801562000df257600080fd5b505afa15801562000e07573d6000803e3d6000fd5b505050506040513d601f19601f8201168201806040525062000e2d919081019062001f5b565b73ffffffffffffffffffffffffffffffffffffffff16141562001035578073ffffffffffffffffffffffffffffffffffffffff166312958f1c6040518163ffffffff167c010000000000000000000000000000000000000000000000000000000002815260040160006040518083038186803b15801562000ead57600080fd5b505afa15801562000ec2573d6000803e3d6000fd5b505050506040513d6000823e3d601f19601f8201168201806040525062000eed919081019062001ff8565b94508073ffffffffffffffffffffffffffffffffffffffff1663bf04a10d6040518163ffffffff167c010000000000000000000000000000000000000000000000000000000002815260040160006040518083038186803b15801562000f5257600080fd5b505afa15801562000f67573d6000803e3d6000fd5b505050506040513d6000823e3d601f19601f8201168201806040525062000f92919081019062001ff8565b93508073ffffffffffffffffffffffffffffffffffffffff16635d1ca6316040518163ffffffff167c010000000000000000000000000000000000000000000000000000000002815260040160206040518083038186803b15801562000ff757600080fd5b505afa1580156200100c573d6000803e3d6000fd5b505050506040513d601f19601f82011682018060405250620010329190810190620020f1565b92505b50808060010191505062000d34565b508282829550955095505050509193909250565b60056020528060005260406000206000915054906101000a900473ffffffffffffffffffffffffffffffffffffffff1681565b600060066000838152602001908152602001600020549050919050565b600a6020528060005260406000206000915090505481565b60066020528060005260406000206000915090505481565b60606000806000806001600087815260200190815260200160002060009054906101000a900473ffffffffffffffffffffffffffffffffffffffff1690506000600260008881526020019081526020016000208054905090506000600360008981526020019081526020016000208054905090508273ffffffffffffffffffffffffffffffffffffffff1663843c608d6040518163ffffffff167c010000000000000000000000000000000000000000000000000000000002815260040160006040518083038186803b158015620011af57600080fd5b505afa158015620011c4573d6000803e3d6000fd5b505050506040513d6000823e3d601f19601f82011682018060405250620011ef919081019062001ff8565b88838396509650965096505050509193509193565b606060008060006005600086815260200190815260200160002060009054906101000a900473ffffffffffffffffffffffffffffffffffffffff1690508073ffffffffffffffffffffffffffffffffffffffff166312958f1c6040518163ffffffff167c010000000000000000000000000000000000000000000000000000000002815260040160006040518083038186803b158015620012a457600080fd5b505afa158015620012b9573d6000803e3d6000fd5b505050506040513d6000823e3d601f19601f82011682018060405250620012e4919081019062001ff8565b8173ffffffffffffffffffffffffffffffffffffffff1663ebc3eee86040518163ffffffff167c010000000000000000000000000000000000000000000000000000000002815260040160206040518083038186803b1580156200134757600080fd5b505afa1580156200135c573d6000803e3d6000fd5b505050506040513d601f19601f8201168201806040525062001382919081019062001f5b565b86935093509350509193909250565b60096020528060005260406000206000915054906101000a900473ffffffffffffffffffffffffffffffffffffffff1681565b60005481565b60016020528060005260406000206000915054906101000a900473ffffffffffffffffffffffffffffffffffffffff1681565b606060008060008060006009600088815260200190815260200160002060009054906101000a900473ffffffffffffffffffffffffffffffffffffffff1690508073ffffffffffffffffffffffffffffffffffffffff1663b631b3416040518163ffffffff167c010000000000000000000000000000000000000000000000000000000002815260040160006040518083038186803b158015620014a057600080fd5b505afa158015620014b5573d6000803e3d6000fd5b505050506040513d6000823e3d601f19601f82011682018060405250620014e0919081019062001ff8565b878273ffffffffffffffffffffffffffffffffffffffff166375f961896040518163ffffffff167c010000000000000000000000000000000000000000000000000000000002815260040160206040518083038186803b1580156200154457600080fd5b505afa15801562001559573d6000803e3d6000fd5b505050506040513d601f19601f820116820180604052506200157f919081019062001f5b565b8373ffffffffffffffffffffffffffffffffffffffff16635b54f9826040518163ffffffff167c010000000000000000000000000000000000000000000000000000000002815260040160206040518083038186803b158015620015e257600080fd5b505afa158015620015f7573d6000803e3d6000fd5b505050506040513d601f19601f820116820180604052506200161d919081019062001f87565b8473ffffffffffffffffffffffffffffffffffffffff166324e222db6040518163ffffffff167c010000000000000000000000000000000000000000000000000000000002815260040160206040518083038186803b1580156200168057600080fd5b505afa15801562001695573d6000803e3d6000fd5b505050506040513d601f19601f82011682018060405250620016bb919081019062001f5b565b955095509550955095505091939590929450565b600b6020528060005260406000206000915054906101000a900473ffffffffffffffffffffffffffffffffffffffff1681565b6003602052816000526040600020818154811015156200171e57fe5b90600052602060002001600091509150505481565b60008060066000600181526020019081526020016000205414905090565b6004600081548092919060010191905055506004548383836200177362001de3565b62001782949392919062002616565b604051809103906000f0801580156200179f573d6000803e3d6000fd5b5060056000600454815260200190815260200160002060006101000a81548173ffffffffffffffffffffffffffffffffffffffff021916908373ffffffffffffffffffffffffffffffffffffffff1602179055506000600660006004548152602001908152602001600020819055507fc49566d6afa47426fd599e36ed625a7a645b084dbd2c1236fe9ac365e91a71fb6004548484604051620018459392919062002671565b60405180910390a1505050565b60085481565b6060600060026000848152602001908152602001600020805490509050606081604051908082528060200260200182016040528015620018a75781602001602082028038833980820191505090505b50905060008090505b8281101562001910576002600086815260200190815260200160002081815481101515620018da57fe5b90600052602060002001548282815181101515620018f457fe5b90602001906020020181815250508080600101915050620018b0565b508092505050919050565b6060806060600054604051908082528060200260200182016040528015620019525781602001602082028038833980820191505090505b50905060606000546040519080825280602002602001820160405280156200198f57816020015b6060815260200190600190039081620019795790505b5090506000600190505b6000548111151562001b665760006001600083815260200190815260200160002060009054906101000a900473ffffffffffffffffffffffffffffffffffffffff1690508073ffffffffffffffffffffffffffffffffffffffff16635d1ca6316040518163ffffffff167c010000000000000000000000000000000000000000000000000000000002815260040160206040518083038186803b15801562001a4057600080fd5b505afa15801562001a55573d6000803e3d6000fd5b505050506040513d601f19601f8201168201806040525062001a7b9190810190620020f1565b848381518110151562001a8a57fe5b90602001906020020181815250508073ffffffffffffffffffffffffffffffffffffffff1663843c608d6040518163ffffffff167c010000000000000000000000000000000000000000000000000000000002815260040160006040518083038186803b15801562001afb57600080fd5b505afa15801562001b10573d6000803e3d6000fd5b505050506040513d6000823e3d601f19601f8201168201806040525062001b3b919081019062001ff8565b838381518110151562001b4a57fe5b9060200190602002018190525050808060010191505062001999565b5081819350935050509091565b60076020528160005260406000208181548110151562001b8f57fe5b906000526020600020016000915091509054906101000a900473ffffffffffffffffffffffffffffffffffffffff1681565b6000815111151562001bd257600080fd5b60008081548092919060010191905055506000548160008062001bf462001df4565b62001c0394939291906200272e565b604051809103906000f08015801562001c20573d6000803e3d6000fd5b50600160008054815260200190815260200160002060006101000a81548173ffffffffffffffffffffffffffffffffffffffff021916908373ffffffffffffffffffffffffffffffffffffffff1602179055507f963d1ca77026cdfbe6fe0836b55bb75864ca1ce130c9608dda1f074ef5a68d966000548260008060405162001cad94939291906200272e565b60405180910390a150565b60006005600084815260200190815260200160002060009054906101000a900473ffffffffffffffffffffffffffffffffffffffff1690508073ffffffffffffffffffffffffffffffffffffffff16632b5914fe836040518263ffffffff167c010000000000000000000000000000000000000000000000000000000002815260040162001d4791906200248e565b600060405180830381600087803b15801562001d6257600080fd5b505af115801562001d77573d6000803e3d6000fd5b50505050806005600085815260200190815260200160002060006101000a81548173ffffffffffffffffffffffffffffffffffffffff021916908373ffffffffffffffffffffffffffffffffffffffff160217905550505050565b6040516108ef806200299483390190565b60405161092a806200328383390190565b6040516107578062003bad83390190565b600062001e13823562002887565b905092915050565b600062001e29825162002887565b905092915050565b600062001e3f82516200289b565b905092915050565b600082601f830112151562001e5b57600080fd5b813562001e7262001e6c82620027b0565b62002782565b9150808252602083016020830185838301111562001e8f57600080fd5b62001e9c8382846200293d565b50505092915050565b600082601f830112151562001eb957600080fd5b815162001ed062001eca82620027b0565b62002782565b9150808252602083016020830185838301111562001eed57600080fd5b62001efa8382846200294c565b50505092915050565b600062001f118235620028a7565b905092915050565b600062001f278251620028a7565b905092915050565b60006020828403121562001f4257600080fd5b600062001f528482850162001e05565b91505092915050565b60006020828403121562001f6e57600080fd5b600062001f7e8482850162001e1b565b91505092915050565b60006020828403121562001f9a57600080fd5b600062001faa8482850162001e31565b91505092915050565b60006020828403121562001fc657600080fd5b600082013567ffffffffffffffff81111562001fe157600080fd5b62001fef8482850162001e47565b91505092915050565b6000602082840312156200200b57600080fd5b600082015167ffffffffffffffff8111156200202657600080fd5b620020348482850162001ea5565b91505092915050565b6000806000606084860312156200205357600080fd5b600084013567ffffffffffffffff8111156200206e57600080fd5b6200207c8682870162001e47565b93505060206200208f8682870162001e05565b925050604084013567ffffffffffffffff811115620020ad57600080fd5b620020bb8682870162001e47565b9150509250925092565b600060208284031215620020d857600080fd5b6000620020e88482850162001f03565b91505092915050565b6000602082840312156200210457600080fd5b6000620021148482850162001f19565b91505092915050565b600080604083850312156200213157600080fd5b6000620021418582860162001f03565b925050602083013567ffffffffffffffff8111156200215f57600080fd5b6200216d8582860162001e47565b9150509250929050565b600080604083850312156200218b57600080fd5b60006200219b8582860162001f03565b9250506020620021ae8582860162001f03565b9150509250929050565b620021c3816200283d565b82525050565b6000620021d682620027f7565b80845260208401935083602082028501620021f185620027dd565b60005b84811015620022305783830388526200220f83835162002337565b92506200221c8262002823565b9150602088019750600181019050620021f4565b508196508694505050505092915050565b60006200224e8262002802565b8084526020840193506200226283620027ea565b60005b828110156200229a576200227b868351620023aa565b620022868262002830565b915060208601955060018101905062002265565b50849250505092915050565b620022b18162002851565b82525050565b620022c281620028b1565b82525050565b620022d381620028d9565b82525050565b620022e48162002901565b82525050565b620022f58162002929565b82525050565b6000620023088262002818565b8084526200231e8160208601602086016200294c565b620023298162002982565b602085010191505092915050565b600062002344826200280d565b8084526200235a8160208601602086016200294c565b620023658162002982565b602085010191505092915050565b6000600482527f55736572000000000000000000000000000000000000000000000000000000006020830152604082019050919050565b620023b5816200287d565b82525050565b60006020820190508181036000830152620023d7818462002241565b905092915050565b60006040820190508181036000830152620023fb818562002241565b90508181036020830152620024118184620021c9565b90509392505050565b6000602082019050620024316000830184620022a6565b92915050565b60006020820190506200244e6000830184620022b7565b92915050565b60006020820190506200246b6000830184620022c8565b92915050565b6000602082019050620024886000830184620022d9565b92915050565b60006020820190508181036000830152620024aa8184620022fb565b905092915050565b60006060820190508181036000830152620024ce8186620022fb565b9050620024df6020830185620021b8565b620024ee6040830184620023aa565b949350505050565b60006060820190508181036000830152620025128186620022fb565b90508181036020830152620025288185620022fb565b9050620025396040830184620023aa565b949350505050565b600060a08201905081810360008301526200255d8188620022fb565b90506200256e6020830187620023aa565b6200257d6040830186620021b8565b6200258c6060830185620022a6565b6200259b6080830184620021b8565b9695505050505050565b60006080820190508181036000830152620025c18187620022fb565b9050620025d26020830186620023aa565b620025e16040830185620023aa565b620025f06060830184620023aa565b95945050505050565b6000602082019050620026106000830184620023aa565b92915050565b60006080820190506200262d6000830187620023aa565b8181036020830152620026418186620022fb565b9050620026526040830185620021b8565b8181036060830152620026668184620022fb565b905095945050505050565b6000608082019050620026886000830186620023aa565b81810360208301526200269c8185620022fb565b9050620026ad6040830184620021b8565b8181036060830152620026c08162002373565b9050949350505050565b600060a082019050620026e16000830188620023aa565b8181036020830152620026f58187620022fb565b9050620027066040830186620022a6565b620027156060830185620021b8565b620027246080830184620021b8565b9695505050505050565b6000608082019050620027456000830187620023aa565b8181036020830152620027598186620022fb565b90506200276a6040830185620022ea565b620027796060830184620022ea565b95945050505050565b6000604051905081810181811067ffffffffffffffff82111715620027a657600080fd5b8060405250919050565b600067ffffffffffffffff821115620027c857600080fd5b601f19601f8301169050602081019050919050565b6000602082019050919050565b6000602082019050919050565b600081519050919050565b600081519050919050565b600081519050919050565b600081519050919050565b6000602082019050919050565b6000602082019050919050565b60006200284a826200285d565b9050919050565b60008115159050919050565b600073ffffffffffffffffffffffffffffffffffffffff82169050919050565b6000819050919050565b600062002894826200285d565b9050919050565b60008115159050919050565b6000819050919050565b6000620028be82620028c5565b9050919050565b6000620028d2826200285d565b9050919050565b6000620028e682620028ed565b9050919050565b6000620028fa826200285d565b9050919050565b60006200290e8262002915565b9050919050565b600062002922826200285d565b9050919050565b600062002936826200287d565b9050919050565b82818337600083830152505050565b60005b838110156200296c5780820151818401526020810190506200294f565b838111156200297c576000848401525b50505050565b6000601f19601f830116905091905056fe60806040526040516108ef3803806108ef833981018060405260a081101561002657600080fd5b8101908080519060200190929190805164010000000081111561004857600080fd5b8281019050602081018481111561005e57600080fd5b815185600182028301116401000000008211171561007b57600080fd5b50509291906020018051906020019092919080519060200190929190805190602001909291905050508460008190555083600190805190602001906100c1929190610168565b5082600260006101000a81548160ff02191690831515021790555081600260016101000a81548173ffffffffffffffffffffffffffffffffffffffff021916908373ffffffffffffffffffffffffffffffffffffffff16021790555080600360006101000a81548173ffffffffffffffffffffffffffffffffffffffff021916908373ffffffffffffffffffffffffffffffffffffffff160217905550505050505061020d565b828054600181600116156101000203166002900490600052602060002090601f016020900481019282601f106101a957805160ff19168380011785556101d7565b828001600101855582156101d7579182015b828111156101d65782518255916020019190600101906101bb565b5b5090506101e491906101e8565b5090565b61020a91905b808211156102065760008160009055506001016101ee565b5090565b90565b6106d38061021c6000396000f3fe6080604052600436106100a4576000357c0100000000000000000000000000000000000000000000000000000000900463ffffffff1680630c9391e5146100a957806313859688146100fa57806315c780101461012557806324e222db146101ed5780633c8e65db146102445780635b54f9821461029557806375f96189146102c4578063b631b3411461031b578063bc9b5162146103ab578063f51f4738146103e6575b600080fd5b3480156100b557600080fd5b506100f8600480360360208110156100cc57600080fd5b81019080803573ffffffffffffffffffffffffffffffffffffffff169060200190929190505050610423565b005b34801561010657600080fd5b5061010f610467565b6040518082815260200191505060405180910390f35b34801561013157600080fd5b506101eb6004803603602081101561014857600080fd5b810190808035906020019064010000000081111561016557600080fd5b82018360208201111561017757600080fd5b8035906020019184600183028401116401000000008311171561019957600080fd5b91908080601f016020809104026020016040519081016040528093929190818152602001838380828437600081840152601f19601f820116905080830192505050505050509192919290505050610470565b005b3480156101f957600080fd5b5061020261048a565b604051808273ffffffffffffffffffffffffffffffffffffffff1673ffffffffffffffffffffffffffffffffffffffff16815260200191505060405180910390f35b34801561025057600080fd5b506102936004803603602081101561026757600080fd5b81019080803573ffffffffffffffffffffffffffffffffffffffff1690602001909291905050506104b4565b005b3480156102a157600080fd5b506102aa6104f8565b604051808215151515815260200191505060405180910390f35b3480156102d057600080fd5b506102d961050f565b604051808273ffffffffffffffffffffffffffffffffffffffff1673ffffffffffffffffffffffffffffffffffffffff16815260200191505060405180910390f35b34801561032757600080fd5b50610330610539565b6040518080602001828103825283818151815260200191508051906020019080838360005b83811015610370578082015181840152602081019050610355565b50505050905090810190601f16801561039d5780820380516001836020036101000a031916815260200191505b509250505060405180910390f35b3480156103b757600080fd5b506103e4600480360360208110156103ce57600080fd5b81019080803590602001909291905050506105db565b005b3480156103f257600080fd5b506104216004803603602081101561040957600080fd5b810190808035151590602001909291905050506105e5565b005b80600260016101000a81548173ffffffffffffffffffffffffffffffffffffffff021916908373ffffffffffffffffffffffffffffffffffffffff16021790555050565b60008054905090565b8060019080519060200190610486929190610602565b5050565b6000600360009054906101000a900473ffffffffffffffffffffffffffffffffffffffff16905090565b80600360006101000a81548173ffffffffffffffffffffffffffffffffffffffff021916908373ffffffffffffffffffffffffffffffffffffffff16021790555050565b6000600260009054906101000a900460ff16905090565b6000600260019054906101000a900473ffffffffffffffffffffffffffffffffffffffff16905090565b606060018054600181600116156101000203166002900480601f0160208091040260200160405190810160405280929190818152602001828054600181600116156101000203166002900480156105d15780601f106105a6576101008083540402835291602001916105d1565b820191906000526020600020905b8154815290600101906020018083116105b457829003601f168201915b5050505050905090565b8060008190555050565b80600260006101000a81548160ff02191690831515021790555050565b828054600181600116156101000203166002900490600052602060002090601f016020900481019282601f1061064357805160ff1916838001178555610671565b82800160010185558215610671579182015b82811115610670578251825591602001919060010190610655565b5b50905061067e9190610682565b5090565b6106a491905b808211156106a0576000816000905550600101610688565b5090565b9056fea165627a7a7230582001e0726fb36fe50ea76b1a3ca759ed91c71a976cd473a6b97da08a2e829cf4cf0029608060405260405161092a38038061092a8339810180604052608081101561002657600080fd5b8101908080519060200190929190805164010000000081111561004857600080fd5b8281019050602081018481111561005e57600080fd5b815185600182028301116401000000008211171561007b57600080fd5b50509291906020018051906020019092919080516401000000008111156100a157600080fd5b828101905060208101848111156100b757600080fd5b81518560018202830111640100000000821117156100d457600080fd5b50509291905050508360008190555082600190805190602001906100f992919061015b565b5081600260006101000a81548173ffffffffffffffffffffffffffffffffffffffff021916908373ffffffffffffffffffffffffffffffffffffffff160217905550806003908051906020019061015192919061015b565b5050505050610200565b828054600181600116156101000203166002900490600052602060002090601f016020900481019282601f1061019c57805160ff19168380011785556101ca565b828001600101855582156101ca579182015b828111156101c95782518255916020019190600101906101ae565b5b5090506101d791906101db565b5090565b6101fd91905b808211156101f95760008160009055506001016101e1565b5090565b90565b61071b8061020f6000396000f3fe60806040526004361061008e576000357c0100000000000000000000000000000000000000000000000000000000900463ffffffff1680630aa564341461009357806312958f1c146100e45780632b5914fe146101745780635d1ca6311461023c578063ac80446714610267578063bf04a10d1461032f578063d0e0ba95146103bf578063ebc3eee8146103fa575b600080fd5b34801561009f57600080fd5b506100e2600480360360208110156100b657600080fd5b81019080803573ffffffffffffffffffffffffffffffffffffffff169060200190929190505050610451565b005b3480156100f057600080fd5b506100f9610495565b6040518080602001828103825283818151815260200191508051906020019080838360005b8381101561013957808201518184015260208101905061011e565b50505050905090810190601f1680156101665780820380516001836020036101000a031916815260200191505b509250505060405180910390f35b34801561018057600080fd5b5061023a6004803603602081101561019757600080fd5b81019080803590602001906401000000008111156101b457600080fd5b8201836020820111156101c657600080fd5b803590602001918460018302840111640100000000831117156101e857600080fd5b91908080601f016020809104026020016040519081016040528093929190818152602001838380828437600081840152601f19601f820116905080830192505050505050509192919290505050610537565b005b34801561024857600080fd5b50610251610551565b6040518082815260200191505060405180910390f35b34801561027357600080fd5b5061032d6004803603602081101561028a57600080fd5b81019080803590602001906401000000008111156102a757600080fd5b8201836020820111156102b957600080fd5b803590602001918460018302840111640100000000831117156102db57600080fd5b91908080601f016020809104026020016040519081016040528093929190818152602001838380828437600081840152601f19601f82011690508083019250505050505050919291929050505061055a565b005b34801561033b57600080fd5b50610344610574565b6040518080602001828103825283818151815260200191508051906020019080838360005b83811015610384578082015181840152602081019050610369565b50505050905090810190601f1680156103b15780820380516001836020036101000a031916815260200191505b509250505060405180910390f35b3480156103cb57600080fd5b506103f8600480360360208110156103e257600080fd5b8101908080359060200190929190505050610616565b005b34801561040657600080fd5b5061040f610620565b604051808273ffffffffffffffffffffffffffffffffffffffff1673ffffffffffffffffffffffffffffffffffffffff16815260200191505060405180910390f35b80600260006101000a81548173ffffffffffffffffffffffffffffffffffffffff021916908373ffffffffffffffffffffffffffffffffffffffff16021790555050565b606060018054600181600116156101000203166002900480601f01602080910402602001604051908101604052809291908181526020018280546001816001161561010002031660029004801561052d5780601f106105025761010080835404028352916020019161052d565b820191906000526020600020905b81548152906001019060200180831161051057829003601f168201915b5050505050905090565b806001908051906020019061054d92919061064a565b5050565b60008054905090565b806003908051906020019061057092919061064a565b5050565b606060038054600181600116156101000203166002900480601f01602080910402602001604051908101604052809291908181526020018280546001816001161561010002031660029004801561060c5780601f106105e15761010080835404028352916020019161060c565b820191906000526020600020905b8154815290600101906020018083116105ef57829003601f168201915b5050505050905090565b8060008190555050565b6000600260009054906101000a900473ffffffffffffffffffffffffffffffffffffffff16905090565b828054600181600116156101000203166002900490600052602060002090601f016020900481019282601f1061068b57805160ff19168380011785556106b9565b828001600101855582156106b9579182015b828111156106b857825182559160200191906001019061069d565b5b5090506106c691906106ca565b5090565b6106ec91905b808211156106e85760008160009055506001016106d0565b5090565b9056fea165627a7a72305820e7239516f3245b5840f7e5dc27b618c64cdabcd2b39f36d9d52bfef2b95304950029608060405234801561001057600080fd5b506040516107573803806107578339810180604052608081101561003357600080fd5b8101908080519060200190929190805164010000000081111561005557600080fd5b8281019050602081018481111561006b57600080fd5b815185600182028301116401000000008211171561008857600080fd5b505092919060200180519060200190929190805190602001909291905050508360008190555082600190805190602001906100c49291906100dc565b50816002819055508060038190555050505050610181565b828054600181600116156101000203166002900490600052602060002090601f016020900481019282601f1061011d57805160ff191683800117855561014b565b8280016001018555821561014b579182015b8281111561014a57825182559160200191906001019061012f565b5b509050610158919061015c565b5090565b61017e91905b8082111561017a576000816000905550600101610162565b5090565b90565b6105c7806101906000396000f3fe6080604052600436106100af576000357c0100000000000000000000000000000000000000000000000000000000900463ffffffff16806308e2db46146100b45780630ff12b531461010b578063344a6526146101d357806341f1aaa2146101fe5780634aabb2f2146102295780635d1ca63114610264578063843c608d1461028f578063a0da31c51461031f578063d0485ec21461034a578063d0e0ba9514610385578063fc8d0374146103c0575b600080fd5b3480156100c057600080fd5b506100c96103eb565b604051808273ffffffffffffffffffffffffffffffffffffffff1673ffffffffffffffffffffffffffffffffffffffff16815260200191505060405180910390f35b34801561011757600080fd5b506101d16004803603602081101561012e57600080fd5b810190808035906020019064010000000081111561014b57600080fd5b82018360208201111561015d57600080fd5b8035906020019184600183028401116401000000008311171561017f57600080fd5b91908080601f016020809104026020016040519081016040528093929190818152602001838380828437600081840152601f19601f8201169050808301925050505050505091929192905050506103f3565b005b3480156101df57600080fd5b506101e861040d565b6040518082815260200191505060405180910390f35b34801561020a57600080fd5b50610213610413565b6040518082815260200191505060405180910390f35b34801561023557600080fd5b506102626004803603602081101561024c57600080fd5b810190808035906020019092919050505061041d565b005b34801561027057600080fd5b50610279610427565b6040518082815260200191505060405180910390f35b34801561029b57600080fd5b506102a4610430565b6040518080602001828103825283818151815260200191508051906020019080838360005b838110156102e45780820151818401526020810190506102c9565b50505050905090810190601f1680156103115780820380516001836020036101000a031916815260200191505b509250505060405180910390f35b34801561032b57600080fd5b506103346104d2565b6040518082815260200191505060405180910390f35b34801561035657600080fd5b506103836004803603602081101561036d57600080fd5b81019080803590602001909291905050506104dc565b005b34801561039157600080fd5b506103be600480360360208110156103a857600080fd5b81019080803590602001909291905050506104e6565b005b3480156103cc57600080fd5b506103d56104f0565b6040518082815260200191505060405180910390f35b600030905090565b80600190805190602001906104099291906104f6565b5050565b60025481565b6000600254905090565b8060028190555050565b60008054905090565b606060018054600181600116156101000203166002900480601f0160208091040260200160405190810160405280929190818152602001828054600181600116156101000203166002900480156104c85780601f1061049d576101008083540402835291602001916104c8565b820191906000526020600020905b8154815290600101906020018083116104ab57829003601f168201915b5050505050905090565b6000600354905090565b8060038190555050565b8060008190555050565b60035481565b828054600181600116156101000203166002900490600052602060002090601f016020900481019282601f1061053757805160ff1916838001178555610565565b82800160010185558215610565579182015b82811115610564578251825591602001919060010190610549565b5b5090506105729190610576565b5090565b61059891905b8082111561059457600081600090555060010161057c565b5090565b9056fea165627a7a723058201a308efce61994572dbb363e53d4d40193b868fe9472afdd8b3f3d9df2e5dd330029a265627a7a7230582033a4ec1bc88a96d85db3119629f1ac13b2e36b6067713bae025045e6c165d36a6c6578706572696d656e74616cf50037608060405234801561001057600080fd5b506040516107573803806107578339810180604052608081101561003357600080fd5b8101908080519060200190929190805164010000000081111561005557600080fd5b8281019050602081018481111561006b57600080fd5b815185600182028301116401000000008211171561008857600080fd5b505092919060200180519060200190929190805190602001909291905050508360008190555082600190805190602001906100c49291906100dc565b50816002819055508060038190555050505050610181565b828054600181600116156101000203166002900490600052602060002090601f016020900481019282601f1061011d57805160ff191683800117855561014b565b8280016001018555821561014b579182015b8281111561014a57825182559160200191906001019061012f565b5b509050610158919061015c565b5090565b61017e91905b8082111561017a576000816000905550600101610162565b5090565b90565b6105c7806101906000396000f3fe6080604052600436106100af576000357c0100000000000000000000000000000000000000000000000000000000900463ffffffff16806308e2db46146100b45780630ff12b531461010b578063344a6526146101d357806341f1aaa2146101fe5780634aabb2f2146102295780635d1ca63114610264578063843c608d1461028f578063a0da31c51461031f578063d0485ec21461034a578063d0e0ba9514610385578063fc8d0374146103c0575b600080fd5b3480156100c057600080fd5b506100c96103eb565b604051808273ffffffffffffffffffffffffffffffffffffffff1673ffffffffffffffffffffffffffffffffffffffff16815260200191505060405180910390f35b34801561011757600080fd5b506101d16004803603602081101561012e57600080fd5b810190808035906020019064010000000081111561014b57600080fd5b82018360208201111561015d57600080fd5b8035906020019184600183028401116401000000008311171561017f57600080fd5b91908080601f016020809104026020016040519081016040528093929190818152602001838380828437600081840152601f19601f8201169050808301925050505050505091929192905050506103f3565b005b3480156101df57600080fd5b506101e861040d565b6040518082815260200191505060405180910390f35b34801561020a57600080fd5b50610213610413565b6040518082815260200191505060405180910390f35b34801561023557600080fd5b506102626004803603602081101561024c57600080fd5b810190808035906020019092919050505061041d565b005b34801561027057600080fd5b50610279610427565b6040518082815260200191505060405180910390f35b34801561029b57600080fd5b506102a4610430565b6040518080602001828103825283818151815260200191508051906020019080838360005b838110156102e45780820151818401526020810190506102c9565b50505050905090810190601f1680156103115780820380516001836020036101000a031916815260200191505b509250505060405180910390f35b34801561032b57600080fd5b506103346104d2565b6040518082815260200191505060405180910390f35b34801561035657600080fd5b506103836004803603602081101561036d57600080fd5b81019080803590602001909291905050506104dc565b005b34801561039157600080fd5b506103be600480360360208110156103a857600080fd5b81019080803590602001909291905050506104e6565b005b3480156103cc57600080fd5b506103d56104f0565b6040518082815260200191505060405180910390f35b600030905090565b80600190805190602001906104099291906104f6565b5050565b60025481565b6000600254905090565b8060028190555050565b60008054905090565b606060018054600181600116156101000203166002900480601f0160208091040260200160405190810160405280929190818152602001828054600181600116156101000203166002900480156104c85780601f1061049d576101008083540402835291602001916104c8565b820191906000526020600020905b8154815290600101906020018083116104ab57829003601f168201915b5050505050905090565b6000600354905090565b8060038190555050565b8060008190555050565b60035481565b828054600181600116156101000203166002900490600052602060002090601f016020900481019282601f1061053757805160ff1916838001178555610565565b82800160010185558215610565579182015b82811115610564578251825591602001919060010190610549565b5b5090506105729190610576565b5090565b61059891905b8082111561059457600081600090555060010161057c565b5090565b9056fea165627a7a723058201a308efce61994572dbb363e53d4d40193b868fe9472afdd8b3f3d9df2e5dd330029608060405260405161092a38038061092a8339810180604052608081101561002657600080fd5b8101908080519060200190929190805164010000000081111561004857600080fd5b8281019050602081018481111561005e57600080fd5b815185600182028301116401000000008211171561007b57600080fd5b50509291906020018051906020019092919080516401000000008111156100a157600080fd5b828101905060208101848111156100b757600080fd5b81518560018202830111640100000000821117156100d457600080fd5b50509291905050508360008190555082600190805190602001906100f992919061015b565b5081600260006101000a81548173ffffffffffffffffffffffffffffffffffffffff021916908373ffffffffffffffffffffffffffffffffffffffff160217905550806003908051906020019061015192919061015b565b5050505050610200565b828054600181600116156101000203166002900490600052602060002090601f016020900481019282601f1061019c57805160ff19168380011785556101ca565b828001600101855582156101ca579182015b828111156101c95782518255916020019190600101906101ae565b5b5090506101d791906101db565b5090565b6101fd91905b808211156101f95760008160009055506001016101e1565b5090565b90565b61071b8061020f6000396000f3fe60806040526004361061008e576000357c0100000000000000000000000000000000000000000000000000000000900463ffffffff1680630aa564341461009357806312958f1c146100e45780632b5914fe146101745780635d1ca6311461023c578063ac80446714610267578063bf04a10d1461032f578063d0e0ba95146103bf578063ebc3eee8146103fa575b600080fd5b34801561009f57600080fd5b506100e2600480360360208110156100b657600080fd5b81019080803573ffffffffffffffffffffffffffffffffffffffff169060200190929190505050610451565b005b3480156100f057600080fd5b506100f9610495565b6040518080602001828103825283818151815260200191508051906020019080838360005b8381101561013957808201518184015260208101905061011e565b50505050905090810190601f1680156101665780820380516001836020036101000a031916815260200191505b509250505060405180910390f35b34801561018057600080fd5b5061023a6004803603602081101561019757600080fd5b81019080803590602001906401000000008111156101b457600080fd5b8201836020820111156101c657600080fd5b803590602001918460018302840111640100000000831117156101e857600080fd5b91908080601f016020809104026020016040519081016040528093929190818152602001838380828437600081840152601f19601f820116905080830192505050505050509192919290505050610537565b005b34801561024857600080fd5b50610251610551565b6040518082815260200191505060405180910390f35b34801561027357600080fd5b5061032d6004803603602081101561028a57600080fd5b81019080803590602001906401000000008111156102a757600080fd5b8201836020820111156102b957600080fd5b803590602001918460018302840111640100000000831117156102db57600080fd5b91908080601f016020809104026020016040519081016040528093929190818152602001838380828437600081840152601f19601f82011690508083019250505050505050919291929050505061055a565b005b34801561033b57600080fd5b50610344610574565b6040518080602001828103825283818151815260200191508051906020019080838360005b83811015610384578082015181840152602081019050610369565b50505050905090810190601f1680156103b15780820380516001836020036101000a031916815260200191505b509250505060405180910390f35b3480156103cb57600080fd5b506103f8600480360360208110156103e257600080fd5b8101908080359060200190929190505050610616565b005b34801561040657600080fd5b5061040f610620565b604051808273ffffffffffffffffffffffffffffffffffffffff1673ffffffffffffffffffffffffffffffffffffffff16815260200191505060405180910390f35b80600260006101000a81548173ffffffffffffffffffffffffffffffffffffffff021916908373ffffffffffffffffffffffffffffffffffffffff16021790555050565b606060018054600181600116156101000203166002900480601f01602080910402602001604051908101604052809291908181526020018280546001816001161561010002031660029004801561052d5780601f106105025761010080835404028352916020019161052d565b820191906000526020600020905b81548152906001019060200180831161051057829003601f168201915b5050505050905090565b806001908051906020019061054d92919061064a565b5050565b60008054905090565b806003908051906020019061057092919061064a565b5050565b606060038054600181600116156101000203166002900480601f01602080910402602001604051908101604052809291908181526020018280546001816001161561010002031660029004801561060c5780601f106105e15761010080835404028352916020019161060c565b820191906000526020600020905b8154815290600101906020018083116105ef57829003601f168201915b5050505050905090565b8060008190555050565b6000600260009054906101000a900473ffffffffffffffffffffffffffffffffffffffff16905090565b828054600181600116156101000203166002900490600052602060002090601f016020900481019282601f1061068b57805160ff19168380011785556106b9565b828001600101855582156106b9579182015b828111156106b857825182559160200191906001019061069d565b5b5090506106c691906106ca565b5090565b6106ec91905b808211156106e85760008160009055506001016106d0565b5090565b9056fea165627a7a72305820e7239516f3245b5840f7e5dc27b618c64cdabcd2b39f36d9d52bfef2b9530495002960806040526040516108ef3803806108ef833981018060405260a081101561002657600080fd5b8101908080519060200190929190805164010000000081111561004857600080fd5b8281019050602081018481111561005e57600080fd5b815185600182028301116401000000008211171561007b57600080fd5b50509291906020018051906020019092919080519060200190929190805190602001909291905050508460008190555083600190805190602001906100c1929190610168565b5082600260006101000a81548160ff02191690831515021790555081600260016101000a81548173ffffffffffffffffffffffffffffffffffffffff021916908373ffffffffffffffffffffffffffffffffffffffff16021790555080600360006101000a81548173ffffffffffffffffffffffffffffffffffffffff021916908373ffffffffffffffffffffffffffffffffffffffff160217905550505050505061020d565b828054600181600116156101000203166002900490600052602060002090601f016020900481019282601f106101a957805160ff19168380011785556101d7565b828001600101855582156101d7579182015b828111156101d65782518255916020019190600101906101bb565b5b5090506101e491906101e8565b5090565b61020a91905b808211156102065760008160009055506001016101ee565b5090565b90565b6106d38061021c6000396000f3fe6080604052600436106100a4576000357c0100000000000000000000000000000000000000000000000000000000900463ffffffff1680630c9391e5146100a957806313859688146100fa57806315c780101461012557806324e222db146101ed5780633c8e65db146102445780635b54f9821461029557806375f96189146102c4578063b631b3411461031b578063bc9b5162146103ab578063f51f4738146103e6575b600080fd5b3480156100b557600080fd5b506100f8600480360360208110156100cc57600080fd5b81019080803573ffffffffffffffffffffffffffffffffffffffff169060200190929190505050610423565b005b34801561010657600080fd5b5061010f610467565b6040518082815260200191505060405180910390f35b34801561013157600080fd5b506101eb6004803603602081101561014857600080fd5b810190808035906020019064010000000081111561016557600080fd5b82018360208201111561017757600080fd5b8035906020019184600183028401116401000000008311171561019957600080fd5b91908080601f016020809104026020016040519081016040528093929190818152602001838380828437600081840152601f19601f820116905080830192505050505050509192919290505050610470565b005b3480156101f957600080fd5b5061020261048a565b604051808273ffffffffffffffffffffffffffffffffffffffff1673ffffffffffffffffffffffffffffffffffffffff16815260200191505060405180910390f35b34801561025057600080fd5b506102936004803603602081101561026757600080fd5b81019080803573ffffffffffffffffffffffffffffffffffffffff1690602001909291905050506104b4565b005b3480156102a157600080fd5b506102aa6104f8565b604051808215151515815260200191505060405180910390f35b3480156102d057600080fd5b506102d961050f565b604051808273ffffffffffffffffffffffffffffffffffffffff1673ffffffffffffffffffffffffffffffffffffffff16815260200191505060405180910390f35b34801561032757600080fd5b50610330610539565b6040518080602001828103825283818151815260200191508051906020019080838360005b83811015610370578082015181840152602081019050610355565b50505050905090810190601f16801561039d5780820380516001836020036101000a031916815260200191505b509250505060405180910390f35b3480156103b757600080fd5b506103e4600480360360208110156103ce57600080fd5b81019080803590602001909291905050506105db565b005b3480156103f257600080fd5b506104216004803603602081101561040957600080fd5b810190808035151590602001909291905050506105e5565b005b80600260016101000a81548173ffffffffffffffffffffffffffffffffffffffff021916908373ffffffffffffffffffffffffffffffffffffffff16021790555050565b60008054905090565b8060019080519060200190610486929190610602565b5050565b6000600360009054906101000a900473ffffffffffffffffffffffffffffffffffffffff16905090565b80600360006101000a81548173ffffffffffffffffffffffffffffffffffffffff021916908373ffffffffffffffffffffffffffffffffffffffff16021790555050565b6000600260009054906101000a900460ff16905090565b6000600260019054906101000a900473ffffffffffffffffffffffffffffffffffffffff16905090565b606060018054600181600116156101000203166002900480601f0160208091040260200160405190810160405280929190818152602001828054600181600116156101000203166002900480156105d15780601f106105a6576101008083540402835291602001916105d1565b820191906000526020600020905b8154815290600101906020018083116105b457829003601f168201915b5050505050905090565b8060008190555050565b80600260006101000a81548160ff02191690831515021790555050565b828054600181600116156101000203166002900490600052602060002090601f016020900481019282601f1061064357805160ff1916838001178555610671565b82800160010185558215610671579182015b82811115610670578251825591602001919060010190610655565b5b50905061067e9190610682565b5090565b6106a491905b808211156106a0576000816000905550600101610688565b5090565b9056fea165627a7a7230582001e0726fb36fe50ea76b1a3ca759ed91c71a976cd473a6b97da08a2e829cf4cf0029",
  "source": "pragma solidity ^0.5.0;\r\npragma experimental ABIEncoderV2;\r\n\r\nimport \"./User.sol\";\r\nimport \"./Group.sol\";\r\nimport \"./Task.sol\";\r\n\r\ncontract Main{\r\n\r\n    uint public groupCount;\r\n    mapping(uint => Group) public groups;\r\n    //one group - has many users\r\n    mapping(uint => uint[]) public oneGroupManyMembers;\r\n    //one group - has many tasks\r\n    mapping(uint => uint[]) public oneGroupManyTasks;\r\n\r\n    uint public userCount;\r\n    mapping(uint => User) public users;\r\n    //one user - one group\r\n    mapping(uint => uint) public oneUserOneGroup;\r\n    //one user - has many tasks\r\n    mapping(uint => Task[]) public userTasks;\r\n\r\n    uint public taskCount;\r\n    mapping(uint => Task) public tasks;\r\n    //one task - belong to one group\r\n    mapping(uint => uint) public oneTaskOneGroup;\r\n    //one task - belong to one user\r\n    mapping(uint => User) public taskUser;\r\n\r\n    constructor() public {\r\n        groupCount = 0;\r\n        createGroup(\"Group Default\");\r\n\r\n        userCount = 0;\r\n        createUser(\"Manager0123\", msg.sender, \"Manager\");\r\n\r\n        taskCount = 0;\r\n        createTask(\"Finish your thesis before 2nd Oct.\");\r\n    }\r\n\r\n    event groupCreated(uint gId, string groupName, uint numberOfMember, uint numberOfTask);\r\n    event UserCreated(uint id, string userName, address payable userAddress, string role);\r\n    event TaskCreated(uint id, string content, bool completed, address payable createdBy, address payable completedBy);\r\n\r\n\r\n    function createGroup(string memory _groupName) public {\r\n        // Require valid content\r\n        require(bytes(_groupName).length > 0);\r\n        groupCount ++;\r\n        groups[groupCount] = new Group(groupCount, _groupName,0,0);\r\n        emit groupCreated(groupCount, _groupName, 0, 0);\r\n    }\r\n\r\n    function getGroups() view public returns(uint[] memory, string[] memory){\r\n\r\n        uint[] memory gids = new uint[](groupCount);\r\n        string[] memory groupNames = new string[](groupCount);\r\n\r\n        for(uint i = 1; i <= groupCount; i++){\r\n            Group group = groups[i];\r\n            gids[i] = group.getId();\r\n            groupNames[i] = group.getGroupName();\r\n        }\r\n\r\n        return(gids, groupNames);\r\n    }\r\n\r\n    function getGroupById(uint _id) view public returns(string memory groupName, uint gId, uint numberOfMember, uint numberOfTask){\r\n\r\n        Group group = groups[_id];\r\n\r\n        uint numOfMember = oneGroupManyMembers[_id].length;\r\n        uint numOfTask =  oneGroupManyTasks[_id].length;\r\n\r\n        return (group.getGroupName(), _id, numOfMember, numOfTask);\r\n    }\r\n\r\n    function addMember(uint _gID, uint _userID) public{\r\n        // Group ID and User ID must be existed\r\n        require(_gID <= groupCount && _userID <= userCount);\r\n\r\n        oneGroupManyMembers[_gID].push(_userID);\r\n\r\n        oneUserOneGroup[_userID] = _gID;\r\n    }\r\n\r\n    function addTask(uint _gID, uint _tID) public{\r\n\r\n        require(_gID <= groupCount && _tID <= taskCount);\r\n\r\n        oneGroupManyTasks[_gID].push(_tID);\r\n\r\n        oneTaskOneGroup[_tID] = _gID;\r\n    }\r\n\r\n    function getMembers(uint _gID) view public returns(uint[] memory){\r\n\r\n        //uint totalMember = groups[_gID].getNumberOfMember();\r\n\r\n        uint totalMember = oneGroupManyMembers[_gID].length;\r\n\r\n        uint[] memory ids = new uint[](totalMember);\r\n\r\n        for (uint i = 0; i < totalMember; i++) {\r\n\r\n            ids[i] = oneGroupManyMembers[_gID][i];\r\n\r\n        }\r\n        return (ids);\r\n\r\n    }\r\n\r\n    function getGroupByUserId(uint _uId) public view returns(uint gId){\r\n\r\n        return oneUserOneGroup[_uId];\r\n\r\n    }\r\n\r\n    //////////////////////////////------User-------//////////////////////////////////////////\r\n\r\n    function createUser(string memory _userName, address payable _userAddress, string memory _role) public {\r\n        userCount++;\r\n        users[userCount] = new User(userCount, _userName, _userAddress, _role);\r\n        oneUserOneGroup[userCount] = 0;\r\n        emit UserCreated(userCount, _userName, _userAddress, \"User\");\r\n    }\r\n\r\n    function getUserById(uint _id) public view returns (string memory userName, address payable userAddress, uint uid) {\r\n\r\n        User user = users[_id];\r\n\r\n        return (user.getUserName(), user.getUserAddress(), _id);\r\n\r\n    }\r\n\r\n    function getAvailableUser() public view returns(uint[] memory uIds){\r\n        uint indexCount = 0;\r\n\r\n        for(uint i = 1; i <= userCount; i++){\r\n            if(oneUserOneGroup[i] == 0){\r\n                indexCount++;\r\n            }\r\n        }\r\n\r\n        uint[] memory _uIds = new uint[](indexCount);\r\n\r\n        uint j = 0;\r\n        for(uint i = 1; i <= userCount; i++){\r\n            if(oneUserOneGroup[i] == 0){\r\n                _uIds[j] = i;\r\n                j++;\r\n            }\r\n        }\r\n\r\n        return _uIds;\r\n    }\r\n\r\n    function getTest() public view returns(bool right){\r\n        return oneUserOneGroup[1]==0;\r\n    }\r\n\r\n    function getByAddress(address payable _userAddress) public view returns(string memory userName, string memory userRole, uint uId){\r\n\r\n        string memory uName;\r\n        string memory uRole;\r\n        uint uID;\r\n\r\n        for(uint i = 1; i <= userCount; i++){\r\n            User user = users[i];\r\n            if(user.getUserAddress() == _userAddress){\r\n                uName = user.getUserName();\r\n                uRole = user.getUserRole();\r\n                uID = user.getId();\r\n            }\r\n        }\r\n\r\n        return (uName, uRole, uID);\r\n    }\r\n\r\n    function update(uint _id, string memory _userName) public {\r\n        User user = users[_id];\r\n        //update the clone\r\n        user.setUserName(_userName);\r\n        users[_id] = user;\r\n    }\r\n\r\n    //////////////////////////////------Task-------//////////////////////////////////////////\r\n\r\n    function createTask(string memory _content) public {\r\n        // Require valid content\r\n        require(bytes(_content).length > 0);\r\n        //increase the number of Task\r\n        taskCount++;\r\n        tasks[taskCount] = new Task(taskCount, _content, false, msg.sender, address(0));\r\n        emit TaskCreated(taskCount, _content, false, msg.sender, address(0));\r\n    }\r\n\r\n    function getTaskById(uint _tId) public view returns(string memory content, uint tId, address payable createdBy, bool completed, address payable completedBy){\r\n        Task task = tasks[_tId];\r\n        return (task.getTaskContent(), _tId, task.getCreatedBy(), task.getCompleted(), task.getCompletedBy());\r\n    }\r\n\r\n    function getTasksByGroupId(uint _gId) public view returns(uint[] memory tIds){\r\n\r\n        uint totalTask= oneGroupManyTasks[_gId].length;\r\n\r\n        uint[] memory ids = new uint[](totalTask);\r\n\r\n        for (uint i = 0; i < totalTask; i++) {\r\n\r\n            ids[i] = oneGroupManyTasks[_gId][i];\r\n\r\n        }\r\n        return (ids);\r\n\r\n    }\r\n\r\n    function getAvailableTask() public view returns(uint[] memory tIds){\r\n\r\n        uint indexCount = 0;\r\n\r\n        for(uint i = 1; i <= taskCount; i++){\r\n            if(oneTaskOneGroup[i] == 0){\r\n                indexCount++;\r\n            }\r\n        }\r\n\r\n        uint[] memory _tIds = new uint[](indexCount);\r\n\r\n        uint j = 0;\r\n        for(uint i = 1; i <= taskCount; i++){\r\n            if(oneTaskOneGroup[i] == 0){\r\n                _tIds[j] = i;\r\n                j++;\r\n            }\r\n        }\r\n\r\n        return _tIds;\r\n\r\n    }\r\n\r\n\r\n}\r\n",
  "sourcePath": "C:/Users/Ho Tat Dat Nguyen/Documents/GitHub/todo-list-react/src/contracts/Main.sol",
  "compiler": {
    "name": "solc",
    "version": "0.5.0+commit.1d4f565a.Emscripten.clang"
  },
  "schemaVersion": "3.0.2",
  "updatedAt": "2020-09-13T16:57:32.480Z",
  "devdoc": {
    "methods": {}
  },
  "userdoc": {
    "methods": {
      "createTask(string)": {
        "notice": "///////////////////////////------Task-------//////////////////////////////////////////"
      },
      "createUser(string,address,string)": {
        "notice": "///////////////////////////------User-------//////////////////////////////////////////"
      }
    }
  }
}