{
  "contractName": "Main",
  "abi": [
    {
      "constant": true,
      "inputs": [],
      "name": "userCount",
      "outputs": [
        {
          "name": "",
          "type": "uint256"
        }
      ],
      "payable": false,
      "stateMutability": "view",
      "type": "function",
      "signature": "0x07973ccf"
    },
    {
      "constant": true,
      "inputs": [
        {
          "name": "",
          "type": "uint256"
        },
        {
          "name": "",
          "type": "uint256"
        }
      ],
      "name": "oneGroupManyMembers",
      "outputs": [
        {
          "name": "",
          "type": "uint256"
        }
      ],
      "payable": false,
      "stateMutability": "view",
      "type": "function",
      "signature": "0x15e677ad"
    },
    {
      "constant": true,
      "inputs": [
        {
          "name": "",
          "type": "uint256"
        },
        {
          "name": "",
          "type": "uint256"
        }
      ],
      "name": "groupTasks",
      "outputs": [
        {
          "name": "",
          "type": "address"
        }
      ],
      "payable": false,
      "stateMutability": "view",
      "type": "function",
      "signature": "0x1621c1c8"
    },
    {
      "constant": true,
      "inputs": [
        {
          "name": "",
          "type": "uint256"
        }
      ],
      "name": "users",
      "outputs": [
        {
          "name": "",
          "type": "address"
        }
      ],
      "payable": false,
      "stateMutability": "view",
      "type": "function",
      "signature": "0x365b98b2"
    },
    {
      "constant": true,
      "inputs": [
        {
          "name": "",
          "type": "uint256"
        }
      ],
      "name": "oneUserOneGroup",
      "outputs": [
        {
          "name": "",
          "type": "uint256"
        }
      ],
      "payable": false,
      "stateMutability": "view",
      "type": "function",
      "signature": "0x5ff1a6ed"
    },
    {
      "constant": true,
      "inputs": [
        {
          "name": "",
          "type": "uint256"
        }
      ],
      "name": "tasks",
      "outputs": [
        {
          "name": "",
          "type": "address"
        }
      ],
      "payable": false,
      "stateMutability": "view",
      "type": "function",
      "signature": "0x8d977672"
    },
    {
      "constant": true,
      "inputs": [],
      "name": "groupCount",
      "outputs": [
        {
          "name": "",
          "type": "uint256"
        }
      ],
      "payable": false,
      "stateMutability": "view",
      "type": "function",
      "signature": "0x8f23b326"
    },
    {
      "constant": true,
      "inputs": [
        {
          "name": "",
          "type": "uint256"
        }
      ],
      "name": "groups",
      "outputs": [
        {
          "name": "",
          "type": "address"
        }
      ],
      "payable": false,
      "stateMutability": "view",
      "type": "function",
      "signature": "0x96324bd4"
    },
    {
      "constant": true,
      "inputs": [
        {
          "name": "",
          "type": "uint256"
        }
      ],
      "name": "taskUser",
      "outputs": [
        {
          "name": "",
          "type": "address"
        }
      ],
      "payable": false,
      "stateMutability": "view",
      "type": "function",
      "signature": "0x99fca844"
    },
    {
      "constant": true,
      "inputs": [
        {
          "name": "",
          "type": "uint256"
        }
      ],
      "name": "taskGroup",
      "outputs": [
        {
          "name": "",
          "type": "address"
        }
      ],
      "payable": false,
      "stateMutability": "view",
      "type": "function",
      "signature": "0xa678e0bd"
    },
    {
      "constant": true,
      "inputs": [],
      "name": "taskCount",
      "outputs": [
        {
          "name": "",
          "type": "uint256"
        }
      ],
      "payable": false,
      "stateMutability": "view",
      "type": "function",
      "signature": "0xb6cb58a5"
    },
    {
      "constant": true,
      "inputs": [
        {
          "name": "",
          "type": "uint256"
        },
        {
          "name": "",
          "type": "uint256"
        }
      ],
      "name": "groupMembers",
      "outputs": [
        {
          "name": "",
          "type": "address"
        }
      ],
      "payable": false,
      "stateMutability": "view",
      "type": "function",
      "signature": "0xc6f6a749"
    },
    {
      "constant": true,
      "inputs": [
        {
          "name": "",
          "type": "uint256"
        },
        {
          "name": "",
          "type": "uint256"
        }
      ],
      "name": "userTasks",
      "outputs": [
        {
          "name": "",
          "type": "address"
        }
      ],
      "payable": false,
      "stateMutability": "view",
      "type": "function",
      "signature": "0xd70db5bf"
    },
    {
      "inputs": [],
      "payable": false,
      "stateMutability": "nonpayable",
      "type": "constructor",
      "signature": "constructor"
    },
    {
      "anonymous": false,
      "inputs": [
        {
          "indexed": false,
          "name": "gId",
          "type": "uint256"
        },
        {
          "indexed": false,
          "name": "groupName",
          "type": "string"
        },
        {
          "indexed": false,
          "name": "numberOfMember",
          "type": "uint256"
        },
        {
          "indexed": false,
          "name": "numberOfTask",
          "type": "uint256"
        }
      ],
      "name": "groupCreated",
      "type": "event",
      "signature": "0x963d1ca77026cdfbe6fe0836b55bb75864ca1ce130c9608dda1f074ef5a68d96"
    },
    {
      "anonymous": false,
      "inputs": [
        {
          "indexed": false,
          "name": "id",
          "type": "uint256"
        },
        {
          "indexed": false,
          "name": "userName",
          "type": "string"
        },
        {
          "indexed": false,
          "name": "userAddress",
          "type": "address"
        },
        {
          "indexed": false,
          "name": "role",
          "type": "string"
        }
      ],
      "name": "UserCreated",
      "type": "event",
      "signature": "0xc49566d6afa47426fd599e36ed625a7a645b084dbd2c1236fe9ac365e91a71fb"
    },
    {
      "anonymous": false,
      "inputs": [
        {
          "indexed": false,
          "name": "id",
          "type": "uint256"
        },
        {
          "indexed": false,
          "name": "content",
          "type": "string"
        },
        {
          "indexed": false,
          "name": "completed",
          "type": "bool"
        },
        {
          "indexed": false,
          "name": "createdBy",
          "type": "address"
        },
        {
          "indexed": false,
          "name": "completedBy",
          "type": "address"
        }
      ],
      "name": "TaskCreated",
      "type": "event",
      "signature": "0x1269015a5d391f69cb0c62599881ba11774c45477e6931c2c00f8d949d7acad5"
    },
    {
      "constant": false,
      "inputs": [
        {
          "name": "_groupName",
          "type": "string"
        }
      ],
      "name": "createGroup",
      "outputs": [],
      "payable": false,
      "stateMutability": "nonpayable",
      "type": "function",
      "signature": "0xdc2ddcae"
    },
    {
      "constant": true,
      "inputs": [],
      "name": "getGroups",
      "outputs": [
        {
          "name": "",
          "type": "uint256[]"
        },
        {
          "name": "",
          "type": "string[]"
        }
      ],
      "payable": false,
      "stateMutability": "view",
      "type": "function",
      "signature": "0xc72b5176"
    },
    {
      "constant": true,
      "inputs": [
        {
          "name": "_id",
          "type": "uint256"
        }
      ],
      "name": "getGroupById",
      "outputs": [
        {
          "name": "groupName",
          "type": "string"
        },
        {
          "name": "gId",
          "type": "uint256"
        },
        {
          "name": "numberOfMember",
          "type": "uint256"
        }
      ],
      "payable": false,
      "stateMutability": "view",
      "type": "function",
      "signature": "0x6cc29ea0"
    },
    {
      "constant": false,
      "inputs": [
        {
          "name": "_gID",
          "type": "uint256"
        },
        {
          "name": "_userID",
          "type": "uint256"
        }
      ],
      "name": "addMember",
      "outputs": [],
      "payable": false,
      "stateMutability": "nonpayable",
      "type": "function",
      "signature": "0x1783efc3"
    },
    {
      "constant": true,
      "inputs": [
        {
          "name": "_gID",
          "type": "uint256"
        }
      ],
      "name": "getMembers",
      "outputs": [
        {
          "name": "",
          "type": "uint256[]"
        }
      ],
      "payable": false,
      "stateMutability": "view",
      "type": "function",
      "signature": "0xc477ecab"
    },
    {
      "constant": false,
      "inputs": [
        {
          "name": "_userName",
          "type": "string"
        },
        {
          "name": "_userAddress",
          "type": "address"
        },
        {
          "name": "_role",
          "type": "string"
        }
      ],
      "name": "createUser",
      "outputs": [],
      "payable": false,
      "stateMutability": "nonpayable",
      "type": "function",
      "signature": "0xb17e8964"
    },
    {
      "constant": true,
      "inputs": [
        {
          "name": "_id",
          "type": "uint256"
        }
      ],
      "name": "getUserById",
      "outputs": [
        {
          "name": "userName",
          "type": "string"
        },
        {
          "name": "userAddress",
          "type": "address"
        },
        {
          "name": "uid",
          "type": "uint256"
        }
      ],
      "payable": false,
      "stateMutability": "view",
      "type": "function",
      "signature": "0x6ed6da9e"
    },
    {
      "constant": true,
      "inputs": [],
      "name": "getAvailableUser",
      "outputs": [
        {
          "name": "uIds",
          "type": "uint256[]"
        }
      ],
      "payable": false,
      "stateMutability": "view",
      "type": "function",
      "signature": "0x0101370b"
    },
    {
      "constant": true,
      "inputs": [],
      "name": "getTest",
      "outputs": [
        {
          "name": "right",
          "type": "bool"
        }
      ],
      "payable": false,
      "stateMutability": "view",
      "type": "function",
      "signature": "0xa8cd0a80"
    },
    {
      "constant": true,
      "inputs": [
        {
          "name": "_userAddress",
          "type": "address"
        }
      ],
      "name": "getByAddress",
      "outputs": [
        {
          "name": "userName",
          "type": "string"
        },
        {
          "name": "userRole",
          "type": "string"
        }
      ],
      "payable": false,
      "stateMutability": "view",
      "type": "function",
      "signature": "0x30257bf7"
    },
    {
      "constant": false,
      "inputs": [
        {
          "name": "_id",
          "type": "uint256"
        },
        {
          "name": "_userName",
          "type": "string"
        }
      ],
      "name": "update",
      "outputs": [],
      "payable": false,
      "stateMutability": "nonpayable",
      "type": "function",
      "signature": "0xf745630f"
    },
    {
      "constant": false,
      "inputs": [
        {
          "name": "_content",
          "type": "string"
        }
      ],
      "name": "createTask",
      "outputs": [],
      "payable": false,
      "stateMutability": "nonpayable",
      "type": "function",
      "signature": "0x111002aa"
    },
    {
      "constant": true,
      "inputs": [
        {
          "name": "_tId",
          "type": "uint256"
        }
      ],
      "name": "getTaskById",
      "outputs": [
        {
          "name": "content",
          "type": "string"
        },
        {
          "name": "createdBy",
          "type": "address"
        },
        {
          "name": "completed",
          "type": "bool"
        },
        {
          "name": "completedBy",
          "type": "address"
        }
      ],
      "payable": false,
      "stateMutability": "view",
      "type": "function",
      "signature": "0x976217cd"
    }
  ],
  "bytecode": "0x60806040523480156200001157600080fd5b5060008081905550620000686040805190810160405280600d81526020017f47726f75702044656661756c74000000000000000000000000000000000000008152506200017a640100000000026401000000009004565b6000600581905550620000f66040805190810160405280600b81526020017f4d616e6167657230313233000000000000000000000000000000000000000000815250336040805190810160405280600781526020017f4d616e616765720000000000000000000000000000000000000000000000000081525062000271640100000000026401000000009004565b600060098190555062000174606060405190810160405280602281526020017f46696e69736820796f757220746865736973206265666f726520326e64204f6381526020017f742e00000000000000000000000000000000000000000000000000000000000081525062000372640100000000026401000000009004565b62000777565b600081511115156200018b57600080fd5b600080815480929190600101919050555060005481600080620001ad62000471565b620001bc949392919062000673565b604051809103906000f080158015620001d9573d6000803e3d6000fd5b50600160008054815260200190815260200160002060006101000a81548173ffffffffffffffffffffffffffffffffffffffff021916908373ffffffffffffffffffffffffffffffffffffffff1602179055507f963d1ca77026cdfbe6fe0836b55bb75864ca1ce130c9608dda1f074ef5a68d966000548260008060405162000266949392919062000673565b60405180910390a150565b6005600081548092919060010191905055506005548383836200029362000482565b620002a294939291906200055b565b604051809103906000f080158015620002bf573d6000803e3d6000fd5b5060066000600554815260200190815260200160002060006101000a81548173ffffffffffffffffffffffffffffffffffffffff021916908373ffffffffffffffffffffffffffffffffffffffff1602179055506000600760006005548152602001908152602001600020819055507fc49566d6afa47426fd599e36ed625a7a645b084dbd2c1236fe9ac365e91a71fb60055484846040516200036593929190620005b6565b60405180910390a1505050565b600081511115156200038357600080fd5b600960008154809291906001019190505550600954816000336000620003a862000493565b620003b89594939291906200060f565b604051809103906000f080158015620003d5573d6000803e3d6000fd5b50600a6000600954815260200190815260200160002060006101000a81548173ffffffffffffffffffffffffffffffffffffffff021916908373ffffffffffffffffffffffffffffffffffffffff1602179055507f1269015a5d391f69cb0c62599881ba11774c45477e6931c2c00f8d949d7acad5600954826000336000604051620004669594939291906200060f565b60405180910390a150565b604051610757806200473083390190565b60405161092a8062004e8783390190565b6040516108ef80620057b183390190565b620004af81620006d2565b82525050565b620004c081620006e6565b82525050565b620004d1816200071c565b82525050565b6000620004e482620006c7565b808452620004fa81602086016020860162000730565b620005058162000766565b602085010191505092915050565b6000600482527f55736572000000000000000000000000000000000000000000000000000000006020830152604082019050919050565b620005558162000712565b82525050565b60006080820190506200057260008301876200054a565b8181036020830152620005868186620004d7565b9050620005976040830185620004a4565b8181036060830152620005ab8184620004d7565b905095945050505050565b6000608082019050620005cd60008301866200054a565b8181036020830152620005e18185620004d7565b9050620005f26040830184620004a4565b8181036060830152620006058162000513565b9050949350505050565b600060a0820190506200062660008301886200054a565b81810360208301526200063a8187620004d7565b90506200064b6040830186620004b5565b6200065a6060830185620004a4565b620006696080830184620004a4565b9695505050505050565b60006080820190506200068a60008301876200054a565b81810360208301526200069e8186620004d7565b9050620006af6040830185620004c6565b620006be6060830184620004c6565b95945050505050565b600081519050919050565b6000620006df82620006f2565b9050919050565b60008115159050919050565b600073ffffffffffffffffffffffffffffffffffffffff82169050919050565b6000819050919050565b6000620007298262000712565b9050919050565b60005b838110156200075057808201518184015260208101905062000733565b8381111562000760576000848401525b50505050565b6000601f19601f8301169050919050565b613fa980620007876000396000f3fe6080604052600436106200016f576000357c0100000000000000000000000000000000000000000000000000000000900463ffffffff1680630101370b146200017457806307973ccf14620001a4578063111002aa14620001d457806315e677ad14620002025780631621c1c814620002465780631783efc3146200028a57806330257bf714620002b8578063365b98b214620002fd5780635ff1a6ed14620003415780636cc29ea014620003855780636ed6da9e14620003cb5780638d97767214620004115780638f23b326146200045557806396324bd41462000485578063976217cd14620004c957806399fca8441462000510578063a678e0bd1462000554578063a8cd0a801462000598578063b17e896414620005c8578063b6cb58a514620005f6578063c477ecab1462000626578063c6f6a749146200066a578063c72b517614620006ae578063d70db5bf14620006df578063dc2ddcae1462000723578063f745630f1462000751575b600080fd5b3480156200018157600080fd5b506200018c6200077f565b6040516200019b919062002057565b60405180910390f35b348015620001b157600080fd5b50620001bc62000877565b604051620001cb919062002265565b60405180910390f35b348015620001e157600080fd5b50620002006004803603620001fa919081019062001c4f565b6200087d565b005b3480156200020f57600080fd5b506200022e600480360362000228919081019062001e13565b6200097c565b6040516200023d919062002265565b60405180910390f35b3480156200025357600080fd5b506200027260048036036200026c919081019062001e13565b620009ad565b604051620002819190620020f0565b60405180910390f35b3480156200029757600080fd5b50620002b66004803603620002b0919081019062001e13565b620009fb565b005b348015620002c557600080fd5b50620002e46004803603620002de919081019062001bcb565b62000a75565b604051620002f4929190620021e6565b60405180910390f35b3480156200030a57600080fd5b5062000329600480360362000323919081019062001d61565b62000d00565b6040516200033891906200210d565b60405180910390f35b3480156200034e57600080fd5b506200036d600480360362000367919081019062001d61565b62000d33565b6040516200037c919062002265565b60405180910390f35b3480156200039257600080fd5b50620003b16004803603620003ab919081019062001d61565b62000d4b565b604051620003c29392919062002221565b60405180910390f35b348015620003d857600080fd5b50620003f76004803603620003f1919081019062001d61565b62000e57565b6040516200040893929190620021a2565b60405180910390f35b3480156200041e57600080fd5b506200043d600480360362000437919081019062001d61565b62000fe4565b6040516200044c9190620020f0565b60405180910390f35b3480156200046257600080fd5b506200046d62001017565b6040516200047c919062002265565b60405180910390f35b3480156200049257600080fd5b50620004b16004803603620004ab919081019062001d61565b6200101d565b604051620004c09190620020d3565b60405180910390f35b348015620004d657600080fd5b50620004f56004803603620004ef919081019062001d61565b62001050565b6040516200050794939291906200214e565b60405180910390f35b3480156200051d57600080fd5b506200053c600480360362000536919081019062001d61565b6200131b565b6040516200054b91906200210d565b60405180910390f35b3480156200056157600080fd5b506200058060048036036200057a919081019062001d61565b6200134e565b6040516200058f9190620020d3565b60405180910390f35b348015620005a557600080fd5b50620005b062001381565b604051620005bf9190620020b6565b60405180910390f35b348015620005d557600080fd5b50620005f46004803603620005ee919081019062001cd9565b6200139f565b005b3480156200060357600080fd5b506200060e620014a0565b6040516200061d919062002265565b60405180910390f35b3480156200063357600080fd5b506200065260048036036200064c919081019062001d61565b620014a6565b60405162000661919062002057565b60405180910390f35b3480156200067757600080fd5b5062000696600480360362000690919081019062001e13565b62001569565b604051620006a591906200210d565b60405180910390f35b348015620006bb57600080fd5b50620006c6620015b7565b604051620006d69291906200207b565b60405180910390f35b348015620006ec57600080fd5b506200070b600480360362000705919081019062001e13565b6200180f565b6040516200071a9190620020f0565b60405180910390f35b3480156200073057600080fd5b506200074f600480360362000749919081019062001c4f565b6200185d565b005b3480156200075e57600080fd5b506200077d600480360362000777919081019062001db9565b62001954565b005b606060008090506000600190505b60055481111515620007cd57600060076000838152602001908152602001600020541415620007bf5781806001019250505b80806001019150506200078d565b50606081604051908082528060200260200182016040528015620008005781602001602082028038833980820191505090505b50905060008090506000600190505b600554811115156200086d576000600760008381526020019081526020016000205414156200085f578083838151811015156200084857fe5b906020019060200201818152505081806001019250505b80806001019150506200080f565b5081935050505090565b60055481565b600081511115156200088e57600080fd5b600960008154809291906001019190505550600954816000336000620008b362001a6e565b620008c395949392919062002336565b604051809103906000f080158015620008e0573d6000803e3d6000fd5b50600a6000600954815260200190815260200160002060006101000a81548173ffffffffffffffffffffffffffffffffffffffff021916908373ffffffffffffffffffffffffffffffffffffffff1602179055507f1269015a5d391f69cb0c62599881ba11774c45477e6931c2c00f8d949d7acad56009548260003360006040516200097195949392919062002336565b60405180910390a150565b6003602052816000526040600020818154811015156200099857fe5b90600052602060002001600091509150505481565b600460205281600052604060002081815481101515620009c957fe5b906000526020600020016000915091509054906101000a900473ffffffffffffffffffffffffffffffffffffffff1681565b600054821115801562000a1057506005548111155b151562000a1c57600080fd5b600360008381526020019081526020016000208190806001815401808255809150509060018203906000526020600020016000909192909190915055508160076000838152602001908152602001600020819055505050565b6060806060806000600190505b6005548111151562000cf25760006006600083815260200190815260200160002060009054906101000a900473ffffffffffffffffffffffffffffffffffffffff1690508673ffffffffffffffffffffffffffffffffffffffff168173ffffffffffffffffffffffffffffffffffffffff1663ebc3eee86040518163ffffffff167c010000000000000000000000000000000000000000000000000000000002815260040160206040518083038186803b15801562000b4057600080fd5b505afa15801562000b55573d6000803e3d6000fd5b505050506040513d601f19601f8201168201806040525062000b7b919081019062001bf7565b73ffffffffffffffffffffffffffffffffffffffff16141562000ce3578073ffffffffffffffffffffffffffffffffffffffff166312958f1c6040518163ffffffff167c010000000000000000000000000000000000000000000000000000000002815260040160006040518083038186803b15801562000bfb57600080fd5b505afa15801562000c10573d6000803e3d6000fd5b505050506040513d6000823e3d601f19601f8201168201806040525062000c3b919081019062001c94565b93508073ffffffffffffffffffffffffffffffffffffffff1663bf04a10d6040518163ffffffff167c010000000000000000000000000000000000000000000000000000000002815260040160006040518083038186803b15801562000ca057600080fd5b505afa15801562000cb5573d6000803e3d6000fd5b505050506040513d6000823e3d601f19601f8201168201806040525062000ce0919081019062001c94565b92505b50808060010191505062000a82565b508181935093505050915091565b60066020528060005260406000206000915054906101000a900473ffffffffffffffffffffffffffffffffffffffff1681565b60076020528060005260406000206000915090505481565b606060008060006001600086815260200190815260200160002060009054906101000a900473ffffffffffffffffffffffffffffffffffffffff1690506000600360008781526020019081526020016000208054905090508173ffffffffffffffffffffffffffffffffffffffff1663843c608d6040518163ffffffff167c010000000000000000000000000000000000000000000000000000000002815260040160006040518083038186803b15801562000e0657600080fd5b505afa15801562000e1b573d6000803e3d6000fd5b505050506040513d6000823e3d601f19601f8201168201806040525062000e46919081019062001c94565b868294509450945050509193909250565b606060008060006006600086815260200190815260200160002060009054906101000a900473ffffffffffffffffffffffffffffffffffffffff1690508073ffffffffffffffffffffffffffffffffffffffff166312958f1c6040518163ffffffff167c010000000000000000000000000000000000000000000000000000000002815260040160006040518083038186803b15801562000ef757600080fd5b505afa15801562000f0c573d6000803e3d6000fd5b505050506040513d6000823e3d601f19601f8201168201806040525062000f37919081019062001c94565b8173ffffffffffffffffffffffffffffffffffffffff1663ebc3eee86040518163ffffffff167c010000000000000000000000000000000000000000000000000000000002815260040160206040518083038186803b15801562000f9a57600080fd5b505afa15801562000faf573d6000803e3d6000fd5b505050506040513d601f19601f8201168201806040525062000fd5919081019062001bf7565b86935093509350509193909250565b600a6020528060005260406000206000915054906101000a900473ffffffffffffffffffffffffffffffffffffffff1681565b60005481565b60016020528060005260406000206000915054906101000a900473ffffffffffffffffffffffffffffffffffffffff1681565b6060600080600080600a600087815260200190815260200160002060009054906101000a900473ffffffffffffffffffffffffffffffffffffffff1690508073ffffffffffffffffffffffffffffffffffffffff1663b631b3416040518163ffffffff167c010000000000000000000000000000000000000000000000000000000002815260040160006040518083038186803b158015620010f157600080fd5b505afa15801562001106573d6000803e3d6000fd5b505050506040513d6000823e3d601f19601f8201168201806040525062001131919081019062001c94565b8173ffffffffffffffffffffffffffffffffffffffff166375f961896040518163ffffffff167c010000000000000000000000000000000000000000000000000000000002815260040160206040518083038186803b1580156200119457600080fd5b505afa158015620011a9573d6000803e3d6000fd5b505050506040513d601f19601f82011682018060405250620011cf919081019062001bf7565b8273ffffffffffffffffffffffffffffffffffffffff16635b54f9826040518163ffffffff167c010000000000000000000000000000000000000000000000000000000002815260040160206040518083038186803b1580156200123257600080fd5b505afa15801562001247573d6000803e3d6000fd5b505050506040513d601f19601f820116820180604052506200126d919081019062001c23565b8373ffffffffffffffffffffffffffffffffffffffff166324e222db6040518163ffffffff167c010000000000000000000000000000000000000000000000000000000002815260040160206040518083038186803b158015620012d057600080fd5b505afa158015620012e5573d6000803e3d6000fd5b505050506040513d601f19601f820116820180604052506200130b919081019062001bf7565b9450945094509450509193509193565b600c6020528060005260406000206000915054906101000a900473ffffffffffffffffffffffffffffffffffffffff1681565b600b6020528060005260406000206000915054906101000a900473ffffffffffffffffffffffffffffffffffffffff1681565b60008060076000600181526020019081526020016000205414905090565b600560008154809291906001019190505550600554838383620013c162001a7f565b620013d0949392919062002282565b604051809103906000f080158015620013ed573d6000803e3d6000fd5b5060066000600554815260200190815260200160002060006101000a81548173ffffffffffffffffffffffffffffffffffffffff021916908373ffffffffffffffffffffffffffffffffffffffff1602179055506000600760006005548152602001908152602001600020819055507fc49566d6afa47426fd599e36ed625a7a645b084dbd2c1236fe9ac365e91a71fb60055484846040516200149393929190620022dd565b60405180910390a1505050565b60095481565b6060600060036000848152602001908152602001600020805490509050606081604051908082528060200260200182016040528015620014f55781602001602082028038833980820191505090505b50905060008090505b828110156200155e5760036000868152602001908152602001600020818154811015156200152857fe5b906000526020600020015482828151811015156200154257fe5b90602001906020020181815250508080600101915050620014fe565b508092505050919050565b6002602052816000526040600020818154811015156200158557fe5b906000526020600020016000915091509054906101000a900473ffffffffffffffffffffffffffffffffffffffff1681565b6060806060600054604051908082528060200260200182016040528015620015ee5781602001602082028038833980820191505090505b50905060606000546040519080825280602002602001820160405280156200162b57816020015b6060815260200190600190039081620016155790505b5090506000600190505b60005481111515620018025760006001600083815260200190815260200160002060009054906101000a900473ffffffffffffffffffffffffffffffffffffffff1690508073ffffffffffffffffffffffffffffffffffffffff16635d1ca6316040518163ffffffff167c010000000000000000000000000000000000000000000000000000000002815260040160206040518083038186803b158015620016dc57600080fd5b505afa158015620016f1573d6000803e3d6000fd5b505050506040513d601f19601f8201168201806040525062001717919081019062001d8d565b84838151811015156200172657fe5b90602001906020020181815250508073ffffffffffffffffffffffffffffffffffffffff1663843c608d6040518163ffffffff167c010000000000000000000000000000000000000000000000000000000002815260040160006040518083038186803b1580156200179757600080fd5b505afa158015620017ac573d6000803e3d6000fd5b505050506040513d6000823e3d601f19601f82011682018060405250620017d7919081019062001c94565b8383815181101515620017e657fe5b9060200190602002018190525050808060010191505062001635565b5081819350935050509091565b6008602052816000526040600020818154811015156200182b57fe5b906000526020600020016000915091509054906101000a900473ffffffffffffffffffffffffffffffffffffffff1681565b600081511115156200186e57600080fd5b6000808154809291906001019190505550600054816000806200189062001a90565b6200189f94939291906200239a565b604051809103906000f080158015620018bc573d6000803e3d6000fd5b50600160008054815260200190815260200160002060006101000a81548173ffffffffffffffffffffffffffffffffffffffff021916908373ffffffffffffffffffffffffffffffffffffffff1602179055507f963d1ca77026cdfbe6fe0836b55bb75864ca1ce130c9608dda1f074ef5a68d96600054826000806040516200194994939291906200239a565b60405180910390a150565b60006006600084815260200190815260200160002060009054906101000a900473ffffffffffffffffffffffffffffffffffffffff1690508073ffffffffffffffffffffffffffffffffffffffff16632b5914fe836040518263ffffffff167c0100000000000000000000000000000000000000000000000000000000028152600401620019e391906200212a565b600060405180830381600087803b158015620019fe57600080fd5b505af115801562001a13573d6000803e3d6000fd5b50505050806006600085815260200190815260200160002060006101000a81548173ffffffffffffffffffffffffffffffffffffffff021916908373ffffffffffffffffffffffffffffffffffffffff160217905550505050565b6040516108ef806200260083390190565b60405161092a8062002eef83390190565b604051610757806200381983390190565b600062001aaf8235620024f3565b905092915050565b600062001ac58251620024f3565b905092915050565b600062001adb825162002507565b905092915050565b600082601f830112151562001af757600080fd5b813562001b0e62001b08826200241c565b620023ee565b9150808252602083016020830185838301111562001b2b57600080fd5b62001b38838284620025a9565b50505092915050565b600082601f830112151562001b5557600080fd5b815162001b6c62001b66826200241c565b620023ee565b9150808252602083016020830185838301111562001b8957600080fd5b62001b96838284620025b8565b50505092915050565b600062001bad823562002513565b905092915050565b600062001bc3825162002513565b905092915050565b60006020828403121562001bde57600080fd5b600062001bee8482850162001aa1565b91505092915050565b60006020828403121562001c0a57600080fd5b600062001c1a8482850162001ab7565b91505092915050565b60006020828403121562001c3657600080fd5b600062001c468482850162001acd565b91505092915050565b60006020828403121562001c6257600080fd5b600082013567ffffffffffffffff81111562001c7d57600080fd5b62001c8b8482850162001ae3565b91505092915050565b60006020828403121562001ca757600080fd5b600082015167ffffffffffffffff81111562001cc257600080fd5b62001cd08482850162001b41565b91505092915050565b60008060006060848603121562001cef57600080fd5b600084013567ffffffffffffffff81111562001d0a57600080fd5b62001d188682870162001ae3565b935050602062001d2b8682870162001aa1565b925050604084013567ffffffffffffffff81111562001d4957600080fd5b62001d578682870162001ae3565b9150509250925092565b60006020828403121562001d7457600080fd5b600062001d848482850162001b9f565b91505092915050565b60006020828403121562001da057600080fd5b600062001db08482850162001bb5565b91505092915050565b6000806040838503121562001dcd57600080fd5b600062001ddd8582860162001b9f565b925050602083013567ffffffffffffffff81111562001dfb57600080fd5b62001e098582860162001ae3565b9150509250929050565b6000806040838503121562001e2757600080fd5b600062001e378582860162001b9f565b925050602062001e4a8582860162001b9f565b9150509250929050565b62001e5f81620024a9565b82525050565b600062001e728262002463565b8084526020840193508360208202850162001e8d8562002449565b60005b8481101562001ecc57838303885262001eab83835162001fd3565b925062001eb8826200248f565b915060208801975060018101905062001e90565b508196508694505050505092915050565b600062001eea826200246e565b80845260208401935062001efe8362002456565b60005b8281101562001f365762001f1786835162002046565b62001f22826200249c565b915060208601955060018101905062001f01565b50849250505092915050565b62001f4d81620024bd565b82525050565b62001f5e816200251d565b82525050565b62001f6f8162002545565b82525050565b62001f80816200256d565b82525050565b62001f918162002595565b82525050565b600062001fa48262002484565b80845262001fba816020860160208601620025b8565b62001fc581620025ee565b602085010191505092915050565b600062001fe08262002479565b80845262001ff6816020860160208601620025b8565b6200200181620025ee565b602085010191505092915050565b6000600482527f55736572000000000000000000000000000000000000000000000000000000006020830152604082019050919050565b6200205181620024e9565b82525050565b6000602082019050818103600083015262002073818462001edd565b905092915050565b6000604082019050818103600083015262002097818562001edd565b90508181036020830152620020ad818462001e65565b90509392505050565b6000602082019050620020cd600083018462001f42565b92915050565b6000602082019050620020ea600083018462001f53565b92915050565b600060208201905062002107600083018462001f64565b92915050565b600060208201905062002124600083018462001f75565b92915050565b6000602082019050818103600083015262002146818462001f97565b905092915050565b600060808201905081810360008301526200216a818762001f97565b90506200217b602083018662001e54565b6200218a604083018562001f42565b62002199606083018462001e54565b95945050505050565b60006060820190508181036000830152620021be818662001f97565b9050620021cf602083018562001e54565b620021de604083018462002046565b949350505050565b6000604082019050818103600083015262002202818562001f97565b9050818103602083015262002218818462001f97565b90509392505050565b600060608201905081810360008301526200223d818662001f97565b90506200224e602083018562002046565b6200225d604083018462002046565b949350505050565b60006020820190506200227c600083018462002046565b92915050565b600060808201905062002299600083018762002046565b8181036020830152620022ad818662001f97565b9050620022be604083018562001e54565b8181036060830152620022d2818462001f97565b905095945050505050565b6000608082019050620022f4600083018662002046565b818103602083015262002308818562001f97565b905062002319604083018462001e54565b81810360608301526200232c816200200f565b9050949350505050565b600060a0820190506200234d600083018862002046565b818103602083015262002361818762001f97565b905062002372604083018662001f42565b62002381606083018562001e54565b62002390608083018462001e54565b9695505050505050565b6000608082019050620023b1600083018762002046565b8181036020830152620023c5818662001f97565b9050620023d6604083018562001f86565b620023e5606083018462001f86565b95945050505050565b6000604051905081810181811067ffffffffffffffff821117156200241257600080fd5b8060405250919050565b600067ffffffffffffffff8211156200243457600080fd5b601f19601f8301169050602081019050919050565b6000602082019050919050565b6000602082019050919050565b600081519050919050565b600081519050919050565b600081519050919050565b600081519050919050565b6000602082019050919050565b6000602082019050919050565b6000620024b682620024c9565b9050919050565b60008115159050919050565b600073ffffffffffffffffffffffffffffffffffffffff82169050919050565b6000819050919050565b60006200250082620024c9565b9050919050565b60008115159050919050565b6000819050919050565b60006200252a8262002531565b9050919050565b60006200253e82620024c9565b9050919050565b6000620025528262002559565b9050919050565b60006200256682620024c9565b9050919050565b60006200257a8262002581565b9050919050565b60006200258e82620024c9565b9050919050565b6000620025a282620024e9565b9050919050565b82818337600083830152505050565b60005b83811015620025d8578082015181840152602081019050620025bb565b83811115620025e8576000848401525b50505050565b6000601f19601f830116905091905056fe60806040526040516108ef3803806108ef833981018060405260a081101561002657600080fd5b8101908080519060200190929190805164010000000081111561004857600080fd5b8281019050602081018481111561005e57600080fd5b815185600182028301116401000000008211171561007b57600080fd5b50509291906020018051906020019092919080519060200190929190805190602001909291905050508460008190555083600190805190602001906100c1929190610168565b5082600260006101000a81548160ff02191690831515021790555081600260016101000a81548173ffffffffffffffffffffffffffffffffffffffff021916908373ffffffffffffffffffffffffffffffffffffffff16021790555080600360006101000a81548173ffffffffffffffffffffffffffffffffffffffff021916908373ffffffffffffffffffffffffffffffffffffffff160217905550505050505061020d565b828054600181600116156101000203166002900490600052602060002090601f016020900481019282601f106101a957805160ff19168380011785556101d7565b828001600101855582156101d7579182015b828111156101d65782518255916020019190600101906101bb565b5b5090506101e491906101e8565b5090565b61020a91905b808211156102065760008160009055506001016101ee565b5090565b90565b6106d38061021c6000396000f3fe6080604052600436106100a4576000357c0100000000000000000000000000000000000000000000000000000000900463ffffffff1680630c9391e5146100a957806313859688146100fa57806315c780101461012557806324e222db146101ed5780633c8e65db146102445780635b54f9821461029557806375f96189146102c4578063b631b3411461031b578063bc9b5162146103ab578063f51f4738146103e6575b600080fd5b3480156100b557600080fd5b506100f8600480360360208110156100cc57600080fd5b81019080803573ffffffffffffffffffffffffffffffffffffffff169060200190929190505050610423565b005b34801561010657600080fd5b5061010f610467565b6040518082815260200191505060405180910390f35b34801561013157600080fd5b506101eb6004803603602081101561014857600080fd5b810190808035906020019064010000000081111561016557600080fd5b82018360208201111561017757600080fd5b8035906020019184600183028401116401000000008311171561019957600080fd5b91908080601f016020809104026020016040519081016040528093929190818152602001838380828437600081840152601f19601f820116905080830192505050505050509192919290505050610470565b005b3480156101f957600080fd5b5061020261048a565b604051808273ffffffffffffffffffffffffffffffffffffffff1673ffffffffffffffffffffffffffffffffffffffff16815260200191505060405180910390f35b34801561025057600080fd5b506102936004803603602081101561026757600080fd5b81019080803573ffffffffffffffffffffffffffffffffffffffff1690602001909291905050506104b4565b005b3480156102a157600080fd5b506102aa6104f8565b604051808215151515815260200191505060405180910390f35b3480156102d057600080fd5b506102d961050f565b604051808273ffffffffffffffffffffffffffffffffffffffff1673ffffffffffffffffffffffffffffffffffffffff16815260200191505060405180910390f35b34801561032757600080fd5b50610330610539565b6040518080602001828103825283818151815260200191508051906020019080838360005b83811015610370578082015181840152602081019050610355565b50505050905090810190601f16801561039d5780820380516001836020036101000a031916815260200191505b509250505060405180910390f35b3480156103b757600080fd5b506103e4600480360360208110156103ce57600080fd5b81019080803590602001909291905050506105db565b005b3480156103f257600080fd5b506104216004803603602081101561040957600080fd5b810190808035151590602001909291905050506105e5565b005b80600260016101000a81548173ffffffffffffffffffffffffffffffffffffffff021916908373ffffffffffffffffffffffffffffffffffffffff16021790555050565b60008054905090565b8060019080519060200190610486929190610602565b5050565b6000600360009054906101000a900473ffffffffffffffffffffffffffffffffffffffff16905090565b80600360006101000a81548173ffffffffffffffffffffffffffffffffffffffff021916908373ffffffffffffffffffffffffffffffffffffffff16021790555050565b6000600260009054906101000a900460ff16905090565b6000600260019054906101000a900473ffffffffffffffffffffffffffffffffffffffff16905090565b606060018054600181600116156101000203166002900480601f0160208091040260200160405190810160405280929190818152602001828054600181600116156101000203166002900480156105d15780601f106105a6576101008083540402835291602001916105d1565b820191906000526020600020905b8154815290600101906020018083116105b457829003601f168201915b5050505050905090565b8060008190555050565b80600260006101000a81548160ff02191690831515021790555050565b828054600181600116156101000203166002900490600052602060002090601f016020900481019282601f1061064357805160ff1916838001178555610671565b82800160010185558215610671579182015b82811115610670578251825591602001919060010190610655565b5b50905061067e9190610682565b5090565b6106a491905b808211156106a0576000816000905550600101610688565b5090565b9056fea165627a7a7230582001e0726fb36fe50ea76b1a3ca759ed91c71a976cd473a6b97da08a2e829cf4cf0029608060405260405161092a38038061092a8339810180604052608081101561002657600080fd5b8101908080519060200190929190805164010000000081111561004857600080fd5b8281019050602081018481111561005e57600080fd5b815185600182028301116401000000008211171561007b57600080fd5b50509291906020018051906020019092919080516401000000008111156100a157600080fd5b828101905060208101848111156100b757600080fd5b81518560018202830111640100000000821117156100d457600080fd5b50509291905050508360008190555082600190805190602001906100f992919061015b565b5081600260006101000a81548173ffffffffffffffffffffffffffffffffffffffff021916908373ffffffffffffffffffffffffffffffffffffffff160217905550806003908051906020019061015192919061015b565b5050505050610200565b828054600181600116156101000203166002900490600052602060002090601f016020900481019282601f1061019c57805160ff19168380011785556101ca565b828001600101855582156101ca579182015b828111156101c95782518255916020019190600101906101ae565b5b5090506101d791906101db565b5090565b6101fd91905b808211156101f95760008160009055506001016101e1565b5090565b90565b61071b8061020f6000396000f3fe60806040526004361061008e576000357c0100000000000000000000000000000000000000000000000000000000900463ffffffff1680630aa564341461009357806312958f1c146100e45780632b5914fe146101745780635d1ca6311461023c578063ac80446714610267578063bf04a10d1461032f578063d0e0ba95146103bf578063ebc3eee8146103fa575b600080fd5b34801561009f57600080fd5b506100e2600480360360208110156100b657600080fd5b81019080803573ffffffffffffffffffffffffffffffffffffffff169060200190929190505050610451565b005b3480156100f057600080fd5b506100f9610495565b6040518080602001828103825283818151815260200191508051906020019080838360005b8381101561013957808201518184015260208101905061011e565b50505050905090810190601f1680156101665780820380516001836020036101000a031916815260200191505b509250505060405180910390f35b34801561018057600080fd5b5061023a6004803603602081101561019757600080fd5b81019080803590602001906401000000008111156101b457600080fd5b8201836020820111156101c657600080fd5b803590602001918460018302840111640100000000831117156101e857600080fd5b91908080601f016020809104026020016040519081016040528093929190818152602001838380828437600081840152601f19601f820116905080830192505050505050509192919290505050610537565b005b34801561024857600080fd5b50610251610551565b6040518082815260200191505060405180910390f35b34801561027357600080fd5b5061032d6004803603602081101561028a57600080fd5b81019080803590602001906401000000008111156102a757600080fd5b8201836020820111156102b957600080fd5b803590602001918460018302840111640100000000831117156102db57600080fd5b91908080601f016020809104026020016040519081016040528093929190818152602001838380828437600081840152601f19601f82011690508083019250505050505050919291929050505061055a565b005b34801561033b57600080fd5b50610344610574565b6040518080602001828103825283818151815260200191508051906020019080838360005b83811015610384578082015181840152602081019050610369565b50505050905090810190601f1680156103b15780820380516001836020036101000a031916815260200191505b509250505060405180910390f35b3480156103cb57600080fd5b506103f8600480360360208110156103e257600080fd5b8101908080359060200190929190505050610616565b005b34801561040657600080fd5b5061040f610620565b604051808273ffffffffffffffffffffffffffffffffffffffff1673ffffffffffffffffffffffffffffffffffffffff16815260200191505060405180910390f35b80600260006101000a81548173ffffffffffffffffffffffffffffffffffffffff021916908373ffffffffffffffffffffffffffffffffffffffff16021790555050565b606060018054600181600116156101000203166002900480601f01602080910402602001604051908101604052809291908181526020018280546001816001161561010002031660029004801561052d5780601f106105025761010080835404028352916020019161052d565b820191906000526020600020905b81548152906001019060200180831161051057829003601f168201915b5050505050905090565b806001908051906020019061054d92919061064a565b5050565b60008054905090565b806003908051906020019061057092919061064a565b5050565b606060038054600181600116156101000203166002900480601f01602080910402602001604051908101604052809291908181526020018280546001816001161561010002031660029004801561060c5780601f106105e15761010080835404028352916020019161060c565b820191906000526020600020905b8154815290600101906020018083116105ef57829003601f168201915b5050505050905090565b8060008190555050565b6000600260009054906101000a900473ffffffffffffffffffffffffffffffffffffffff16905090565b828054600181600116156101000203166002900490600052602060002090601f016020900481019282601f1061068b57805160ff19168380011785556106b9565b828001600101855582156106b9579182015b828111156106b857825182559160200191906001019061069d565b5b5090506106c691906106ca565b5090565b6106ec91905b808211156106e85760008160009055506001016106d0565b5090565b9056fea165627a7a72305820e7239516f3245b5840f7e5dc27b618c64cdabcd2b39f36d9d52bfef2b95304950029608060405234801561001057600080fd5b506040516107573803806107578339810180604052608081101561003357600080fd5b8101908080519060200190929190805164010000000081111561005557600080fd5b8281019050602081018481111561006b57600080fd5b815185600182028301116401000000008211171561008857600080fd5b505092919060200180519060200190929190805190602001909291905050508360008190555082600190805190602001906100c49291906100dc565b50816002819055508060038190555050505050610181565b828054600181600116156101000203166002900490600052602060002090601f016020900481019282601f1061011d57805160ff191683800117855561014b565b8280016001018555821561014b579182015b8281111561014a57825182559160200191906001019061012f565b5b509050610158919061015c565b5090565b61017e91905b8082111561017a576000816000905550600101610162565b5090565b90565b6105c7806101906000396000f3fe6080604052600436106100af576000357c0100000000000000000000000000000000000000000000000000000000900463ffffffff16806308e2db46146100b45780630ff12b531461010b578063344a6526146101d357806341f1aaa2146101fe5780634aabb2f2146102295780635d1ca63114610264578063843c608d1461028f578063a0da31c51461031f578063d0485ec21461034a578063d0e0ba9514610385578063fc8d0374146103c0575b600080fd5b3480156100c057600080fd5b506100c96103eb565b604051808273ffffffffffffffffffffffffffffffffffffffff1673ffffffffffffffffffffffffffffffffffffffff16815260200191505060405180910390f35b34801561011757600080fd5b506101d16004803603602081101561012e57600080fd5b810190808035906020019064010000000081111561014b57600080fd5b82018360208201111561015d57600080fd5b8035906020019184600183028401116401000000008311171561017f57600080fd5b91908080601f016020809104026020016040519081016040528093929190818152602001838380828437600081840152601f19601f8201169050808301925050505050505091929192905050506103f3565b005b3480156101df57600080fd5b506101e861040d565b6040518082815260200191505060405180910390f35b34801561020a57600080fd5b50610213610413565b6040518082815260200191505060405180910390f35b34801561023557600080fd5b506102626004803603602081101561024c57600080fd5b810190808035906020019092919050505061041d565b005b34801561027057600080fd5b50610279610427565b6040518082815260200191505060405180910390f35b34801561029b57600080fd5b506102a4610430565b6040518080602001828103825283818151815260200191508051906020019080838360005b838110156102e45780820151818401526020810190506102c9565b50505050905090810190601f1680156103115780820380516001836020036101000a031916815260200191505b509250505060405180910390f35b34801561032b57600080fd5b506103346104d2565b6040518082815260200191505060405180910390f35b34801561035657600080fd5b506103836004803603602081101561036d57600080fd5b81019080803590602001909291905050506104dc565b005b34801561039157600080fd5b506103be600480360360208110156103a857600080fd5b81019080803590602001909291905050506104e6565b005b3480156103cc57600080fd5b506103d56104f0565b6040518082815260200191505060405180910390f35b600030905090565b80600190805190602001906104099291906104f6565b5050565b60025481565b6000600254905090565b8060028190555050565b60008054905090565b606060018054600181600116156101000203166002900480601f0160208091040260200160405190810160405280929190818152602001828054600181600116156101000203166002900480156104c85780601f1061049d576101008083540402835291602001916104c8565b820191906000526020600020905b8154815290600101906020018083116104ab57829003601f168201915b5050505050905090565b6000600354905090565b8060038190555050565b8060008190555050565b60035481565b828054600181600116156101000203166002900490600052602060002090601f016020900481019282601f1061053757805160ff1916838001178555610565565b82800160010185558215610565579182015b82811115610564578251825591602001919060010190610549565b5b5090506105729190610576565b5090565b61059891905b8082111561059457600081600090555060010161057c565b5090565b9056fea165627a7a723058201a308efce61994572dbb363e53d4d40193b868fe9472afdd8b3f3d9df2e5dd330029a265627a7a723058201b672fe86560deab67f6c11ca86856cdc1740a1e9f5fef69ab7966d809c9ac0c6c6578706572696d656e74616cf50037608060405234801561001057600080fd5b506040516107573803806107578339810180604052608081101561003357600080fd5b8101908080519060200190929190805164010000000081111561005557600080fd5b8281019050602081018481111561006b57600080fd5b815185600182028301116401000000008211171561008857600080fd5b505092919060200180519060200190929190805190602001909291905050508360008190555082600190805190602001906100c49291906100dc565b50816002819055508060038190555050505050610181565b828054600181600116156101000203166002900490600052602060002090601f016020900481019282601f1061011d57805160ff191683800117855561014b565b8280016001018555821561014b579182015b8281111561014a57825182559160200191906001019061012f565b5b509050610158919061015c565b5090565b61017e91905b8082111561017a576000816000905550600101610162565b5090565b90565b6105c7806101906000396000f3fe6080604052600436106100af576000357c0100000000000000000000000000000000000000000000000000000000900463ffffffff16806308e2db46146100b45780630ff12b531461010b578063344a6526146101d357806341f1aaa2146101fe5780634aabb2f2146102295780635d1ca63114610264578063843c608d1461028f578063a0da31c51461031f578063d0485ec21461034a578063d0e0ba9514610385578063fc8d0374146103c0575b600080fd5b3480156100c057600080fd5b506100c96103eb565b604051808273ffffffffffffffffffffffffffffffffffffffff1673ffffffffffffffffffffffffffffffffffffffff16815260200191505060405180910390f35b34801561011757600080fd5b506101d16004803603602081101561012e57600080fd5b810190808035906020019064010000000081111561014b57600080fd5b82018360208201111561015d57600080fd5b8035906020019184600183028401116401000000008311171561017f57600080fd5b91908080601f016020809104026020016040519081016040528093929190818152602001838380828437600081840152601f19601f8201169050808301925050505050505091929192905050506103f3565b005b3480156101df57600080fd5b506101e861040d565b6040518082815260200191505060405180910390f35b34801561020a57600080fd5b50610213610413565b6040518082815260200191505060405180910390f35b34801561023557600080fd5b506102626004803603602081101561024c57600080fd5b810190808035906020019092919050505061041d565b005b34801561027057600080fd5b50610279610427565b6040518082815260200191505060405180910390f35b34801561029b57600080fd5b506102a4610430565b6040518080602001828103825283818151815260200191508051906020019080838360005b838110156102e45780820151818401526020810190506102c9565b50505050905090810190601f1680156103115780820380516001836020036101000a031916815260200191505b509250505060405180910390f35b34801561032b57600080fd5b506103346104d2565b6040518082815260200191505060405180910390f35b34801561035657600080fd5b506103836004803603602081101561036d57600080fd5b81019080803590602001909291905050506104dc565b005b34801561039157600080fd5b506103be600480360360208110156103a857600080fd5b81019080803590602001909291905050506104e6565b005b3480156103cc57600080fd5b506103d56104f0565b6040518082815260200191505060405180910390f35b600030905090565b80600190805190602001906104099291906104f6565b5050565b60025481565b6000600254905090565b8060028190555050565b60008054905090565b606060018054600181600116156101000203166002900480601f0160208091040260200160405190810160405280929190818152602001828054600181600116156101000203166002900480156104c85780601f1061049d576101008083540402835291602001916104c8565b820191906000526020600020905b8154815290600101906020018083116104ab57829003601f168201915b5050505050905090565b6000600354905090565b8060038190555050565b8060008190555050565b60035481565b828054600181600116156101000203166002900490600052602060002090601f016020900481019282601f1061053757805160ff1916838001178555610565565b82800160010185558215610565579182015b82811115610564578251825591602001919060010190610549565b5b5090506105729190610576565b5090565b61059891905b8082111561059457600081600090555060010161057c565b5090565b9056fea165627a7a723058201a308efce61994572dbb363e53d4d40193b868fe9472afdd8b3f3d9df2e5dd330029608060405260405161092a38038061092a8339810180604052608081101561002657600080fd5b8101908080519060200190929190805164010000000081111561004857600080fd5b8281019050602081018481111561005e57600080fd5b815185600182028301116401000000008211171561007b57600080fd5b50509291906020018051906020019092919080516401000000008111156100a157600080fd5b828101905060208101848111156100b757600080fd5b81518560018202830111640100000000821117156100d457600080fd5b50509291905050508360008190555082600190805190602001906100f992919061015b565b5081600260006101000a81548173ffffffffffffffffffffffffffffffffffffffff021916908373ffffffffffffffffffffffffffffffffffffffff160217905550806003908051906020019061015192919061015b565b5050505050610200565b828054600181600116156101000203166002900490600052602060002090601f016020900481019282601f1061019c57805160ff19168380011785556101ca565b828001600101855582156101ca579182015b828111156101c95782518255916020019190600101906101ae565b5b5090506101d791906101db565b5090565b6101fd91905b808211156101f95760008160009055506001016101e1565b5090565b90565b61071b8061020f6000396000f3fe60806040526004361061008e576000357c0100000000000000000000000000000000000000000000000000000000900463ffffffff1680630aa564341461009357806312958f1c146100e45780632b5914fe146101745780635d1ca6311461023c578063ac80446714610267578063bf04a10d1461032f578063d0e0ba95146103bf578063ebc3eee8146103fa575b600080fd5b34801561009f57600080fd5b506100e2600480360360208110156100b657600080fd5b81019080803573ffffffffffffffffffffffffffffffffffffffff169060200190929190505050610451565b005b3480156100f057600080fd5b506100f9610495565b6040518080602001828103825283818151815260200191508051906020019080838360005b8381101561013957808201518184015260208101905061011e565b50505050905090810190601f1680156101665780820380516001836020036101000a031916815260200191505b509250505060405180910390f35b34801561018057600080fd5b5061023a6004803603602081101561019757600080fd5b81019080803590602001906401000000008111156101b457600080fd5b8201836020820111156101c657600080fd5b803590602001918460018302840111640100000000831117156101e857600080fd5b91908080601f016020809104026020016040519081016040528093929190818152602001838380828437600081840152601f19601f820116905080830192505050505050509192919290505050610537565b005b34801561024857600080fd5b50610251610551565b6040518082815260200191505060405180910390f35b34801561027357600080fd5b5061032d6004803603602081101561028a57600080fd5b81019080803590602001906401000000008111156102a757600080fd5b8201836020820111156102b957600080fd5b803590602001918460018302840111640100000000831117156102db57600080fd5b91908080601f016020809104026020016040519081016040528093929190818152602001838380828437600081840152601f19601f82011690508083019250505050505050919291929050505061055a565b005b34801561033b57600080fd5b50610344610574565b6040518080602001828103825283818151815260200191508051906020019080838360005b83811015610384578082015181840152602081019050610369565b50505050905090810190601f1680156103b15780820380516001836020036101000a031916815260200191505b509250505060405180910390f35b3480156103cb57600080fd5b506103f8600480360360208110156103e257600080fd5b8101908080359060200190929190505050610616565b005b34801561040657600080fd5b5061040f610620565b604051808273ffffffffffffffffffffffffffffffffffffffff1673ffffffffffffffffffffffffffffffffffffffff16815260200191505060405180910390f35b80600260006101000a81548173ffffffffffffffffffffffffffffffffffffffff021916908373ffffffffffffffffffffffffffffffffffffffff16021790555050565b606060018054600181600116156101000203166002900480601f01602080910402602001604051908101604052809291908181526020018280546001816001161561010002031660029004801561052d5780601f106105025761010080835404028352916020019161052d565b820191906000526020600020905b81548152906001019060200180831161051057829003601f168201915b5050505050905090565b806001908051906020019061054d92919061064a565b5050565b60008054905090565b806003908051906020019061057092919061064a565b5050565b606060038054600181600116156101000203166002900480601f01602080910402602001604051908101604052809291908181526020018280546001816001161561010002031660029004801561060c5780601f106105e15761010080835404028352916020019161060c565b820191906000526020600020905b8154815290600101906020018083116105ef57829003601f168201915b5050505050905090565b8060008190555050565b6000600260009054906101000a900473ffffffffffffffffffffffffffffffffffffffff16905090565b828054600181600116156101000203166002900490600052602060002090601f016020900481019282601f1061068b57805160ff19168380011785556106b9565b828001600101855582156106b9579182015b828111156106b857825182559160200191906001019061069d565b5b5090506106c691906106ca565b5090565b6106ec91905b808211156106e85760008160009055506001016106d0565b5090565b9056fea165627a7a72305820e7239516f3245b5840f7e5dc27b618c64cdabcd2b39f36d9d52bfef2b9530495002960806040526040516108ef3803806108ef833981018060405260a081101561002657600080fd5b8101908080519060200190929190805164010000000081111561004857600080fd5b8281019050602081018481111561005e57600080fd5b815185600182028301116401000000008211171561007b57600080fd5b50509291906020018051906020019092919080519060200190929190805190602001909291905050508460008190555083600190805190602001906100c1929190610168565b5082600260006101000a81548160ff02191690831515021790555081600260016101000a81548173ffffffffffffffffffffffffffffffffffffffff021916908373ffffffffffffffffffffffffffffffffffffffff16021790555080600360006101000a81548173ffffffffffffffffffffffffffffffffffffffff021916908373ffffffffffffffffffffffffffffffffffffffff160217905550505050505061020d565b828054600181600116156101000203166002900490600052602060002090601f016020900481019282601f106101a957805160ff19168380011785556101d7565b828001600101855582156101d7579182015b828111156101d65782518255916020019190600101906101bb565b5b5090506101e491906101e8565b5090565b61020a91905b808211156102065760008160009055506001016101ee565b5090565b90565b6106d38061021c6000396000f3fe6080604052600436106100a4576000357c0100000000000000000000000000000000000000000000000000000000900463ffffffff1680630c9391e5146100a957806313859688146100fa57806315c780101461012557806324e222db146101ed5780633c8e65db146102445780635b54f9821461029557806375f96189146102c4578063b631b3411461031b578063bc9b5162146103ab578063f51f4738146103e6575b600080fd5b3480156100b557600080fd5b506100f8600480360360208110156100cc57600080fd5b81019080803573ffffffffffffffffffffffffffffffffffffffff169060200190929190505050610423565b005b34801561010657600080fd5b5061010f610467565b6040518082815260200191505060405180910390f35b34801561013157600080fd5b506101eb6004803603602081101561014857600080fd5b810190808035906020019064010000000081111561016557600080fd5b82018360208201111561017757600080fd5b8035906020019184600183028401116401000000008311171561019957600080fd5b91908080601f016020809104026020016040519081016040528093929190818152602001838380828437600081840152601f19601f820116905080830192505050505050509192919290505050610470565b005b3480156101f957600080fd5b5061020261048a565b604051808273ffffffffffffffffffffffffffffffffffffffff1673ffffffffffffffffffffffffffffffffffffffff16815260200191505060405180910390f35b34801561025057600080fd5b506102936004803603602081101561026757600080fd5b81019080803573ffffffffffffffffffffffffffffffffffffffff1690602001909291905050506104b4565b005b3480156102a157600080fd5b506102aa6104f8565b604051808215151515815260200191505060405180910390f35b3480156102d057600080fd5b506102d961050f565b604051808273ffffffffffffffffffffffffffffffffffffffff1673ffffffffffffffffffffffffffffffffffffffff16815260200191505060405180910390f35b34801561032757600080fd5b50610330610539565b6040518080602001828103825283818151815260200191508051906020019080838360005b83811015610370578082015181840152602081019050610355565b50505050905090810190601f16801561039d5780820380516001836020036101000a031916815260200191505b509250505060405180910390f35b3480156103b757600080fd5b506103e4600480360360208110156103ce57600080fd5b81019080803590602001909291905050506105db565b005b3480156103f257600080fd5b506104216004803603602081101561040957600080fd5b810190808035151590602001909291905050506105e5565b005b80600260016101000a81548173ffffffffffffffffffffffffffffffffffffffff021916908373ffffffffffffffffffffffffffffffffffffffff16021790555050565b60008054905090565b8060019080519060200190610486929190610602565b5050565b6000600360009054906101000a900473ffffffffffffffffffffffffffffffffffffffff16905090565b80600360006101000a81548173ffffffffffffffffffffffffffffffffffffffff021916908373ffffffffffffffffffffffffffffffffffffffff16021790555050565b6000600260009054906101000a900460ff16905090565b6000600260019054906101000a900473ffffffffffffffffffffffffffffffffffffffff16905090565b606060018054600181600116156101000203166002900480601f0160208091040260200160405190810160405280929190818152602001828054600181600116156101000203166002900480156105d15780601f106105a6576101008083540402835291602001916105d1565b820191906000526020600020905b8154815290600101906020018083116105b457829003601f168201915b5050505050905090565b8060008190555050565b80600260006101000a81548160ff02191690831515021790555050565b828054600181600116156101000203166002900490600052602060002090601f016020900481019282601f1061064357805160ff1916838001178555610671565b82800160010185558215610671579182015b82811115610670578251825591602001919060010190610655565b5b50905061067e9190610682565b5090565b6106a491905b808211156106a0576000816000905550600101610688565b5090565b9056fea165627a7a7230582001e0726fb36fe50ea76b1a3ca759ed91c71a976cd473a6b97da08a2e829cf4cf0029",
  "source": "pragma solidity ^0.5.0;\r\npragma experimental ABIEncoderV2;\r\n\r\nimport \"./User.sol\";\r\nimport \"./Group.sol\";\r\nimport \"./Task.sol\";\r\n\r\ncontract Main{\r\n\r\n    uint public groupCount;\r\n    mapping(uint => Group) public groups;\r\n    //one group - has many users\r\n    mapping(uint => User[]) public groupMembers;\r\n    mapping(uint => uint[]) public oneGroupManyMembers;\r\n    //one group - has many tasks\r\n    mapping(uint => Task[]) public groupTasks;\r\n\r\n    uint public userCount;\r\n    mapping(uint => User) public users;\r\n    //one user - one group\r\n    mapping(uint => uint) public oneUserOneGroup;\r\n    //one user - has many tasks\r\n    mapping(uint => Task[]) public userTasks;\r\n\r\n    uint public taskCount;\r\n    mapping(uint => Task) public tasks;\r\n    //one task - belong to one group\r\n    mapping(uint => Group) public taskGroup;\r\n    //one task - belong to one user\r\n    mapping(uint => User) public taskUser;\r\n\r\n    constructor() public {\r\n        groupCount = 0;\r\n        createGroup(\"Group Default\");\r\n\r\n        userCount = 0;\r\n        createUser(\"Manager0123\", msg.sender, \"Manager\");\r\n\r\n        taskCount = 0;\r\n        createTask(\"Finish your thesis before 2nd Oct.\");\r\n    }\r\n\r\n    event groupCreated(uint gId, string groupName, uint numberOfMember, uint numberOfTask);\r\n    event UserCreated(uint id, string userName, address payable userAddress, string role);\r\n    event TaskCreated(uint id, string content, bool completed, address payable createdBy, address payable completedBy);\r\n\r\n\r\n    function createGroup(string memory _groupName) public {\r\n        // Require valid content\r\n        require(bytes(_groupName).length > 0);\r\n        groupCount ++;\r\n        groups[groupCount] = new Group(groupCount, _groupName,0,0);\r\n        emit groupCreated(groupCount, _groupName, 0, 0);\r\n    }\r\n\r\n    function getGroups() view public returns(uint[] memory, string[] memory){\r\n\r\n        uint[] memory gids = new uint[](groupCount);\r\n        string[] memory groupNames = new string[](groupCount);\r\n\r\n        for(uint i = 1; i <= groupCount; i++){\r\n            Group group = groups[i];\r\n            gids[i] = group.getId();\r\n            groupNames[i] = group.getGroupName();\r\n        }\r\n\r\n        return(gids, groupNames);\r\n    }\r\n\r\n    function getGroupById(uint _id) view public returns(string memory groupName, uint gId, uint numberOfMember){\r\n\r\n        Group group = groups[_id];\r\n\r\n        uint numOfMember = oneGroupManyMembers[_id].length;\r\n\r\n        return (group.getGroupName(), _id, numOfMember);\r\n    }\r\n\r\n    function addMember(uint _gID, uint _userID) public{\r\n        // Group ID and User ID must be existed\r\n        require(_gID <= groupCount && _userID <= userCount);\r\n\r\n        oneGroupManyMembers[_gID].push(_userID);\r\n\r\n        oneUserOneGroup[_userID] = _gID;\r\n    }\r\n\r\n    function getMembers(uint _gID) view public returns(uint[] memory){\r\n\r\n        //uint totalMember = groups[_gID].getNumberOfMember();\r\n\r\n        uint totalMember = oneGroupManyMembers[_gID].length;\r\n\r\n        uint[] memory ids = new uint[](totalMember);\r\n\r\n        for (uint i = 0; i < totalMember; i++) {\r\n\r\n            ids[i] = oneGroupManyMembers[_gID][i];\r\n\r\n        }\r\n        return (ids);\r\n\r\n    }\r\n\r\n    //////////////////////////////------User-------//////////////////////////////////////////\r\n\r\n    function createUser(string memory _userName, address payable _userAddress, string memory _role) public {\r\n        userCount++;\r\n        users[userCount] = new User(userCount, _userName, _userAddress, _role);\r\n        oneUserOneGroup[userCount] = 0;\r\n        emit UserCreated(userCount, _userName, _userAddress, \"User\");\r\n    }\r\n\r\n    function getUserById(uint _id) public view returns (string memory userName, address payable userAddress, uint uid) {\r\n\r\n        User user = users[_id];\r\n\r\n        return (user.getUserName(), user.getUserAddress(), _id);\r\n\r\n    }\r\n\r\n    function getAvailableUser() public view returns(uint[] memory uIds){\r\n        uint indexCount = 0;\r\n\r\n        for(uint i = 1; i <= userCount; i++){\r\n            if(oneUserOneGroup[i] == 0){\r\n                indexCount++;\r\n            }\r\n        }\r\n\r\n        uint[] memory _uIds = new uint[](indexCount);\r\n\r\n        uint j = 0;\r\n        for(uint i = 1; i <= userCount; i++){\r\n            if(oneUserOneGroup[i] == 0){\r\n                _uIds[j] = i;\r\n                j++;\r\n            }\r\n        }\r\n\r\n        return _uIds;\r\n    }\r\n\r\n    function getTest() public view returns(bool right){\r\n        return oneUserOneGroup[1]==0;\r\n    }\r\n\r\n    function getByAddress(address payable _userAddress) public view returns(string memory userName, string memory userRole){\r\n\r\n        string memory uName;\r\n        string memory uRole;\r\n\r\n        for(uint i = 1; i <= userCount; i++){\r\n            User user = users[i];\r\n            if(user.getUserAddress() == _userAddress){\r\n                uName = user.getUserName();\r\n                uRole = user.getUserRole();\r\n            }\r\n        }\r\n\r\n        return (uName, uRole);\r\n    }\r\n\r\n    function update(uint _id, string memory _userName) public {\r\n        User user = users[_id];\r\n        //update the clone\r\n        user.setUserName(_userName);\r\n        users[_id] = user;\r\n    }\r\n\r\n    //////////////////////////////------Task-------//////////////////////////////////////////\r\n\r\n    function createTask(string memory _content) public {\r\n        // Require valid content\r\n        require(bytes(_content).length > 0);\r\n        //increase the number of Task\r\n        taskCount++;\r\n        tasks[taskCount] = new Task(taskCount, _content, false, msg.sender, address(0));\r\n        emit TaskCreated(taskCount, _content, false, msg.sender, address(0));\r\n    }\r\n\r\n    function getTaskById(uint _tId) public view returns(string memory content, address payable createdBy, bool completed, address payable completedBy){\r\n        Task task = tasks[_tId];\r\n        return (task.getTaskContent(), task.getCreatedBy(), task.getCompleted(), task.getCompletedBy());\r\n    }\r\n\r\n\r\n}\r\n",
  "sourcePath": "C:/Users/Ho Tat Dat Nguyen/Documents/GitHub/todo-list-react/src/contracts/Main.sol",
  "compiler": {
    "name": "solc",
    "version": "0.5.0+commit.1d4f565a.Emscripten.clang"
  },
  "schemaVersion": "3.0.2",
  "updatedAt": "2020-09-12T17:04:49.085Z",
  "devdoc": {
    "methods": {}
  },
  "userdoc": {
    "methods": {
      "createTask(string)": {
        "notice": "///////////////////////////------Task-------//////////////////////////////////////////"
      },
      "createUser(string,address,string)": {
        "notice": "///////////////////////////------User-------//////////////////////////////////////////"
      }
    }
  }
}