{
  "contractName": "Main",
  "abi": [
    {
      "constant": true,
      "inputs": [],
      "name": "userCount",
      "outputs": [
        {
          "name": "",
          "type": "uint256"
        }
      ],
      "payable": false,
      "stateMutability": "view",
      "type": "function",
      "signature": "0x07973ccf"
    },
    {
      "constant": true,
      "inputs": [
        {
          "name": "",
          "type": "uint256"
        },
        {
          "name": "",
          "type": "uint256"
        }
      ],
      "name": "oneGroupManyMembers",
      "outputs": [
        {
          "name": "",
          "type": "uint256"
        }
      ],
      "payable": false,
      "stateMutability": "view",
      "type": "function",
      "signature": "0x15e677ad"
    },
    {
      "constant": true,
      "inputs": [
        {
          "name": "",
          "type": "uint256"
        }
      ],
      "name": "users",
      "outputs": [
        {
          "name": "",
          "type": "address"
        }
      ],
      "payable": false,
      "stateMutability": "view",
      "type": "function",
      "signature": "0x365b98b2"
    },
    {
      "constant": true,
      "inputs": [
        {
          "name": "",
          "type": "uint256"
        }
      ],
      "name": "oneTaskOneGroup",
      "outputs": [
        {
          "name": "",
          "type": "uint256"
        }
      ],
      "payable": false,
      "stateMutability": "view",
      "type": "function",
      "signature": "0x5f6a4a7f"
    },
    {
      "constant": true,
      "inputs": [
        {
          "name": "",
          "type": "uint256"
        }
      ],
      "name": "oneUserOneGroup",
      "outputs": [
        {
          "name": "",
          "type": "uint256"
        }
      ],
      "payable": false,
      "stateMutability": "view",
      "type": "function",
      "signature": "0x5ff1a6ed"
    },
    {
      "constant": true,
      "inputs": [
        {
          "name": "",
          "type": "uint256"
        }
      ],
      "name": "tasks",
      "outputs": [
        {
          "name": "",
          "type": "address"
        }
      ],
      "payable": false,
      "stateMutability": "view",
      "type": "function",
      "signature": "0x8d977672"
    },
    {
      "constant": true,
      "inputs": [],
      "name": "groupCount",
      "outputs": [
        {
          "name": "",
          "type": "uint256"
        }
      ],
      "payable": false,
      "stateMutability": "view",
      "type": "function",
      "signature": "0x8f23b326"
    },
    {
      "constant": true,
      "inputs": [
        {
          "name": "",
          "type": "uint256"
        }
      ],
      "name": "groups",
      "outputs": [
        {
          "name": "",
          "type": "address"
        }
      ],
      "payable": false,
      "stateMutability": "view",
      "type": "function",
      "signature": "0x96324bd4"
    },
    {
      "constant": true,
      "inputs": [
        {
          "name": "",
          "type": "uint256"
        },
        {
          "name": "",
          "type": "uint256"
        }
      ],
      "name": "oneGroupManyTasks",
      "outputs": [
        {
          "name": "",
          "type": "uint256"
        }
      ],
      "payable": false,
      "stateMutability": "view",
      "type": "function",
      "signature": "0xa67b1997"
    },
    {
      "constant": true,
      "inputs": [],
      "name": "taskCount",
      "outputs": [
        {
          "name": "",
          "type": "uint256"
        }
      ],
      "payable": false,
      "stateMutability": "view",
      "type": "function",
      "signature": "0xb6cb58a5"
    },
    {
      "constant": true,
      "inputs": [
        {
          "name": "",
          "type": "uint256"
        }
      ],
      "name": "oneTaskOneUser",
      "outputs": [
        {
          "name": "",
          "type": "uint256"
        }
      ],
      "payable": false,
      "stateMutability": "view",
      "type": "function",
      "signature": "0xc40b6435"
    },
    {
      "constant": true,
      "inputs": [
        {
          "name": "",
          "type": "uint256"
        },
        {
          "name": "",
          "type": "uint256"
        }
      ],
      "name": "oneUserManyTasks",
      "outputs": [
        {
          "name": "",
          "type": "uint256"
        }
      ],
      "payable": false,
      "stateMutability": "view",
      "type": "function",
      "signature": "0xd198cb79"
    },
    {
      "inputs": [],
      "payable": false,
      "stateMutability": "nonpayable",
      "type": "constructor",
      "signature": "constructor"
    },
    {
      "anonymous": false,
      "inputs": [
        {
          "indexed": false,
          "name": "gId",
          "type": "uint256"
        },
        {
          "indexed": false,
          "name": "groupName",
          "type": "string"
        },
        {
          "indexed": false,
          "name": "numberOfMember",
          "type": "uint256"
        },
        {
          "indexed": false,
          "name": "numberOfTask",
          "type": "uint256"
        }
      ],
      "name": "groupCreated",
      "type": "event",
      "signature": "0x963d1ca77026cdfbe6fe0836b55bb75864ca1ce130c9608dda1f074ef5a68d96"
    },
    {
      "anonymous": false,
      "inputs": [
        {
          "indexed": false,
          "name": "id",
          "type": "uint256"
        },
        {
          "indexed": false,
          "name": "userName",
          "type": "string"
        },
        {
          "indexed": false,
          "name": "userAddress",
          "type": "address"
        },
        {
          "indexed": false,
          "name": "role",
          "type": "string"
        }
      ],
      "name": "UserCreated",
      "type": "event",
      "signature": "0xc49566d6afa47426fd599e36ed625a7a645b084dbd2c1236fe9ac365e91a71fb"
    },
    {
      "anonymous": false,
      "inputs": [
        {
          "indexed": false,
          "name": "id",
          "type": "uint256"
        },
        {
          "indexed": false,
          "name": "content",
          "type": "string"
        },
        {
          "indexed": false,
          "name": "completed",
          "type": "bool"
        },
        {
          "indexed": false,
          "name": "createdBy",
          "type": "address"
        },
        {
          "indexed": false,
          "name": "completedBy",
          "type": "address"
        }
      ],
      "name": "TaskCreated",
      "type": "event",
      "signature": "0x1269015a5d391f69cb0c62599881ba11774c45477e6931c2c00f8d949d7acad5"
    },
    {
      "anonymous": false,
      "inputs": [
        {
          "indexed": false,
          "name": "id",
          "type": "uint256"
        },
        {
          "indexed": false,
          "name": "completed",
          "type": "bool"
        },
        {
          "indexed": false,
          "name": "completedBy",
          "type": "address"
        }
      ],
      "name": "TaskCompleted",
      "type": "event",
      "signature": "0x6771bb9524f76c50a073137e01a6f75707d5ba01c94dc8f9b9a79aa1cb9e1fc3"
    },
    {
      "constant": false,
      "inputs": [
        {
          "name": "_groupName",
          "type": "string"
        }
      ],
      "name": "createGroup",
      "outputs": [],
      "payable": false,
      "stateMutability": "nonpayable",
      "type": "function",
      "signature": "0xdc2ddcae"
    },
    {
      "constant": true,
      "inputs": [],
      "name": "getGroups",
      "outputs": [
        {
          "name": "",
          "type": "uint256[]"
        },
        {
          "name": "",
          "type": "string[]"
        }
      ],
      "payable": false,
      "stateMutability": "view",
      "type": "function",
      "signature": "0xc72b5176"
    },
    {
      "constant": true,
      "inputs": [
        {
          "name": "_id",
          "type": "uint256"
        }
      ],
      "name": "getGroupById",
      "outputs": [
        {
          "name": "groupName",
          "type": "string"
        },
        {
          "name": "gId",
          "type": "uint256"
        },
        {
          "name": "numberOfMember",
          "type": "uint256"
        },
        {
          "name": "numberOfTask",
          "type": "uint256"
        }
      ],
      "payable": false,
      "stateMutability": "view",
      "type": "function",
      "signature": "0x6cc29ea0"
    },
    {
      "constant": false,
      "inputs": [
        {
          "name": "_gID",
          "type": "uint256"
        },
        {
          "name": "_userID",
          "type": "uint256"
        }
      ],
      "name": "addMember",
      "outputs": [],
      "payable": false,
      "stateMutability": "nonpayable",
      "type": "function",
      "signature": "0x1783efc3"
    },
    {
      "constant": false,
      "inputs": [
        {
          "name": "_gID",
          "type": "uint256"
        },
        {
          "name": "_tID",
          "type": "uint256"
        }
      ],
      "name": "addTask",
      "outputs": [],
      "payable": false,
      "stateMutability": "nonpayable",
      "type": "function",
      "signature": "0x00b34ebd"
    },
    {
      "constant": true,
      "inputs": [
        {
          "name": "_gID",
          "type": "uint256"
        }
      ],
      "name": "getMembers",
      "outputs": [
        {
          "name": "",
          "type": "uint256[]"
        }
      ],
      "payable": false,
      "stateMutability": "view",
      "type": "function",
      "signature": "0xc477ecab"
    },
    {
      "constant": true,
      "inputs": [
        {
          "name": "_uId",
          "type": "uint256"
        }
      ],
      "name": "getGroupByUserId",
      "outputs": [
        {
          "name": "gId",
          "type": "uint256"
        }
      ],
      "payable": false,
      "stateMutability": "view",
      "type": "function",
      "signature": "0x3fb03218"
    },
    {
      "constant": false,
      "inputs": [
        {
          "name": "_userName",
          "type": "string"
        },
        {
          "name": "_userAddress",
          "type": "address"
        },
        {
          "name": "_role",
          "type": "string"
        }
      ],
      "name": "createUser",
      "outputs": [],
      "payable": false,
      "stateMutability": "nonpayable",
      "type": "function",
      "signature": "0xb17e8964"
    },
    {
      "constant": true,
      "inputs": [
        {
          "name": "_id",
          "type": "uint256"
        }
      ],
      "name": "getUserById",
      "outputs": [
        {
          "name": "userName",
          "type": "string"
        },
        {
          "name": "userAddress",
          "type": "address"
        },
        {
          "name": "uid",
          "type": "uint256"
        }
      ],
      "payable": false,
      "stateMutability": "view",
      "type": "function",
      "signature": "0x6ed6da9e"
    },
    {
      "constant": true,
      "inputs": [],
      "name": "getAvailableUser",
      "outputs": [
        {
          "name": "uIds",
          "type": "uint256[]"
        }
      ],
      "payable": false,
      "stateMutability": "view",
      "type": "function",
      "signature": "0x0101370b"
    },
    {
      "constant": true,
      "inputs": [
        {
          "name": "_userAddress",
          "type": "address"
        }
      ],
      "name": "getByAddress",
      "outputs": [
        {
          "name": "userName",
          "type": "string"
        },
        {
          "name": "userRole",
          "type": "string"
        },
        {
          "name": "uId",
          "type": "uint256"
        }
      ],
      "payable": false,
      "stateMutability": "view",
      "type": "function",
      "signature": "0x30257bf7"
    },
    {
      "constant": false,
      "inputs": [
        {
          "name": "_id",
          "type": "uint256"
        },
        {
          "name": "_userName",
          "type": "string"
        }
      ],
      "name": "update",
      "outputs": [],
      "payable": false,
      "stateMutability": "nonpayable",
      "type": "function",
      "signature": "0xf745630f"
    },
    {
      "constant": false,
      "inputs": [
        {
          "name": "_content",
          "type": "string"
        }
      ],
      "name": "createTask",
      "outputs": [],
      "payable": false,
      "stateMutability": "nonpayable",
      "type": "function",
      "signature": "0x111002aa"
    },
    {
      "constant": true,
      "inputs": [
        {
          "name": "_tId",
          "type": "uint256"
        }
      ],
      "name": "getTaskById",
      "outputs": [
        {
          "name": "content",
          "type": "string"
        },
        {
          "name": "tId",
          "type": "uint256"
        },
        {
          "name": "createdBy",
          "type": "address"
        },
        {
          "name": "completed",
          "type": "bool"
        },
        {
          "name": "completedBy",
          "type": "address"
        },
        {
          "name": "isAssigned",
          "type": "bool"
        },
        {
          "name": "assigneeName",
          "type": "string"
        }
      ],
      "payable": false,
      "stateMutability": "view",
      "type": "function",
      "signature": "0x976217cd"
    },
    {
      "constant": true,
      "inputs": [
        {
          "name": "_gId",
          "type": "uint256"
        }
      ],
      "name": "getTasksByGroupId",
      "outputs": [
        {
          "name": "tIds",
          "type": "uint256[]"
        }
      ],
      "payable": false,
      "stateMutability": "view",
      "type": "function",
      "signature": "0x26a19503"
    },
    {
      "constant": true,
      "inputs": [
        {
          "name": "_uId",
          "type": "uint256"
        }
      ],
      "name": "getTasksByUserId",
      "outputs": [
        {
          "name": "tIds",
          "type": "uint256[]"
        }
      ],
      "payable": false,
      "stateMutability": "view",
      "type": "function",
      "signature": "0xd370d40f"
    },
    {
      "constant": true,
      "inputs": [],
      "name": "getAvailableTask",
      "outputs": [
        {
          "name": "tIds",
          "type": "uint256[]"
        }
      ],
      "payable": false,
      "stateMutability": "view",
      "type": "function",
      "signature": "0x2c7b8f66"
    },
    {
      "constant": false,
      "inputs": [
        {
          "name": "_tId",
          "type": "uint256"
        },
        {
          "name": "_uId",
          "type": "uint256"
        }
      ],
      "name": "assignTask",
      "outputs": [],
      "payable": false,
      "stateMutability": "nonpayable",
      "type": "function",
      "signature": "0x01612c40"
    },
    {
      "constant": false,
      "inputs": [
        {
          "name": "_tId",
          "type": "uint256"
        }
      ],
      "name": "toggleCompleted",
      "outputs": [],
      "payable": false,
      "stateMutability": "nonpayable",
      "type": "function",
      "signature": "0x455f5024"
    }
  ],
  "bytecode": "0x60806040523480156200001157600080fd5b5060008081905550620000686040805190810160405280600d81526020017f47726f75702044656661756c74000000000000000000000000000000000000008152506200017a640100000000026401000000009004565b6000600481905550620000f66040805190810160405280600b81526020017f4d616e6167657230313233000000000000000000000000000000000000000000815250336040805190810160405280600781526020017f4d616e6167657200000000000000000000000000000000000000000000000000815250620002a9640100000000026401000000009004565b600060088190555062000174606060405190810160405280602281526020017f46696e69736820796f757220746865736973206265666f726520326e64204f6381526020017f742e000000000000000000000000000000000000000000000000000000000000815250620003aa640100000000026401000000009004565b62000808565b60008151111515620001c3576040517f08c379a0000000000000000000000000000000000000000000000000000000008152600401620001ba90620005ca565b60405180910390fd5b600080815480929190600101919050555060005481600080620001e5620004a9565b620001f4949392919062000704565b604051809103906000f08015801562000211573d6000803e3d6000fd5b50600160008054815260200190815260200160002060006101000a81548173ffffffffffffffffffffffffffffffffffffffff021916908373ffffffffffffffffffffffffffffffffffffffff1602179055507f963d1ca77026cdfbe6fe0836b55bb75864ca1ce130c9608dda1f074ef5a68d96600054826000806040516200029e949392919062000704565b60405180910390a150565b600460008154809291906001019190505550600454838383620002cb620004ba565b620002da9493929190620005ec565b604051809103906000f080158015620002f7573d6000803e3d6000fd5b5060056000600454815260200190815260200160002060006101000a81548173ffffffffffffffffffffffffffffffffffffffff021916908373ffffffffffffffffffffffffffffffffffffffff1602179055506000600660006004548152602001908152602001600020819055507fc49566d6afa47426fd599e36ed625a7a645b084dbd2c1236fe9ac365e91a71fb60045484846040516200039d9392919062000647565b60405180910390a1505050565b60008151111515620003bb57600080fd5b600860008154809291906001019190505550600854816000336000620003e0620004cb565b620003f0959493929190620006a0565b604051809103906000f0801580156200040d573d6000803e3d6000fd5b5060096000600854815260200190815260200160002060006101000a81548173ffffffffffffffffffffffffffffffffffffffff021916908373ffffffffffffffffffffffffffffffffffffffff1602179055507f1269015a5d391f69cb0c62599881ba11774c45477e6931c2c00f8d949d7acad56008548260003360006040516200049e959493929190620006a0565b60405180910390a150565b604051610757806200522683390190565b60405161092a806200597d83390190565b6040516108ef80620062a783390190565b620004e78162000763565b82525050565b620004f88162000777565b82525050565b6200050981620007ad565b82525050565b60006200051c8262000758565b80845262000532816020860160208601620007c1565b6200053d81620007f7565b602085010191505092915050565b6000600482527f55736572000000000000000000000000000000000000000000000000000000006020830152604082019050919050565b6000601a82527f456d7074792047726f7570204e616d65204465746563746564210000000000006020830152604082019050919050565b620005c481620007a3565b82525050565b60006020820190508181036000830152620005e58162000582565b9050919050565b6000608082019050620006036000830187620005b9565b81810360208301526200061781866200050f565b9050620006286040830185620004dc565b81810360608301526200063c81846200050f565b905095945050505050565b60006080820190506200065e6000830186620005b9565b81810360208301526200067281856200050f565b9050620006836040830184620004dc565b818103606083015262000696816200054b565b9050949350505050565b600060a082019050620006b76000830188620005b9565b8181036020830152620006cb81876200050f565b9050620006dc6040830186620004ed565b620006eb6060830185620004dc565b620006fa6080830184620004dc565b9695505050505050565b60006080820190506200071b6000830187620005b9565b81810360208301526200072f81866200050f565b9050620007406040830185620004fe565b6200074f6060830184620004fe565b95945050505050565b600081519050919050565b6000620007708262000783565b9050919050565b60008115159050919050565b600073ffffffffffffffffffffffffffffffffffffffff82169050919050565b6000819050919050565b6000620007ba82620007a3565b9050919050565b60005b83811015620007e1578082015181840152602081019050620007c4565b83811115620007f1576000848401525b50505050565b6000601f19601f8301169050919050565b614a0e80620008186000396000f3fe608060405260043610620001aa576000357c0100000000000000000000000000000000000000000000000000000000900463ffffffff168062b34ebd14620001af5780630101370b14620001dd57806301612c40146200020d57806307973ccf146200023b578063111002aa146200026b57806315e677ad14620002995780631783efc314620002dd57806326a19503146200030b5780632c7b8f66146200034f57806330257bf7146200037f578063365b98b214620003c55780633fb032181462000409578063455f5024146200044d5780635f6a4a7f146200047b5780635ff1a6ed14620004bf5780636cc29ea014620005035780636ed6da9e146200054a5780638d97767214620005905780638f23b32614620005d457806396324bd41462000604578063976217cd1462000648578063a67b19971462000692578063b17e896414620006d6578063b6cb58a51462000704578063c40b64351462000734578063c477ecab1462000778578063c72b517614620007bc578063d198cb7914620007ed578063d370d40f1462000831578063dc2ddcae1462000875578063f745630f14620008a3575b600080fd5b348015620001bc57600080fd5b50620001db6004803603620001d5919081019062002715565b620008d1565b005b348015620001ea57600080fd5b50620001f56200094b565b604051620002049190620029e4565b60405180910390f35b3480156200021a57600080fd5b5062000239600480360362000233919081019062002715565b62000a43565b005b3480156200024857600080fd5b506200025362000abd565b60405162000262919062002c8d565b60405180910390f35b3480156200027857600080fd5b5062000297600480360362000291919081019062002551565b62000ac3565b005b348015620002a657600080fd5b50620002c56004803603620002bf919081019062002715565b62000bc2565b604051620002d4919062002c8d565b60405180910390f35b348015620002ea57600080fd5b5062000309600480360362000303919081019062002715565b62000bf3565b005b3480156200031857600080fd5b5062000337600480360362000331919081019062002663565b62000ca5565b604051620003469190620029e4565b60405180910390f35b3480156200035c57600080fd5b506200036762000d68565b604051620003769190620029e4565b60405180910390f35b3480156200038c57600080fd5b50620003ab6004803603620003a59190810190620024cd565b62000e60565b604051620003bc9392919062002b1f565b60405180910390f35b348015620003d257600080fd5b50620003f16004803603620003eb919081019062002663565b62001194565b60405162000400919062002a9a565b60405180910390f35b3480156200041657600080fd5b506200043560048036036200042f919081019062002663565b620011c7565b60405162000444919062002c8d565b60405180910390f35b3480156200045a57600080fd5b5062000479600480360362000473919081019062002663565b620011e4565b005b3480156200048857600080fd5b50620004a76004803603620004a1919081019062002663565b62001500565b604051620004b6919062002c8d565b60405180910390f35b348015620004cc57600080fd5b50620004eb6004803603620004e5919081019062002663565b62001518565b604051620004fa919062002c8d565b60405180910390f35b3480156200051057600080fd5b506200052f600480360362000529919081019062002663565b62001530565b60405162000541949392919062002bf5565b60405180910390f35b3480156200055757600080fd5b5062000576600480360362000570919081019062002663565b6200165c565b604051620005879392919062002adb565b60405180910390f35b3480156200059d57600080fd5b50620005bc6004803603620005b6919081019062002663565b620017e9565b604051620005cb919062002a7d565b60405180910390f35b348015620005e157600080fd5b50620005ec6200181c565b604051620005fb919062002c8d565b60405180910390f35b3480156200061157600080fd5b506200063060048036036200062a919081019062002663565b62001822565b6040516200063f919062002a60565b60405180910390f35b3480156200065557600080fd5b506200067460048036036200066e919081019062002663565b62001855565b60405162000689979695949392919062002b6a565b60405180910390f35b3480156200069f57600080fd5b50620006be6004803603620006b8919081019062002715565b62001bc8565b604051620006cd919062002c8d565b60405180910390f35b348015620006e357600080fd5b50620007026004803603620006fc9190810190620025db565b62001bf9565b005b3480156200071157600080fd5b506200071c62001cfa565b6040516200072b919062002c8d565b60405180910390f35b3480156200074157600080fd5b506200076060048036036200075a919081019062002663565b62001d00565b6040516200076f919062002c8d565b60405180910390f35b3480156200078557600080fd5b50620007a460048036036200079e919081019062002663565b62001d18565b604051620007b39190620029e4565b60405180910390f35b348015620007c957600080fd5b50620007d462001ddb565b604051620007e492919062002a08565b60405180910390f35b348015620007fa57600080fd5b5062000819600480360362000813919081019062002715565b62002033565b60405162000828919062002c8d565b60405180910390f35b3480156200083e57600080fd5b506200085d600480360362000857919081019062002663565b62002064565b6040516200086c9190620029e4565b60405180910390f35b3480156200088257600080fd5b50620008a160048036036200089b919081019062002551565b62002127565b005b348015620008b057600080fd5b50620008cf6004803603620008c99190810190620026bb565b62002256565b005b6000548211158015620008e657506008548111155b1515620008f257600080fd5b6003600083815260200190815260200160002081908060018154018082558091505090600182039060005260206000200160009091929091909150555081600a6000838152602001908152602001600020819055505050565b606060008090506000600190505b6004548111151562000999576000600660008381526020019081526020016000205414156200098b5781806001019250505b808060010191505062000959565b50606081604051908082528060200260200182016040528015620009cc5781602001602082028038833980820191505090505b50905060008090506000600190505b6004548111151562000a395760006006600083815260200190815260200160002054141562000a2b5780838381518110151562000a1457fe5b906020019060200201818152505081806001019250505b8080600101915050620009db565b5081935050505090565b600854821115801562000a5857506004548111155b151562000a6457600080fd5b6007600082815260200190815260200160002082908060018154018082558091505090600182039060005260206000200160009091929091909150555080600b6000848152602001908152602001600020819055505050565b60045481565b6000815111151562000ad457600080fd5b60086000815480929190600101919050555060085481600033600062000af962002370565b62000b0995949392919062002d9b565b604051809103906000f08015801562000b26573d6000803e3d6000fd5b5060096000600854815260200190815260200160002060006101000a81548173ffffffffffffffffffffffffffffffffffffffff021916908373ffffffffffffffffffffffffffffffffffffffff1602179055507f1269015a5d391f69cb0c62599881ba11774c45477e6931c2c00f8d949d7acad560085482600033600060405162000bb795949392919062002d9b565b60405180910390a150565b60026020528160005260406000208181548110151562000bde57fe5b90600052602060002001600091509150505481565b600054821115801562000c0857506004548111155b151562000c4c576040517f08c379a000000000000000000000000000000000000000000000000000000000815260040162000c439062002c49565b60405180910390fd5b600260008381526020019081526020016000208190806001815401808255809150509060018203906000526020600020016000909192909190915055508160066000838152602001908152602001600020819055505050565b606060006003600084815260200190815260200160002080549050905060608160405190808252806020026020018201604052801562000cf45781602001602082028038833980820191505090505b50905060008090505b8281101562000d5d57600360008681526020019081526020016000208181548110151562000d2757fe5b9060005260206000200154828281518110151562000d4157fe5b9060200190602002018181525050808060010191505062000cfd565b508092505050919050565b606060008090506000600190505b6008548111151562000db6576000600a600083815260200190815260200160002054141562000da85781806001019250505b808060010191505062000d76565b5060608160405190808252806020026020018201604052801562000de95781602001602082028038833980820191505090505b50905060008090506000600190505b6008548111151562000e56576000600a600083815260200190815260200160002054141562000e485780838381518110151562000e3157fe5b906020019060200201818152505081806001019250505b808060010191505062000df8565b5081935050505090565b6060806000606080600080600190505b60045481111515620011805760006005600083815260200190815260200160002060009054906101000a900473ffffffffffffffffffffffffffffffffffffffff1690508873ffffffffffffffffffffffffffffffffffffffff168173ffffffffffffffffffffffffffffffffffffffff1663ebc3eee86040518163ffffffff167c010000000000000000000000000000000000000000000000000000000002815260040160206040518083038186803b15801562000f2e57600080fd5b505afa15801562000f43573d6000803e3d6000fd5b505050506040513d601f19601f8201168201806040525062000f699190810190620024f9565b73ffffffffffffffffffffffffffffffffffffffff16141562001171578073ffffffffffffffffffffffffffffffffffffffff166312958f1c6040518163ffffffff167c010000000000000000000000000000000000000000000000000000000002815260040160006040518083038186803b15801562000fe957600080fd5b505afa15801562000ffe573d6000803e3d6000fd5b505050506040513d6000823e3d601f19601f8201168201806040525062001029919081019062002596565b94508073ffffffffffffffffffffffffffffffffffffffff1663bf04a10d6040518163ffffffff167c010000000000000000000000000000000000000000000000000000000002815260040160006040518083038186803b1580156200108e57600080fd5b505afa158015620010a3573d6000803e3d6000fd5b505050506040513d6000823e3d601f19601f82011682018060405250620010ce919081019062002596565b93508073ffffffffffffffffffffffffffffffffffffffff16635d1ca6316040518163ffffffff167c010000000000000000000000000000000000000000000000000000000002815260040160206040518083038186803b1580156200113357600080fd5b505afa15801562001148573d6000803e3d6000fd5b505050506040513d601f19601f820116820180604052506200116e91908101906200268f565b92505b50808060010191505062000e70565b508282829550955095505050509193909250565b60056020528060005260406000206000915054906101000a900473ffffffffffffffffffffffffffffffffffffffff1681565b600060066000838152602001908152602001600020549050919050565b60006009600083815260200190815260200160002060009054906101000a900473ffffffffffffffffffffffffffffffffffffffff1690508073ffffffffffffffffffffffffffffffffffffffff1663f51f473860016040518263ffffffff167c010000000000000000000000000000000000000000000000000000000002815260040162001274919062002a43565b600060405180830381600087803b1580156200128f57600080fd5b505af1158015620012a4573d6000803e3d6000fd5b505050508073ffffffffffffffffffffffffffffffffffffffff16633c8e65db336040518263ffffffff167c0100000000000000000000000000000000000000000000000000000000028152600401620012ff9190620029c7565b600060405180830381600087803b1580156200131a57600080fd5b505af11580156200132f573d6000803e3d6000fd5b50505050806009600084815260200190815260200160002060006101000a81548173ffffffffffffffffffffffffffffffffffffffff021916908373ffffffffffffffffffffffffffffffffffffffff1602179055507f6771bb9524f76c50a073137e01a6f75707d5ba01c94dc8f9b9a79aa1cb9e1fc3828273ffffffffffffffffffffffffffffffffffffffff16635b54f9826040518163ffffffff167c010000000000000000000000000000000000000000000000000000000002815260040160206040518083038186803b1580156200140a57600080fd5b505afa1580156200141f573d6000803e3d6000fd5b505050506040513d601f19601f8201168201806040525062001445919081019062002525565b8373ffffffffffffffffffffffffffffffffffffffff166324e222db6040518163ffffffff167c010000000000000000000000000000000000000000000000000000000002815260040160206040518083038186803b158015620014a857600080fd5b505afa158015620014bd573d6000803e3d6000fd5b505050506040513d601f19601f82011682018060405250620014e39190810190620024f9565b604051620014f49392919062002caa565b60405180910390a15050565b600a6020528060005260406000206000915090505481565b60066020528060005260406000206000915090505481565b60606000806000806001600087815260200190815260200160002060009054906101000a900473ffffffffffffffffffffffffffffffffffffffff1690506000600260008881526020019081526020016000208054905090506000600360008981526020019081526020016000208054905090508273ffffffffffffffffffffffffffffffffffffffff1663843c608d6040518163ffffffff167c010000000000000000000000000000000000000000000000000000000002815260040160006040518083038186803b1580156200160757600080fd5b505afa1580156200161c573d6000803e3d6000fd5b505050506040513d6000823e3d601f19601f8201168201806040525062001647919081019062002596565b88838396509650965096505050509193509193565b606060008060006005600086815260200190815260200160002060009054906101000a900473ffffffffffffffffffffffffffffffffffffffff1690508073ffffffffffffffffffffffffffffffffffffffff166312958f1c6040518163ffffffff167c010000000000000000000000000000000000000000000000000000000002815260040160006040518083038186803b158015620016fc57600080fd5b505afa15801562001711573d6000803e3d6000fd5b505050506040513d6000823e3d601f19601f820116820180604052506200173c919081019062002596565b8173ffffffffffffffffffffffffffffffffffffffff1663ebc3eee86040518163ffffffff167c010000000000000000000000000000000000000000000000000000000002815260040160206040518083038186803b1580156200179f57600080fd5b505afa158015620017b4573d6000803e3d6000fd5b505050506040513d601f19601f82011682018060405250620017da9190810190620024f9565b86935093509350509193909250565b60096020528060005260406000206000915054906101000a900473ffffffffffffffffffffffffffffffffffffffff1681565b60005481565b60016020528060005260406000206000915054906101000a900473ffffffffffffffffffffffffffffffffffffffff1681565b6060600080600080600060606000600960008a815260200190815260200160002060009054906101000a900473ffffffffffffffffffffffffffffffffffffffff16905060008090506060602060405190810160405280600081525090506000600a60008d81526020019081526020016000205414158015620018ec57506000600b60008d81526020019081526020016000205414155b156200192c57600191506000600b60008d815260200190815260200160002054905060606000806200191e846200165c565b925092509250829450505050505b8273ffffffffffffffffffffffffffffffffffffffff1663b631b3416040518163ffffffff167c010000000000000000000000000000000000000000000000000000000002815260040160006040518083038186803b1580156200198f57600080fd5b505afa158015620019a4573d6000803e3d6000fd5b505050506040513d6000823e3d601f19601f82011682018060405250620019cf919081019062002596565b8b8473ffffffffffffffffffffffffffffffffffffffff166375f961896040518163ffffffff167c010000000000000000000000000000000000000000000000000000000002815260040160206040518083038186803b15801562001a3357600080fd5b505afa15801562001a48573d6000803e3d6000fd5b505050506040513d601f19601f8201168201806040525062001a6e9190810190620024f9565b8573ffffffffffffffffffffffffffffffffffffffff16635b54f9826040518163ffffffff167c010000000000000000000000000000000000000000000000000000000002815260040160206040518083038186803b15801562001ad157600080fd5b505afa15801562001ae6573d6000803e3d6000fd5b505050506040513d601f19601f8201168201806040525062001b0c919081019062002525565b8673ffffffffffffffffffffffffffffffffffffffff166324e222db6040518163ffffffff167c010000000000000000000000000000000000000000000000000000000002815260040160206040518083038186803b15801562001b6f57600080fd5b505afa15801562001b84573d6000803e3d6000fd5b505050506040513d601f19601f8201168201806040525062001baa9190810190620024f9565b86869950995099509950995099509950505050919395979092949650565b60036020528160005260406000208181548110151562001be457fe5b90600052602060002001600091509150505481565b60046000815480929190600101919050555060045483838362001c1b62002381565b62001c2a949392919062002ce7565b604051809103906000f08015801562001c47573d6000803e3d6000fd5b5060056000600454815260200190815260200160002060006101000a81548173ffffffffffffffffffffffffffffffffffffffff021916908373ffffffffffffffffffffffffffffffffffffffff1602179055506000600660006004548152602001908152602001600020819055507fc49566d6afa47426fd599e36ed625a7a645b084dbd2c1236fe9ac365e91a71fb600454848460405162001ced9392919062002d42565b60405180910390a1505050565b60085481565b600b6020528060005260406000206000915090505481565b606060006002600084815260200190815260200160002080549050905060608160405190808252806020026020018201604052801562001d675781602001602082028038833980820191505090505b50905060008090505b8281101562001dd057600260008681526020019081526020016000208181548110151562001d9a57fe5b9060005260206000200154828281518110151562001db457fe5b9060200190602002018181525050808060010191505062001d70565b508092505050919050565b606080606060005460405190808252806020026020018201604052801562001e125781602001602082028038833980820191505090505b509050606060005460405190808252806020026020018201604052801562001e4f57816020015b606081526020019060019003908162001e395790505b5090506000600190505b60005481111515620020265760006001600083815260200190815260200160002060009054906101000a900473ffffffffffffffffffffffffffffffffffffffff1690508073ffffffffffffffffffffffffffffffffffffffff16635d1ca6316040518163ffffffff167c010000000000000000000000000000000000000000000000000000000002815260040160206040518083038186803b15801562001f0057600080fd5b505afa15801562001f15573d6000803e3d6000fd5b505050506040513d601f19601f8201168201806040525062001f3b91908101906200268f565b848381518110151562001f4a57fe5b90602001906020020181815250508073ffffffffffffffffffffffffffffffffffffffff1663843c608d6040518163ffffffff167c010000000000000000000000000000000000000000000000000000000002815260040160006040518083038186803b15801562001fbb57600080fd5b505afa15801562001fd0573d6000803e3d6000fd5b505050506040513d6000823e3d601f19601f8201168201806040525062001ffb919081019062002596565b83838151811015156200200a57fe5b9060200190602002018190525050808060010191505062001e59565b5081819350935050509091565b6007602052816000526040600020818154811015156200204f57fe5b90600052602060002001600091509150505481565b6060600060076000848152602001908152602001600020805490509050606081604051908082528060200260200182016040528015620020b35781602001602082028038833980820191505090505b50905060008090505b828110156200211c576007600086815260200190815260200160002081815481101515620020e657fe5b906000526020600020015482828151811015156200210057fe5b90602001906020020181815250508080600101915050620020bc565b508092505050919050565b6000815111151562002170576040517f08c379a0000000000000000000000000000000000000000000000000000000008152600401620021679062002c6b565b60405180910390fd5b6000808154809291906001019190505550600054816000806200219262002392565b620021a1949392919062002dff565b604051809103906000f080158015620021be573d6000803e3d6000fd5b50600160008054815260200190815260200160002060006101000a81548173ffffffffffffffffffffffffffffffffffffffff021916908373ffffffffffffffffffffffffffffffffffffffff1602179055507f963d1ca77026cdfbe6fe0836b55bb75864ca1ce130c9608dda1f074ef5a68d96600054826000806040516200224b949392919062002dff565b60405180910390a150565b60006005600084815260200190815260200160002060009054906101000a900473ffffffffffffffffffffffffffffffffffffffff1690508073ffffffffffffffffffffffffffffffffffffffff16632b5914fe836040518263ffffffff167c0100000000000000000000000000000000000000000000000000000000028152600401620022e5919062002ab7565b600060405180830381600087803b1580156200230057600080fd5b505af115801562002315573d6000803e3d6000fd5b50505050806005600085815260200190815260200160002060006101000a81548173ffffffffffffffffffffffffffffffffffffffff021916908373ffffffffffffffffffffffffffffffffffffffff160217905550505050565b6040516108ef806200306583390190565b60405161092a806200395483390190565b604051610757806200427e83390190565b6000620023b1823562002f58565b905092915050565b6000620023c7825162002f58565b905092915050565b6000620023dd825162002f6c565b905092915050565b600082601f8301121515620023f957600080fd5b8135620024106200240a8262002e81565b62002e53565b915080825260208301602083018583830111156200242d57600080fd5b6200243a8382846200300e565b50505092915050565b600082601f83011215156200245757600080fd5b81516200246e620024688262002e81565b62002e53565b915080825260208301602083018583830111156200248b57600080fd5b620024988382846200301d565b50505092915050565b6000620024af823562002f78565b905092915050565b6000620024c5825162002f78565b905092915050565b600060208284031215620024e057600080fd5b6000620024f084828501620023a3565b91505092915050565b6000602082840312156200250c57600080fd5b60006200251c84828501620023b9565b91505092915050565b6000602082840312156200253857600080fd5b60006200254884828501620023cf565b91505092915050565b6000602082840312156200256457600080fd5b600082013567ffffffffffffffff8111156200257f57600080fd5b6200258d84828501620023e5565b91505092915050565b600060208284031215620025a957600080fd5b600082015167ffffffffffffffff811115620025c457600080fd5b620025d28482850162002443565b91505092915050565b600080600060608486031215620025f157600080fd5b600084013567ffffffffffffffff8111156200260c57600080fd5b6200261a86828701620023e5565b93505060206200262d86828701620023a3565b925050604084013567ffffffffffffffff8111156200264b57600080fd5b6200265986828701620023e5565b9150509250925092565b6000602082840312156200267657600080fd5b60006200268684828501620024a1565b91505092915050565b600060208284031215620026a257600080fd5b6000620026b284828501620024b7565b91505092915050565b60008060408385031215620026cf57600080fd5b6000620026df85828601620024a1565b925050602083013567ffffffffffffffff811115620026fd57600080fd5b6200270b85828601620023e5565b9150509250929050565b600080604083850312156200272957600080fd5b60006200273985828601620024a1565b92505060206200274c85828601620024a1565b9150509250929050565b620027618162002f0e565b82525050565b6000620027748262002ec8565b808452602084019350836020820285016200278f8562002eae565b60005b84811015620027ce578383038852620027ad838351620028d5565b9250620027ba8262002ef4565b915060208801975060018101905062002792565b508196508694505050505092915050565b6000620027ec8262002ed3565b808452602084019350620028008362002ebb565b60005b82811015620028385762002819868351620029b6565b620028248262002f01565b915060208601955060018101905062002803565b50849250505092915050565b6200284f8162002f22565b82525050565b620028608162002f82565b82525050565b620028718162002faa565b82525050565b620028828162002fd2565b82525050565b620028938162002ffa565b82525050565b6000620028a68262002ee9565b808452620028bc8160208601602086016200301d565b620028c78162003053565b602085010191505092915050565b6000620028e28262002ede565b808452620028f88160208601602086016200301d565b620029038162003053565b602085010191505092915050565b6000600482527f55736572000000000000000000000000000000000000000000000000000000006020830152604082019050919050565b6000601c82527f47726f75704944206f7220557365724944206e6f7420666f756e6421000000006020830152604082019050919050565b6000601a82527f456d7074792047726f7570204e616d65204465746563746564210000000000006020830152604082019050919050565b620029c18162002f4e565b82525050565b6000602082019050620029de600083018462002756565b92915050565b6000602082019050818103600083015262002a008184620027df565b905092915050565b6000604082019050818103600083015262002a248185620027df565b9050818103602083015262002a3a818462002767565b90509392505050565b600060208201905062002a5a600083018462002844565b92915050565b600060208201905062002a77600083018462002855565b92915050565b600060208201905062002a94600083018462002866565b92915050565b600060208201905062002ab1600083018462002877565b92915050565b6000602082019050818103600083015262002ad3818462002899565b905092915050565b6000606082019050818103600083015262002af7818662002899565b905062002b08602083018562002756565b62002b176040830184620029b6565b949350505050565b6000606082019050818103600083015262002b3b818662002899565b9050818103602083015262002b51818562002899565b905062002b626040830184620029b6565b949350505050565b600060e082019050818103600083015262002b86818a62002899565b905062002b976020830189620029b6565b62002ba6604083018862002756565b62002bb5606083018762002844565b62002bc4608083018662002756565b62002bd360a083018562002844565b81810360c083015262002be7818462002899565b905098975050505050505050565b6000608082019050818103600083015262002c11818762002899565b905062002c226020830186620029b6565b62002c316040830185620029b6565b62002c406060830184620029b6565b95945050505050565b6000602082019050818103600083015262002c648162002948565b9050919050565b6000602082019050818103600083015262002c86816200297f565b9050919050565b600060208201905062002ca46000830184620029b6565b92915050565b600060608201905062002cc16000830186620029b6565b62002cd0602083018562002844565b62002cdf604083018462002756565b949350505050565b600060808201905062002cfe6000830187620029b6565b818103602083015262002d12818662002899565b905062002d23604083018562002756565b818103606083015262002d37818462002899565b905095945050505050565b600060808201905062002d596000830186620029b6565b818103602083015262002d6d818562002899565b905062002d7e604083018462002756565b818103606083015262002d918162002911565b9050949350505050565b600060a08201905062002db26000830188620029b6565b818103602083015262002dc6818762002899565b905062002dd7604083018662002844565b62002de6606083018562002756565b62002df5608083018462002756565b9695505050505050565b600060808201905062002e166000830187620029b6565b818103602083015262002e2a818662002899565b905062002e3b604083018562002888565b62002e4a606083018462002888565b95945050505050565b6000604051905081810181811067ffffffffffffffff8211171562002e7757600080fd5b8060405250919050565b600067ffffffffffffffff82111562002e9957600080fd5b601f19601f8301169050602081019050919050565b6000602082019050919050565b6000602082019050919050565b600081519050919050565b600081519050919050565b600081519050919050565b600081519050919050565b6000602082019050919050565b6000602082019050919050565b600062002f1b8262002f2e565b9050919050565b60008115159050919050565b600073ffffffffffffffffffffffffffffffffffffffff82169050919050565b6000819050919050565b600062002f658262002f2e565b9050919050565b60008115159050919050565b6000819050919050565b600062002f8f8262002f96565b9050919050565b600062002fa38262002f2e565b9050919050565b600062002fb78262002fbe565b9050919050565b600062002fcb8262002f2e565b9050919050565b600062002fdf8262002fe6565b9050919050565b600062002ff38262002f2e565b9050919050565b6000620030078262002f4e565b9050919050565b82818337600083830152505050565b60005b838110156200303d57808201518184015260208101905062003020565b838111156200304d576000848401525b50505050565b6000601f19601f830116905091905056fe60806040526040516108ef3803806108ef833981018060405260a081101561002657600080fd5b8101908080519060200190929190805164010000000081111561004857600080fd5b8281019050602081018481111561005e57600080fd5b815185600182028301116401000000008211171561007b57600080fd5b50509291906020018051906020019092919080519060200190929190805190602001909291905050508460008190555083600190805190602001906100c1929190610168565b5082600260006101000a81548160ff02191690831515021790555081600260016101000a81548173ffffffffffffffffffffffffffffffffffffffff021916908373ffffffffffffffffffffffffffffffffffffffff16021790555080600360006101000a81548173ffffffffffffffffffffffffffffffffffffffff021916908373ffffffffffffffffffffffffffffffffffffffff160217905550505050505061020d565b828054600181600116156101000203166002900490600052602060002090601f016020900481019282601f106101a957805160ff19168380011785556101d7565b828001600101855582156101d7579182015b828111156101d65782518255916020019190600101906101bb565b5b5090506101e491906101e8565b5090565b61020a91905b808211156102065760008160009055506001016101ee565b5090565b90565b6106d38061021c6000396000f3fe6080604052600436106100a4576000357c0100000000000000000000000000000000000000000000000000000000900463ffffffff1680630c9391e5146100a957806313859688146100fa57806315c780101461012557806324e222db146101ed5780633c8e65db146102445780635b54f9821461029557806375f96189146102c4578063b631b3411461031b578063bc9b5162146103ab578063f51f4738146103e6575b600080fd5b3480156100b557600080fd5b506100f8600480360360208110156100cc57600080fd5b81019080803573ffffffffffffffffffffffffffffffffffffffff169060200190929190505050610423565b005b34801561010657600080fd5b5061010f610467565b6040518082815260200191505060405180910390f35b34801561013157600080fd5b506101eb6004803603602081101561014857600080fd5b810190808035906020019064010000000081111561016557600080fd5b82018360208201111561017757600080fd5b8035906020019184600183028401116401000000008311171561019957600080fd5b91908080601f016020809104026020016040519081016040528093929190818152602001838380828437600081840152601f19601f820116905080830192505050505050509192919290505050610470565b005b3480156101f957600080fd5b5061020261048a565b604051808273ffffffffffffffffffffffffffffffffffffffff1673ffffffffffffffffffffffffffffffffffffffff16815260200191505060405180910390f35b34801561025057600080fd5b506102936004803603602081101561026757600080fd5b81019080803573ffffffffffffffffffffffffffffffffffffffff1690602001909291905050506104b4565b005b3480156102a157600080fd5b506102aa6104f8565b604051808215151515815260200191505060405180910390f35b3480156102d057600080fd5b506102d961050f565b604051808273ffffffffffffffffffffffffffffffffffffffff1673ffffffffffffffffffffffffffffffffffffffff16815260200191505060405180910390f35b34801561032757600080fd5b50610330610539565b6040518080602001828103825283818151815260200191508051906020019080838360005b83811015610370578082015181840152602081019050610355565b50505050905090810190601f16801561039d5780820380516001836020036101000a031916815260200191505b509250505060405180910390f35b3480156103b757600080fd5b506103e4600480360360208110156103ce57600080fd5b81019080803590602001909291905050506105db565b005b3480156103f257600080fd5b506104216004803603602081101561040957600080fd5b810190808035151590602001909291905050506105e5565b005b80600260016101000a81548173ffffffffffffffffffffffffffffffffffffffff021916908373ffffffffffffffffffffffffffffffffffffffff16021790555050565b60008054905090565b8060019080519060200190610486929190610602565b5050565b6000600360009054906101000a900473ffffffffffffffffffffffffffffffffffffffff16905090565b80600360006101000a81548173ffffffffffffffffffffffffffffffffffffffff021916908373ffffffffffffffffffffffffffffffffffffffff16021790555050565b6000600260009054906101000a900460ff16905090565b6000600260019054906101000a900473ffffffffffffffffffffffffffffffffffffffff16905090565b606060018054600181600116156101000203166002900480601f0160208091040260200160405190810160405280929190818152602001828054600181600116156101000203166002900480156105d15780601f106105a6576101008083540402835291602001916105d1565b820191906000526020600020905b8154815290600101906020018083116105b457829003601f168201915b5050505050905090565b8060008190555050565b80600260006101000a81548160ff02191690831515021790555050565b828054600181600116156101000203166002900490600052602060002090601f016020900481019282601f1061064357805160ff1916838001178555610671565b82800160010185558215610671579182015b82811115610670578251825591602001919060010190610655565b5b50905061067e9190610682565b5090565b6106a491905b808211156106a0576000816000905550600101610688565b5090565b9056fea165627a7a7230582001e0726fb36fe50ea76b1a3ca759ed91c71a976cd473a6b97da08a2e829cf4cf0029608060405260405161092a38038061092a8339810180604052608081101561002657600080fd5b8101908080519060200190929190805164010000000081111561004857600080fd5b8281019050602081018481111561005e57600080fd5b815185600182028301116401000000008211171561007b57600080fd5b50509291906020018051906020019092919080516401000000008111156100a157600080fd5b828101905060208101848111156100b757600080fd5b81518560018202830111640100000000821117156100d457600080fd5b50509291905050508360008190555082600190805190602001906100f992919061015b565b5081600260006101000a81548173ffffffffffffffffffffffffffffffffffffffff021916908373ffffffffffffffffffffffffffffffffffffffff160217905550806003908051906020019061015192919061015b565b5050505050610200565b828054600181600116156101000203166002900490600052602060002090601f016020900481019282601f1061019c57805160ff19168380011785556101ca565b828001600101855582156101ca579182015b828111156101c95782518255916020019190600101906101ae565b5b5090506101d791906101db565b5090565b6101fd91905b808211156101f95760008160009055506001016101e1565b5090565b90565b61071b8061020f6000396000f3fe60806040526004361061008e576000357c0100000000000000000000000000000000000000000000000000000000900463ffffffff1680630aa564341461009357806312958f1c146100e45780632b5914fe146101745780635d1ca6311461023c578063ac80446714610267578063bf04a10d1461032f578063d0e0ba95146103bf578063ebc3eee8146103fa575b600080fd5b34801561009f57600080fd5b506100e2600480360360208110156100b657600080fd5b81019080803573ffffffffffffffffffffffffffffffffffffffff169060200190929190505050610451565b005b3480156100f057600080fd5b506100f9610495565b6040518080602001828103825283818151815260200191508051906020019080838360005b8381101561013957808201518184015260208101905061011e565b50505050905090810190601f1680156101665780820380516001836020036101000a031916815260200191505b509250505060405180910390f35b34801561018057600080fd5b5061023a6004803603602081101561019757600080fd5b81019080803590602001906401000000008111156101b457600080fd5b8201836020820111156101c657600080fd5b803590602001918460018302840111640100000000831117156101e857600080fd5b91908080601f016020809104026020016040519081016040528093929190818152602001838380828437600081840152601f19601f820116905080830192505050505050509192919290505050610537565b005b34801561024857600080fd5b50610251610551565b6040518082815260200191505060405180910390f35b34801561027357600080fd5b5061032d6004803603602081101561028a57600080fd5b81019080803590602001906401000000008111156102a757600080fd5b8201836020820111156102b957600080fd5b803590602001918460018302840111640100000000831117156102db57600080fd5b91908080601f016020809104026020016040519081016040528093929190818152602001838380828437600081840152601f19601f82011690508083019250505050505050919291929050505061055a565b005b34801561033b57600080fd5b50610344610574565b6040518080602001828103825283818151815260200191508051906020019080838360005b83811015610384578082015181840152602081019050610369565b50505050905090810190601f1680156103b15780820380516001836020036101000a031916815260200191505b509250505060405180910390f35b3480156103cb57600080fd5b506103f8600480360360208110156103e257600080fd5b8101908080359060200190929190505050610616565b005b34801561040657600080fd5b5061040f610620565b604051808273ffffffffffffffffffffffffffffffffffffffff1673ffffffffffffffffffffffffffffffffffffffff16815260200191505060405180910390f35b80600260006101000a81548173ffffffffffffffffffffffffffffffffffffffff021916908373ffffffffffffffffffffffffffffffffffffffff16021790555050565b606060018054600181600116156101000203166002900480601f01602080910402602001604051908101604052809291908181526020018280546001816001161561010002031660029004801561052d5780601f106105025761010080835404028352916020019161052d565b820191906000526020600020905b81548152906001019060200180831161051057829003601f168201915b5050505050905090565b806001908051906020019061054d92919061064a565b5050565b60008054905090565b806003908051906020019061057092919061064a565b5050565b606060038054600181600116156101000203166002900480601f01602080910402602001604051908101604052809291908181526020018280546001816001161561010002031660029004801561060c5780601f106105e15761010080835404028352916020019161060c565b820191906000526020600020905b8154815290600101906020018083116105ef57829003601f168201915b5050505050905090565b8060008190555050565b6000600260009054906101000a900473ffffffffffffffffffffffffffffffffffffffff16905090565b828054600181600116156101000203166002900490600052602060002090601f016020900481019282601f1061068b57805160ff19168380011785556106b9565b828001600101855582156106b9579182015b828111156106b857825182559160200191906001019061069d565b5b5090506106c691906106ca565b5090565b6106ec91905b808211156106e85760008160009055506001016106d0565b5090565b9056fea165627a7a72305820e7239516f3245b5840f7e5dc27b618c64cdabcd2b39f36d9d52bfef2b95304950029608060405234801561001057600080fd5b506040516107573803806107578339810180604052608081101561003357600080fd5b8101908080519060200190929190805164010000000081111561005557600080fd5b8281019050602081018481111561006b57600080fd5b815185600182028301116401000000008211171561008857600080fd5b505092919060200180519060200190929190805190602001909291905050508360008190555082600190805190602001906100c49291906100dc565b50816002819055508060038190555050505050610181565b828054600181600116156101000203166002900490600052602060002090601f016020900481019282601f1061011d57805160ff191683800117855561014b565b8280016001018555821561014b579182015b8281111561014a57825182559160200191906001019061012f565b5b509050610158919061015c565b5090565b61017e91905b8082111561017a576000816000905550600101610162565b5090565b90565b6105c7806101906000396000f3fe6080604052600436106100af576000357c0100000000000000000000000000000000000000000000000000000000900463ffffffff16806308e2db46146100b45780630ff12b531461010b578063344a6526146101d357806341f1aaa2146101fe5780634aabb2f2146102295780635d1ca63114610264578063843c608d1461028f578063a0da31c51461031f578063d0485ec21461034a578063d0e0ba9514610385578063fc8d0374146103c0575b600080fd5b3480156100c057600080fd5b506100c96103eb565b604051808273ffffffffffffffffffffffffffffffffffffffff1673ffffffffffffffffffffffffffffffffffffffff16815260200191505060405180910390f35b34801561011757600080fd5b506101d16004803603602081101561012e57600080fd5b810190808035906020019064010000000081111561014b57600080fd5b82018360208201111561015d57600080fd5b8035906020019184600183028401116401000000008311171561017f57600080fd5b91908080601f016020809104026020016040519081016040528093929190818152602001838380828437600081840152601f19601f8201169050808301925050505050505091929192905050506103f3565b005b3480156101df57600080fd5b506101e861040d565b6040518082815260200191505060405180910390f35b34801561020a57600080fd5b50610213610413565b6040518082815260200191505060405180910390f35b34801561023557600080fd5b506102626004803603602081101561024c57600080fd5b810190808035906020019092919050505061041d565b005b34801561027057600080fd5b50610279610427565b6040518082815260200191505060405180910390f35b34801561029b57600080fd5b506102a4610430565b6040518080602001828103825283818151815260200191508051906020019080838360005b838110156102e45780820151818401526020810190506102c9565b50505050905090810190601f1680156103115780820380516001836020036101000a031916815260200191505b509250505060405180910390f35b34801561032b57600080fd5b506103346104d2565b6040518082815260200191505060405180910390f35b34801561035657600080fd5b506103836004803603602081101561036d57600080fd5b81019080803590602001909291905050506104dc565b005b34801561039157600080fd5b506103be600480360360208110156103a857600080fd5b81019080803590602001909291905050506104e6565b005b3480156103cc57600080fd5b506103d56104f0565b6040518082815260200191505060405180910390f35b600030905090565b80600190805190602001906104099291906104f6565b5050565b60025481565b6000600254905090565b8060028190555050565b60008054905090565b606060018054600181600116156101000203166002900480601f0160208091040260200160405190810160405280929190818152602001828054600181600116156101000203166002900480156104c85780601f1061049d576101008083540402835291602001916104c8565b820191906000526020600020905b8154815290600101906020018083116104ab57829003601f168201915b5050505050905090565b6000600354905090565b8060038190555050565b8060008190555050565b60035481565b828054600181600116156101000203166002900490600052602060002090601f016020900481019282601f1061053757805160ff1916838001178555610565565b82800160010185558215610565579182015b82811115610564578251825591602001919060010190610549565b5b5090506105729190610576565b5090565b61059891905b8082111561059457600081600090555060010161057c565b5090565b9056fea165627a7a723058201a308efce61994572dbb363e53d4d40193b868fe9472afdd8b3f3d9df2e5dd330029a265627a7a723058205c4f855bd9f54fefaa2b98494e5b42d8ad003cea0ae1e211b11d953d184fcc426c6578706572696d656e74616cf50037608060405234801561001057600080fd5b506040516107573803806107578339810180604052608081101561003357600080fd5b8101908080519060200190929190805164010000000081111561005557600080fd5b8281019050602081018481111561006b57600080fd5b815185600182028301116401000000008211171561008857600080fd5b505092919060200180519060200190929190805190602001909291905050508360008190555082600190805190602001906100c49291906100dc565b50816002819055508060038190555050505050610181565b828054600181600116156101000203166002900490600052602060002090601f016020900481019282601f1061011d57805160ff191683800117855561014b565b8280016001018555821561014b579182015b8281111561014a57825182559160200191906001019061012f565b5b509050610158919061015c565b5090565b61017e91905b8082111561017a576000816000905550600101610162565b5090565b90565b6105c7806101906000396000f3fe6080604052600436106100af576000357c0100000000000000000000000000000000000000000000000000000000900463ffffffff16806308e2db46146100b45780630ff12b531461010b578063344a6526146101d357806341f1aaa2146101fe5780634aabb2f2146102295780635d1ca63114610264578063843c608d1461028f578063a0da31c51461031f578063d0485ec21461034a578063d0e0ba9514610385578063fc8d0374146103c0575b600080fd5b3480156100c057600080fd5b506100c96103eb565b604051808273ffffffffffffffffffffffffffffffffffffffff1673ffffffffffffffffffffffffffffffffffffffff16815260200191505060405180910390f35b34801561011757600080fd5b506101d16004803603602081101561012e57600080fd5b810190808035906020019064010000000081111561014b57600080fd5b82018360208201111561015d57600080fd5b8035906020019184600183028401116401000000008311171561017f57600080fd5b91908080601f016020809104026020016040519081016040528093929190818152602001838380828437600081840152601f19601f8201169050808301925050505050505091929192905050506103f3565b005b3480156101df57600080fd5b506101e861040d565b6040518082815260200191505060405180910390f35b34801561020a57600080fd5b50610213610413565b6040518082815260200191505060405180910390f35b34801561023557600080fd5b506102626004803603602081101561024c57600080fd5b810190808035906020019092919050505061041d565b005b34801561027057600080fd5b50610279610427565b6040518082815260200191505060405180910390f35b34801561029b57600080fd5b506102a4610430565b6040518080602001828103825283818151815260200191508051906020019080838360005b838110156102e45780820151818401526020810190506102c9565b50505050905090810190601f1680156103115780820380516001836020036101000a031916815260200191505b509250505060405180910390f35b34801561032b57600080fd5b506103346104d2565b6040518082815260200191505060405180910390f35b34801561035657600080fd5b506103836004803603602081101561036d57600080fd5b81019080803590602001909291905050506104dc565b005b34801561039157600080fd5b506103be600480360360208110156103a857600080fd5b81019080803590602001909291905050506104e6565b005b3480156103cc57600080fd5b506103d56104f0565b6040518082815260200191505060405180910390f35b600030905090565b80600190805190602001906104099291906104f6565b5050565b60025481565b6000600254905090565b8060028190555050565b60008054905090565b606060018054600181600116156101000203166002900480601f0160208091040260200160405190810160405280929190818152602001828054600181600116156101000203166002900480156104c85780601f1061049d576101008083540402835291602001916104c8565b820191906000526020600020905b8154815290600101906020018083116104ab57829003601f168201915b5050505050905090565b6000600354905090565b8060038190555050565b8060008190555050565b60035481565b828054600181600116156101000203166002900490600052602060002090601f016020900481019282601f1061053757805160ff1916838001178555610565565b82800160010185558215610565579182015b82811115610564578251825591602001919060010190610549565b5b5090506105729190610576565b5090565b61059891905b8082111561059457600081600090555060010161057c565b5090565b9056fea165627a7a723058201a308efce61994572dbb363e53d4d40193b868fe9472afdd8b3f3d9df2e5dd330029608060405260405161092a38038061092a8339810180604052608081101561002657600080fd5b8101908080519060200190929190805164010000000081111561004857600080fd5b8281019050602081018481111561005e57600080fd5b815185600182028301116401000000008211171561007b57600080fd5b50509291906020018051906020019092919080516401000000008111156100a157600080fd5b828101905060208101848111156100b757600080fd5b81518560018202830111640100000000821117156100d457600080fd5b50509291905050508360008190555082600190805190602001906100f992919061015b565b5081600260006101000a81548173ffffffffffffffffffffffffffffffffffffffff021916908373ffffffffffffffffffffffffffffffffffffffff160217905550806003908051906020019061015192919061015b565b5050505050610200565b828054600181600116156101000203166002900490600052602060002090601f016020900481019282601f1061019c57805160ff19168380011785556101ca565b828001600101855582156101ca579182015b828111156101c95782518255916020019190600101906101ae565b5b5090506101d791906101db565b5090565b6101fd91905b808211156101f95760008160009055506001016101e1565b5090565b90565b61071b8061020f6000396000f3fe60806040526004361061008e576000357c0100000000000000000000000000000000000000000000000000000000900463ffffffff1680630aa564341461009357806312958f1c146100e45780632b5914fe146101745780635d1ca6311461023c578063ac80446714610267578063bf04a10d1461032f578063d0e0ba95146103bf578063ebc3eee8146103fa575b600080fd5b34801561009f57600080fd5b506100e2600480360360208110156100b657600080fd5b81019080803573ffffffffffffffffffffffffffffffffffffffff169060200190929190505050610451565b005b3480156100f057600080fd5b506100f9610495565b6040518080602001828103825283818151815260200191508051906020019080838360005b8381101561013957808201518184015260208101905061011e565b50505050905090810190601f1680156101665780820380516001836020036101000a031916815260200191505b509250505060405180910390f35b34801561018057600080fd5b5061023a6004803603602081101561019757600080fd5b81019080803590602001906401000000008111156101b457600080fd5b8201836020820111156101c657600080fd5b803590602001918460018302840111640100000000831117156101e857600080fd5b91908080601f016020809104026020016040519081016040528093929190818152602001838380828437600081840152601f19601f820116905080830192505050505050509192919290505050610537565b005b34801561024857600080fd5b50610251610551565b6040518082815260200191505060405180910390f35b34801561027357600080fd5b5061032d6004803603602081101561028a57600080fd5b81019080803590602001906401000000008111156102a757600080fd5b8201836020820111156102b957600080fd5b803590602001918460018302840111640100000000831117156102db57600080fd5b91908080601f016020809104026020016040519081016040528093929190818152602001838380828437600081840152601f19601f82011690508083019250505050505050919291929050505061055a565b005b34801561033b57600080fd5b50610344610574565b6040518080602001828103825283818151815260200191508051906020019080838360005b83811015610384578082015181840152602081019050610369565b50505050905090810190601f1680156103b15780820380516001836020036101000a031916815260200191505b509250505060405180910390f35b3480156103cb57600080fd5b506103f8600480360360208110156103e257600080fd5b8101908080359060200190929190505050610616565b005b34801561040657600080fd5b5061040f610620565b604051808273ffffffffffffffffffffffffffffffffffffffff1673ffffffffffffffffffffffffffffffffffffffff16815260200191505060405180910390f35b80600260006101000a81548173ffffffffffffffffffffffffffffffffffffffff021916908373ffffffffffffffffffffffffffffffffffffffff16021790555050565b606060018054600181600116156101000203166002900480601f01602080910402602001604051908101604052809291908181526020018280546001816001161561010002031660029004801561052d5780601f106105025761010080835404028352916020019161052d565b820191906000526020600020905b81548152906001019060200180831161051057829003601f168201915b5050505050905090565b806001908051906020019061054d92919061064a565b5050565b60008054905090565b806003908051906020019061057092919061064a565b5050565b606060038054600181600116156101000203166002900480601f01602080910402602001604051908101604052809291908181526020018280546001816001161561010002031660029004801561060c5780601f106105e15761010080835404028352916020019161060c565b820191906000526020600020905b8154815290600101906020018083116105ef57829003601f168201915b5050505050905090565b8060008190555050565b6000600260009054906101000a900473ffffffffffffffffffffffffffffffffffffffff16905090565b828054600181600116156101000203166002900490600052602060002090601f016020900481019282601f1061068b57805160ff19168380011785556106b9565b828001600101855582156106b9579182015b828111156106b857825182559160200191906001019061069d565b5b5090506106c691906106ca565b5090565b6106ec91905b808211156106e85760008160009055506001016106d0565b5090565b9056fea165627a7a72305820e7239516f3245b5840f7e5dc27b618c64cdabcd2b39f36d9d52bfef2b9530495002960806040526040516108ef3803806108ef833981018060405260a081101561002657600080fd5b8101908080519060200190929190805164010000000081111561004857600080fd5b8281019050602081018481111561005e57600080fd5b815185600182028301116401000000008211171561007b57600080fd5b50509291906020018051906020019092919080519060200190929190805190602001909291905050508460008190555083600190805190602001906100c1929190610168565b5082600260006101000a81548160ff02191690831515021790555081600260016101000a81548173ffffffffffffffffffffffffffffffffffffffff021916908373ffffffffffffffffffffffffffffffffffffffff16021790555080600360006101000a81548173ffffffffffffffffffffffffffffffffffffffff021916908373ffffffffffffffffffffffffffffffffffffffff160217905550505050505061020d565b828054600181600116156101000203166002900490600052602060002090601f016020900481019282601f106101a957805160ff19168380011785556101d7565b828001600101855582156101d7579182015b828111156101d65782518255916020019190600101906101bb565b5b5090506101e491906101e8565b5090565b61020a91905b808211156102065760008160009055506001016101ee565b5090565b90565b6106d38061021c6000396000f3fe6080604052600436106100a4576000357c0100000000000000000000000000000000000000000000000000000000900463ffffffff1680630c9391e5146100a957806313859688146100fa57806315c780101461012557806324e222db146101ed5780633c8e65db146102445780635b54f9821461029557806375f96189146102c4578063b631b3411461031b578063bc9b5162146103ab578063f51f4738146103e6575b600080fd5b3480156100b557600080fd5b506100f8600480360360208110156100cc57600080fd5b81019080803573ffffffffffffffffffffffffffffffffffffffff169060200190929190505050610423565b005b34801561010657600080fd5b5061010f610467565b6040518082815260200191505060405180910390f35b34801561013157600080fd5b506101eb6004803603602081101561014857600080fd5b810190808035906020019064010000000081111561016557600080fd5b82018360208201111561017757600080fd5b8035906020019184600183028401116401000000008311171561019957600080fd5b91908080601f016020809104026020016040519081016040528093929190818152602001838380828437600081840152601f19601f820116905080830192505050505050509192919290505050610470565b005b3480156101f957600080fd5b5061020261048a565b604051808273ffffffffffffffffffffffffffffffffffffffff1673ffffffffffffffffffffffffffffffffffffffff16815260200191505060405180910390f35b34801561025057600080fd5b506102936004803603602081101561026757600080fd5b81019080803573ffffffffffffffffffffffffffffffffffffffff1690602001909291905050506104b4565b005b3480156102a157600080fd5b506102aa6104f8565b604051808215151515815260200191505060405180910390f35b3480156102d057600080fd5b506102d961050f565b604051808273ffffffffffffffffffffffffffffffffffffffff1673ffffffffffffffffffffffffffffffffffffffff16815260200191505060405180910390f35b34801561032757600080fd5b50610330610539565b6040518080602001828103825283818151815260200191508051906020019080838360005b83811015610370578082015181840152602081019050610355565b50505050905090810190601f16801561039d5780820380516001836020036101000a031916815260200191505b509250505060405180910390f35b3480156103b757600080fd5b506103e4600480360360208110156103ce57600080fd5b81019080803590602001909291905050506105db565b005b3480156103f257600080fd5b506104216004803603602081101561040957600080fd5b810190808035151590602001909291905050506105e5565b005b80600260016101000a81548173ffffffffffffffffffffffffffffffffffffffff021916908373ffffffffffffffffffffffffffffffffffffffff16021790555050565b60008054905090565b8060019080519060200190610486929190610602565b5050565b6000600360009054906101000a900473ffffffffffffffffffffffffffffffffffffffff16905090565b80600360006101000a81548173ffffffffffffffffffffffffffffffffffffffff021916908373ffffffffffffffffffffffffffffffffffffffff16021790555050565b6000600260009054906101000a900460ff16905090565b6000600260019054906101000a900473ffffffffffffffffffffffffffffffffffffffff16905090565b606060018054600181600116156101000203166002900480601f0160208091040260200160405190810160405280929190818152602001828054600181600116156101000203166002900480156105d15780601f106105a6576101008083540402835291602001916105d1565b820191906000526020600020905b8154815290600101906020018083116105b457829003601f168201915b5050505050905090565b8060008190555050565b80600260006101000a81548160ff02191690831515021790555050565b828054600181600116156101000203166002900490600052602060002090601f016020900481019282601f1061064357805160ff1916838001178555610671565b82800160010185558215610671579182015b82811115610670578251825591602001919060010190610655565b5b50905061067e9190610682565b5090565b6106a491905b808211156106a0576000816000905550600101610688565b5090565b9056fea165627a7a7230582001e0726fb36fe50ea76b1a3ca759ed91c71a976cd473a6b97da08a2e829cf4cf0029",
  "source": "pragma solidity ^0.5.0;\r\npragma experimental ABIEncoderV2;\r\n\r\nimport \"./User.sol\";\r\nimport \"./Group.sol\";\r\nimport \"./Task.sol\";\r\n\r\ncontract Main{\r\n\r\n    uint public groupCount;\r\n    mapping(uint => Group) public groups;\r\n    //one group - has many users\r\n    mapping(uint => uint[]) public oneGroupManyMembers;\r\n    //one group - has many tasks\r\n    mapping(uint => uint[]) public oneGroupManyTasks;\r\n\r\n    uint public userCount;\r\n    mapping(uint => User) public users;\r\n    //one user - one group\r\n    mapping(uint => uint) public oneUserOneGroup;\r\n    //one user - has many tasks\r\n    mapping(uint => uint[]) public oneUserManyTasks;\r\n\r\n    uint public taskCount;\r\n    mapping(uint => Task) public tasks;\r\n    //one task - belong to one group\r\n    mapping(uint => uint) public oneTaskOneGroup;\r\n    //one task - belong to one user\r\n    mapping(uint => uint) public oneTaskOneUser;\r\n\r\n    constructor() public {\r\n        groupCount = 0;\r\n        createGroup(\"Group Default\");\r\n\r\n        userCount = 0;\r\n        createUser(\"Manager0123\", msg.sender, \"Manager\");\r\n\r\n        taskCount = 0;\r\n        createTask(\"Finish your thesis before 2nd Oct.\");\r\n    }\r\n\r\n    event groupCreated(uint gId, string groupName, uint numberOfMember, uint numberOfTask);\r\n    event UserCreated(uint id, string userName, address payable userAddress, string role);\r\n    event TaskCreated(uint id, string content, bool completed, address payable createdBy, address payable completedBy);\r\n    event TaskCompleted(uint id, bool completed, address payable completedBy);\r\n\r\n\r\n    function createGroup(string memory _groupName) public {\r\n        // Require valid content\r\n        require(bytes(_groupName).length > 0,\"Empty Group Name Detected!\");\r\n        groupCount ++;\r\n        groups[groupCount] = new Group(groupCount, _groupName,0,0);\r\n        emit groupCreated(groupCount, _groupName, 0, 0);\r\n    }\r\n\r\n    function getGroups() view public returns(uint[] memory, string[] memory){\r\n\r\n        uint[] memory gids = new uint[](groupCount);\r\n        string[] memory groupNames = new string[](groupCount);\r\n\r\n        for(uint i = 1; i <= groupCount; i++){\r\n            Group group = groups[i];\r\n            gids[i] = group.getId();\r\n            groupNames[i] = group.getGroupName();\r\n        }\r\n\r\n        return(gids, groupNames);\r\n    }\r\n\r\n    function getGroupById(uint _id) view public returns(string memory groupName, uint gId, uint numberOfMember, uint numberOfTask){\r\n\r\n        Group group = groups[_id];\r\n\r\n        uint numOfMember = oneGroupManyMembers[_id].length;\r\n        uint numOfTask =  oneGroupManyTasks[_id].length;\r\n\r\n        return (group.getGroupName(), _id, numOfMember, numOfTask);\r\n    }\r\n\r\n    function addMember(uint _gID, uint _userID) public{\r\n        // Group ID and User ID must be existed\r\n        require(_gID <= groupCount && _userID <= userCount,\"GroupID or UserID not found!\");\r\n\r\n        oneGroupManyMembers[_gID].push(_userID);\r\n\r\n        oneUserOneGroup[_userID] = _gID;\r\n    }\r\n\r\n    function addTask(uint _gID, uint _tID) public{\r\n\r\n        require(_gID <= groupCount && _tID <= taskCount);\r\n\r\n        oneGroupManyTasks[_gID].push(_tID);\r\n\r\n        oneTaskOneGroup[_tID] = _gID;\r\n    }\r\n\r\n    function getMembers(uint _gID) view public returns(uint[] memory){\r\n\r\n        //uint totalMember = groups[_gID].getNumberOfMember();\r\n\r\n        uint totalMember = oneGroupManyMembers[_gID].length;\r\n\r\n        uint[] memory ids = new uint[](totalMember);\r\n\r\n        for (uint i = 0; i < totalMember; i++) {\r\n\r\n            ids[i] = oneGroupManyMembers[_gID][i];\r\n\r\n        }\r\n        return (ids);\r\n\r\n    }\r\n\r\n    function getGroupByUserId(uint _uId) public view returns(uint gId){\r\n\r\n        return oneUserOneGroup[_uId];\r\n\r\n    }\r\n\r\n    //////////////////////////////------User-------//////////////////////////////////////////\r\n\r\n    function createUser(string memory _userName, address payable _userAddress, string memory _role) public {\r\n        userCount++;\r\n        users[userCount] = new User(userCount, _userName, _userAddress, _role);\r\n        oneUserOneGroup[userCount] = 0;\r\n        emit UserCreated(userCount, _userName, _userAddress, \"User\");\r\n    }\r\n\r\n    function getUserById(uint _id) public view returns (string memory userName, address payable userAddress, uint uid) {\r\n\r\n        User user = users[_id];\r\n\r\n        return (user.getUserName(), user.getUserAddress(), _id);\r\n\r\n    }\r\n\r\n    function getAvailableUser() public view returns(uint[] memory uIds){\r\n        uint indexCount = 0;\r\n\r\n        for(uint i = 1; i <= userCount; i++){\r\n            if(oneUserOneGroup[i] == 0){\r\n                indexCount++;\r\n            }\r\n        }\r\n\r\n        uint[] memory _uIds = new uint[](indexCount);\r\n\r\n        uint j = 0;\r\n        for(uint i = 1; i <= userCount; i++){\r\n            if(oneUserOneGroup[i] == 0){\r\n                _uIds[j] = i;\r\n                j++;\r\n            }\r\n        }\r\n\r\n        return _uIds;\r\n    }\r\n\r\n\r\n    function getByAddress(address payable _userAddress) public view returns(string memory userName, string memory userRole, uint uId){\r\n\r\n        string memory uName;\r\n        string memory uRole;\r\n        uint uID;\r\n\r\n        for(uint i = 1; i <= userCount; i++){\r\n            User user = users[i];\r\n            if(user.getUserAddress() == _userAddress){\r\n                uName = user.getUserName();\r\n                uRole = user.getUserRole();\r\n                uID = user.getId();\r\n            }\r\n        }\r\n\r\n        return (uName, uRole, uID);\r\n    }\r\n\r\n    function update(uint _id, string memory _userName) public {\r\n        User user = users[_id];\r\n        //update the clone\r\n        user.setUserName(_userName);\r\n        users[_id] = user;\r\n    }\r\n\r\n    //////////////////////////////------Task-------//////////////////////////////////////////\r\n\r\n    function createTask(string memory _content) public {\r\n        // Require valid content\r\n        require(bytes(_content).length > 0);\r\n        //increase the number of Task\r\n        taskCount++;\r\n        tasks[taskCount] = new Task(taskCount, _content, false, msg.sender, address(0));\r\n        emit TaskCreated(taskCount, _content, false, msg.sender, address(0));\r\n    }\r\n\r\n    function getTaskById(uint _tId) public view returns(string memory content, uint tId, address payable createdBy, bool completed, address payable completedBy, bool isAssigned, string memory assigneeName){\r\n        Task task = tasks[_tId];\r\n        bool _isAssigned = false;\r\n        string memory _assigneeName = \"\";\r\n        if(oneTaskOneGroup[_tId] != 0 && oneTaskOneUser[_tId] != 0){\r\n            _isAssigned = true;\r\n            uint userKey = oneTaskOneUser[_tId];\r\n            //get assignee;\r\n            (string memory userName,  address payable userAddress, uint uid) = getUserById(userKey);\r\n            _assigneeName = userName;\r\n        }\r\n        return (task.getTaskContent(), _tId, task.getCreatedBy(), task.getCompleted(), task.getCompletedBy(), _isAssigned, _assigneeName);\r\n    }\r\n\r\n    function getTasksByGroupId(uint _gId) public view returns(uint[] memory tIds){\r\n\r\n        uint totalTask= oneGroupManyTasks[_gId].length;\r\n\r\n        uint[] memory ids = new uint[](totalTask);\r\n\r\n        for (uint i = 0; i < totalTask; i++) {\r\n\r\n            ids[i] = oneGroupManyTasks[_gId][i];\r\n\r\n        }\r\n        return (ids);\r\n\r\n    }\r\n\r\n    function getTasksByUserId(uint _uId) public view returns(uint[] memory tIds){\r\n\r\n        uint totalTask= oneUserManyTasks[_uId].length;\r\n\r\n        uint[] memory ids = new uint[](totalTask);\r\n\r\n        for (uint i = 0; i < totalTask; i++) {\r\n\r\n            ids[i] = oneUserManyTasks[_uId][i];\r\n\r\n        }\r\n        return (ids);\r\n\r\n    }\r\n\r\n    function getAvailableTask() public view returns(uint[] memory tIds){\r\n\r\n        uint indexCount = 0;\r\n\r\n        for(uint i = 1; i <= taskCount; i++){\r\n            if(oneTaskOneGroup[i] == 0){\r\n                indexCount++;\r\n            }\r\n        }\r\n\r\n        uint[] memory _tIds = new uint[](indexCount);\r\n\r\n        uint j = 0;\r\n        for(uint i = 1; i <= taskCount; i++){\r\n            if(oneTaskOneGroup[i] == 0){\r\n                _tIds[j] = i;\r\n                j++;\r\n            }\r\n        }\r\n\r\n        return _tIds;\r\n\r\n    }\r\n\r\n    function assignTask(uint _tId, uint _uId) public{\r\n\r\n        require(_tId <= taskCount && _uId <= userCount);\r\n\r\n        oneUserManyTasks[_uId].push(_tId);\r\n\r\n        oneTaskOneUser[_tId] = _uId;\r\n    }\r\n\r\n    function toggleCompleted(uint _tId) public {\r\n        //create an instance of the stored task in the smart contract\r\n        Task _task = tasks[_tId];\r\n        //update the clone\r\n        _task.setCompleted(true);\r\n        _task.setCompletedBy(msg.sender);\r\n        //Assign the clone to stored task\r\n        tasks[_tId] = _task;\r\n        emit TaskCompleted(_tId, _task.getCompleted(), _task.getCompletedBy());\r\n    }\r\n\r\n\r\n}\r\n",
  "sourcePath": "C:/Users/Ho Tat Dat Nguyen/Documents/GitHub/todo-list-react/src/contracts/Main.sol",
  "compiler": {
    "name": "solc",
    "version": "0.5.0+commit.1d4f565a.Emscripten.clang"
  },
  "schemaVersion": "3.0.2",
  "updatedAt": "2020-09-22T13:35:40.527Z",
  "devdoc": {
    "methods": {}
  },
  "userdoc": {
    "methods": {
      "createTask(string)": {
        "notice": "///////////////////////////------Task-------//////////////////////////////////////////"
      },
      "createUser(string,address,string)": {
        "notice": "///////////////////////////------User-------//////////////////////////////////////////"
      }
    }
  }
}