{
  "contractName": "Main",
  "abi": [
    {
      "constant": true,
      "inputs": [],
      "name": "userCount",
      "outputs": [
        {
          "name": "",
          "type": "uint256"
        }
      ],
      "payable": false,
      "stateMutability": "view",
      "type": "function",
      "signature": "0x07973ccf"
    },
    {
      "constant": true,
      "inputs": [
        {
          "name": "",
          "type": "uint256"
        },
        {
          "name": "",
          "type": "uint256"
        }
      ],
      "name": "oneGroupManyMembers",
      "outputs": [
        {
          "name": "",
          "type": "uint256"
        }
      ],
      "payable": false,
      "stateMutability": "view",
      "type": "function",
      "signature": "0x15e677ad"
    },
    {
      "constant": true,
      "inputs": [
        {
          "name": "",
          "type": "uint256"
        }
      ],
      "name": "users",
      "outputs": [
        {
          "name": "",
          "type": "address"
        }
      ],
      "payable": false,
      "stateMutability": "view",
      "type": "function",
      "signature": "0x365b98b2"
    },
    {
      "constant": true,
      "inputs": [
        {
          "name": "",
          "type": "uint256"
        }
      ],
      "name": "oneTaskOneGroup",
      "outputs": [
        {
          "name": "",
          "type": "uint256"
        }
      ],
      "payable": false,
      "stateMutability": "view",
      "type": "function",
      "signature": "0x5f6a4a7f"
    },
    {
      "constant": true,
      "inputs": [
        {
          "name": "",
          "type": "uint256"
        }
      ],
      "name": "oneUserOneGroup",
      "outputs": [
        {
          "name": "",
          "type": "uint256"
        }
      ],
      "payable": false,
      "stateMutability": "view",
      "type": "function",
      "signature": "0x5ff1a6ed"
    },
    {
      "constant": true,
      "inputs": [
        {
          "name": "",
          "type": "uint256"
        }
      ],
      "name": "tasks",
      "outputs": [
        {
          "name": "",
          "type": "address"
        }
      ],
      "payable": false,
      "stateMutability": "view",
      "type": "function",
      "signature": "0x8d977672"
    },
    {
      "constant": true,
      "inputs": [],
      "name": "groupCount",
      "outputs": [
        {
          "name": "",
          "type": "uint256"
        }
      ],
      "payable": false,
      "stateMutability": "view",
      "type": "function",
      "signature": "0x8f23b326"
    },
    {
      "constant": true,
      "inputs": [
        {
          "name": "",
          "type": "uint256"
        }
      ],
      "name": "groups",
      "outputs": [
        {
          "name": "",
          "type": "address"
        }
      ],
      "payable": false,
      "stateMutability": "view",
      "type": "function",
      "signature": "0x96324bd4"
    },
    {
      "constant": true,
      "inputs": [
        {
          "name": "",
          "type": "uint256"
        }
      ],
      "name": "taskUser",
      "outputs": [
        {
          "name": "",
          "type": "address"
        }
      ],
      "payable": false,
      "stateMutability": "view",
      "type": "function",
      "signature": "0x99fca844"
    },
    {
      "constant": true,
      "inputs": [
        {
          "name": "",
          "type": "uint256"
        },
        {
          "name": "",
          "type": "uint256"
        }
      ],
      "name": "oneGroupManyTasks",
      "outputs": [
        {
          "name": "",
          "type": "uint256"
        }
      ],
      "payable": false,
      "stateMutability": "view",
      "type": "function",
      "signature": "0xa67b1997"
    },
    {
      "constant": true,
      "inputs": [],
      "name": "taskCount",
      "outputs": [
        {
          "name": "",
          "type": "uint256"
        }
      ],
      "payable": false,
      "stateMutability": "view",
      "type": "function",
      "signature": "0xb6cb58a5"
    },
    {
      "constant": true,
      "inputs": [
        {
          "name": "",
          "type": "uint256"
        },
        {
          "name": "",
          "type": "uint256"
        }
      ],
      "name": "userTasks",
      "outputs": [
        {
          "name": "",
          "type": "address"
        }
      ],
      "payable": false,
      "stateMutability": "view",
      "type": "function",
      "signature": "0xd70db5bf"
    },
    {
      "inputs": [],
      "payable": false,
      "stateMutability": "nonpayable",
      "type": "constructor",
      "signature": "constructor"
    },
    {
      "anonymous": false,
      "inputs": [
        {
          "indexed": false,
          "name": "gId",
          "type": "uint256"
        },
        {
          "indexed": false,
          "name": "groupName",
          "type": "string"
        },
        {
          "indexed": false,
          "name": "numberOfMember",
          "type": "uint256"
        },
        {
          "indexed": false,
          "name": "numberOfTask",
          "type": "uint256"
        }
      ],
      "name": "groupCreated",
      "type": "event",
      "signature": "0x963d1ca77026cdfbe6fe0836b55bb75864ca1ce130c9608dda1f074ef5a68d96"
    },
    {
      "anonymous": false,
      "inputs": [
        {
          "indexed": false,
          "name": "id",
          "type": "uint256"
        },
        {
          "indexed": false,
          "name": "userName",
          "type": "string"
        },
        {
          "indexed": false,
          "name": "userAddress",
          "type": "address"
        },
        {
          "indexed": false,
          "name": "role",
          "type": "string"
        }
      ],
      "name": "UserCreated",
      "type": "event",
      "signature": "0xc49566d6afa47426fd599e36ed625a7a645b084dbd2c1236fe9ac365e91a71fb"
    },
    {
      "anonymous": false,
      "inputs": [
        {
          "indexed": false,
          "name": "id",
          "type": "uint256"
        },
        {
          "indexed": false,
          "name": "content",
          "type": "string"
        },
        {
          "indexed": false,
          "name": "completed",
          "type": "bool"
        },
        {
          "indexed": false,
          "name": "createdBy",
          "type": "address"
        },
        {
          "indexed": false,
          "name": "completedBy",
          "type": "address"
        }
      ],
      "name": "TaskCreated",
      "type": "event",
      "signature": "0x1269015a5d391f69cb0c62599881ba11774c45477e6931c2c00f8d949d7acad5"
    },
    {
      "constant": false,
      "inputs": [
        {
          "name": "_groupName",
          "type": "string"
        }
      ],
      "name": "createGroup",
      "outputs": [],
      "payable": false,
      "stateMutability": "nonpayable",
      "type": "function",
      "signature": "0xdc2ddcae"
    },
    {
      "constant": true,
      "inputs": [],
      "name": "getGroups",
      "outputs": [
        {
          "name": "",
          "type": "uint256[]"
        },
        {
          "name": "",
          "type": "string[]"
        }
      ],
      "payable": false,
      "stateMutability": "view",
      "type": "function",
      "signature": "0xc72b5176"
    },
    {
      "constant": true,
      "inputs": [
        {
          "name": "_id",
          "type": "uint256"
        }
      ],
      "name": "getGroupById",
      "outputs": [
        {
          "name": "groupName",
          "type": "string"
        },
        {
          "name": "gId",
          "type": "uint256"
        },
        {
          "name": "numberOfMember",
          "type": "uint256"
        },
        {
          "name": "numberOfTask",
          "type": "uint256"
        }
      ],
      "payable": false,
      "stateMutability": "view",
      "type": "function",
      "signature": "0x6cc29ea0"
    },
    {
      "constant": false,
      "inputs": [
        {
          "name": "_gID",
          "type": "uint256"
        },
        {
          "name": "_userID",
          "type": "uint256"
        }
      ],
      "name": "addMember",
      "outputs": [],
      "payable": false,
      "stateMutability": "nonpayable",
      "type": "function",
      "signature": "0x1783efc3"
    },
    {
      "constant": false,
      "inputs": [
        {
          "name": "_gID",
          "type": "uint256"
        },
        {
          "name": "_tID",
          "type": "uint256"
        }
      ],
      "name": "addTask",
      "outputs": [],
      "payable": false,
      "stateMutability": "nonpayable",
      "type": "function",
      "signature": "0x00b34ebd"
    },
    {
      "constant": true,
      "inputs": [
        {
          "name": "_gID",
          "type": "uint256"
        }
      ],
      "name": "getMembers",
      "outputs": [
        {
          "name": "",
          "type": "uint256[]"
        }
      ],
      "payable": false,
      "stateMutability": "view",
      "type": "function",
      "signature": "0xc477ecab"
    },
    {
      "constant": false,
      "inputs": [
        {
          "name": "_userName",
          "type": "string"
        },
        {
          "name": "_userAddress",
          "type": "address"
        },
        {
          "name": "_role",
          "type": "string"
        }
      ],
      "name": "createUser",
      "outputs": [],
      "payable": false,
      "stateMutability": "nonpayable",
      "type": "function",
      "signature": "0xb17e8964"
    },
    {
      "constant": true,
      "inputs": [
        {
          "name": "_id",
          "type": "uint256"
        }
      ],
      "name": "getUserById",
      "outputs": [
        {
          "name": "userName",
          "type": "string"
        },
        {
          "name": "userAddress",
          "type": "address"
        },
        {
          "name": "uid",
          "type": "uint256"
        }
      ],
      "payable": false,
      "stateMutability": "view",
      "type": "function",
      "signature": "0x6ed6da9e"
    },
    {
      "constant": true,
      "inputs": [],
      "name": "getAvailableUser",
      "outputs": [
        {
          "name": "uIds",
          "type": "uint256[]"
        }
      ],
      "payable": false,
      "stateMutability": "view",
      "type": "function",
      "signature": "0x0101370b"
    },
    {
      "constant": true,
      "inputs": [],
      "name": "getTest",
      "outputs": [
        {
          "name": "right",
          "type": "bool"
        }
      ],
      "payable": false,
      "stateMutability": "view",
      "type": "function",
      "signature": "0xa8cd0a80"
    },
    {
      "constant": true,
      "inputs": [
        {
          "name": "_userAddress",
          "type": "address"
        }
      ],
      "name": "getByAddress",
      "outputs": [
        {
          "name": "userName",
          "type": "string"
        },
        {
          "name": "userRole",
          "type": "string"
        }
      ],
      "payable": false,
      "stateMutability": "view",
      "type": "function",
      "signature": "0x30257bf7"
    },
    {
      "constant": false,
      "inputs": [
        {
          "name": "_id",
          "type": "uint256"
        },
        {
          "name": "_userName",
          "type": "string"
        }
      ],
      "name": "update",
      "outputs": [],
      "payable": false,
      "stateMutability": "nonpayable",
      "type": "function",
      "signature": "0xf745630f"
    },
    {
      "constant": false,
      "inputs": [
        {
          "name": "_content",
          "type": "string"
        }
      ],
      "name": "createTask",
      "outputs": [],
      "payable": false,
      "stateMutability": "nonpayable",
      "type": "function",
      "signature": "0x111002aa"
    },
    {
      "constant": true,
      "inputs": [
        {
          "name": "_tId",
          "type": "uint256"
        }
      ],
      "name": "getTaskById",
      "outputs": [
        {
          "name": "content",
          "type": "string"
        },
        {
          "name": "tId",
          "type": "uint256"
        },
        {
          "name": "createdBy",
          "type": "address"
        },
        {
          "name": "completed",
          "type": "bool"
        },
        {
          "name": "completedBy",
          "type": "address"
        }
      ],
      "payable": false,
      "stateMutability": "view",
      "type": "function",
      "signature": "0x976217cd"
    },
    {
      "constant": true,
      "inputs": [
        {
          "name": "_gId",
          "type": "uint256"
        }
      ],
      "name": "getTasksByGroupId",
      "outputs": [
        {
          "name": "tIds",
          "type": "uint256[]"
        }
      ],
      "payable": false,
      "stateMutability": "view",
      "type": "function",
      "signature": "0x26a19503"
    },
    {
      "constant": true,
      "inputs": [],
      "name": "getAvailableTask",
      "outputs": [
        {
          "name": "tIds",
          "type": "uint256[]"
        }
      ],
      "payable": false,
      "stateMutability": "view",
      "type": "function",
      "signature": "0x2c7b8f66"
    }
  ],
  "bytecode": "0x60806040523480156200001157600080fd5b5060008081905550620000686040805190810160405280600d81526020017f47726f75702044656661756c74000000000000000000000000000000000000008152506200017a640100000000026401000000009004565b6000600481905550620000f66040805190810160405280600b81526020017f4d616e6167657230313233000000000000000000000000000000000000000000815250336040805190810160405280600781526020017f4d616e616765720000000000000000000000000000000000000000000000000081525062000271640100000000026401000000009004565b600060088190555062000174606060405190810160405280602281526020017f46696e69736820796f757220746865736973206265666f726520326e64204f6381526020017f742e00000000000000000000000000000000000000000000000000000000000081525062000372640100000000026401000000009004565b62000777565b600081511115156200018b57600080fd5b600080815480929190600101919050555060005481600080620001ad62000471565b620001bc949392919062000673565b604051809103906000f080158015620001d9573d6000803e3d6000fd5b50600160008054815260200190815260200160002060006101000a81548173ffffffffffffffffffffffffffffffffffffffff021916908373ffffffffffffffffffffffffffffffffffffffff1602179055507f963d1ca77026cdfbe6fe0836b55bb75864ca1ce130c9608dda1f074ef5a68d966000548260008060405162000266949392919062000673565b60405180910390a150565b6004600081548092919060010191905055506004548383836200029362000482565b620002a294939291906200055b565b604051809103906000f080158015620002bf573d6000803e3d6000fd5b5060056000600454815260200190815260200160002060006101000a81548173ffffffffffffffffffffffffffffffffffffffff021916908373ffffffffffffffffffffffffffffffffffffffff1602179055506000600660006004548152602001908152602001600020819055507fc49566d6afa47426fd599e36ed625a7a645b084dbd2c1236fe9ac365e91a71fb60045484846040516200036593929190620005b6565b60405180910390a1505050565b600081511115156200038357600080fd5b600860008154809291906001019190505550600854816000336000620003a862000493565b620003b89594939291906200060f565b604051809103906000f080158015620003d5573d6000803e3d6000fd5b5060096000600854815260200190815260200160002060006101000a81548173ffffffffffffffffffffffffffffffffffffffff021916908373ffffffffffffffffffffffffffffffffffffffff1602179055507f1269015a5d391f69cb0c62599881ba11774c45477e6931c2c00f8d949d7acad5600854826000336000604051620004669594939291906200060f565b60405180910390a150565b604051610757806200499d83390190565b60405161092a80620050f483390190565b6040516108ef8062005a1e83390190565b620004af81620006d2565b82525050565b620004c081620006e6565b82525050565b620004d1816200071c565b82525050565b6000620004e482620006c7565b808452620004fa81602086016020860162000730565b620005058162000766565b602085010191505092915050565b6000600482527f55736572000000000000000000000000000000000000000000000000000000006020830152604082019050919050565b620005558162000712565b82525050565b60006080820190506200057260008301876200054a565b8181036020830152620005868186620004d7565b9050620005976040830185620004a4565b8181036060830152620005ab8184620004d7565b905095945050505050565b6000608082019050620005cd60008301866200054a565b8181036020830152620005e18185620004d7565b9050620005f26040830184620004a4565b8181036060830152620006058162000513565b9050949350505050565b600060a0820190506200062660008301886200054a565b81810360208301526200063a8187620004d7565b90506200064b6040830186620004b5565b6200065a6060830185620004a4565b620006696080830184620004a4565b9695505050505050565b60006080820190506200068a60008301876200054a565b81810360208301526200069e8186620004d7565b9050620006af6040830185620004c6565b620006be6060830184620004c6565b95945050505050565b600081519050919050565b6000620006df82620006f2565b9050919050565b60008115159050919050565b600073ffffffffffffffffffffffffffffffffffffffff82169050919050565b6000819050919050565b6000620007298262000712565b9050919050565b60005b838110156200075057808201518184015260208101905062000733565b8381111562000760576000848401525b50505050565b6000601f19601f8301169050919050565b61421680620007876000396000f3fe60806040526004361062000186576000357c0100000000000000000000000000000000000000000000000000000000900463ffffffff168062b34ebd146200018b5780630101370b14620001b957806307973ccf14620001e9578063111002aa146200021957806315e677ad14620002475780631783efc3146200028b57806326a1950314620002b95780632c7b8f6614620002fd57806330257bf7146200032d578063365b98b214620003725780635f6a4a7f14620003b65780635ff1a6ed14620003fa5780636cc29ea0146200043e5780636ed6da9e14620004855780638d97767214620004cb5780638f23b326146200050f57806396324bd4146200053f578063976217cd146200058357806399fca84414620005cb578063a67b1997146200060f578063a8cd0a801462000653578063b17e89641462000683578063b6cb58a514620006b1578063c477ecab14620006e1578063c72b51761462000725578063d70db5bf1462000756578063dc2ddcae146200079a578063f745630f14620007c8575b600080fd5b3480156200019857600080fd5b50620001b76004803603620001b1919081019062002060565b620007f6565b005b348015620001c657600080fd5b50620001d162000870565b604051620001e09190620022a4565b60405180910390f35b348015620001f657600080fd5b506200020162000968565b604051620002109190620024d2565b60405180910390f35b3480156200022657600080fd5b506200024560048036036200023f919081019062001e9c565b6200096e565b005b3480156200025457600080fd5b506200027360048036036200026d919081019062002060565b62000a6d565b604051620002829190620024d2565b60405180910390f35b3480156200029857600080fd5b50620002b76004803603620002b1919081019062002060565b62000a9e565b005b348015620002c657600080fd5b50620002e56004803603620002df919081019062001fae565b62000b18565b604051620002f49190620022a4565b60405180910390f35b3480156200030a57600080fd5b506200031562000bdb565b604051620003249190620022a4565b60405180910390f35b3480156200033a57600080fd5b5062000359600480360362000353919081019062001e18565b62000cd3565b60405162000369929190620023df565b60405180910390f35b3480156200037f57600080fd5b506200039e600480360362000398919081019062001fae565b62000f5e565b604051620003ad91906200235a565b60405180910390f35b348015620003c357600080fd5b50620003e26004803603620003dc919081019062001fae565b62000f91565b604051620003f19190620024d2565b60405180910390f35b3480156200040757600080fd5b5062000426600480360362000420919081019062001fae565b62000fa9565b604051620004359190620024d2565b60405180910390f35b3480156200044b57600080fd5b506200046a600480360362000464919081019062001fae565b62000fc1565b6040516200047c94939291906200247e565b60405180910390f35b3480156200049257600080fd5b50620004b16004803603620004ab919081019062001fae565b620010ed565b604051620004c2939291906200239b565b60405180910390f35b348015620004d857600080fd5b50620004f76004803603620004f1919081019062001fae565b6200127a565b6040516200050691906200233d565b60405180910390f35b3480156200051c57600080fd5b5062000527620012ad565b604051620005369190620024d2565b60405180910390f35b3480156200054c57600080fd5b506200056b600480360362000565919081019062001fae565b620012b3565b6040516200057a919062002320565b60405180910390f35b3480156200059057600080fd5b50620005af6004803603620005a9919081019062001fae565b620012e6565b604051620005c29594939291906200241a565b60405180910390f35b348015620005d857600080fd5b50620005f76004803603620005f1919081019062001fae565b620015b8565b6040516200060691906200235a565b60405180910390f35b3480156200061c57600080fd5b506200063b600480360362000635919081019062002060565b620015eb565b6040516200064a9190620024d2565b60405180910390f35b3480156200066057600080fd5b506200066b6200161c565b6040516200067a919062002303565b60405180910390f35b3480156200069057600080fd5b50620006af6004803603620006a9919081019062001f26565b6200163a565b005b348015620006be57600080fd5b50620006c96200173b565b604051620006d89190620024d2565b60405180910390f35b348015620006ee57600080fd5b506200070d600480360362000707919081019062001fae565b62001741565b6040516200071c9190620022a4565b60405180910390f35b3480156200073257600080fd5b506200073d62001804565b6040516200074d929190620022c8565b60405180910390f35b3480156200076357600080fd5b506200078260048036036200077c919081019062002060565b62001a5c565b6040516200079191906200233d565b60405180910390f35b348015620007a757600080fd5b50620007c66004803603620007c0919081019062001e9c565b62001aaa565b005b348015620007d557600080fd5b50620007f46004803603620007ee919081019062002006565b62001ba1565b005b60005482111580156200080b57506008548111155b15156200081757600080fd5b6003600083815260200190815260200160002081908060018154018082558091505090600182039060005260206000200160009091929091909150555081600a6000838152602001908152602001600020819055505050565b606060008090506000600190505b60045481111515620008be57600060066000838152602001908152602001600020541415620008b05781806001019250505b80806001019150506200087e565b50606081604051908082528060200260200182016040528015620008f15781602001602082028038833980820191505090505b50905060008090506000600190505b600454811115156200095e5760006006600083815260200190815260200160002054141562000950578083838151811015156200093957fe5b906020019060200201818152505081806001019250505b808060010191505062000900565b5081935050505090565b60045481565b600081511115156200097f57600080fd5b600860008154809291906001019190505550600854816000336000620009a462001cbb565b620009b4959493929190620025a3565b604051809103906000f080158015620009d1573d6000803e3d6000fd5b5060096000600854815260200190815260200160002060006101000a81548173ffffffffffffffffffffffffffffffffffffffff021916908373ffffffffffffffffffffffffffffffffffffffff1602179055507f1269015a5d391f69cb0c62599881ba11774c45477e6931c2c00f8d949d7acad560085482600033600060405162000a62959493929190620025a3565b60405180910390a150565b60026020528160005260406000208181548110151562000a8957fe5b90600052602060002001600091509150505481565b600054821115801562000ab357506004548111155b151562000abf57600080fd5b600260008381526020019081526020016000208190806001815401808255809150509060018203906000526020600020016000909192909190915055508160066000838152602001908152602001600020819055505050565b606060006003600084815260200190815260200160002080549050905060608160405190808252806020026020018201604052801562000b675781602001602082028038833980820191505090505b50905060008090505b8281101562000bd057600360008681526020019081526020016000208181548110151562000b9a57fe5b9060005260206000200154828281518110151562000bb457fe5b9060200190602002018181525050808060010191505062000b70565b508092505050919050565b606060008090506000600190505b6008548111151562000c29576000600a600083815260200190815260200160002054141562000c1b5781806001019250505b808060010191505062000be9565b5060608160405190808252806020026020018201604052801562000c5c5781602001602082028038833980820191505090505b50905060008090506000600190505b6008548111151562000cc9576000600a600083815260200190815260200160002054141562000cbb5780838381518110151562000ca457fe5b906020019060200201818152505081806001019250505b808060010191505062000c6b565b5081935050505090565b6060806060806000600190505b6004548111151562000f505760006005600083815260200190815260200160002060009054906101000a900473ffffffffffffffffffffffffffffffffffffffff1690508673ffffffffffffffffffffffffffffffffffffffff168173ffffffffffffffffffffffffffffffffffffffff1663ebc3eee86040518163ffffffff167c010000000000000000000000000000000000000000000000000000000002815260040160206040518083038186803b15801562000d9e57600080fd5b505afa15801562000db3573d6000803e3d6000fd5b505050506040513d601f19601f8201168201806040525062000dd9919081019062001e44565b73ffffffffffffffffffffffffffffffffffffffff16141562000f41578073ffffffffffffffffffffffffffffffffffffffff166312958f1c6040518163ffffffff167c010000000000000000000000000000000000000000000000000000000002815260040160006040518083038186803b15801562000e5957600080fd5b505afa15801562000e6e573d6000803e3d6000fd5b505050506040513d6000823e3d601f19601f8201168201806040525062000e99919081019062001ee1565b93508073ffffffffffffffffffffffffffffffffffffffff1663bf04a10d6040518163ffffffff167c010000000000000000000000000000000000000000000000000000000002815260040160006040518083038186803b15801562000efe57600080fd5b505afa15801562000f13573d6000803e3d6000fd5b505050506040513d6000823e3d601f19601f8201168201806040525062000f3e919081019062001ee1565b92505b50808060010191505062000ce0565b508181935093505050915091565b60056020528060005260406000206000915054906101000a900473ffffffffffffffffffffffffffffffffffffffff1681565b600a6020528060005260406000206000915090505481565b60066020528060005260406000206000915090505481565b60606000806000806001600087815260200190815260200160002060009054906101000a900473ffffffffffffffffffffffffffffffffffffffff1690506000600260008881526020019081526020016000208054905090506000600360008981526020019081526020016000208054905090508273ffffffffffffffffffffffffffffffffffffffff1663843c608d6040518163ffffffff167c010000000000000000000000000000000000000000000000000000000002815260040160006040518083038186803b1580156200109857600080fd5b505afa158015620010ad573d6000803e3d6000fd5b505050506040513d6000823e3d601f19601f82011682018060405250620010d8919081019062001ee1565b88838396509650965096505050509193509193565b606060008060006005600086815260200190815260200160002060009054906101000a900473ffffffffffffffffffffffffffffffffffffffff1690508073ffffffffffffffffffffffffffffffffffffffff166312958f1c6040518163ffffffff167c010000000000000000000000000000000000000000000000000000000002815260040160006040518083038186803b1580156200118d57600080fd5b505afa158015620011a2573d6000803e3d6000fd5b505050506040513d6000823e3d601f19601f82011682018060405250620011cd919081019062001ee1565b8173ffffffffffffffffffffffffffffffffffffffff1663ebc3eee86040518163ffffffff167c010000000000000000000000000000000000000000000000000000000002815260040160206040518083038186803b1580156200123057600080fd5b505afa15801562001245573d6000803e3d6000fd5b505050506040513d601f19601f820116820180604052506200126b919081019062001e44565b86935093509350509193909250565b60096020528060005260406000206000915054906101000a900473ffffffffffffffffffffffffffffffffffffffff1681565b60005481565b60016020528060005260406000206000915054906101000a900473ffffffffffffffffffffffffffffffffffffffff1681565b606060008060008060006009600088815260200190815260200160002060009054906101000a900473ffffffffffffffffffffffffffffffffffffffff1690508073ffffffffffffffffffffffffffffffffffffffff1663b631b3416040518163ffffffff167c010000000000000000000000000000000000000000000000000000000002815260040160006040518083038186803b1580156200138957600080fd5b505afa1580156200139e573d6000803e3d6000fd5b505050506040513d6000823e3d601f19601f82011682018060405250620013c9919081019062001ee1565b878273ffffffffffffffffffffffffffffffffffffffff166375f961896040518163ffffffff167c010000000000000000000000000000000000000000000000000000000002815260040160206040518083038186803b1580156200142d57600080fd5b505afa15801562001442573d6000803e3d6000fd5b505050506040513d601f19601f8201168201806040525062001468919081019062001e44565b8373ffffffffffffffffffffffffffffffffffffffff16635b54f9826040518163ffffffff167c010000000000000000000000000000000000000000000000000000000002815260040160206040518083038186803b158015620014cb57600080fd5b505afa158015620014e0573d6000803e3d6000fd5b505050506040513d601f19601f8201168201806040525062001506919081019062001e70565b8473ffffffffffffffffffffffffffffffffffffffff166324e222db6040518163ffffffff167c010000000000000000000000000000000000000000000000000000000002815260040160206040518083038186803b1580156200156957600080fd5b505afa1580156200157e573d6000803e3d6000fd5b505050506040513d601f19601f82011682018060405250620015a4919081019062001e44565b955095509550955095505091939590929450565b600b6020528060005260406000206000915054906101000a900473ffffffffffffffffffffffffffffffffffffffff1681565b6003602052816000526040600020818154811015156200160757fe5b90600052602060002001600091509150505481565b60008060066000600181526020019081526020016000205414905090565b6004600081548092919060010191905055506004548383836200165c62001ccc565b6200166b9493929190620024ef565b604051809103906000f08015801562001688573d6000803e3d6000fd5b5060056000600454815260200190815260200160002060006101000a81548173ffffffffffffffffffffffffffffffffffffffff021916908373ffffffffffffffffffffffffffffffffffffffff1602179055506000600660006004548152602001908152602001600020819055507fc49566d6afa47426fd599e36ed625a7a645b084dbd2c1236fe9ac365e91a71fb60045484846040516200172e939291906200254a565b60405180910390a1505050565b60085481565b6060600060026000848152602001908152602001600020805490509050606081604051908082528060200260200182016040528015620017905781602001602082028038833980820191505090505b50905060008090505b82811015620017f9576002600086815260200190815260200160002081815481101515620017c357fe5b90600052602060002001548282815181101515620017dd57fe5b9060200190602002018181525050808060010191505062001799565b508092505050919050565b60608060606000546040519080825280602002602001820160405280156200183b5781602001602082028038833980820191505090505b50905060606000546040519080825280602002602001820160405280156200187857816020015b6060815260200190600190039081620018625790505b5090506000600190505b6000548111151562001a4f5760006001600083815260200190815260200160002060009054906101000a900473ffffffffffffffffffffffffffffffffffffffff1690508073ffffffffffffffffffffffffffffffffffffffff16635d1ca6316040518163ffffffff167c010000000000000000000000000000000000000000000000000000000002815260040160206040518083038186803b1580156200192957600080fd5b505afa1580156200193e573d6000803e3d6000fd5b505050506040513d601f19601f8201168201806040525062001964919081019062001fda565b84838151811015156200197357fe5b90602001906020020181815250508073ffffffffffffffffffffffffffffffffffffffff1663843c608d6040518163ffffffff167c010000000000000000000000000000000000000000000000000000000002815260040160006040518083038186803b158015620019e457600080fd5b505afa158015620019f9573d6000803e3d6000fd5b505050506040513d6000823e3d601f19601f8201168201806040525062001a24919081019062001ee1565b838381518110151562001a3357fe5b9060200190602002018190525050808060010191505062001882565b5081819350935050509091565b60076020528160005260406000208181548110151562001a7857fe5b906000526020600020016000915091509054906101000a900473ffffffffffffffffffffffffffffffffffffffff1681565b6000815111151562001abb57600080fd5b60008081548092919060010191905055506000548160008062001add62001cdd565b62001aec949392919062002607565b604051809103906000f08015801562001b09573d6000803e3d6000fd5b50600160008054815260200190815260200160002060006101000a81548173ffffffffffffffffffffffffffffffffffffffff021916908373ffffffffffffffffffffffffffffffffffffffff1602179055507f963d1ca77026cdfbe6fe0836b55bb75864ca1ce130c9608dda1f074ef5a68d966000548260008060405162001b96949392919062002607565b60405180910390a150565b60006005600084815260200190815260200160002060009054906101000a900473ffffffffffffffffffffffffffffffffffffffff1690508073ffffffffffffffffffffffffffffffffffffffff16632b5914fe836040518263ffffffff167c010000000000000000000000000000000000000000000000000000000002815260040162001c30919062002377565b600060405180830381600087803b15801562001c4b57600080fd5b505af115801562001c60573d6000803e3d6000fd5b50505050806005600085815260200190815260200160002060006101000a81548173ffffffffffffffffffffffffffffffffffffffff021916908373ffffffffffffffffffffffffffffffffffffffff160217905550505050565b6040516108ef806200286d83390190565b60405161092a806200315c83390190565b6040516107578062003a8683390190565b600062001cfc823562002760565b905092915050565b600062001d12825162002760565b905092915050565b600062001d28825162002774565b905092915050565b600082601f830112151562001d4457600080fd5b813562001d5b62001d558262002689565b6200265b565b9150808252602083016020830185838301111562001d7857600080fd5b62001d8583828462002816565b50505092915050565b600082601f830112151562001da257600080fd5b815162001db962001db38262002689565b6200265b565b9150808252602083016020830185838301111562001dd657600080fd5b62001de383828462002825565b50505092915050565b600062001dfa823562002780565b905092915050565b600062001e10825162002780565b905092915050565b60006020828403121562001e2b57600080fd5b600062001e3b8482850162001cee565b91505092915050565b60006020828403121562001e5757600080fd5b600062001e678482850162001d04565b91505092915050565b60006020828403121562001e8357600080fd5b600062001e938482850162001d1a565b91505092915050565b60006020828403121562001eaf57600080fd5b600082013567ffffffffffffffff81111562001eca57600080fd5b62001ed88482850162001d30565b91505092915050565b60006020828403121562001ef457600080fd5b600082015167ffffffffffffffff81111562001f0f57600080fd5b62001f1d8482850162001d8e565b91505092915050565b60008060006060848603121562001f3c57600080fd5b600084013567ffffffffffffffff81111562001f5757600080fd5b62001f658682870162001d30565b935050602062001f788682870162001cee565b925050604084013567ffffffffffffffff81111562001f9657600080fd5b62001fa48682870162001d30565b9150509250925092565b60006020828403121562001fc157600080fd5b600062001fd18482850162001dec565b91505092915050565b60006020828403121562001fed57600080fd5b600062001ffd8482850162001e02565b91505092915050565b600080604083850312156200201a57600080fd5b60006200202a8582860162001dec565b925050602083013567ffffffffffffffff8111156200204857600080fd5b620020568582860162001d30565b9150509250929050565b600080604083850312156200207457600080fd5b6000620020848582860162001dec565b9250506020620020978582860162001dec565b9150509250929050565b620020ac8162002716565b82525050565b6000620020bf82620026d0565b80845260208401935083602082028501620020da85620026b6565b60005b8481101562002119578383038852620020f883835162002220565b92506200210582620026fc565b9150602088019750600181019050620020dd565b508196508694505050505092915050565b60006200213782620026db565b8084526020840193506200214b83620026c3565b60005b8281101562002183576200216486835162002293565b6200216f8262002709565b91506020860195506001810190506200214e565b50849250505092915050565b6200219a816200272a565b82525050565b620021ab816200278a565b82525050565b620021bc81620027b2565b82525050565b620021cd81620027da565b82525050565b620021de8162002802565b82525050565b6000620021f182620026f1565b8084526200220781602086016020860162002825565b62002212816200285b565b602085010191505092915050565b60006200222d82620026e6565b8084526200224381602086016020860162002825565b6200224e816200285b565b602085010191505092915050565b6000600482527f55736572000000000000000000000000000000000000000000000000000000006020830152604082019050919050565b6200229e8162002756565b82525050565b60006020820190508181036000830152620022c081846200212a565b905092915050565b60006040820190508181036000830152620022e481856200212a565b90508181036020830152620022fa8184620020b2565b90509392505050565b60006020820190506200231a60008301846200218f565b92915050565b6000602082019050620023376000830184620021a0565b92915050565b6000602082019050620023546000830184620021b1565b92915050565b6000602082019050620023716000830184620021c2565b92915050565b60006020820190508181036000830152620023938184620021e4565b905092915050565b60006060820190508181036000830152620023b78186620021e4565b9050620023c86020830185620020a1565b620023d7604083018462002293565b949350505050565b60006040820190508181036000830152620023fb8185620021e4565b90508181036020830152620024118184620021e4565b90509392505050565b600060a0820190508181036000830152620024368188620021e4565b905062002447602083018762002293565b620024566040830186620020a1565b6200246560608301856200218f565b620024746080830184620020a1565b9695505050505050565b600060808201905081810360008301526200249a8187620021e4565b9050620024ab602083018662002293565b620024ba604083018562002293565b620024c9606083018462002293565b95945050505050565b6000602082019050620024e9600083018462002293565b92915050565b600060808201905062002506600083018762002293565b81810360208301526200251a8186620021e4565b90506200252b6040830185620020a1565b81810360608301526200253f8184620021e4565b905095945050505050565b600060808201905062002561600083018662002293565b8181036020830152620025758185620021e4565b9050620025866040830184620020a1565b818103606083015262002599816200225c565b9050949350505050565b600060a082019050620025ba600083018862002293565b8181036020830152620025ce8187620021e4565b9050620025df60408301866200218f565b620025ee6060830185620020a1565b620025fd6080830184620020a1565b9695505050505050565b60006080820190506200261e600083018762002293565b8181036020830152620026328186620021e4565b9050620026436040830185620021d3565b620026526060830184620021d3565b95945050505050565b6000604051905081810181811067ffffffffffffffff821117156200267f57600080fd5b8060405250919050565b600067ffffffffffffffff821115620026a157600080fd5b601f19601f8301169050602081019050919050565b6000602082019050919050565b6000602082019050919050565b600081519050919050565b600081519050919050565b600081519050919050565b600081519050919050565b6000602082019050919050565b6000602082019050919050565b6000620027238262002736565b9050919050565b60008115159050919050565b600073ffffffffffffffffffffffffffffffffffffffff82169050919050565b6000819050919050565b60006200276d8262002736565b9050919050565b60008115159050919050565b6000819050919050565b600062002797826200279e565b9050919050565b6000620027ab8262002736565b9050919050565b6000620027bf82620027c6565b9050919050565b6000620027d38262002736565b9050919050565b6000620027e782620027ee565b9050919050565b6000620027fb8262002736565b9050919050565b60006200280f8262002756565b9050919050565b82818337600083830152505050565b60005b838110156200284557808201518184015260208101905062002828565b8381111562002855576000848401525b50505050565b6000601f19601f830116905091905056fe60806040526040516108ef3803806108ef833981018060405260a081101561002657600080fd5b8101908080519060200190929190805164010000000081111561004857600080fd5b8281019050602081018481111561005e57600080fd5b815185600182028301116401000000008211171561007b57600080fd5b50509291906020018051906020019092919080519060200190929190805190602001909291905050508460008190555083600190805190602001906100c1929190610168565b5082600260006101000a81548160ff02191690831515021790555081600260016101000a81548173ffffffffffffffffffffffffffffffffffffffff021916908373ffffffffffffffffffffffffffffffffffffffff16021790555080600360006101000a81548173ffffffffffffffffffffffffffffffffffffffff021916908373ffffffffffffffffffffffffffffffffffffffff160217905550505050505061020d565b828054600181600116156101000203166002900490600052602060002090601f016020900481019282601f106101a957805160ff19168380011785556101d7565b828001600101855582156101d7579182015b828111156101d65782518255916020019190600101906101bb565b5b5090506101e491906101e8565b5090565b61020a91905b808211156102065760008160009055506001016101ee565b5090565b90565b6106d38061021c6000396000f3fe6080604052600436106100a4576000357c0100000000000000000000000000000000000000000000000000000000900463ffffffff1680630c9391e5146100a957806313859688146100fa57806315c780101461012557806324e222db146101ed5780633c8e65db146102445780635b54f9821461029557806375f96189146102c4578063b631b3411461031b578063bc9b5162146103ab578063f51f4738146103e6575b600080fd5b3480156100b557600080fd5b506100f8600480360360208110156100cc57600080fd5b81019080803573ffffffffffffffffffffffffffffffffffffffff169060200190929190505050610423565b005b34801561010657600080fd5b5061010f610467565b6040518082815260200191505060405180910390f35b34801561013157600080fd5b506101eb6004803603602081101561014857600080fd5b810190808035906020019064010000000081111561016557600080fd5b82018360208201111561017757600080fd5b8035906020019184600183028401116401000000008311171561019957600080fd5b91908080601f016020809104026020016040519081016040528093929190818152602001838380828437600081840152601f19601f820116905080830192505050505050509192919290505050610470565b005b3480156101f957600080fd5b5061020261048a565b604051808273ffffffffffffffffffffffffffffffffffffffff1673ffffffffffffffffffffffffffffffffffffffff16815260200191505060405180910390f35b34801561025057600080fd5b506102936004803603602081101561026757600080fd5b81019080803573ffffffffffffffffffffffffffffffffffffffff1690602001909291905050506104b4565b005b3480156102a157600080fd5b506102aa6104f8565b604051808215151515815260200191505060405180910390f35b3480156102d057600080fd5b506102d961050f565b604051808273ffffffffffffffffffffffffffffffffffffffff1673ffffffffffffffffffffffffffffffffffffffff16815260200191505060405180910390f35b34801561032757600080fd5b50610330610539565b6040518080602001828103825283818151815260200191508051906020019080838360005b83811015610370578082015181840152602081019050610355565b50505050905090810190601f16801561039d5780820380516001836020036101000a031916815260200191505b509250505060405180910390f35b3480156103b757600080fd5b506103e4600480360360208110156103ce57600080fd5b81019080803590602001909291905050506105db565b005b3480156103f257600080fd5b506104216004803603602081101561040957600080fd5b810190808035151590602001909291905050506105e5565b005b80600260016101000a81548173ffffffffffffffffffffffffffffffffffffffff021916908373ffffffffffffffffffffffffffffffffffffffff16021790555050565b60008054905090565b8060019080519060200190610486929190610602565b5050565b6000600360009054906101000a900473ffffffffffffffffffffffffffffffffffffffff16905090565b80600360006101000a81548173ffffffffffffffffffffffffffffffffffffffff021916908373ffffffffffffffffffffffffffffffffffffffff16021790555050565b6000600260009054906101000a900460ff16905090565b6000600260019054906101000a900473ffffffffffffffffffffffffffffffffffffffff16905090565b606060018054600181600116156101000203166002900480601f0160208091040260200160405190810160405280929190818152602001828054600181600116156101000203166002900480156105d15780601f106105a6576101008083540402835291602001916105d1565b820191906000526020600020905b8154815290600101906020018083116105b457829003601f168201915b5050505050905090565b8060008190555050565b80600260006101000a81548160ff02191690831515021790555050565b828054600181600116156101000203166002900490600052602060002090601f016020900481019282601f1061064357805160ff1916838001178555610671565b82800160010185558215610671579182015b82811115610670578251825591602001919060010190610655565b5b50905061067e9190610682565b5090565b6106a491905b808211156106a0576000816000905550600101610688565b5090565b9056fea165627a7a7230582001e0726fb36fe50ea76b1a3ca759ed91c71a976cd473a6b97da08a2e829cf4cf0029608060405260405161092a38038061092a8339810180604052608081101561002657600080fd5b8101908080519060200190929190805164010000000081111561004857600080fd5b8281019050602081018481111561005e57600080fd5b815185600182028301116401000000008211171561007b57600080fd5b50509291906020018051906020019092919080516401000000008111156100a157600080fd5b828101905060208101848111156100b757600080fd5b81518560018202830111640100000000821117156100d457600080fd5b50509291905050508360008190555082600190805190602001906100f992919061015b565b5081600260006101000a81548173ffffffffffffffffffffffffffffffffffffffff021916908373ffffffffffffffffffffffffffffffffffffffff160217905550806003908051906020019061015192919061015b565b5050505050610200565b828054600181600116156101000203166002900490600052602060002090601f016020900481019282601f1061019c57805160ff19168380011785556101ca565b828001600101855582156101ca579182015b828111156101c95782518255916020019190600101906101ae565b5b5090506101d791906101db565b5090565b6101fd91905b808211156101f95760008160009055506001016101e1565b5090565b90565b61071b8061020f6000396000f3fe60806040526004361061008e576000357c0100000000000000000000000000000000000000000000000000000000900463ffffffff1680630aa564341461009357806312958f1c146100e45780632b5914fe146101745780635d1ca6311461023c578063ac80446714610267578063bf04a10d1461032f578063d0e0ba95146103bf578063ebc3eee8146103fa575b600080fd5b34801561009f57600080fd5b506100e2600480360360208110156100b657600080fd5b81019080803573ffffffffffffffffffffffffffffffffffffffff169060200190929190505050610451565b005b3480156100f057600080fd5b506100f9610495565b6040518080602001828103825283818151815260200191508051906020019080838360005b8381101561013957808201518184015260208101905061011e565b50505050905090810190601f1680156101665780820380516001836020036101000a031916815260200191505b509250505060405180910390f35b34801561018057600080fd5b5061023a6004803603602081101561019757600080fd5b81019080803590602001906401000000008111156101b457600080fd5b8201836020820111156101c657600080fd5b803590602001918460018302840111640100000000831117156101e857600080fd5b91908080601f016020809104026020016040519081016040528093929190818152602001838380828437600081840152601f19601f820116905080830192505050505050509192919290505050610537565b005b34801561024857600080fd5b50610251610551565b6040518082815260200191505060405180910390f35b34801561027357600080fd5b5061032d6004803603602081101561028a57600080fd5b81019080803590602001906401000000008111156102a757600080fd5b8201836020820111156102b957600080fd5b803590602001918460018302840111640100000000831117156102db57600080fd5b91908080601f016020809104026020016040519081016040528093929190818152602001838380828437600081840152601f19601f82011690508083019250505050505050919291929050505061055a565b005b34801561033b57600080fd5b50610344610574565b6040518080602001828103825283818151815260200191508051906020019080838360005b83811015610384578082015181840152602081019050610369565b50505050905090810190601f1680156103b15780820380516001836020036101000a031916815260200191505b509250505060405180910390f35b3480156103cb57600080fd5b506103f8600480360360208110156103e257600080fd5b8101908080359060200190929190505050610616565b005b34801561040657600080fd5b5061040f610620565b604051808273ffffffffffffffffffffffffffffffffffffffff1673ffffffffffffffffffffffffffffffffffffffff16815260200191505060405180910390f35b80600260006101000a81548173ffffffffffffffffffffffffffffffffffffffff021916908373ffffffffffffffffffffffffffffffffffffffff16021790555050565b606060018054600181600116156101000203166002900480601f01602080910402602001604051908101604052809291908181526020018280546001816001161561010002031660029004801561052d5780601f106105025761010080835404028352916020019161052d565b820191906000526020600020905b81548152906001019060200180831161051057829003601f168201915b5050505050905090565b806001908051906020019061054d92919061064a565b5050565b60008054905090565b806003908051906020019061057092919061064a565b5050565b606060038054600181600116156101000203166002900480601f01602080910402602001604051908101604052809291908181526020018280546001816001161561010002031660029004801561060c5780601f106105e15761010080835404028352916020019161060c565b820191906000526020600020905b8154815290600101906020018083116105ef57829003601f168201915b5050505050905090565b8060008190555050565b6000600260009054906101000a900473ffffffffffffffffffffffffffffffffffffffff16905090565b828054600181600116156101000203166002900490600052602060002090601f016020900481019282601f1061068b57805160ff19168380011785556106b9565b828001600101855582156106b9579182015b828111156106b857825182559160200191906001019061069d565b5b5090506106c691906106ca565b5090565b6106ec91905b808211156106e85760008160009055506001016106d0565b5090565b9056fea165627a7a72305820e7239516f3245b5840f7e5dc27b618c64cdabcd2b39f36d9d52bfef2b95304950029608060405234801561001057600080fd5b506040516107573803806107578339810180604052608081101561003357600080fd5b8101908080519060200190929190805164010000000081111561005557600080fd5b8281019050602081018481111561006b57600080fd5b815185600182028301116401000000008211171561008857600080fd5b505092919060200180519060200190929190805190602001909291905050508360008190555082600190805190602001906100c49291906100dc565b50816002819055508060038190555050505050610181565b828054600181600116156101000203166002900490600052602060002090601f016020900481019282601f1061011d57805160ff191683800117855561014b565b8280016001018555821561014b579182015b8281111561014a57825182559160200191906001019061012f565b5b509050610158919061015c565b5090565b61017e91905b8082111561017a576000816000905550600101610162565b5090565b90565b6105c7806101906000396000f3fe6080604052600436106100af576000357c0100000000000000000000000000000000000000000000000000000000900463ffffffff16806308e2db46146100b45780630ff12b531461010b578063344a6526146101d357806341f1aaa2146101fe5780634aabb2f2146102295780635d1ca63114610264578063843c608d1461028f578063a0da31c51461031f578063d0485ec21461034a578063d0e0ba9514610385578063fc8d0374146103c0575b600080fd5b3480156100c057600080fd5b506100c96103eb565b604051808273ffffffffffffffffffffffffffffffffffffffff1673ffffffffffffffffffffffffffffffffffffffff16815260200191505060405180910390f35b34801561011757600080fd5b506101d16004803603602081101561012e57600080fd5b810190808035906020019064010000000081111561014b57600080fd5b82018360208201111561015d57600080fd5b8035906020019184600183028401116401000000008311171561017f57600080fd5b91908080601f016020809104026020016040519081016040528093929190818152602001838380828437600081840152601f19601f8201169050808301925050505050505091929192905050506103f3565b005b3480156101df57600080fd5b506101e861040d565b6040518082815260200191505060405180910390f35b34801561020a57600080fd5b50610213610413565b6040518082815260200191505060405180910390f35b34801561023557600080fd5b506102626004803603602081101561024c57600080fd5b810190808035906020019092919050505061041d565b005b34801561027057600080fd5b50610279610427565b6040518082815260200191505060405180910390f35b34801561029b57600080fd5b506102a4610430565b6040518080602001828103825283818151815260200191508051906020019080838360005b838110156102e45780820151818401526020810190506102c9565b50505050905090810190601f1680156103115780820380516001836020036101000a031916815260200191505b509250505060405180910390f35b34801561032b57600080fd5b506103346104d2565b6040518082815260200191505060405180910390f35b34801561035657600080fd5b506103836004803603602081101561036d57600080fd5b81019080803590602001909291905050506104dc565b005b34801561039157600080fd5b506103be600480360360208110156103a857600080fd5b81019080803590602001909291905050506104e6565b005b3480156103cc57600080fd5b506103d56104f0565b6040518082815260200191505060405180910390f35b600030905090565b80600190805190602001906104099291906104f6565b5050565b60025481565b6000600254905090565b8060028190555050565b60008054905090565b606060018054600181600116156101000203166002900480601f0160208091040260200160405190810160405280929190818152602001828054600181600116156101000203166002900480156104c85780601f1061049d576101008083540402835291602001916104c8565b820191906000526020600020905b8154815290600101906020018083116104ab57829003601f168201915b5050505050905090565b6000600354905090565b8060038190555050565b8060008190555050565b60035481565b828054600181600116156101000203166002900490600052602060002090601f016020900481019282601f1061053757805160ff1916838001178555610565565b82800160010185558215610565579182015b82811115610564578251825591602001919060010190610549565b5b5090506105729190610576565b5090565b61059891905b8082111561059457600081600090555060010161057c565b5090565b9056fea165627a7a723058201a308efce61994572dbb363e53d4d40193b868fe9472afdd8b3f3d9df2e5dd330029a265627a7a723058208c8adaef424feab48351a72d37f0d1a9a267dd857a5f2357e1aa8a1e71362d4e6c6578706572696d656e74616cf50037608060405234801561001057600080fd5b506040516107573803806107578339810180604052608081101561003357600080fd5b8101908080519060200190929190805164010000000081111561005557600080fd5b8281019050602081018481111561006b57600080fd5b815185600182028301116401000000008211171561008857600080fd5b505092919060200180519060200190929190805190602001909291905050508360008190555082600190805190602001906100c49291906100dc565b50816002819055508060038190555050505050610181565b828054600181600116156101000203166002900490600052602060002090601f016020900481019282601f1061011d57805160ff191683800117855561014b565b8280016001018555821561014b579182015b8281111561014a57825182559160200191906001019061012f565b5b509050610158919061015c565b5090565b61017e91905b8082111561017a576000816000905550600101610162565b5090565b90565b6105c7806101906000396000f3fe6080604052600436106100af576000357c0100000000000000000000000000000000000000000000000000000000900463ffffffff16806308e2db46146100b45780630ff12b531461010b578063344a6526146101d357806341f1aaa2146101fe5780634aabb2f2146102295780635d1ca63114610264578063843c608d1461028f578063a0da31c51461031f578063d0485ec21461034a578063d0e0ba9514610385578063fc8d0374146103c0575b600080fd5b3480156100c057600080fd5b506100c96103eb565b604051808273ffffffffffffffffffffffffffffffffffffffff1673ffffffffffffffffffffffffffffffffffffffff16815260200191505060405180910390f35b34801561011757600080fd5b506101d16004803603602081101561012e57600080fd5b810190808035906020019064010000000081111561014b57600080fd5b82018360208201111561015d57600080fd5b8035906020019184600183028401116401000000008311171561017f57600080fd5b91908080601f016020809104026020016040519081016040528093929190818152602001838380828437600081840152601f19601f8201169050808301925050505050505091929192905050506103f3565b005b3480156101df57600080fd5b506101e861040d565b6040518082815260200191505060405180910390f35b34801561020a57600080fd5b50610213610413565b6040518082815260200191505060405180910390f35b34801561023557600080fd5b506102626004803603602081101561024c57600080fd5b810190808035906020019092919050505061041d565b005b34801561027057600080fd5b50610279610427565b6040518082815260200191505060405180910390f35b34801561029b57600080fd5b506102a4610430565b6040518080602001828103825283818151815260200191508051906020019080838360005b838110156102e45780820151818401526020810190506102c9565b50505050905090810190601f1680156103115780820380516001836020036101000a031916815260200191505b509250505060405180910390f35b34801561032b57600080fd5b506103346104d2565b6040518082815260200191505060405180910390f35b34801561035657600080fd5b506103836004803603602081101561036d57600080fd5b81019080803590602001909291905050506104dc565b005b34801561039157600080fd5b506103be600480360360208110156103a857600080fd5b81019080803590602001909291905050506104e6565b005b3480156103cc57600080fd5b506103d56104f0565b6040518082815260200191505060405180910390f35b600030905090565b80600190805190602001906104099291906104f6565b5050565b60025481565b6000600254905090565b8060028190555050565b60008054905090565b606060018054600181600116156101000203166002900480601f0160208091040260200160405190810160405280929190818152602001828054600181600116156101000203166002900480156104c85780601f1061049d576101008083540402835291602001916104c8565b820191906000526020600020905b8154815290600101906020018083116104ab57829003601f168201915b5050505050905090565b6000600354905090565b8060038190555050565b8060008190555050565b60035481565b828054600181600116156101000203166002900490600052602060002090601f016020900481019282601f1061053757805160ff1916838001178555610565565b82800160010185558215610565579182015b82811115610564578251825591602001919060010190610549565b5b5090506105729190610576565b5090565b61059891905b8082111561059457600081600090555060010161057c565b5090565b9056fea165627a7a723058201a308efce61994572dbb363e53d4d40193b868fe9472afdd8b3f3d9df2e5dd330029608060405260405161092a38038061092a8339810180604052608081101561002657600080fd5b8101908080519060200190929190805164010000000081111561004857600080fd5b8281019050602081018481111561005e57600080fd5b815185600182028301116401000000008211171561007b57600080fd5b50509291906020018051906020019092919080516401000000008111156100a157600080fd5b828101905060208101848111156100b757600080fd5b81518560018202830111640100000000821117156100d457600080fd5b50509291905050508360008190555082600190805190602001906100f992919061015b565b5081600260006101000a81548173ffffffffffffffffffffffffffffffffffffffff021916908373ffffffffffffffffffffffffffffffffffffffff160217905550806003908051906020019061015192919061015b565b5050505050610200565b828054600181600116156101000203166002900490600052602060002090601f016020900481019282601f1061019c57805160ff19168380011785556101ca565b828001600101855582156101ca579182015b828111156101c95782518255916020019190600101906101ae565b5b5090506101d791906101db565b5090565b6101fd91905b808211156101f95760008160009055506001016101e1565b5090565b90565b61071b8061020f6000396000f3fe60806040526004361061008e576000357c0100000000000000000000000000000000000000000000000000000000900463ffffffff1680630aa564341461009357806312958f1c146100e45780632b5914fe146101745780635d1ca6311461023c578063ac80446714610267578063bf04a10d1461032f578063d0e0ba95146103bf578063ebc3eee8146103fa575b600080fd5b34801561009f57600080fd5b506100e2600480360360208110156100b657600080fd5b81019080803573ffffffffffffffffffffffffffffffffffffffff169060200190929190505050610451565b005b3480156100f057600080fd5b506100f9610495565b6040518080602001828103825283818151815260200191508051906020019080838360005b8381101561013957808201518184015260208101905061011e565b50505050905090810190601f1680156101665780820380516001836020036101000a031916815260200191505b509250505060405180910390f35b34801561018057600080fd5b5061023a6004803603602081101561019757600080fd5b81019080803590602001906401000000008111156101b457600080fd5b8201836020820111156101c657600080fd5b803590602001918460018302840111640100000000831117156101e857600080fd5b91908080601f016020809104026020016040519081016040528093929190818152602001838380828437600081840152601f19601f820116905080830192505050505050509192919290505050610537565b005b34801561024857600080fd5b50610251610551565b6040518082815260200191505060405180910390f35b34801561027357600080fd5b5061032d6004803603602081101561028a57600080fd5b81019080803590602001906401000000008111156102a757600080fd5b8201836020820111156102b957600080fd5b803590602001918460018302840111640100000000831117156102db57600080fd5b91908080601f016020809104026020016040519081016040528093929190818152602001838380828437600081840152601f19601f82011690508083019250505050505050919291929050505061055a565b005b34801561033b57600080fd5b50610344610574565b6040518080602001828103825283818151815260200191508051906020019080838360005b83811015610384578082015181840152602081019050610369565b50505050905090810190601f1680156103b15780820380516001836020036101000a031916815260200191505b509250505060405180910390f35b3480156103cb57600080fd5b506103f8600480360360208110156103e257600080fd5b8101908080359060200190929190505050610616565b005b34801561040657600080fd5b5061040f610620565b604051808273ffffffffffffffffffffffffffffffffffffffff1673ffffffffffffffffffffffffffffffffffffffff16815260200191505060405180910390f35b80600260006101000a81548173ffffffffffffffffffffffffffffffffffffffff021916908373ffffffffffffffffffffffffffffffffffffffff16021790555050565b606060018054600181600116156101000203166002900480601f01602080910402602001604051908101604052809291908181526020018280546001816001161561010002031660029004801561052d5780601f106105025761010080835404028352916020019161052d565b820191906000526020600020905b81548152906001019060200180831161051057829003601f168201915b5050505050905090565b806001908051906020019061054d92919061064a565b5050565b60008054905090565b806003908051906020019061057092919061064a565b5050565b606060038054600181600116156101000203166002900480601f01602080910402602001604051908101604052809291908181526020018280546001816001161561010002031660029004801561060c5780601f106105e15761010080835404028352916020019161060c565b820191906000526020600020905b8154815290600101906020018083116105ef57829003601f168201915b5050505050905090565b8060008190555050565b6000600260009054906101000a900473ffffffffffffffffffffffffffffffffffffffff16905090565b828054600181600116156101000203166002900490600052602060002090601f016020900481019282601f1061068b57805160ff19168380011785556106b9565b828001600101855582156106b9579182015b828111156106b857825182559160200191906001019061069d565b5b5090506106c691906106ca565b5090565b6106ec91905b808211156106e85760008160009055506001016106d0565b5090565b9056fea165627a7a72305820e7239516f3245b5840f7e5dc27b618c64cdabcd2b39f36d9d52bfef2b9530495002960806040526040516108ef3803806108ef833981018060405260a081101561002657600080fd5b8101908080519060200190929190805164010000000081111561004857600080fd5b8281019050602081018481111561005e57600080fd5b815185600182028301116401000000008211171561007b57600080fd5b50509291906020018051906020019092919080519060200190929190805190602001909291905050508460008190555083600190805190602001906100c1929190610168565b5082600260006101000a81548160ff02191690831515021790555081600260016101000a81548173ffffffffffffffffffffffffffffffffffffffff021916908373ffffffffffffffffffffffffffffffffffffffff16021790555080600360006101000a81548173ffffffffffffffffffffffffffffffffffffffff021916908373ffffffffffffffffffffffffffffffffffffffff160217905550505050505061020d565b828054600181600116156101000203166002900490600052602060002090601f016020900481019282601f106101a957805160ff19168380011785556101d7565b828001600101855582156101d7579182015b828111156101d65782518255916020019190600101906101bb565b5b5090506101e491906101e8565b5090565b61020a91905b808211156102065760008160009055506001016101ee565b5090565b90565b6106d38061021c6000396000f3fe6080604052600436106100a4576000357c0100000000000000000000000000000000000000000000000000000000900463ffffffff1680630c9391e5146100a957806313859688146100fa57806315c780101461012557806324e222db146101ed5780633c8e65db146102445780635b54f9821461029557806375f96189146102c4578063b631b3411461031b578063bc9b5162146103ab578063f51f4738146103e6575b600080fd5b3480156100b557600080fd5b506100f8600480360360208110156100cc57600080fd5b81019080803573ffffffffffffffffffffffffffffffffffffffff169060200190929190505050610423565b005b34801561010657600080fd5b5061010f610467565b6040518082815260200191505060405180910390f35b34801561013157600080fd5b506101eb6004803603602081101561014857600080fd5b810190808035906020019064010000000081111561016557600080fd5b82018360208201111561017757600080fd5b8035906020019184600183028401116401000000008311171561019957600080fd5b91908080601f016020809104026020016040519081016040528093929190818152602001838380828437600081840152601f19601f820116905080830192505050505050509192919290505050610470565b005b3480156101f957600080fd5b5061020261048a565b604051808273ffffffffffffffffffffffffffffffffffffffff1673ffffffffffffffffffffffffffffffffffffffff16815260200191505060405180910390f35b34801561025057600080fd5b506102936004803603602081101561026757600080fd5b81019080803573ffffffffffffffffffffffffffffffffffffffff1690602001909291905050506104b4565b005b3480156102a157600080fd5b506102aa6104f8565b604051808215151515815260200191505060405180910390f35b3480156102d057600080fd5b506102d961050f565b604051808273ffffffffffffffffffffffffffffffffffffffff1673ffffffffffffffffffffffffffffffffffffffff16815260200191505060405180910390f35b34801561032757600080fd5b50610330610539565b6040518080602001828103825283818151815260200191508051906020019080838360005b83811015610370578082015181840152602081019050610355565b50505050905090810190601f16801561039d5780820380516001836020036101000a031916815260200191505b509250505060405180910390f35b3480156103b757600080fd5b506103e4600480360360208110156103ce57600080fd5b81019080803590602001909291905050506105db565b005b3480156103f257600080fd5b506104216004803603602081101561040957600080fd5b810190808035151590602001909291905050506105e5565b005b80600260016101000a81548173ffffffffffffffffffffffffffffffffffffffff021916908373ffffffffffffffffffffffffffffffffffffffff16021790555050565b60008054905090565b8060019080519060200190610486929190610602565b5050565b6000600360009054906101000a900473ffffffffffffffffffffffffffffffffffffffff16905090565b80600360006101000a81548173ffffffffffffffffffffffffffffffffffffffff021916908373ffffffffffffffffffffffffffffffffffffffff16021790555050565b6000600260009054906101000a900460ff16905090565b6000600260019054906101000a900473ffffffffffffffffffffffffffffffffffffffff16905090565b606060018054600181600116156101000203166002900480601f0160208091040260200160405190810160405280929190818152602001828054600181600116156101000203166002900480156105d15780601f106105a6576101008083540402835291602001916105d1565b820191906000526020600020905b8154815290600101906020018083116105b457829003601f168201915b5050505050905090565b8060008190555050565b80600260006101000a81548160ff02191690831515021790555050565b828054600181600116156101000203166002900490600052602060002090601f016020900481019282601f1061064357805160ff1916838001178555610671565b82800160010185558215610671579182015b82811115610670578251825591602001919060010190610655565b5b50905061067e9190610682565b5090565b6106a491905b808211156106a0576000816000905550600101610688565b5090565b9056fea165627a7a7230582001e0726fb36fe50ea76b1a3ca759ed91c71a976cd473a6b97da08a2e829cf4cf0029",
  "source": "pragma solidity ^0.5.0;\r\npragma experimental ABIEncoderV2;\r\n\r\nimport \"./User.sol\";\r\nimport \"./Group.sol\";\r\nimport \"./Task.sol\";\r\n\r\ncontract Main{\r\n\r\n    uint public groupCount;\r\n    mapping(uint => Group) public groups;\r\n    //one group - has many users\r\n    mapping(uint => uint[]) public oneGroupManyMembers;\r\n    //one group - has many tasks\r\n    mapping(uint => uint[]) public oneGroupManyTasks;\r\n\r\n    uint public userCount;\r\n    mapping(uint => User) public users;\r\n    //one user - one group\r\n    mapping(uint => uint) public oneUserOneGroup;\r\n    //one user - has many tasks\r\n    mapping(uint => Task[]) public userTasks;\r\n\r\n    uint public taskCount;\r\n    mapping(uint => Task) public tasks;\r\n    //one task - belong to one group\r\n    mapping(uint => uint) public oneTaskOneGroup;\r\n    //one task - belong to one user\r\n    mapping(uint => User) public taskUser;\r\n\r\n    constructor() public {\r\n        groupCount = 0;\r\n        createGroup(\"Group Default\");\r\n\r\n        userCount = 0;\r\n        createUser(\"Manager0123\", msg.sender, \"Manager\");\r\n\r\n        taskCount = 0;\r\n        createTask(\"Finish your thesis before 2nd Oct.\");\r\n    }\r\n\r\n    event groupCreated(uint gId, string groupName, uint numberOfMember, uint numberOfTask);\r\n    event UserCreated(uint id, string userName, address payable userAddress, string role);\r\n    event TaskCreated(uint id, string content, bool completed, address payable createdBy, address payable completedBy);\r\n\r\n\r\n    function createGroup(string memory _groupName) public {\r\n        // Require valid content\r\n        require(bytes(_groupName).length > 0);\r\n        groupCount ++;\r\n        groups[groupCount] = new Group(groupCount, _groupName,0,0);\r\n        emit groupCreated(groupCount, _groupName, 0, 0);\r\n    }\r\n\r\n    function getGroups() view public returns(uint[] memory, string[] memory){\r\n\r\n        uint[] memory gids = new uint[](groupCount);\r\n        string[] memory groupNames = new string[](groupCount);\r\n\r\n        for(uint i = 1; i <= groupCount; i++){\r\n            Group group = groups[i];\r\n            gids[i] = group.getId();\r\n            groupNames[i] = group.getGroupName();\r\n        }\r\n\r\n        return(gids, groupNames);\r\n    }\r\n\r\n    function getGroupById(uint _id) view public returns(string memory groupName, uint gId, uint numberOfMember, uint numberOfTask){\r\n\r\n        Group group = groups[_id];\r\n\r\n        uint numOfMember = oneGroupManyMembers[_id].length;\r\n        uint numOfTask =  oneGroupManyTasks[_id].length;\r\n\r\n        return (group.getGroupName(), _id, numOfMember, numOfTask);\r\n    }\r\n\r\n    function addMember(uint _gID, uint _userID) public{\r\n        // Group ID and User ID must be existed\r\n        require(_gID <= groupCount && _userID <= userCount);\r\n\r\n        oneGroupManyMembers[_gID].push(_userID);\r\n\r\n        oneUserOneGroup[_userID] = _gID;\r\n    }\r\n\r\n    function addTask(uint _gID, uint _tID) public{\r\n\r\n        require(_gID <= groupCount && _tID <= taskCount);\r\n\r\n        oneGroupManyTasks[_gID].push(_tID);\r\n\r\n        oneTaskOneGroup[_tID] = _gID;\r\n    }\r\n\r\n    function getMembers(uint _gID) view public returns(uint[] memory){\r\n\r\n        //uint totalMember = groups[_gID].getNumberOfMember();\r\n\r\n        uint totalMember = oneGroupManyMembers[_gID].length;\r\n\r\n        uint[] memory ids = new uint[](totalMember);\r\n\r\n        for (uint i = 0; i < totalMember; i++) {\r\n\r\n            ids[i] = oneGroupManyMembers[_gID][i];\r\n\r\n        }\r\n        return (ids);\r\n\r\n    }\r\n\r\n    //////////////////////////////------User-------//////////////////////////////////////////\r\n\r\n    function createUser(string memory _userName, address payable _userAddress, string memory _role) public {\r\n        userCount++;\r\n        users[userCount] = new User(userCount, _userName, _userAddress, _role);\r\n        oneUserOneGroup[userCount] = 0;\r\n        emit UserCreated(userCount, _userName, _userAddress, \"User\");\r\n    }\r\n\r\n    function getUserById(uint _id) public view returns (string memory userName, address payable userAddress, uint uid) {\r\n\r\n        User user = users[_id];\r\n\r\n        return (user.getUserName(), user.getUserAddress(), _id);\r\n\r\n    }\r\n\r\n    function getAvailableUser() public view returns(uint[] memory uIds){\r\n        uint indexCount = 0;\r\n\r\n        for(uint i = 1; i <= userCount; i++){\r\n            if(oneUserOneGroup[i] == 0){\r\n                indexCount++;\r\n            }\r\n        }\r\n\r\n        uint[] memory _uIds = new uint[](indexCount);\r\n\r\n        uint j = 0;\r\n        for(uint i = 1; i <= userCount; i++){\r\n            if(oneUserOneGroup[i] == 0){\r\n                _uIds[j] = i;\r\n                j++;\r\n            }\r\n        }\r\n\r\n        return _uIds;\r\n    }\r\n\r\n    function getTest() public view returns(bool right){\r\n        return oneUserOneGroup[1]==0;\r\n    }\r\n\r\n    function getByAddress(address payable _userAddress) public view returns(string memory userName, string memory userRole){\r\n\r\n        string memory uName;\r\n        string memory uRole;\r\n\r\n        for(uint i = 1; i <= userCount; i++){\r\n            User user = users[i];\r\n            if(user.getUserAddress() == _userAddress){\r\n                uName = user.getUserName();\r\n                uRole = user.getUserRole();\r\n            }\r\n        }\r\n\r\n        return (uName, uRole);\r\n    }\r\n\r\n    function update(uint _id, string memory _userName) public {\r\n        User user = users[_id];\r\n        //update the clone\r\n        user.setUserName(_userName);\r\n        users[_id] = user;\r\n    }\r\n\r\n    //////////////////////////////------Task-------//////////////////////////////////////////\r\n\r\n    function createTask(string memory _content) public {\r\n        // Require valid content\r\n        require(bytes(_content).length > 0);\r\n        //increase the number of Task\r\n        taskCount++;\r\n        tasks[taskCount] = new Task(taskCount, _content, false, msg.sender, address(0));\r\n        emit TaskCreated(taskCount, _content, false, msg.sender, address(0));\r\n    }\r\n\r\n    function getTaskById(uint _tId) public view returns(string memory content, uint tId, address payable createdBy, bool completed, address payable completedBy){\r\n        Task task = tasks[_tId];\r\n        return (task.getTaskContent(), _tId, task.getCreatedBy(), task.getCompleted(), task.getCompletedBy());\r\n    }\r\n\r\n    function getTasksByGroupId(uint _gId) public view returns(uint[] memory tIds){\r\n\r\n        uint totalTask= oneGroupManyTasks[_gId].length;\r\n\r\n        uint[] memory ids = new uint[](totalTask);\r\n\r\n        for (uint i = 0; i < totalTask; i++) {\r\n\r\n            ids[i] = oneGroupManyTasks[_gId][i];\r\n\r\n        }\r\n        return (ids);\r\n\r\n    }\r\n\r\n    function getAvailableTask() public view returns(uint[] memory tIds){\r\n\r\n        uint indexCount = 0;\r\n\r\n        for(uint i = 1; i <= taskCount; i++){\r\n            if(oneTaskOneGroup[i] == 0){\r\n                indexCount++;\r\n            }\r\n        }\r\n\r\n        uint[] memory _tIds = new uint[](indexCount);\r\n\r\n        uint j = 0;\r\n        for(uint i = 1; i <= taskCount; i++){\r\n            if(oneTaskOneGroup[i] == 0){\r\n                _tIds[j] = i;\r\n                j++;\r\n            }\r\n        }\r\n\r\n        return _tIds;\r\n\r\n    }\r\n\r\n\r\n}\r\n",
  "sourcePath": "C:/Users/Ho Tat Dat Nguyen/Documents/GitHub/todo-list-react/src/contracts/Main.sol",
  "compiler": {
    "name": "solc",
    "version": "0.5.0+commit.1d4f565a.Emscripten.clang"
  },
  "schemaVersion": "3.0.2",
  "updatedAt": "2020-09-13T16:06:11.628Z",
  "devdoc": {
    "methods": {}
  },
  "userdoc": {
    "methods": {
      "createTask(string)": {
        "notice": "///////////////////////////------Task-------//////////////////////////////////////////"
      },
      "createUser(string,address,string)": {
        "notice": "///////////////////////////------User-------//////////////////////////////////////////"
      }
    }
  }
}