{
  "contractName": "Task",
  "abi": [
    {
      "inputs": [
        {
          "name": "_tId",
          "type": "uint256"
        },
        {
          "name": "_content",
          "type": "string"
        },
        {
          "name": "_completed",
          "type": "bool"
        },
        {
          "name": "_createdBy",
          "type": "address"
        },
        {
          "name": "_completedBy",
          "type": "address"
        }
      ],
      "payable": true,
      "stateMutability": "payable",
      "type": "constructor"
    },
    {
      "constant": false,
      "inputs": [
        {
          "name": "_tId",
          "type": "uint256"
        }
      ],
      "name": "setTaskId",
      "outputs": [],
      "payable": false,
      "stateMutability": "nonpayable",
      "type": "function"
    },
    {
      "constant": true,
      "inputs": [],
      "name": "getTaskId",
      "outputs": [
        {
          "name": "",
          "type": "uint256"
        }
      ],
      "payable": false,
      "stateMutability": "view",
      "type": "function"
    },
    {
      "constant": false,
      "inputs": [
        {
          "name": "_content",
          "type": "string"
        }
      ],
      "name": "setTaskContent",
      "outputs": [],
      "payable": false,
      "stateMutability": "nonpayable",
      "type": "function"
    },
    {
      "constant": true,
      "inputs": [],
      "name": "getTaskContent",
      "outputs": [
        {
          "name": "",
          "type": "string"
        }
      ],
      "payable": false,
      "stateMutability": "view",
      "type": "function"
    },
    {
      "constant": false,
      "inputs": [
        {
          "name": "_createdBy",
          "type": "address"
        }
      ],
      "name": "setCreatedBy",
      "outputs": [],
      "payable": false,
      "stateMutability": "nonpayable",
      "type": "function"
    },
    {
      "constant": true,
      "inputs": [],
      "name": "getCreatedBy",
      "outputs": [
        {
          "name": "",
          "type": "address"
        }
      ],
      "payable": false,
      "stateMutability": "view",
      "type": "function"
    },
    {
      "constant": false,
      "inputs": [
        {
          "name": "_completed",
          "type": "bool"
        }
      ],
      "name": "setCompleted",
      "outputs": [],
      "payable": false,
      "stateMutability": "nonpayable",
      "type": "function"
    },
    {
      "constant": true,
      "inputs": [],
      "name": "getCompleted",
      "outputs": [
        {
          "name": "",
          "type": "bool"
        }
      ],
      "payable": false,
      "stateMutability": "view",
      "type": "function"
    },
    {
      "constant": false,
      "inputs": [
        {
          "name": "_completedBy",
          "type": "address"
        }
      ],
      "name": "setCompletedBy",
      "outputs": [],
      "payable": false,
      "stateMutability": "nonpayable",
      "type": "function"
    },
    {
      "constant": true,
      "inputs": [],
      "name": "getCompletedBy",
      "outputs": [
        {
          "name": "",
          "type": "address"
        }
      ],
      "payable": false,
      "stateMutability": "view",
      "type": "function"
    }
  ],
  "bytecode": "0x60806040526040516108ef3803806108ef833981018060405260a081101561002657600080fd5b8101908080519060200190929190805164010000000081111561004857600080fd5b8281019050602081018481111561005e57600080fd5b815185600182028301116401000000008211171561007b57600080fd5b50509291906020018051906020019092919080519060200190929190805190602001909291905050508460008190555083600190805190602001906100c1929190610168565b5082600260006101000a81548160ff02191690831515021790555081600260016101000a81548173ffffffffffffffffffffffffffffffffffffffff021916908373ffffffffffffffffffffffffffffffffffffffff16021790555080600360006101000a81548173ffffffffffffffffffffffffffffffffffffffff021916908373ffffffffffffffffffffffffffffffffffffffff160217905550505050505061020d565b828054600181600116156101000203166002900490600052602060002090601f016020900481019282601f106101a957805160ff19168380011785556101d7565b828001600101855582156101d7579182015b828111156101d65782518255916020019190600101906101bb565b5b5090506101e491906101e8565b5090565b61020a91905b808211156102065760008160009055506001016101ee565b5090565b90565b6106d38061021c6000396000f3fe6080604052600436106100a4576000357c0100000000000000000000000000000000000000000000000000000000900463ffffffff1680630c9391e5146100a957806313859688146100fa57806315c780101461012557806324e222db146101ed5780633c8e65db146102445780635b54f9821461029557806375f96189146102c4578063b631b3411461031b578063bc9b5162146103ab578063f51f4738146103e6575b600080fd5b3480156100b557600080fd5b506100f8600480360360208110156100cc57600080fd5b81019080803573ffffffffffffffffffffffffffffffffffffffff169060200190929190505050610423565b005b34801561010657600080fd5b5061010f610467565b6040518082815260200191505060405180910390f35b34801561013157600080fd5b506101eb6004803603602081101561014857600080fd5b810190808035906020019064010000000081111561016557600080fd5b82018360208201111561017757600080fd5b8035906020019184600183028401116401000000008311171561019957600080fd5b91908080601f016020809104026020016040519081016040528093929190818152602001838380828437600081840152601f19601f820116905080830192505050505050509192919290505050610470565b005b3480156101f957600080fd5b5061020261048a565b604051808273ffffffffffffffffffffffffffffffffffffffff1673ffffffffffffffffffffffffffffffffffffffff16815260200191505060405180910390f35b34801561025057600080fd5b506102936004803603602081101561026757600080fd5b81019080803573ffffffffffffffffffffffffffffffffffffffff1690602001909291905050506104b4565b005b3480156102a157600080fd5b506102aa6104f8565b604051808215151515815260200191505060405180910390f35b3480156102d057600080fd5b506102d961050f565b604051808273ffffffffffffffffffffffffffffffffffffffff1673ffffffffffffffffffffffffffffffffffffffff16815260200191505060405180910390f35b34801561032757600080fd5b50610330610539565b6040518080602001828103825283818151815260200191508051906020019080838360005b83811015610370578082015181840152602081019050610355565b50505050905090810190601f16801561039d5780820380516001836020036101000a031916815260200191505b509250505060405180910390f35b3480156103b757600080fd5b506103e4600480360360208110156103ce57600080fd5b81019080803590602001909291905050506105db565b005b3480156103f257600080fd5b506104216004803603602081101561040957600080fd5b810190808035151590602001909291905050506105e5565b005b80600260016101000a81548173ffffffffffffffffffffffffffffffffffffffff021916908373ffffffffffffffffffffffffffffffffffffffff16021790555050565b60008054905090565b8060019080519060200190610486929190610602565b5050565b6000600360009054906101000a900473ffffffffffffffffffffffffffffffffffffffff16905090565b80600360006101000a81548173ffffffffffffffffffffffffffffffffffffffff021916908373ffffffffffffffffffffffffffffffffffffffff16021790555050565b6000600260009054906101000a900460ff16905090565b6000600260019054906101000a900473ffffffffffffffffffffffffffffffffffffffff16905090565b606060018054600181600116156101000203166002900480601f0160208091040260200160405190810160405280929190818152602001828054600181600116156101000203166002900480156105d15780601f106105a6576101008083540402835291602001916105d1565b820191906000526020600020905b8154815290600101906020018083116105b457829003601f168201915b5050505050905090565b8060008190555050565b80600260006101000a81548160ff02191690831515021790555050565b828054600181600116156101000203166002900490600052602060002090601f016020900481019282601f1061064357805160ff1916838001178555610671565b82800160010185558215610671579182015b82811115610670578251825591602001919060010190610655565b5b50905061067e9190610682565b5090565b6106a491905b808211156106a0576000816000905550600101610688565b5090565b9056fea165627a7a7230582001e0726fb36fe50ea76b1a3ca759ed91c71a976cd473a6b97da08a2e829cf4cf0029",
  "source": "pragma solidity ^0.5.0;\r\n\r\ncontract Task {\r\n\r\n    uint tId;\r\n    string private content;\r\n    bool private completed;\r\n    address payable createdBy;\r\n    address payable completedBy;\r\n\r\n    constructor(uint _tId, string memory _content, bool _completed, address payable _createdBy, address payable _completedBy) public payable {\r\n        tId = _tId;\r\n        content = _content;\r\n        completed = _completed;\r\n        createdBy = _createdBy;\r\n        completedBy = _completedBy;\r\n    }\r\n\r\n    //getter and setter\r\n\r\n    function setTaskId(uint _tId) public {\r\n        tId = _tId;\r\n    }\r\n\r\n    function getTaskId() public view returns(uint) {\r\n        return tId;\r\n    }\r\n\r\n    function setTaskContent(string memory _content) public {\r\n        content = _content;\r\n    }\r\n\r\n    function getTaskContent() public view returns(string memory) {\r\n        return content;\r\n    }\r\n\r\n    function setCreatedBy(address payable _createdBy) public {\r\n        createdBy = _createdBy;\r\n    }\r\n\r\n    function getCreatedBy() public view returns(address payable) {\r\n        return createdBy;\r\n    }\r\n\r\n    function setCompleted(bool _completed) public {\r\n        completed = _completed;\r\n    }\r\n\r\n    function getCompleted() public view returns(bool) {\r\n        return completed;\r\n    }\r\n\r\n    function setCompletedBy(address payable _completedBy) public {\r\n        completedBy = _completedBy;\r\n    }\r\n\r\n    function getCompletedBy() public view returns(address payable) {\r\n        return completedBy;\r\n    }\r\n\r\n}\r\n\r\n",
  "sourcePath": "C:\\Users\\Ho Tat Dat Nguyen\\Documents\\GitHub\\todo-list-react\\src\\contracts\\Task.sol",
  "compiler": {
    "name": "solc",
    "version": "0.5.0+commit.1d4f565a.Emscripten.clang"
  },
  "schemaVersion": "3.0.2",
  "updatedAt": "2020-09-22T13:35:36.559Z",
  "devdoc": {
    "methods": {}
  },
  "userdoc": {
    "methods": {}
  }
}