{
  "contractName": "UserModel",
  "abi": [
    {
      "constant": true,
      "inputs": [
        {
          "name": "",
          "type": "uint256"
        }
      ],
      "name": "users",
      "outputs": [
        {
          "name": "id",
          "type": "uint256"
        },
        {
          "name": "userName",
          "type": "string"
        },
        {
          "name": "userAddress",
          "type": "address"
        },
        {
          "name": "role",
          "type": "string"
        }
      ],
      "payable": false,
      "stateMutability": "view",
      "type": "function",
      "signature": "0x365b98b2"
    },
    {
      "constant": true,
      "inputs": [],
      "name": "totalUser",
      "outputs": [
        {
          "name": "",
          "type": "uint256"
        }
      ],
      "payable": false,
      "stateMutability": "view",
      "type": "function",
      "signature": "0xe1604b70"
    },
    {
      "inputs": [],
      "payable": false,
      "stateMutability": "nonpayable",
      "type": "constructor",
      "signature": "constructor"
    },
    {
      "anonymous": false,
      "inputs": [
        {
          "indexed": false,
          "name": "id",
          "type": "uint256"
        },
        {
          "indexed": false,
          "name": "userName",
          "type": "string"
        },
        {
          "indexed": false,
          "name": "userAddress",
          "type": "address"
        },
        {
          "indexed": false,
          "name": "role",
          "type": "string"
        }
      ],
      "name": "UserCreated",
      "type": "event",
      "signature": "0xc49566d6afa47426fd599e36ed625a7a645b084dbd2c1236fe9ac365e91a71fb"
    },
    {
      "constant": false,
      "inputs": [
        {
          "name": "_userName",
          "type": "string"
        },
        {
          "name": "_userAddress",
          "type": "address"
        },
        {
          "name": "_role",
          "type": "string"
        }
      ],
      "name": "createUser",
      "outputs": [],
      "payable": false,
      "stateMutability": "nonpayable",
      "type": "function",
      "signature": "0xb17e8964"
    }
  ],
  "bytecode": "0x6080604052600060015534801561001557600080fd5b5061009a6040805190810160405280600f81526020017f4d616e616765722d4163636f756e740000000000000000000000000000000000815250336040805190810160405280600781526020017f4d616e616765720000000000000000000000000000000000000000000000000081525061009f640100000000026401000000009004565b61037e565b60016000815480929190600101919050555060806040519081016040528060015481526020018481526020018373ffffffffffffffffffffffffffffffffffffffff1681526020018281525060008060015481526020019081526020016000206000820151816000015560208201518160010190805190602001906101259291906102d9565b5060408201518160020160006101000a81548173ffffffffffffffffffffffffffffffffffffffff021916908373ffffffffffffffffffffffffffffffffffffffff16021790555060608201518160030190805190602001906101899291906102d9565b509050507fc49566d6afa47426fd599e36ed625a7a645b084dbd2c1236fe9ac365e91a71fb60015484848460405180858152602001806020018473ffffffffffffffffffffffffffffffffffffffff1673ffffffffffffffffffffffffffffffffffffffff16815260200180602001838103835286818151815260200191508051906020019080838360005b83811015610230578082015181840152602081019050610215565b50505050905090810190601f16801561025d5780820380516001836020036101000a031916815260200191505b50838103825284818151815260200191508051906020019080838360005b8381101561029657808201518184015260208101905061027b565b50505050905090810190601f1680156102c35780820380516001836020036101000a031916815260200191505b50965050505050505060405180910390a1505050565b828054600181600116156101000203166002900490600052602060002090601f016020900481019282601f1061031a57805160ff1916838001178555610348565b82800160010185558215610348579182015b8281111561034757825182559160200191906001019061032c565b5b5090506103559190610359565b5090565b61037b91905b8082111561037757600081600090555060010161035f565b5090565b90565b6107f18061038d6000396000f3fe608060405260043610610057576000357c0100000000000000000000000000000000000000000000000000000000900463ffffffff168063365b98b21461005c578063b17e8964146101b6578063e1604b7014610335575b600080fd5b34801561006857600080fd5b506100956004803603602081101561007f57600080fd5b8101908080359060200190929190505050610360565b60405180858152602001806020018473ffffffffffffffffffffffffffffffffffffffff1673ffffffffffffffffffffffffffffffffffffffff16815260200180602001838103835286818151815260200191508051906020019080838360005b838110156101115780820151818401526020810190506100f6565b50505050905090810190601f16801561013e5780820380516001836020036101000a031916815260200191505b50838103825284818151815260200191508051906020019080838360005b8381101561017757808201518184015260208101905061015c565b50505050905090810190601f1680156101a45780820380516001836020036101000a031916815260200191505b50965050505050505060405180910390f35b3480156101c257600080fd5b50610333600480360360608110156101d957600080fd5b81019080803590602001906401000000008111156101f657600080fd5b82018360208201111561020857600080fd5b8035906020019184600183028401116401000000008311171561022a57600080fd5b91908080601f016020809104026020016040519081016040528093929190818152602001838380828437600081840152601f19601f820116905080830192505050505050509192919290803573ffffffffffffffffffffffffffffffffffffffff169060200190929190803590602001906401000000008111156102ad57600080fd5b8201836020820111156102bf57600080fd5b803590602001918460018302840111640100000000831117156102e157600080fd5b91908080601f016020809104026020016040519081016040528093929190818152602001838380828437600081840152601f19601f8201169050808301925050505050505091929192905050506104e0565b005b34801561034157600080fd5b5061034a61071a565b6040518082815260200191505060405180910390f35b6000602052806000526040600020600091509050806000015490806001018054600181600116156101000203166002900480601f0160208091040260200160405190810160405280929190818152602001828054600181600116156101000203166002900480156104125780601f106103e757610100808354040283529160200191610412565b820191906000526020600020905b8154815290600101906020018083116103f557829003601f168201915b5050505050908060020160009054906101000a900473ffffffffffffffffffffffffffffffffffffffff1690806003018054600181600116156101000203166002900480601f0160208091040260200160405190810160405280929190818152602001828054600181600116156101000203166002900480156104d65780601f106104ab576101008083540402835291602001916104d6565b820191906000526020600020905b8154815290600101906020018083116104b957829003601f168201915b5050505050905084565b60016000815480929190600101919050555060806040519081016040528060015481526020018481526020018373ffffffffffffffffffffffffffffffffffffffff168152602001828152506000806001548152602001908152602001600020600082015181600001556020820151816001019080519060200190610566929190610720565b5060408201518160020160006101000a81548173ffffffffffffffffffffffffffffffffffffffff021916908373ffffffffffffffffffffffffffffffffffffffff16021790555060608201518160030190805190602001906105ca929190610720565b509050507fc49566d6afa47426fd599e36ed625a7a645b084dbd2c1236fe9ac365e91a71fb60015484848460405180858152602001806020018473ffffffffffffffffffffffffffffffffffffffff1673ffffffffffffffffffffffffffffffffffffffff16815260200180602001838103835286818151815260200191508051906020019080838360005b83811015610671578082015181840152602081019050610656565b50505050905090810190601f16801561069e5780820380516001836020036101000a031916815260200191505b50838103825284818151815260200191508051906020019080838360005b838110156106d75780820151818401526020810190506106bc565b50505050905090810190601f1680156107045780820380516001836020036101000a031916815260200191505b50965050505050505060405180910390a1505050565b60015481565b828054600181600116156101000203166002900490600052602060002090601f016020900481019282601f1061076157805160ff191683800117855561078f565b8280016001018555821561078f579182015b8281111561078e578251825591602001919060010190610773565b5b50905061079c91906107a0565b5090565b6107c291905b808211156107be5760008160009055506001016107a6565b5090565b9056fea165627a7a723058205962fd9b6bf28dccd174203cf7b45ab6dab1922f6822db5e869a0cae3420b2910029",
  "source": "pragma solidity ^0.5.0;\r\n\r\n//import \"./User.sol\";\r\n\r\ncontract UserModel {\r\n\r\n    constructor() public {\r\n        //by default create the deployer as the managerus\r\n        createUser(\"Manager-Account\", msg.sender, \"Manager\");\r\n    }\r\n\r\n    struct User{\r\n        uint id;\r\n        string userName;\r\n        address payable userAddress;\r\n        string role;\r\n    }\r\n\r\n    mapping(uint => User) public users;\r\n    uint public totalUser = 0;\r\n\r\n    event UserCreated(uint id, string userName, address payable userAddress, string role);\r\n\r\n    function createUser(string memory _userName, address payable _userAddress, string memory _role) public{\r\n        totalUser++;\r\n        users[totalUser] = User(totalUser, _userName, _userAddress, _role);\r\n        emit UserCreated(totalUser, _userName, _userAddress, _role);\r\n    }\r\n\r\n}\r\n\r\n",
  "sourcePath": "C:/Users/Ho Tat Dat Nguyen/Documents/GitHub/todo-list-react/src/contracts/UserModel.sol",
  "compiler": {
    "name": "solc",
    "version": "0.5.0+commit.1d4f565a.Emscripten.clang"
  },
  "schemaVersion": "3.0.2",
  "updatedAt": "2020-09-09T16:46:20.661Z",
  "devdoc": {
    "methods": {}
  },
  "userdoc": {
    "methods": {}
  }
}