{
  "contractName": "User",
  "abi": [
    {
      "inputs": [
        {
          "name": "_id",
          "type": "uint256"
        },
        {
          "name": "_userName",
          "type": "string"
        },
        {
          "name": "_userAddress",
          "type": "address"
        },
        {
          "name": "_role",
          "type": "string"
        }
      ],
      "payable": true,
      "stateMutability": "payable",
      "type": "constructor"
    },
    {
      "constant": false,
      "inputs": [
        {
          "name": "_id",
          "type": "uint256"
        }
      ],
      "name": "setId",
      "outputs": [],
      "payable": false,
      "stateMutability": "nonpayable",
      "type": "function"
    },
    {
      "constant": true,
      "inputs": [],
      "name": "getId",
      "outputs": [
        {
          "name": "",
          "type": "uint256"
        }
      ],
      "payable": false,
      "stateMutability": "view",
      "type": "function"
    },
    {
      "constant": false,
      "inputs": [
        {
          "name": "_userName",
          "type": "string"
        }
      ],
      "name": "setUserName",
      "outputs": [],
      "payable": false,
      "stateMutability": "nonpayable",
      "type": "function"
    },
    {
      "constant": true,
      "inputs": [],
      "name": "getUserName",
      "outputs": [
        {
          "name": "",
          "type": "string"
        }
      ],
      "payable": false,
      "stateMutability": "view",
      "type": "function"
    },
    {
      "constant": false,
      "inputs": [
        {
          "name": "_userAddress",
          "type": "address"
        }
      ],
      "name": "setUserAddress",
      "outputs": [],
      "payable": false,
      "stateMutability": "nonpayable",
      "type": "function"
    },
    {
      "constant": true,
      "inputs": [],
      "name": "getUserAddress",
      "outputs": [
        {
          "name": "",
          "type": "address"
        }
      ],
      "payable": false,
      "stateMutability": "view",
      "type": "function"
    },
    {
      "constant": false,
      "inputs": [
        {
          "name": "_role",
          "type": "string"
        }
      ],
      "name": "setUserRole",
      "outputs": [],
      "payable": false,
      "stateMutability": "nonpayable",
      "type": "function"
    },
    {
      "constant": true,
      "inputs": [],
      "name": "getUserRole",
      "outputs": [
        {
          "name": "",
          "type": "string"
        }
      ],
      "payable": false,
      "stateMutability": "view",
      "type": "function"
    }
  ],
  "bytecode": "0x608060405260405161092a38038061092a8339810180604052608081101561002657600080fd5b8101908080519060200190929190805164010000000081111561004857600080fd5b8281019050602081018481111561005e57600080fd5b815185600182028301116401000000008211171561007b57600080fd5b50509291906020018051906020019092919080516401000000008111156100a157600080fd5b828101905060208101848111156100b757600080fd5b81518560018202830111640100000000821117156100d457600080fd5b50509291905050508360008190555082600190805190602001906100f992919061015b565b5081600260006101000a81548173ffffffffffffffffffffffffffffffffffffffff021916908373ffffffffffffffffffffffffffffffffffffffff160217905550806003908051906020019061015192919061015b565b5050505050610200565b828054600181600116156101000203166002900490600052602060002090601f016020900481019282601f1061019c57805160ff19168380011785556101ca565b828001600101855582156101ca579182015b828111156101c95782518255916020019190600101906101ae565b5b5090506101d791906101db565b5090565b6101fd91905b808211156101f95760008160009055506001016101e1565b5090565b90565b61071b8061020f6000396000f3fe60806040526004361061008e576000357c0100000000000000000000000000000000000000000000000000000000900463ffffffff1680630aa564341461009357806312958f1c146100e45780632b5914fe146101745780635d1ca6311461023c578063ac80446714610267578063bf04a10d1461032f578063d0e0ba95146103bf578063ebc3eee8146103fa575b600080fd5b34801561009f57600080fd5b506100e2600480360360208110156100b657600080fd5b81019080803573ffffffffffffffffffffffffffffffffffffffff169060200190929190505050610451565b005b3480156100f057600080fd5b506100f9610495565b6040518080602001828103825283818151815260200191508051906020019080838360005b8381101561013957808201518184015260208101905061011e565b50505050905090810190601f1680156101665780820380516001836020036101000a031916815260200191505b509250505060405180910390f35b34801561018057600080fd5b5061023a6004803603602081101561019757600080fd5b81019080803590602001906401000000008111156101b457600080fd5b8201836020820111156101c657600080fd5b803590602001918460018302840111640100000000831117156101e857600080fd5b91908080601f016020809104026020016040519081016040528093929190818152602001838380828437600081840152601f19601f820116905080830192505050505050509192919290505050610537565b005b34801561024857600080fd5b50610251610551565b6040518082815260200191505060405180910390f35b34801561027357600080fd5b5061032d6004803603602081101561028a57600080fd5b81019080803590602001906401000000008111156102a757600080fd5b8201836020820111156102b957600080fd5b803590602001918460018302840111640100000000831117156102db57600080fd5b91908080601f016020809104026020016040519081016040528093929190818152602001838380828437600081840152601f19601f82011690508083019250505050505050919291929050505061055a565b005b34801561033b57600080fd5b50610344610574565b6040518080602001828103825283818151815260200191508051906020019080838360005b83811015610384578082015181840152602081019050610369565b50505050905090810190601f1680156103b15780820380516001836020036101000a031916815260200191505b509250505060405180910390f35b3480156103cb57600080fd5b506103f8600480360360208110156103e257600080fd5b8101908080359060200190929190505050610616565b005b34801561040657600080fd5b5061040f610620565b604051808273ffffffffffffffffffffffffffffffffffffffff1673ffffffffffffffffffffffffffffffffffffffff16815260200191505060405180910390f35b80600260006101000a81548173ffffffffffffffffffffffffffffffffffffffff021916908373ffffffffffffffffffffffffffffffffffffffff16021790555050565b606060018054600181600116156101000203166002900480601f01602080910402602001604051908101604052809291908181526020018280546001816001161561010002031660029004801561052d5780601f106105025761010080835404028352916020019161052d565b820191906000526020600020905b81548152906001019060200180831161051057829003601f168201915b5050505050905090565b806001908051906020019061054d92919061064a565b5050565b60008054905090565b806003908051906020019061057092919061064a565b5050565b606060038054600181600116156101000203166002900480601f01602080910402602001604051908101604052809291908181526020018280546001816001161561010002031660029004801561060c5780601f106105e15761010080835404028352916020019161060c565b820191906000526020600020905b8154815290600101906020018083116105ef57829003601f168201915b5050505050905090565b8060008190555050565b6000600260009054906101000a900473ffffffffffffffffffffffffffffffffffffffff16905090565b828054600181600116156101000203166002900490600052602060002090601f016020900481019282601f1061068b57805160ff19168380011785556106b9565b828001600101855582156106b9579182015b828111156106b857825182559160200191906001019061069d565b5b5090506106c691906106ca565b5090565b6106ec91905b808211156106e85760008160009055506001016106d0565b5090565b9056fea165627a7a72305820e7239516f3245b5840f7e5dc27b618c64cdabcd2b39f36d9d52bfef2b95304950029",
  "source": "pragma solidity ^0.5.0;\r\n\r\ncontract User{\r\n\r\n    uint id;\r\n    string private userName;\r\n    address payable private userAddress;\r\n    string role;\r\n\r\n    constructor(uint _id, string memory _userName, address payable _userAddress, string memory _role) public payable {\r\n        id = _id;\r\n        userName = _userName;\r\n        userAddress = _userAddress;\r\n        role = _role;\r\n    }\r\n\r\n    function setId(uint _id) public {\r\n        id = _id;\r\n    }\r\n\r\n    function getId() public view returns(uint) {\r\n        return id;\r\n    }\r\n\r\n    function setUserName(string memory _userName) public {\r\n        userName = _userName;\r\n    }\r\n\r\n    function getUserName() public view returns(string memory) {\r\n        return userName;\r\n    }\r\n\r\n    function setUserAddress(address payable _userAddress) public {\r\n        userAddress = _userAddress;\r\n    }\r\n\r\n    function getUserAddress() public view returns(address payable) {\r\n        return userAddress;\r\n    }\r\n\r\n    function setUserRole(string memory _role) public{\r\n        role = _role;\r\n    }\r\n\r\n    function getUserRole() public view returns(string memory){\r\n        return role;\r\n    }\r\n\r\n}\r\n",
  "sourcePath": "C:\\Users\\Ho Tat Dat Nguyen\\Documents\\GitHub\\todo-list-react\\src\\contracts\\User.sol",
  "compiler": {
    "name": "solc",
    "version": "0.5.0+commit.1d4f565a.Emscripten.clang"
  },
  "schemaVersion": "3.0.2",
  "updatedAt": "2020-09-22T13:35:36.561Z",
  "devdoc": {
    "methods": {}
  },
  "userdoc": {
    "methods": {}
  }
}