{
  "contractName": "UserCrud",
  "abi": [
    {
      "inputs": [],
      "payable": false,
      "stateMutability": "nonpayable",
      "type": "constructor",
      "signature": "constructor"
    },
    {
      "anonymous": false,
      "inputs": [
        {
          "indexed": false,
          "name": "id",
          "type": "uint256"
        },
        {
          "indexed": false,
          "name": "userName",
          "type": "string"
        },
        {
          "indexed": false,
          "name": "userAddress",
          "type": "address"
        },
        {
          "indexed": false,
          "name": "role",
          "type": "string"
        }
      ],
      "name": "UserCreated",
      "type": "event",
      "signature": "0xc49566d6afa47426fd599e36ed625a7a645b084dbd2c1236fe9ac365e91a71fb"
    },
    {
      "constant": false,
      "inputs": [
        {
          "name": "_userName",
          "type": "string"
        },
        {
          "name": "_userAddress",
          "type": "address"
        }
      ],
      "name": "create",
      "outputs": [],
      "payable": false,
      "stateMutability": "nonpayable",
      "type": "function",
      "signature": "0x84b47b0f"
    },
    {
      "constant": true,
      "inputs": [
        {
          "name": "_id",
          "type": "uint256"
        }
      ],
      "name": "getById",
      "outputs": [
        {
          "name": "",
          "type": "string"
        }
      ],
      "payable": false,
      "stateMutability": "view",
      "type": "function",
      "signature": "0xf4f4d237"
    },
    {
      "constant": true,
      "inputs": [],
      "name": "getTotalUser",
      "outputs": [
        {
          "name": "length",
          "type": "uint256"
        }
      ],
      "payable": false,
      "stateMutability": "view",
      "type": "function",
      "signature": "0xa9c63aa0"
    },
    {
      "constant": false,
      "inputs": [
        {
          "name": "_id",
          "type": "uint256"
        },
        {
          "name": "_userName",
          "type": "string"
        }
      ],
      "name": "update",
      "outputs": [],
      "payable": false,
      "stateMutability": "nonpayable",
      "type": "function",
      "signature": "0xf745630f"
    },
    {
      "constant": false,
      "inputs": [
        {
          "name": "_id",
          "type": "uint256"
        }
      ],
      "name": "sayHello",
      "outputs": [
        {
          "name": "",
          "type": "string"
        }
      ],
      "payable": false,
      "stateMutability": "nonpayable",
      "type": "function",
      "signature": "0x42257b31"
    }
  ],
  "bytecode": "0x608060405234801561001057600080fd5b5060008081905550611018806100276000396000f3fe60806040526004361061006d576000357c0100000000000000000000000000000000000000000000000000000000900463ffffffff16806342257b311461007257806384b47b0f14610126578063a9c63aa01461020e578063f4f4d23714610239578063f745630f146102ed575b600080fd5b34801561007e57600080fd5b506100ab6004803603602081101561009557600080fd5b81019080803590602001909291905050506103bf565b6040518080602001828103825283818151815260200191508051906020019080838360005b838110156100eb5780820151818401526020810190506100d0565b50505050905090810190601f1680156101185780820380516001836020036101000a031916815260200191505b509250505060405180910390f35b34801561013257600080fd5b5061020c6004803603604081101561014957600080fd5b810190808035906020019064010000000081111561016657600080fd5b82018360208201111561017857600080fd5b8035906020019184600183028401116401000000008311171561019a57600080fd5b91908080601f016020809104026020016040519081016040528093929190818152602001838380828437600081840152601f19601f820116905080830192505050505050509192919290803573ffffffffffffffffffffffffffffffffffffffff1690602001909291905050506103fe565b005b34801561021a57600080fd5b5061022361069c565b6040518082815260200191505060405180910390f35b34801561024557600080fd5b506102726004803603602081101561025c57600080fd5b81019080803590602001909291905050506106a9565b6040518080602001828103825283818151815260200191508051906020019080838360005b838110156102b2578082015181840152602081019050610297565b50505050905090810190601f1680156102df5780820380516001836020036101000a031916815260200191505b509250505060405180910390f35b3480156102f957600080fd5b506103bd6004803603604081101561031057600080fd5b81019080803590602001909291908035906020019064010000000081111561033757600080fd5b82018360208201111561034957600080fd5b8035906020019184600183028401116401000000008311171561036b57600080fd5b91908080601f016020809104026020016040519081016040528093929190818152602001838380828437600081840152601f19601f8201169050808301925050505050505091929192905050506107e4565b005b60606040805190810160405280600581526020017f68656c6c6f0000000000000000000000000000000000000000000000000000008152509050919050565b600080815480929190600101919050555060008054838361041d61096b565b80848152602001806020018373ffffffffffffffffffffffffffffffffffffffff1673ffffffffffffffffffffffffffffffffffffffff16815260200180602001838103835285818151815260200191508051906020019080838360005b8381101561049657808201518184015260208101905061047b565b50505050905090810190601f1680156104c35780820380516001836020036101000a031916815260200191505b50838103825260048152602001807f557365720000000000000000000000000000000000000000000000000000000081525060200195505050505050604051809103906000f08015801561051b573d6000803e3d6000fd5b50905060018190806001815401808255809150509060018203906000526020600020016000909192909190916101000a81548173ffffffffffffffffffffffffffffffffffffffff021916908373ffffffffffffffffffffffffffffffffffffffff160217905550507fc49566d6afa47426fd599e36ed625a7a645b084dbd2c1236fe9ac365e91a71fb600054848460405180848152602001806020018373ffffffffffffffffffffffffffffffffffffffff1673ffffffffffffffffffffffffffffffffffffffff16815260200180602001838103835285818151815260200191508051906020019080838360005b8381101561062657808201518184015260208101905061060b565b50505050905090810190601f1680156106535780820380516001836020036101000a031916815260200191505b50838103825260048152602001807f55736572000000000000000000000000000000000000000000000000000000008152506020019550505050505060405180910390a1505050565b6000600180549050905090565b606060006001838154811015156106bc57fe5b9060005260206000200160009054906101000a900473ffffffffffffffffffffffffffffffffffffffff1690508073ffffffffffffffffffffffffffffffffffffffff166312958f1c6040518163ffffffff167c010000000000000000000000000000000000000000000000000000000002815260040160006040518083038186803b15801561074b57600080fd5b505afa15801561075f573d6000803e3d6000fd5b505050506040513d6000823e3d601f19601f82011682018060405250602081101561078957600080fd5b8101908080516401000000008111156107a157600080fd5b828101905060208101848111156107b757600080fd5b81518560018202830111640100000000821117156107d457600080fd5b5050929190505050915050919050565b60006001838154811015156107f557fe5b9060005260206000200160009054906101000a900473ffffffffffffffffffffffffffffffffffffffff1690508073ffffffffffffffffffffffffffffffffffffffff16632b5914fe836040518263ffffffff167c01000000000000000000000000000000000000000000000000000000000281526004018080602001828103825283818151815260200191508051906020019080838360005b838110156108aa57808201518184015260208101905061088f565b50505050905090810190601f1680156108d75780820380516001836020036101000a031916815260200191505b5092505050600060405180830381600087803b1580156108f657600080fd5b505af115801561090a573d6000803e3d6000fd5b505050508060018481548110151561091e57fe5b9060005260206000200160006101000a81548173ffffffffffffffffffffffffffffffffffffffff021916908373ffffffffffffffffffffffffffffffffffffffff160217905550505050565b6040516106718061097c8339019056fe60806040526040516106713803806106718339810180604052608081101561002657600080fd5b8101908080519060200190929190805164010000000081111561004857600080fd5b8281019050602081018481111561005e57600080fd5b815185600182028301116401000000008211171561007b57600080fd5b50509291906020018051906020019092919080516401000000008111156100a157600080fd5b828101905060208101848111156100b757600080fd5b81518560018202830111640100000000821117156100d457600080fd5b50509291905050508360008190555082600190805190602001906100f992919061015b565b5081600260006101000a81548173ffffffffffffffffffffffffffffffffffffffff021916908373ffffffffffffffffffffffffffffffffffffffff160217905550806003908051906020019061015192919061015b565b5050505050610200565b828054600181600116156101000203166002900490600052602060002090601f016020900481019282601f1061019c57805160ff19168380011785556101ca565b828001600101855582156101ca579182015b828111156101c95782518255916020019190600101906101ae565b5b5090506101d791906101db565b5090565b6101fd91905b808211156101f95760008160009055506001016101e1565b5090565b90565b6104628061020f6000396000f3fe608060405260043610610062576000357c0100000000000000000000000000000000000000000000000000000000900463ffffffff1680630aa564341461006757806312958f1c146100b85780632b5914fe14610148578063ebc3eee814610210575b600080fd5b34801561007357600080fd5b506100b66004803603602081101561008a57600080fd5b81019080803573ffffffffffffffffffffffffffffffffffffffff169060200190929190505050610267565b005b3480156100c457600080fd5b506100cd6102ab565b6040518080602001828103825283818151815260200191508051906020019080838360005b8381101561010d5780820151818401526020810190506100f2565b50505050905090810190601f16801561013a5780820380516001836020036101000a031916815260200191505b509250505060405180910390f35b34801561015457600080fd5b5061020e6004803603602081101561016b57600080fd5b810190808035906020019064010000000081111561018857600080fd5b82018360208201111561019a57600080fd5b803590602001918460018302840111640100000000831117156101bc57600080fd5b91908080601f016020809104026020016040519081016040528093929190818152602001838380828437600081840152601f19601f82011690508083019250505050505050919291929050505061034d565b005b34801561021c57600080fd5b50610225610367565b604051808273ffffffffffffffffffffffffffffffffffffffff1673ffffffffffffffffffffffffffffffffffffffff16815260200191505060405180910390f35b80600260006101000a81548173ffffffffffffffffffffffffffffffffffffffff021916908373ffffffffffffffffffffffffffffffffffffffff16021790555050565b606060018054600181600116156101000203166002900480601f0160208091040260200160405190810160405280929190818152602001828054600181600116156101000203166002900480156103435780601f1061031857610100808354040283529160200191610343565b820191906000526020600020905b81548152906001019060200180831161032657829003601f168201915b5050505050905090565b8060019080519060200190610363929190610391565b5050565b6000600260009054906101000a900473ffffffffffffffffffffffffffffffffffffffff16905090565b828054600181600116156101000203166002900490600052602060002090601f016020900481019282601f106103d257805160ff1916838001178555610400565b82800160010185558215610400579182015b828111156103ff5782518255916020019190600101906103e4565b5b50905061040d9190610411565b5090565b61043391905b8082111561042f576000816000905550600101610417565b5090565b9056fea165627a7a7230582025d4a0ea3b298c605b825ec5f2c2071b839e859ffa11b36a60911ee1f7c238550029a165627a7a72305820871274b4e6b6bea1223c76e89345a9c2854bec12aaec4c1a47679ca82d08faad0029",
  "source": "pragma solidity ^0.5.0;\r\nimport \"./User.sol\";\r\n\r\ncontract UserCrud{\r\n\r\n    uint private totalUser;\r\n    User[] private users;\r\n\r\n    constructor() public{\r\n        totalUser = 0;\r\n    }\r\n\r\n    //////////////////////////-----------Function-------------//////////////////////////\r\n\r\n    function create(string memory _userName, address payable _userAddress) public {\r\n        //increase number of users in storage\r\n        totalUser++;\r\n        //create new user by calling constructor of User\r\n        User user = new User(totalUser, _userName,  _userAddress, \"User\");\r\n        //push it to users list\r\n        users.push(user);\r\n        //emit event\r\n        emit UserCreated(totalUser, _userName, _userAddress, \"User\");\r\n    }\r\n\r\n    function getById(uint _id) public view returns (string memory) {\r\n\r\n        User user = users[_id];\r\n\r\n        return (user.getUserName());\r\n\r\n    }\r\n    //view keyword\r\n    function getTotalUser() public view returns (uint256 length){\r\n        return users.length;\r\n    }\r\n\r\n    function update(uint _id, string memory _userName) public {\r\n        User user = users[_id];\r\n        //update the clone\r\n        user.setUserName(_userName);\r\n\r\n        users[_id] = user;\r\n    }\r\n\r\n    function sayHello(uint _id) public returns(string memory) {\r\n        return \"hello\";\r\n    }\r\n\r\n    //////////////////////////-----------Event-------------//////////////////////////\r\n\r\n    event UserCreated(uint id, string userName, address payable userAddress, string role);\r\n\r\n\r\n}\r\n",
  "sourcePath": "C:/Users/Ho Tat Dat Nguyen/Documents/GitHub/todo-list-react/src/contracts/UserCrud.sol",
  "compiler": {
    "name": "solc",
    "version": "0.5.0+commit.1d4f565a.Emscripten.clang"
  },
  "schemaVersion": "3.0.2",
  "updatedAt": "2020-09-01T15:26:42.568Z",
  "devdoc": {
    "methods": {}
  },
  "userdoc": {
    "methods": {
      "create(string,address)": {
        "notice": "///////////////////////-----------Function-------------//////////////////////////"
      }
    }
  }
}